{
	"web3/contracts/W3CBBadgeNFT.sol": {
		"W3CBBadgeNFT": {
			"abi": [
				{
					"inputs": [
						{
							"internalType": "string",
							"name": "_name",
							"type": "string"
						},
						{
							"internalType": "string",
							"name": "_symbol",
							"type": "string"
						}
					],
					"stateMutability": "nonpayable",
					"type": "constructor"
				},
				{
					"anonymous": false,
					"inputs": [
						{
							"indexed": true,
							"internalType": "address",
							"name": "owner",
							"type": "address"
						},
						{
							"indexed": true,
							"internalType": "address",
							"name": "approved",
							"type": "address"
						},
						{
							"indexed": true,
							"internalType": "uint256",
							"name": "tokenId",
							"type": "uint256"
						}
					],
					"name": "Approval",
					"type": "event"
				},
				{
					"anonymous": false,
					"inputs": [
						{
							"indexed": true,
							"internalType": "address",
							"name": "owner",
							"type": "address"
						},
						{
							"indexed": true,
							"internalType": "address",
							"name": "operator",
							"type": "address"
						},
						{
							"indexed": false,
							"internalType": "bool",
							"name": "approved",
							"type": "bool"
						}
					],
					"name": "ApprovalForAll",
					"type": "event"
				},
				{
					"anonymous": false,
					"inputs": [
						{
							"indexed": true,
							"internalType": "address",
							"name": "from",
							"type": "address"
						},
						{
							"indexed": true,
							"internalType": "address",
							"name": "to",
							"type": "address"
						},
						{
							"indexed": true,
							"internalType": "uint256",
							"name": "tokenId",
							"type": "uint256"
						}
					],
					"name": "Transfer",
					"type": "event"
				},
				{
					"inputs": [
						{
							"internalType": "address",
							"name": "to",
							"type": "address"
						},
						{
							"internalType": "uint256",
							"name": "tokenId",
							"type": "uint256"
						}
					],
					"name": "approve",
					"outputs": [],
					"stateMutability": "nonpayable",
					"type": "function"
				},
				{
					"inputs": [
						{
							"internalType": "address",
							"name": "owner",
							"type": "address"
						}
					],
					"name": "balanceOf",
					"outputs": [
						{
							"internalType": "uint256",
							"name": "",
							"type": "uint256"
						}
					],
					"stateMutability": "view",
					"type": "function"
				},
				{
					"inputs": [
						{
							"internalType": "uint256",
							"name": "tokenId",
							"type": "uint256"
						}
					],
					"name": "getApproved",
					"outputs": [
						{
							"internalType": "address",
							"name": "",
							"type": "address"
						}
					],
					"stateMutability": "view",
					"type": "function"
				},
				{
					"inputs": [
						{
							"internalType": "address",
							"name": "owner",
							"type": "address"
						},
						{
							"internalType": "address",
							"name": "operator",
							"type": "address"
						}
					],
					"name": "isApprovedForAll",
					"outputs": [
						{
							"internalType": "bool",
							"name": "",
							"type": "bool"
						}
					],
					"stateMutability": "view",
					"type": "function"
				},
				{
					"inputs": [
						{
							"internalType": "address",
							"name": "to",
							"type": "address"
						},
						{
							"internalType": "string",
							"name": "uri",
							"type": "string"
						}
					],
					"name": "mint",
					"outputs": [],
					"stateMutability": "nonpayable",
					"type": "function"
				},
				{
					"inputs": [],
					"name": "name",
					"outputs": [
						{
							"internalType": "string",
							"name": "",
							"type": "string"
						}
					],
					"stateMutability": "view",
					"type": "function"
				},
				{
					"inputs": [
						{
							"internalType": "uint256",
							"name": "tokenId",
							"type": "uint256"
						}
					],
					"name": "ownerOf",
					"outputs": [
						{
							"internalType": "address",
							"name": "",
							"type": "address"
						}
					],
					"stateMutability": "view",
					"type": "function"
				},
				{
					"inputs": [
						{
							"internalType": "address",
							"name": "operator",
							"type": "address"
						},
						{
							"internalType": "bool",
							"name": "approved",
							"type": "bool"
						}
					],
					"name": "setApprovalForAll",
					"outputs": [],
					"stateMutability": "nonpayable",
					"type": "function"
				},
				{
					"inputs": [],
					"name": "symbol",
					"outputs": [
						{
							"internalType": "string",
							"name": "",
							"type": "string"
						}
					],
					"stateMutability": "view",
					"type": "function"
				},
				{
					"inputs": [
						{
							"internalType": "uint256",
							"name": "tokenId",
							"type": "uint256"
						}
					],
					"name": "tokenURI",
					"outputs": [
						{
							"internalType": "string",
							"name": "",
							"type": "string"
						}
					],
					"stateMutability": "view",
					"type": "function"
				},
				{
					"inputs": [
						{
							"internalType": "address",
							"name": "from",
							"type": "address"
						},
						{
							"internalType": "address",
							"name": "to",
							"type": "address"
						},
						{
							"internalType": "uint256",
							"name": "tokenId",
							"type": "uint256"
						}
					],
					"name": "transferFrom",
					"outputs": [],
					"stateMutability": "nonpayable",
					"type": "function"
				}
			],
			"devdoc": {
				"kind": "dev",
				"methods": {},
				"version": 1
			},
			"evm": {
				"assembly": "    /* \"web3/contracts/W3CBBadgeNFT.sol\":61:4789  contract W3CBBadgeNFT {... */\n  mstore(0x40, 0x80)\n    /* \"web3/contracts/W3CBBadgeNFT.sol\":769:770  0 */\n  0x00\n    /* \"web3/contracts/W3CBBadgeNFT.sol\":739:770  uint256 private _tokenCount = 0 */\n  0x07\n  sstore\n    /* \"web3/contracts/W3CBBadgeNFT.sol\":1104:1218  constructor(string memory _name, string memory _symbol) {... */\n  callvalue\n  dup1\n  iszero\n  tag_1\n  jumpi\n  0x00\n  dup1\n  revert\ntag_1:\n  pop\n  mload(0x40)\n  sub(codesize, bytecodeSize)\n  dup1\n  bytecodeSize\n  dup4\n  codecopy\n  dup2\n  dup2\n  add\n  0x40\n  mstore\n  dup2\n  add\n  swap1\n  tag_2\n  swap2\n  swap1\n  tag_3\n  jump\t// in\ntag_2:\n    /* \"web3/contracts/W3CBBadgeNFT.sol\":1178:1183  _name */\n  dup2\n    /* \"web3/contracts/W3CBBadgeNFT.sol\":1171:1175  name */\n  0x00\n    /* \"web3/contracts/W3CBBadgeNFT.sol\":1171:1183  name = _name */\n  swap1\n  dup2\n  tag_6\n  swap2\n  swap1\n  tag_7\n  jump\t// in\ntag_6:\n  pop\n    /* \"web3/contracts/W3CBBadgeNFT.sol\":1203:1210  _symbol */\n  dup1\n    /* \"web3/contracts/W3CBBadgeNFT.sol\":1194:1200  symbol */\n  0x01\n    /* \"web3/contracts/W3CBBadgeNFT.sol\":1194:1210  symbol = _symbol */\n  swap1\n  dup2\n  tag_8\n  swap2\n  swap1\n  tag_7\n  jump\t// in\ntag_8:\n  pop\n    /* \"web3/contracts/W3CBBadgeNFT.sol\":1104:1218  constructor(string memory _name, string memory _symbol) {... */\n  pop\n  pop\n    /* \"web3/contracts/W3CBBadgeNFT.sol\":61:4789  contract W3CBBadgeNFT {... */\n  jump(tag_9)\n    /* \"#utility.yul\":7:82   */\ntag_10:\n    /* \"#utility.yul\":40:46   */\n  0x00\n    /* \"#utility.yul\":73:75   */\n  0x40\n    /* \"#utility.yul\":67:76   */\n  mload\n    /* \"#utility.yul\":57:76   */\n  swap1\n  pop\n    /* \"#utility.yul\":7:82   */\n  swap1\n  jump\t// out\n    /* \"#utility.yul\":88:205   */\ntag_11:\n    /* \"#utility.yul\":197:198   */\n  0x00\n    /* \"#utility.yul\":194:195   */\n  dup1\n    /* \"#utility.yul\":187:199   */\n  revert\n    /* \"#utility.yul\":211:328   */\ntag_12:\n    /* \"#utility.yul\":320:321   */\n  0x00\n    /* \"#utility.yul\":317:318   */\n  dup1\n    /* \"#utility.yul\":310:322   */\n  revert\n    /* \"#utility.yul\":334:451   */\ntag_13:\n    /* \"#utility.yul\":443:444   */\n  0x00\n    /* \"#utility.yul\":440:441   */\n  dup1\n    /* \"#utility.yul\":433:445   */\n  revert\n    /* \"#utility.yul\":457:574   */\ntag_14:\n    /* \"#utility.yul\":566:567   */\n  0x00\n    /* \"#utility.yul\":563:564   */\n  dup1\n    /* \"#utility.yul\":556:568   */\n  revert\n    /* \"#utility.yul\":580:682   */\ntag_15:\n    /* \"#utility.yul\":621:627   */\n  0x00\n    /* \"#utility.yul\":672:674   */\n  0x1f\n    /* \"#utility.yul\":668:675   */\n  not\n    /* \"#utility.yul\":663:665   */\n  0x1f\n    /* \"#utility.yul\":656:661   */\n  dup4\n    /* \"#utility.yul\":652:666   */\n  add\n    /* \"#utility.yul\":648:676   */\n  and\n    /* \"#utility.yul\":638:676   */\n  swap1\n  pop\n    /* \"#utility.yul\":580:682   */\n  swap2\n  swap1\n  pop\n  jump\t// out\n    /* \"#utility.yul\":688:868   */\ntag_16:\n    /* \"#utility.yul\":736:813   */\n  0x4e487b7100000000000000000000000000000000000000000000000000000000\n    /* \"#utility.yul\":733:734   */\n  0x00\n    /* \"#utility.yul\":726:814   */\n  mstore\n    /* \"#utility.yul\":833:837   */\n  0x41\n    /* \"#utility.yul\":830:831   */\n  0x04\n    /* \"#utility.yul\":823:838   */\n  mstore\n    /* \"#utility.yul\":857:861   */\n  0x24\n    /* \"#utility.yul\":854:855   */\n  0x00\n    /* \"#utility.yul\":847:862   */\n  revert\n    /* \"#utility.yul\":874:1155   */\ntag_17:\n    /* \"#utility.yul\":957:984   */\n  tag_51\n    /* \"#utility.yul\":979:983   */\n  dup3\n    /* \"#utility.yul\":957:984   */\n  tag_15\n  jump\t// in\ntag_51:\n    /* \"#utility.yul\":949:955   */\n  dup2\n    /* \"#utility.yul\":945:985   */\n  add\n    /* \"#utility.yul\":1087:1093   */\n  dup2\n    /* \"#utility.yul\":1075:1085   */\n  dup2\n    /* \"#utility.yul\":1072:1094   */\n  lt\n    /* \"#utility.yul\":1051:1069   */\n  0xffffffffffffffff\n    /* \"#utility.yul\":1039:1049   */\n  dup3\n    /* \"#utility.yul\":1036:1070   */\n  gt\n    /* \"#utility.yul\":1033:1095   */\n  or\n    /* \"#utility.yul\":1030:1118   */\n  iszero\n  tag_52\n  jumpi\n    /* \"#utility.yul\":1098:1116   */\n  tag_53\n  tag_16\n  jump\t// in\ntag_53:\n    /* \"#utility.yul\":1030:1118   */\ntag_52:\n    /* \"#utility.yul\":1138:1148   */\n  dup1\n    /* \"#utility.yul\":1134:1136   */\n  0x40\n    /* \"#utility.yul\":1127:1149   */\n  mstore\n    /* \"#utility.yul\":917:1155   */\n  pop\n    /* \"#utility.yul\":874:1155   */\n  pop\n  pop\n  jump\t// out\n    /* \"#utility.yul\":1161:1290   */\ntag_18:\n    /* \"#utility.yul\":1195:1201   */\n  0x00\n    /* \"#utility.yul\":1222:1242   */\n  tag_55\n  tag_10\n  jump\t// in\ntag_55:\n    /* \"#utility.yul\":1212:1242   */\n  swap1\n  pop\n    /* \"#utility.yul\":1251:1284   */\n  tag_56\n    /* \"#utility.yul\":1279:1283   */\n  dup3\n    /* \"#utility.yul\":1271:1277   */\n  dup3\n    /* \"#utility.yul\":1251:1284   */\n  tag_17\n  jump\t// in\ntag_56:\n    /* \"#utility.yul\":1161:1290   */\n  swap2\n  swap1\n  pop\n  jump\t// out\n    /* \"#utility.yul\":1296:1604   */\ntag_19:\n    /* \"#utility.yul\":1358:1362   */\n  0x00\n    /* \"#utility.yul\":1448:1466   */\n  0xffffffffffffffff\n    /* \"#utility.yul\":1440:1446   */\n  dup3\n    /* \"#utility.yul\":1437:1467   */\n  gt\n    /* \"#utility.yul\":1434:1490   */\n  iszero\n  tag_58\n  jumpi\n    /* \"#utility.yul\":1470:1488   */\n  tag_59\n  tag_16\n  jump\t// in\ntag_59:\n    /* \"#utility.yul\":1434:1490   */\ntag_58:\n    /* \"#utility.yul\":1508:1537   */\n  tag_60\n    /* \"#utility.yul\":1530:1536   */\n  dup3\n    /* \"#utility.yul\":1508:1537   */\n  tag_15\n  jump\t// in\ntag_60:\n    /* \"#utility.yul\":1500:1537   */\n  swap1\n  pop\n    /* \"#utility.yul\":1592:1596   */\n  0x20\n    /* \"#utility.yul\":1586:1590   */\n  dup2\n    /* \"#utility.yul\":1582:1597   */\n  add\n    /* \"#utility.yul\":1574:1597   */\n  swap1\n  pop\n    /* \"#utility.yul\":1296:1604   */\n  swap2\n  swap1\n  pop\n  jump\t// out\n    /* \"#utility.yul\":1610:1856   */\ntag_20:\n    /* \"#utility.yul\":1691:1692   */\n  0x00\n    /* \"#utility.yul\":1701:1814   */\ntag_62:\n    /* \"#utility.yul\":1715:1721   */\n  dup4\n    /* \"#utility.yul\":1712:1713   */\n  dup2\n    /* \"#utility.yul\":1709:1722   */\n  lt\n    /* \"#utility.yul\":1701:1814   */\n  iszero\n  tag_64\n  jumpi\n    /* \"#utility.yul\":1800:1801   */\n  dup1\n    /* \"#utility.yul\":1795:1798   */\n  dup3\n    /* \"#utility.yul\":1791:1802   */\n  add\n    /* \"#utility.yul\":1785:1803   */\n  mload\n    /* \"#utility.yul\":1781:1782   */\n  dup2\n    /* \"#utility.yul\":1776:1779   */\n  dup5\n    /* \"#utility.yul\":1772:1783   */\n  add\n    /* \"#utility.yul\":1765:1804   */\n  mstore\n    /* \"#utility.yul\":1737:1739   */\n  0x20\n    /* \"#utility.yul\":1734:1735   */\n  dup2\n    /* \"#utility.yul\":1730:1740   */\n  add\n    /* \"#utility.yul\":1725:1740   */\n  swap1\n  pop\n    /* \"#utility.yul\":1701:1814   */\n  jump(tag_62)\ntag_64:\n    /* \"#utility.yul\":1848:1849   */\n  0x00\n    /* \"#utility.yul\":1839:1845   */\n  dup5\n    /* \"#utility.yul\":1834:1837   */\n  dup5\n    /* \"#utility.yul\":1830:1846   */\n  add\n    /* \"#utility.yul\":1823:1850   */\n  mstore\n    /* \"#utility.yul\":1672:1856   */\n  pop\n    /* \"#utility.yul\":1610:1856   */\n  pop\n  pop\n  pop\n  jump\t// out\n    /* \"#utility.yul\":1862:2296   */\ntag_21:\n    /* \"#utility.yul\":1951:1956   */\n  0x00\n    /* \"#utility.yul\":1976:2042   */\n  tag_66\n    /* \"#utility.yul\":1992:2041   */\n  tag_67\n    /* \"#utility.yul\":2034:2040   */\n  dup5\n    /* \"#utility.yul\":1992:2041   */\n  tag_19\n  jump\t// in\ntag_67:\n    /* \"#utility.yul\":1976:2042   */\n  tag_18\n  jump\t// in\ntag_66:\n    /* \"#utility.yul\":1967:2042   */\n  swap1\n  pop\n    /* \"#utility.yul\":2065:2071   */\n  dup3\n    /* \"#utility.yul\":2058:2063   */\n  dup2\n    /* \"#utility.yul\":2051:2072   */\n  mstore\n    /* \"#utility.yul\":2103:2107   */\n  0x20\n    /* \"#utility.yul\":2096:2101   */\n  dup2\n    /* \"#utility.yul\":2092:2108   */\n  add\n    /* \"#utility.yul\":2141:2144   */\n  dup5\n    /* \"#utility.yul\":2132:2138   */\n  dup5\n    /* \"#utility.yul\":2127:2130   */\n  dup5\n    /* \"#utility.yul\":2123:2139   */\n  add\n    /* \"#utility.yul\":2120:2145   */\n  gt\n    /* \"#utility.yul\":2117:2229   */\n  iszero\n  tag_68\n  jumpi\n    /* \"#utility.yul\":2148:2227   */\n  tag_69\n  tag_14\n  jump\t// in\ntag_69:\n    /* \"#utility.yul\":2117:2229   */\ntag_68:\n    /* \"#utility.yul\":2238:2290   */\n  tag_70\n    /* \"#utility.yul\":2283:2289   */\n  dup5\n    /* \"#utility.yul\":2278:2281   */\n  dup3\n    /* \"#utility.yul\":2273:2276   */\n  dup6\n    /* \"#utility.yul\":2238:2290   */\n  tag_20\n  jump\t// in\ntag_70:\n    /* \"#utility.yul\":1957:2296   */\n  pop\n    /* \"#utility.yul\":1862:2296   */\n  swap4\n  swap3\n  pop\n  pop\n  pop\n  jump\t// out\n    /* \"#utility.yul\":2316:2671   */\ntag_22:\n    /* \"#utility.yul\":2383:2388   */\n  0x00\n    /* \"#utility.yul\":2432:2435   */\n  dup3\n    /* \"#utility.yul\":2425:2429   */\n  0x1f\n    /* \"#utility.yul\":2417:2423   */\n  dup4\n    /* \"#utility.yul\":2413:2430   */\n  add\n    /* \"#utility.yul\":2409:2436   */\n  slt\n    /* \"#utility.yul\":2399:2521   */\n  tag_72\n  jumpi\n    /* \"#utility.yul\":2440:2519   */\n  tag_73\n  tag_13\n  jump\t// in\ntag_73:\n    /* \"#utility.yul\":2399:2521   */\ntag_72:\n    /* \"#utility.yul\":2550:2556   */\n  dup2\n    /* \"#utility.yul\":2544:2557   */\n  mload\n    /* \"#utility.yul\":2575:2665   */\n  tag_74\n    /* \"#utility.yul\":2661:2664   */\n  dup5\n    /* \"#utility.yul\":2653:2659   */\n  dup3\n    /* \"#utility.yul\":2646:2650   */\n  0x20\n    /* \"#utility.yul\":2638:2644   */\n  dup7\n    /* \"#utility.yul\":2634:2651   */\n  add\n    /* \"#utility.yul\":2575:2665   */\n  tag_21\n  jump\t// in\ntag_74:\n    /* \"#utility.yul\":2566:2665   */\n  swap2\n  pop\n    /* \"#utility.yul\":2389:2671   */\n  pop\n    /* \"#utility.yul\":2316:2671   */\n  swap3\n  swap2\n  pop\n  pop\n  jump\t// out\n    /* \"#utility.yul\":2677:3530   */\ntag_3:\n    /* \"#utility.yul\":2776:2782   */\n  0x00\n    /* \"#utility.yul\":2784:2790   */\n  dup1\n    /* \"#utility.yul\":2833:2835   */\n  0x40\n    /* \"#utility.yul\":2821:2830   */\n  dup4\n    /* \"#utility.yul\":2812:2819   */\n  dup6\n    /* \"#utility.yul\":2808:2831   */\n  sub\n    /* \"#utility.yul\":2804:2836   */\n  slt\n    /* \"#utility.yul\":2801:2920   */\n  iszero\n  tag_76\n  jumpi\n    /* \"#utility.yul\":2839:2918   */\n  tag_77\n  tag_11\n  jump\t// in\ntag_77:\n    /* \"#utility.yul\":2801:2920   */\ntag_76:\n    /* \"#utility.yul\":2980:2981   */\n  0x00\n    /* \"#utility.yul\":2969:2978   */\n  dup4\n    /* \"#utility.yul\":2965:2982   */\n  add\n    /* \"#utility.yul\":2959:2983   */\n  mload\n    /* \"#utility.yul\":3010:3028   */\n  0xffffffffffffffff\n    /* \"#utility.yul\":3002:3008   */\n  dup2\n    /* \"#utility.yul\":2999:3029   */\n  gt\n    /* \"#utility.yul\":2996:3113   */\n  iszero\n  tag_78\n  jumpi\n    /* \"#utility.yul\":3032:3111   */\n  tag_79\n  tag_12\n  jump\t// in\ntag_79:\n    /* \"#utility.yul\":2996:3113   */\ntag_78:\n    /* \"#utility.yul\":3137:3211   */\n  tag_80\n    /* \"#utility.yul\":3203:3210   */\n  dup6\n    /* \"#utility.yul\":3194:3200   */\n  dup3\n    /* \"#utility.yul\":3183:3192   */\n  dup7\n    /* \"#utility.yul\":3179:3201   */\n  add\n    /* \"#utility.yul\":3137:3211   */\n  tag_22\n  jump\t// in\ntag_80:\n    /* \"#utility.yul\":3127:3211   */\n  swap3\n  pop\n    /* \"#utility.yul\":2930:3221   */\n  pop\n    /* \"#utility.yul\":3281:3283   */\n  0x20\n    /* \"#utility.yul\":3270:3279   */\n  dup4\n    /* \"#utility.yul\":3266:3284   */\n  add\n    /* \"#utility.yul\":3260:3285   */\n  mload\n    /* \"#utility.yul\":3312:3330   */\n  0xffffffffffffffff\n    /* \"#utility.yul\":3304:3310   */\n  dup2\n    /* \"#utility.yul\":3301:3331   */\n  gt\n    /* \"#utility.yul\":3298:3415   */\n  iszero\n  tag_81\n  jumpi\n    /* \"#utility.yul\":3334:3413   */\n  tag_82\n  tag_12\n  jump\t// in\ntag_82:\n    /* \"#utility.yul\":3298:3415   */\ntag_81:\n    /* \"#utility.yul\":3439:3513   */\n  tag_83\n    /* \"#utility.yul\":3505:3512   */\n  dup6\n    /* \"#utility.yul\":3496:3502   */\n  dup3\n    /* \"#utility.yul\":3485:3494   */\n  dup7\n    /* \"#utility.yul\":3481:3503   */\n  add\n    /* \"#utility.yul\":3439:3513   */\n  tag_22\n  jump\t// in\ntag_83:\n    /* \"#utility.yul\":3429:3513   */\n  swap2\n  pop\n    /* \"#utility.yul\":3231:3523   */\n  pop\n    /* \"#utility.yul\":2677:3530   */\n  swap3\n  pop\n  swap3\n  swap1\n  pop\n  jump\t// out\n    /* \"#utility.yul\":3536:3635   */\ntag_23:\n    /* \"#utility.yul\":3588:3594   */\n  0x00\n    /* \"#utility.yul\":3622:3627   */\n  dup2\n    /* \"#utility.yul\":3616:3628   */\n  mload\n    /* \"#utility.yul\":3606:3628   */\n  swap1\n  pop\n    /* \"#utility.yul\":3536:3635   */\n  swap2\n  swap1\n  pop\n  jump\t// out\n    /* \"#utility.yul\":3641:3821   */\ntag_24:\n    /* \"#utility.yul\":3689:3766   */\n  0x4e487b7100000000000000000000000000000000000000000000000000000000\n    /* \"#utility.yul\":3686:3687   */\n  0x00\n    /* \"#utility.yul\":3679:3767   */\n  mstore\n    /* \"#utility.yul\":3786:3790   */\n  0x22\n    /* \"#utility.yul\":3783:3784   */\n  0x04\n    /* \"#utility.yul\":3776:3791   */\n  mstore\n    /* \"#utility.yul\":3810:3814   */\n  0x24\n    /* \"#utility.yul\":3807:3808   */\n  0x00\n    /* \"#utility.yul\":3800:3815   */\n  revert\n    /* \"#utility.yul\":3827:4147   */\ntag_25:\n    /* \"#utility.yul\":3871:3877   */\n  0x00\n    /* \"#utility.yul\":3908:3909   */\n  0x02\n    /* \"#utility.yul\":3902:3906   */\n  dup3\n    /* \"#utility.yul\":3898:3910   */\n  div\n    /* \"#utility.yul\":3888:3910   */\n  swap1\n  pop\n    /* \"#utility.yul\":3955:3956   */\n  0x01\n    /* \"#utility.yul\":3949:3953   */\n  dup3\n    /* \"#utility.yul\":3945:3957   */\n  and\n    /* \"#utility.yul\":3976:3994   */\n  dup1\n    /* \"#utility.yul\":3966:4047   */\n  tag_87\n  jumpi\n    /* \"#utility.yul\":4032:4036   */\n  0x7f\n    /* \"#utility.yul\":4024:4030   */\n  dup3\n    /* \"#utility.yul\":4020:4037   */\n  and\n    /* \"#utility.yul\":4010:4037   */\n  swap2\n  pop\n    /* \"#utility.yul\":3966:4047   */\ntag_87:\n    /* \"#utility.yul\":4094:4096   */\n  0x20\n    /* \"#utility.yul\":4086:4092   */\n  dup3\n    /* \"#utility.yul\":4083:4097   */\n  lt\n    /* \"#utility.yul\":4063:4081   */\n  dup2\n    /* \"#utility.yul\":4060:4098   */\n  sub\n    /* \"#utility.yul\":4057:4141   */\n  tag_88\n  jumpi\n    /* \"#utility.yul\":4113:4131   */\n  tag_89\n  tag_24\n  jump\t// in\ntag_89:\n    /* \"#utility.yul\":4057:4141   */\ntag_88:\n    /* \"#utility.yul\":3878:4147   */\n  pop\n    /* \"#utility.yul\":3827:4147   */\n  swap2\n  swap1\n  pop\n  jump\t// out\n    /* \"#utility.yul\":4153:4294   */\ntag_26:\n    /* \"#utility.yul\":4202:4206   */\n  0x00\n    /* \"#utility.yul\":4225:4228   */\n  dup2\n    /* \"#utility.yul\":4217:4228   */\n  swap1\n  pop\n    /* \"#utility.yul\":4248:4251   */\n  dup2\n    /* \"#utility.yul\":4245:4246   */\n  0x00\n    /* \"#utility.yul\":4238:4252   */\n  mstore\n    /* \"#utility.yul\":4282:4286   */\n  0x20\n    /* \"#utility.yul\":4279:4280   */\n  0x00\n    /* \"#utility.yul\":4269:4287   */\n  keccak256\n    /* \"#utility.yul\":4261:4287   */\n  swap1\n  pop\n    /* \"#utility.yul\":4153:4294   */\n  swap2\n  swap1\n  pop\n  jump\t// out\n    /* \"#utility.yul\":4300:4393   */\ntag_27:\n    /* \"#utility.yul\":4337:4343   */\n  0x00\n    /* \"#utility.yul\":4384:4386   */\n  0x20\n    /* \"#utility.yul\":4379:4381   */\n  0x1f\n    /* \"#utility.yul\":4372:4377   */\n  dup4\n    /* \"#utility.yul\":4368:4382   */\n  add\n    /* \"#utility.yul\":4364:4387   */\n  div\n    /* \"#utility.yul\":4354:4387   */\n  swap1\n  pop\n    /* \"#utility.yul\":4300:4393   */\n  swap2\n  swap1\n  pop\n  jump\t// out\n    /* \"#utility.yul\":4399:4506   */\ntag_28:\n    /* \"#utility.yul\":4443:4451   */\n  0x00\n    /* \"#utility.yul\":4493:4498   */\n  dup3\n    /* \"#utility.yul\":4487:4491   */\n  dup3\n    /* \"#utility.yul\":4483:4499   */\n  shl\n    /* \"#utility.yul\":4462:4499   */\n  swap1\n  pop\n    /* \"#utility.yul\":4399:4506   */\n  swap3\n  swap2\n  pop\n  pop\n  jump\t// out\n    /* \"#utility.yul\":4512:4905   */\ntag_29:\n    /* \"#utility.yul\":4581:4587   */\n  0x00\n    /* \"#utility.yul\":4631:4632   */\n  0x08\n    /* \"#utility.yul\":4619:4629   */\n  dup4\n    /* \"#utility.yul\":4615:4633   */\n  mul\n    /* \"#utility.yul\":4654:4751   */\n  tag_94\n    /* \"#utility.yul\":4684:4750   */\n  0xffffffffffffffffffffffffffffffffffffffffffffffffffffffffffffffff\n    /* \"#utility.yul\":4673:4682   */\n  dup3\n    /* \"#utility.yul\":4654:4751   */\n  tag_28\n  jump\t// in\ntag_94:\n    /* \"#utility.yul\":4772:4811   */\n  tag_95\n    /* \"#utility.yul\":4802:4810   */\n  dup7\n    /* \"#utility.yul\":4791:4800   */\n  dup4\n    /* \"#utility.yul\":4772:4811   */\n  tag_28\n  jump\t// in\ntag_95:\n    /* \"#utility.yul\":4760:4811   */\n  swap6\n  pop\n    /* \"#utility.yul\":4844:4848   */\n  dup1\n    /* \"#utility.yul\":4840:4849   */\n  not\n    /* \"#utility.yul\":4833:4838   */\n  dup5\n    /* \"#utility.yul\":4829:4850   */\n  and\n    /* \"#utility.yul\":4820:4850   */\n  swap4\n  pop\n    /* \"#utility.yul\":4893:4897   */\n  dup1\n    /* \"#utility.yul\":4883:4891   */\n  dup7\n    /* \"#utility.yul\":4879:4898   */\n  and\n    /* \"#utility.yul\":4872:4877   */\n  dup5\n    /* \"#utility.yul\":4869:4899   */\n  or\n    /* \"#utility.yul\":4859:4899   */\n  swap3\n  pop\n    /* \"#utility.yul\":4588:4905   */\n  pop\n  pop\n    /* \"#utility.yul\":4512:4905   */\n  swap4\n  swap3\n  pop\n  pop\n  pop\n  jump\t// out\n    /* \"#utility.yul\":4911:4988   */\ntag_30:\n    /* \"#utility.yul\":4948:4955   */\n  0x00\n    /* \"#utility.yul\":4977:4982   */\n  dup2\n    /* \"#utility.yul\":4966:4982   */\n  swap1\n  pop\n    /* \"#utility.yul\":4911:4988   */\n  swap2\n  swap1\n  pop\n  jump\t// out\n    /* \"#utility.yul\":4994:5054   */\ntag_31:\n    /* \"#utility.yul\":5022:5025   */\n  0x00\n    /* \"#utility.yul\":5043:5048   */\n  dup2\n    /* \"#utility.yul\":5036:5048   */\n  swap1\n  pop\n    /* \"#utility.yul\":4994:5054   */\n  swap2\n  swap1\n  pop\n  jump\t// out\n    /* \"#utility.yul\":5060:5202   */\ntag_32:\n    /* \"#utility.yul\":5110:5119   */\n  0x00\n    /* \"#utility.yul\":5143:5196   */\n  tag_99\n    /* \"#utility.yul\":5161:5195   */\n  tag_100\n    /* \"#utility.yul\":5170:5194   */\n  tag_101\n    /* \"#utility.yul\":5188:5193   */\n  dup5\n    /* \"#utility.yul\":5170:5194   */\n  tag_30\n  jump\t// in\ntag_101:\n    /* \"#utility.yul\":5161:5195   */\n  tag_31\n  jump\t// in\ntag_100:\n    /* \"#utility.yul\":5143:5196   */\n  tag_30\n  jump\t// in\ntag_99:\n    /* \"#utility.yul\":5130:5196   */\n  swap1\n  pop\n    /* \"#utility.yul\":5060:5202   */\n  swap2\n  swap1\n  pop\n  jump\t// out\n    /* \"#utility.yul\":5208:5283   */\ntag_33:\n    /* \"#utility.yul\":5251:5254   */\n  0x00\n    /* \"#utility.yul\":5272:5277   */\n  dup2\n    /* \"#utility.yul\":5265:5277   */\n  swap1\n  pop\n    /* \"#utility.yul\":5208:5283   */\n  swap2\n  swap1\n  pop\n  jump\t// out\n    /* \"#utility.yul\":5289:5558   */\ntag_34:\n    /* \"#utility.yul\":5399:5438   */\n  tag_104\n    /* \"#utility.yul\":5430:5437   */\n  dup4\n    /* \"#utility.yul\":5399:5438   */\n  tag_32\n  jump\t// in\ntag_104:\n    /* \"#utility.yul\":5460:5551   */\n  tag_105\n    /* \"#utility.yul\":5509:5550   */\n  tag_106\n    /* \"#utility.yul\":5533:5549   */\n  dup3\n    /* \"#utility.yul\":5509:5550   */\n  tag_33\n  jump\t// in\ntag_106:\n    /* \"#utility.yul\":5501:5507   */\n  dup5\n    /* \"#utility.yul\":5494:5498   */\n  dup5\n    /* \"#utility.yul\":5488:5499   */\n  sload\n    /* \"#utility.yul\":5460:5551   */\n  tag_29\n  jump\t// in\ntag_105:\n    /* \"#utility.yul\":5454:5458   */\n  dup3\n    /* \"#utility.yul\":5447:5552   */\n  sstore\n    /* \"#utility.yul\":5365:5558   */\n  pop\n    /* \"#utility.yul\":5289:5558   */\n  pop\n  pop\n  pop\n  jump\t// out\n    /* \"#utility.yul\":5564:5637   */\ntag_35:\n    /* \"#utility.yul\":5609:5612   */\n  0x00\n    /* \"#utility.yul\":5564:5637   */\n  swap1\n  jump\t// out\n    /* \"#utility.yul\":5643:5832   */\ntag_36:\n    /* \"#utility.yul\":5720:5752   */\n  tag_109\n  tag_35\n  jump\t// in\ntag_109:\n    /* \"#utility.yul\":5761:5826   */\n  tag_110\n    /* \"#utility.yul\":5819:5825   */\n  dup2\n    /* \"#utility.yul\":5811:5817   */\n  dup5\n    /* \"#utility.yul\":5805:5809   */\n  dup5\n    /* \"#utility.yul\":5761:5826   */\n  tag_34\n  jump\t// in\ntag_110:\n    /* \"#utility.yul\":5696:5832   */\n  pop\n    /* \"#utility.yul\":5643:5832   */\n  pop\n  pop\n  jump\t// out\n    /* \"#utility.yul\":5838:6024   */\ntag_37:\n    /* \"#utility.yul\":5898:6018   */\ntag_112:\n    /* \"#utility.yul\":5915:5918   */\n  dup2\n    /* \"#utility.yul\":5908:5913   */\n  dup2\n    /* \"#utility.yul\":5905:5919   */\n  lt\n    /* \"#utility.yul\":5898:6018   */\n  iszero\n  tag_114\n  jumpi\n    /* \"#utility.yul\":5969:6008   */\n  tag_115\n    /* \"#utility.yul\":6006:6007   */\n  0x00\n    /* \"#utility.yul\":5999:6004   */\n  dup3\n    /* \"#utility.yul\":5969:6008   */\n  tag_36\n  jump\t// in\ntag_115:\n    /* \"#utility.yul\":5942:5943   */\n  0x01\n    /* \"#utility.yul\":5935:5940   */\n  dup2\n    /* \"#utility.yul\":5931:5944   */\n  add\n    /* \"#utility.yul\":5922:5944   */\n  swap1\n  pop\n    /* \"#utility.yul\":5898:6018   */\n  jump(tag_112)\ntag_114:\n    /* \"#utility.yul\":5838:6024   */\n  pop\n  pop\n  jump\t// out\n    /* \"#utility.yul\":6030:6573   */\ntag_38:\n    /* \"#utility.yul\":6131:6133   */\n  0x1f\n    /* \"#utility.yul\":6126:6129   */\n  dup3\n    /* \"#utility.yul\":6123:6134   */\n  gt\n    /* \"#utility.yul\":6120:6566   */\n  iszero\n  tag_117\n  jumpi\n    /* \"#utility.yul\":6165:6203   */\n  tag_118\n    /* \"#utility.yul\":6197:6202   */\n  dup2\n    /* \"#utility.yul\":6165:6203   */\n  tag_26\n  jump\t// in\ntag_118:\n    /* \"#utility.yul\":6249:6278   */\n  tag_119\n    /* \"#utility.yul\":6267:6277   */\n  dup5\n    /* \"#utility.yul\":6249:6278   */\n  tag_27\n  jump\t// in\ntag_119:\n    /* \"#utility.yul\":6239:6247   */\n  dup2\n    /* \"#utility.yul\":6235:6279   */\n  add\n    /* \"#utility.yul\":6432:6434   */\n  0x20\n    /* \"#utility.yul\":6420:6430   */\n  dup6\n    /* \"#utility.yul\":6417:6435   */\n  lt\n    /* \"#utility.yul\":6414:6463   */\n  iszero\n  tag_120\n  jumpi\n    /* \"#utility.yul\":6453:6461   */\n  dup2\n    /* \"#utility.yul\":6438:6461   */\n  swap1\n  pop\n    /* \"#utility.yul\":6414:6463   */\ntag_120:\n    /* \"#utility.yul\":6476:6556   */\n  tag_121\n    /* \"#utility.yul\":6532:6554   */\n  tag_122\n    /* \"#utility.yul\":6550:6553   */\n  dup6\n    /* \"#utility.yul\":6532:6554   */\n  tag_27\n  jump\t// in\ntag_122:\n    /* \"#utility.yul\":6522:6530   */\n  dup4\n    /* \"#utility.yul\":6518:6555   */\n  add\n    /* \"#utility.yul\":6505:6516   */\n  dup3\n    /* \"#utility.yul\":6476:6556   */\n  tag_37\n  jump\t// in\ntag_121:\n    /* \"#utility.yul\":6135:6566   */\n  pop\n  pop\n    /* \"#utility.yul\":6120:6566   */\ntag_117:\n    /* \"#utility.yul\":6030:6573   */\n  pop\n  pop\n  pop\n  jump\t// out\n    /* \"#utility.yul\":6579:6696   */\ntag_39:\n    /* \"#utility.yul\":6633:6641   */\n  0x00\n    /* \"#utility.yul\":6683:6688   */\n  dup3\n    /* \"#utility.yul\":6677:6681   */\n  dup3\n    /* \"#utility.yul\":6673:6689   */\n  shr\n    /* \"#utility.yul\":6652:6689   */\n  swap1\n  pop\n    /* \"#utility.yul\":6579:6696   */\n  swap3\n  swap2\n  pop\n  pop\n  jump\t// out\n    /* \"#utility.yul\":6702:6871   */\ntag_40:\n    /* \"#utility.yul\":6746:6752   */\n  0x00\n    /* \"#utility.yul\":6779:6830   */\n  tag_125\n    /* \"#utility.yul\":6827:6828   */\n  0x00\n    /* \"#utility.yul\":6823:6829   */\n  not\n    /* \"#utility.yul\":6815:6820   */\n  dup5\n    /* \"#utility.yul\":6812:6813   */\n  0x08\n    /* \"#utility.yul\":6808:6821   */\n  mul\n    /* \"#utility.yul\":6779:6830   */\n  tag_39\n  jump\t// in\ntag_125:\n    /* \"#utility.yul\":6775:6831   */\n  not\n    /* \"#utility.yul\":6860:6864   */\n  dup1\n    /* \"#utility.yul\":6854:6858   */\n  dup4\n    /* \"#utility.yul\":6850:6865   */\n  and\n    /* \"#utility.yul\":6840:6865   */\n  swap2\n  pop\n    /* \"#utility.yul\":6753:6871   */\n  pop\n    /* \"#utility.yul\":6702:6871   */\n  swap3\n  swap2\n  pop\n  pop\n  jump\t// out\n    /* \"#utility.yul\":6876:7171   */\ntag_41:\n    /* \"#utility.yul\":6952:6956   */\n  0x00\n    /* \"#utility.yul\":7098:7127   */\n  tag_127\n    /* \"#utility.yul\":7123:7126   */\n  dup4\n    /* \"#utility.yul\":7117:7121   */\n  dup4\n    /* \"#utility.yul\":7098:7127   */\n  tag_40\n  jump\t// in\ntag_127:\n    /* \"#utility.yul\":7090:7127   */\n  swap2\n  pop\n    /* \"#utility.yul\":7160:7163   */\n  dup3\n    /* \"#utility.yul\":7157:7158   */\n  0x02\n    /* \"#utility.yul\":7153:7164   */\n  mul\n    /* \"#utility.yul\":7147:7151   */\n  dup3\n    /* \"#utility.yul\":7144:7165   */\n  or\n    /* \"#utility.yul\":7136:7165   */\n  swap1\n  pop\n    /* \"#utility.yul\":6876:7171   */\n  swap3\n  swap2\n  pop\n  pop\n  jump\t// out\n    /* \"#utility.yul\":7176:8571   */\ntag_7:\n    /* \"#utility.yul\":7293:7330   */\n  tag_129\n    /* \"#utility.yul\":7326:7329   */\n  dup3\n    /* \"#utility.yul\":7293:7330   */\n  tag_23\n  jump\t// in\ntag_129:\n    /* \"#utility.yul\":7395:7413   */\n  0xffffffffffffffff\n    /* \"#utility.yul\":7387:7393   */\n  dup2\n    /* \"#utility.yul\":7384:7414   */\n  gt\n    /* \"#utility.yul\":7381:7437   */\n  iszero\n  tag_130\n  jumpi\n    /* \"#utility.yul\":7417:7435   */\n  tag_131\n  tag_16\n  jump\t// in\ntag_131:\n    /* \"#utility.yul\":7381:7437   */\ntag_130:\n    /* \"#utility.yul\":7461:7499   */\n  tag_132\n    /* \"#utility.yul\":7493:7497   */\n  dup3\n    /* \"#utility.yul\":7487:7498   */\n  sload\n    /* \"#utility.yul\":7461:7499   */\n  tag_25\n  jump\t// in\ntag_132:\n    /* \"#utility.yul\":7546:7613   */\n  tag_133\n    /* \"#utility.yul\":7606:7612   */\n  dup3\n    /* \"#utility.yul\":7598:7604   */\n  dup3\n    /* \"#utility.yul\":7592:7596   */\n  dup6\n    /* \"#utility.yul\":7546:7613   */\n  tag_38\n  jump\t// in\ntag_133:\n    /* \"#utility.yul\":7640:7641   */\n  0x00\n    /* \"#utility.yul\":7664:7668   */\n  0x20\n    /* \"#utility.yul\":7651:7668   */\n  swap1\n  pop\n    /* \"#utility.yul\":7696:7698   */\n  0x1f\n    /* \"#utility.yul\":7688:7694   */\n  dup4\n    /* \"#utility.yul\":7685:7699   */\n  gt\n    /* \"#utility.yul\":7713:7714   */\n  0x01\n    /* \"#utility.yul\":7708:8326   */\n  dup2\n  eq\n  tag_135\n  jumpi\n    /* \"#utility.yul\":8370:8371   */\n  0x00\n    /* \"#utility.yul\":8387:8393   */\n  dup5\n    /* \"#utility.yul\":8384:8461   */\n  iszero\n  tag_136\n  jumpi\n    /* \"#utility.yul\":8436:8445   */\n  dup3\n    /* \"#utility.yul\":8431:8434   */\n  dup8\n    /* \"#utility.yul\":8427:8446   */\n  add\n    /* \"#utility.yul\":8421:8447   */\n  mload\n    /* \"#utility.yul\":8412:8447   */\n  swap1\n  pop\n    /* \"#utility.yul\":8384:8461   */\ntag_136:\n    /* \"#utility.yul\":8487:8554   */\n  tag_137\n    /* \"#utility.yul\":8547:8553   */\n  dup6\n    /* \"#utility.yul\":8540:8545   */\n  dup3\n    /* \"#utility.yul\":8487:8554   */\n  tag_41\n  jump\t// in\ntag_137:\n    /* \"#utility.yul\":8481:8485   */\n  dup7\n    /* \"#utility.yul\":8474:8555   */\n  sstore\n    /* \"#utility.yul\":8343:8565   */\n  pop\n    /* \"#utility.yul\":7678:8565   */\n  jump(tag_134)\n    /* \"#utility.yul\":7708:8326   */\ntag_135:\n    /* \"#utility.yul\":7760:7764   */\n  0x1f\n    /* \"#utility.yul\":7756:7765   */\n  not\n    /* \"#utility.yul\":7748:7754   */\n  dup5\n    /* \"#utility.yul\":7744:7766   */\n  and\n    /* \"#utility.yul\":7794:7831   */\n  tag_138\n    /* \"#utility.yul\":7826:7830   */\n  dup7\n    /* \"#utility.yul\":7794:7831   */\n  tag_26\n  jump\t// in\ntag_138:\n    /* \"#utility.yul\":7853:7854   */\n  0x00\n    /* \"#utility.yul\":7867:8075   */\ntag_139:\n    /* \"#utility.yul\":7881:7888   */\n  dup3\n    /* \"#utility.yul\":7878:7879   */\n  dup2\n    /* \"#utility.yul\":7875:7889   */\n  lt\n    /* \"#utility.yul\":7867:8075   */\n  iszero\n  tag_141\n  jumpi\n    /* \"#utility.yul\":7960:7969   */\n  dup5\n    /* \"#utility.yul\":7955:7958   */\n  dup10\n    /* \"#utility.yul\":7951:7970   */\n  add\n    /* \"#utility.yul\":7945:7971   */\n  mload\n    /* \"#utility.yul\":7937:7943   */\n  dup3\n    /* \"#utility.yul\":7930:7972   */\n  sstore\n    /* \"#utility.yul\":8011:8012   */\n  0x01\n    /* \"#utility.yul\":8003:8009   */\n  dup3\n    /* \"#utility.yul\":7999:8013   */\n  add\n    /* \"#utility.yul\":7989:8013   */\n  swap2\n  pop\n    /* \"#utility.yul\":8058:8060   */\n  0x20\n    /* \"#utility.yul\":8047:8056   */\n  dup6\n    /* \"#utility.yul\":8043:8061   */\n  add\n    /* \"#utility.yul\":8030:8061   */\n  swap5\n  pop\n    /* \"#utility.yul\":7904:7908   */\n  0x20\n    /* \"#utility.yul\":7901:7902   */\n  dup2\n    /* \"#utility.yul\":7897:7909   */\n  add\n    /* \"#utility.yul\":7892:7909   */\n  swap1\n  pop\n    /* \"#utility.yul\":7867:8075   */\n  jump(tag_139)\ntag_141:\n    /* \"#utility.yul\":8103:8109   */\n  dup7\n    /* \"#utility.yul\":8094:8101   */\n  dup4\n    /* \"#utility.yul\":8091:8110   */\n  lt\n    /* \"#utility.yul\":8088:8267   */\n  iszero\n  tag_142\n  jumpi\n    /* \"#utility.yul\":8161:8170   */\n  dup5\n    /* \"#utility.yul\":8156:8159   */\n  dup10\n    /* \"#utility.yul\":8152:8171   */\n  add\n    /* \"#utility.yul\":8146:8172   */\n  mload\n    /* \"#utility.yul\":8204:8252   */\n  tag_143\n    /* \"#utility.yul\":8246:8250   */\n  0x1f\n    /* \"#utility.yul\":8238:8244   */\n  dup10\n    /* \"#utility.yul\":8234:8251   */\n  and\n    /* \"#utility.yul\":8223:8232   */\n  dup3\n    /* \"#utility.yul\":8204:8252   */\n  tag_40\n  jump\t// in\ntag_143:\n    /* \"#utility.yul\":8196:8202   */\n  dup4\n    /* \"#utility.yul\":8189:8253   */\n  sstore\n    /* \"#utility.yul\":8111:8267   */\n  pop\n    /* \"#utility.yul\":8088:8267   */\ntag_142:\n    /* \"#utility.yul\":8313:8314   */\n  0x01\n    /* \"#utility.yul\":8309:8310   */\n  0x02\n    /* \"#utility.yul\":8301:8307   */\n  dup9\n    /* \"#utility.yul\":8297:8311   */\n  mul\n    /* \"#utility.yul\":8293:8315   */\n  add\n    /* \"#utility.yul\":8287:8291   */\n  dup9\n    /* \"#utility.yul\":8280:8316   */\n  sstore\n    /* \"#utility.yul\":7715:8326   */\n  pop\n  pop\n  pop\n    /* \"#utility.yul\":7678:8565   */\ntag_134:\n  pop\n    /* \"#utility.yul\":7268:8571   */\n  pop\n  pop\n  pop\n    /* \"#utility.yul\":7176:8571   */\n  pop\n  pop\n  jump\t// out\n    /* \"web3/contracts/W3CBBadgeNFT.sol\":61:4789  contract W3CBBadgeNFT {... */\ntag_9:\n  dataSize(sub_0)\n  dup1\n  dataOffset(sub_0)\n  0x00\n  codecopy\n  0x00\n  return\nstop\n\nsub_0: assembly {\n        /* \"web3/contracts/W3CBBadgeNFT.sol\":61:4789  contract W3CBBadgeNFT {... */\n      mstore(0x40, 0x80)\n      callvalue\n      dup1\n      iszero\n      tag_1\n      jumpi\n      0x00\n      dup1\n      revert\n    tag_1:\n      pop\n      jumpi(tag_2, lt(calldatasize, 0x04))\n      shr(0xe0, calldataload(0x00))\n      dup1\n      0x70a08231\n      gt\n      tag_14\n      jumpi\n      dup1\n      0x70a08231\n      eq\n      tag_8\n      jumpi\n      dup1\n      0x95d89b41\n      eq\n      tag_9\n      jumpi\n      dup1\n      0xa22cb465\n      eq\n      tag_10\n      jumpi\n      dup1\n      0xc87b56dd\n      eq\n      tag_11\n      jumpi\n      dup1\n      0xd0def521\n      eq\n      tag_12\n      jumpi\n      dup1\n      0xe985e9c5\n      eq\n      tag_13\n      jumpi\n      jump(tag_2)\n    tag_14:\n      dup1\n      0x06fdde03\n      eq\n      tag_3\n      jumpi\n      dup1\n      0x081812fc\n      eq\n      tag_4\n      jumpi\n      dup1\n      0x095ea7b3\n      eq\n      tag_5\n      jumpi\n      dup1\n      0x23b872dd\n      eq\n      tag_6\n      jumpi\n      dup1\n      0x6352211e\n      eq\n      tag_7\n      jumpi\n    tag_2:\n      0x00\n      dup1\n      revert\n        /* \"web3/contracts/W3CBBadgeNFT.sol\":90:108  string public name */\n    tag_3:\n      tag_15\n      tag_16\n      jump\t// in\n    tag_15:\n      mload(0x40)\n      tag_17\n      swap2\n      swap1\n      tag_18\n      jump\t// in\n    tag_17:\n      mload(0x40)\n      dup1\n      swap2\n      sub\n      swap1\n      return\n        /* \"web3/contracts/W3CBBadgeNFT.sol\":2225:2427  function getApproved(uint256 tokenId) public view returns (address) {... */\n    tag_4:\n      tag_19\n      0x04\n      dup1\n      calldatasize\n      sub\n      dup2\n      add\n      swap1\n      tag_20\n      swap2\n      swap1\n      tag_21\n      jump\t// in\n    tag_20:\n      tag_22\n      jump\t// in\n    tag_19:\n      mload(0x40)\n      tag_23\n      swap2\n      swap1\n      tag_24\n      jump\t// in\n    tag_23:\n      mload(0x40)\n      dup1\n      swap2\n      sub\n      swap1\n      return\n        /* \"web3/contracts/W3CBBadgeNFT.sol\":1782:2217  function approve(address to, uint256 tokenId) public {... */\n    tag_5:\n      tag_25\n      0x04\n      dup1\n      calldatasize\n      sub\n      dup2\n      add\n      swap1\n      tag_26\n      swap2\n      swap1\n      tag_27\n      jump\t// in\n    tag_26:\n      tag_28\n      jump\t// in\n    tag_25:\n      stop\n        /* \"web3/contracts/W3CBBadgeNFT.sol\":2870:3103  function transferFrom(address from, address to, uint256 tokenId) public {... */\n    tag_6:\n      tag_29\n      0x04\n      dup1\n      calldatasize\n      sub\n      dup2\n      add\n      swap1\n      tag_30\n      swap2\n      swap1\n      tag_31\n      jump\t// in\n    tag_30:\n      tag_32\n      jump\t// in\n    tag_29:\n      stop\n        /* \"web3/contracts/W3CBBadgeNFT.sol\":1425:1647  function ownerOf(uint256 tokenId) public view returns (address) {... */\n    tag_7:\n      tag_33\n      0x04\n      dup1\n      calldatasize\n      sub\n      dup2\n      add\n      swap1\n      tag_34\n      swap2\n      swap1\n      tag_21\n      jump\t// in\n    tag_34:\n      tag_35\n      jump\t// in\n    tag_33:\n      mload(0x40)\n      tag_36\n      swap2\n      swap1\n      tag_24\n      jump\t// in\n    tag_36:\n      mload(0x40)\n      dup1\n      swap2\n      sub\n      swap1\n      return\n        /* \"web3/contracts/W3CBBadgeNFT.sol\":1226:1417  function balanceOf(address owner) public view returns (uint256) {... */\n    tag_8:\n      tag_37\n      0x04\n      dup1\n      calldatasize\n      sub\n      dup2\n      add\n      swap1\n      tag_38\n      swap2\n      swap1\n      tag_39\n      jump\t// in\n    tag_38:\n      tag_40\n      jump\t// in\n    tag_37:\n      mload(0x40)\n      tag_41\n      swap2\n      swap1\n      tag_42\n      jump\t// in\n    tag_41:\n      mload(0x40)\n      dup1\n      swap2\n      sub\n      swap1\n      return\n        /* \"web3/contracts/W3CBBadgeNFT.sol\":115:135  string public symbol */\n    tag_9:\n      tag_43\n      tag_44\n      jump\t// in\n    tag_43:\n      mload(0x40)\n      tag_45\n      swap2\n      swap1\n      tag_18\n      jump\t// in\n    tag_45:\n      mload(0x40)\n      dup1\n      swap2\n      sub\n      swap1\n      return\n        /* \"web3/contracts/W3CBBadgeNFT.sol\":2435:2707  function setApprovalForAll(address operator, bool approved) public {... */\n    tag_10:\n      tag_46\n      0x04\n      dup1\n      calldatasize\n      sub\n      dup2\n      add\n      swap1\n      tag_47\n      swap2\n      swap1\n      tag_48\n      jump\t// in\n    tag_47:\n      tag_49\n      jump\t// in\n    tag_46:\n      stop\n        /* \"web3/contracts/W3CBBadgeNFT.sol\":4583:4786  function tokenURI(uint256 tokenId) public view returns (string memory) {... */\n    tag_11:\n      tag_50\n      0x04\n      dup1\n      calldatasize\n      sub\n      dup2\n      add\n      swap1\n      tag_51\n      swap2\n      swap1\n      tag_21\n      jump\t// in\n    tag_51:\n      tag_52\n      jump\t// in\n    tag_50:\n      mload(0x40)\n      tag_53\n      swap2\n      swap1\n      tag_18\n      jump\t// in\n    tag_53:\n      mload(0x40)\n      dup1\n      swap2\n      sub\n      swap1\n      return\n        /* \"web3/contracts/W3CBBadgeNFT.sol\":3936:4372  function mint(address to, string memory uri) public {... */\n    tag_12:\n      tag_54\n      0x04\n      dup1\n      calldatasize\n      sub\n      dup2\n      add\n      swap1\n      tag_55\n      swap2\n      swap1\n      tag_56\n      jump\t// in\n    tag_55:\n      tag_57\n      jump\t// in\n    tag_54:\n      stop\n        /* \"web3/contracts/W3CBBadgeNFT.sol\":2715:2862  function isApprovedForAll(address owner, address operator) public view returns (bool) {... */\n    tag_13:\n      tag_58\n      0x04\n      dup1\n      calldatasize\n      sub\n      dup2\n      add\n      swap1\n      tag_59\n      swap2\n      swap1\n      tag_60\n      jump\t// in\n    tag_59:\n      tag_61\n      jump\t// in\n    tag_58:\n      mload(0x40)\n      tag_62\n      swap2\n      swap1\n      tag_63\n      jump\t// in\n    tag_62:\n      mload(0x40)\n      dup1\n      swap2\n      sub\n      swap1\n      return\n        /* \"web3/contracts/W3CBBadgeNFT.sol\":90:108  string public name */\n    tag_16:\n      0x00\n      dup1\n      sload\n      tag_64\n      swap1\n      tag_65\n      jump\t// in\n    tag_64:\n      dup1\n      0x1f\n      add\n      0x20\n      dup1\n      swap2\n      div\n      mul\n      0x20\n      add\n      mload(0x40)\n      swap1\n      dup2\n      add\n      0x40\n      mstore\n      dup1\n      swap3\n      swap2\n      swap1\n      dup2\n      dup2\n      mstore\n      0x20\n      add\n      dup3\n      dup1\n      sload\n      tag_66\n      swap1\n      tag_65\n      jump\t// in\n    tag_66:\n      dup1\n      iszero\n      tag_67\n      jumpi\n      dup1\n      0x1f\n      lt\n      tag_68\n      jumpi\n      0x0100\n      dup1\n      dup4\n      sload\n      div\n      mul\n      dup4\n      mstore\n      swap2\n      0x20\n      add\n      swap2\n      jump(tag_67)\n    tag_68:\n      dup3\n      add\n      swap2\n      swap1\n      0x00\n      mstore\n      keccak256(0x00, 0x20)\n      swap1\n    tag_69:\n      dup2\n      sload\n      dup2\n      mstore\n      swap1\n      0x01\n      add\n      swap1\n      0x20\n      add\n      dup1\n      dup4\n      gt\n      tag_69\n      jumpi\n      dup3\n      swap1\n      sub\n      0x1f\n      and\n      dup3\n      add\n      swap2\n    tag_67:\n      pop\n      pop\n      pop\n      pop\n      pop\n      dup2\n      jump\t// out\n        /* \"web3/contracts/W3CBBadgeNFT.sol\":2225:2427  function getApproved(uint256 tokenId) public view returns (address) {... */\n    tag_22:\n        /* \"web3/contracts/W3CBBadgeNFT.sol\":2284:2291  address */\n      0x00\n        /* \"web3/contracts/W3CBBadgeNFT.sol\":2312:2328  _exists(tokenId) */\n      tag_71\n        /* \"web3/contracts/W3CBBadgeNFT.sol\":2320:2327  tokenId */\n      dup3\n        /* \"web3/contracts/W3CBBadgeNFT.sol\":2312:2319  _exists */\n      tag_72\n        /* \"web3/contracts/W3CBBadgeNFT.sol\":2312:2328  _exists(tokenId) */\n      jump\t// in\n    tag_71:\n        /* \"web3/contracts/W3CBBadgeNFT.sol\":2304:2377  require(_exists(tokenId), \"ERC721: approved query for nonexistent token\") */\n      tag_73\n      jumpi\n      mload(0x40)\n      0x08c379a000000000000000000000000000000000000000000000000000000000\n      dup2\n      mstore\n      0x04\n      add\n      tag_74\n      swap1\n      tag_75\n      jump\t// in\n    tag_74:\n      mload(0x40)\n      dup1\n      swap2\n      sub\n      swap1\n      revert\n    tag_73:\n        /* \"web3/contracts/W3CBBadgeNFT.sol\":2395:2410  _tokenApprovals */\n      0x04\n        /* \"web3/contracts/W3CBBadgeNFT.sol\":2395:2419  _tokenApprovals[tokenId] */\n      0x00\n        /* \"web3/contracts/W3CBBadgeNFT.sol\":2411:2418  tokenId */\n      dup4\n        /* \"web3/contracts/W3CBBadgeNFT.sol\":2395:2419  _tokenApprovals[tokenId] */\n      dup2\n      mstore\n      0x20\n      add\n      swap1\n      dup2\n      mstore\n      0x20\n      add\n      0x00\n      keccak256\n      0x00\n      swap1\n      sload\n      swap1\n      0x0100\n      exp\n      swap1\n      div\n      0xffffffffffffffffffffffffffffffffffffffff\n      and\n        /* \"web3/contracts/W3CBBadgeNFT.sol\":2388:2419  return _tokenApprovals[tokenId] */\n      swap1\n      pop\n        /* \"web3/contracts/W3CBBadgeNFT.sol\":2225:2427  function getApproved(uint256 tokenId) public view returns (address) {... */\n      swap2\n      swap1\n      pop\n      jump\t// out\n        /* \"web3/contracts/W3CBBadgeNFT.sol\":1782:2217  function approve(address to, uint256 tokenId) public {... */\n    tag_28:\n        /* \"web3/contracts/W3CBBadgeNFT.sol\":1846:1859  address owner */\n      0x00\n        /* \"web3/contracts/W3CBBadgeNFT.sol\":1862:1878  ownerOf(tokenId) */\n      tag_77\n        /* \"web3/contracts/W3CBBadgeNFT.sol\":1870:1877  tokenId */\n      dup3\n        /* \"web3/contracts/W3CBBadgeNFT.sol\":1862:1869  ownerOf */\n      tag_35\n        /* \"web3/contracts/W3CBBadgeNFT.sol\":1862:1878  ownerOf(tokenId) */\n      jump\t// in\n    tag_77:\n        /* \"web3/contracts/W3CBBadgeNFT.sol\":1846:1878  address owner = ownerOf(tokenId) */\n      swap1\n      pop\n        /* \"web3/contracts/W3CBBadgeNFT.sol\":1903:1908  owner */\n      dup1\n        /* \"web3/contracts/W3CBBadgeNFT.sol\":1897:1908  to != owner */\n      0xffffffffffffffffffffffffffffffffffffffff\n      and\n        /* \"web3/contracts/W3CBBadgeNFT.sol\":1897:1899  to */\n      dup4\n        /* \"web3/contracts/W3CBBadgeNFT.sol\":1897:1908  to != owner */\n      0xffffffffffffffffffffffffffffffffffffffff\n      and\n      sub\n        /* \"web3/contracts/W3CBBadgeNFT.sol\":1889:1946  require(to != owner, \"ERC721: approval to current owner\") */\n      tag_78\n      jumpi\n      mload(0x40)\n      0x08c379a000000000000000000000000000000000000000000000000000000000\n      dup2\n      mstore\n      0x04\n      add\n      tag_79\n      swap1\n      tag_80\n      jump\t// in\n    tag_79:\n      mload(0x40)\n      dup1\n      swap2\n      sub\n      swap1\n      revert\n    tag_78:\n        /* \"web3/contracts/W3CBBadgeNFT.sol\":1995:2000  owner */\n      dup1\n        /* \"web3/contracts/W3CBBadgeNFT.sol\":1981:2000  msg.sender == owner */\n      0xffffffffffffffffffffffffffffffffffffffff\n      and\n        /* \"web3/contracts/W3CBBadgeNFT.sol\":1981:1991  msg.sender */\n      caller\n        /* \"web3/contracts/W3CBBadgeNFT.sol\":1981:2000  msg.sender == owner */\n      0xffffffffffffffffffffffffffffffffffffffff\n      and\n      eq\n        /* \"web3/contracts/W3CBBadgeNFT.sol\":1981:2039  msg.sender == owner || isApprovedForAll(owner, msg.sender) */\n      dup1\n      tag_81\n      jumpi\n      pop\n        /* \"web3/contracts/W3CBBadgeNFT.sol\":2004:2039  isApprovedForAll(owner, msg.sender) */\n      tag_82\n        /* \"web3/contracts/W3CBBadgeNFT.sol\":2021:2026  owner */\n      dup2\n        /* \"web3/contracts/W3CBBadgeNFT.sol\":2028:2038  msg.sender */\n      caller\n        /* \"web3/contracts/W3CBBadgeNFT.sol\":2004:2020  isApprovedForAll */\n      tag_61\n        /* \"web3/contracts/W3CBBadgeNFT.sol\":2004:2039  isApprovedForAll(owner, msg.sender) */\n      jump\t// in\n    tag_82:\n        /* \"web3/contracts/W3CBBadgeNFT.sol\":1981:2039  msg.sender == owner || isApprovedForAll(owner, msg.sender) */\n    tag_81:\n        /* \"web3/contracts/W3CBBadgeNFT.sol\":1959:2123  require(... */\n      tag_83\n      jumpi\n      mload(0x40)\n      0x08c379a000000000000000000000000000000000000000000000000000000000\n      dup2\n      mstore\n      0x04\n      add\n      tag_84\n      swap1\n      tag_85\n      jump\t// in\n    tag_84:\n      mload(0x40)\n      dup1\n      swap2\n      sub\n      swap1\n      revert\n    tag_83:\n        /* \"web3/contracts/W3CBBadgeNFT.sol\":2163:2165  to */\n      dup3\n        /* \"web3/contracts/W3CBBadgeNFT.sol\":2136:2151  _tokenApprovals */\n      0x04\n        /* \"web3/contracts/W3CBBadgeNFT.sol\":2136:2160  _tokenApprovals[tokenId] */\n      0x00\n        /* \"web3/contracts/W3CBBadgeNFT.sol\":2152:2159  tokenId */\n      dup5\n        /* \"web3/contracts/W3CBBadgeNFT.sol\":2136:2160  _tokenApprovals[tokenId] */\n      dup2\n      mstore\n      0x20\n      add\n      swap1\n      dup2\n      mstore\n      0x20\n      add\n      0x00\n      keccak256\n      0x00\n        /* \"web3/contracts/W3CBBadgeNFT.sol\":2136:2165  _tokenApprovals[tokenId] = to */\n      0x0100\n      exp\n      dup2\n      sload\n      dup2\n      0xffffffffffffffffffffffffffffffffffffffff\n      mul\n      not\n      and\n      swap1\n      dup4\n      0xffffffffffffffffffffffffffffffffffffffff\n      and\n      mul\n      or\n      swap1\n      sstore\n      pop\n        /* \"web3/contracts/W3CBBadgeNFT.sol\":2201:2208  tokenId */\n      dup2\n        /* \"web3/contracts/W3CBBadgeNFT.sol\":2197:2199  to */\n      dup4\n        /* \"web3/contracts/W3CBBadgeNFT.sol\":2181:2209  Approval(owner, to, tokenId) */\n      0xffffffffffffffffffffffffffffffffffffffff\n      and\n        /* \"web3/contracts/W3CBBadgeNFT.sol\":2190:2195  owner */\n      dup3\n        /* \"web3/contracts/W3CBBadgeNFT.sol\":2181:2209  Approval(owner, to, tokenId) */\n      0xffffffffffffffffffffffffffffffffffffffff\n      and\n      0x8c5be1e5ebec7d5bd14f71427d1e84f3dd0314c0f7b2291e5b200ac8c7c3b925\n      mload(0x40)\n      mload(0x40)\n      dup1\n      swap2\n      sub\n      swap1\n      log4\n        /* \"web3/contracts/W3CBBadgeNFT.sol\":1835:2217  {... */\n      pop\n        /* \"web3/contracts/W3CBBadgeNFT.sol\":1782:2217  function approve(address to, uint256 tokenId) public {... */\n      pop\n      pop\n      jump\t// out\n        /* \"web3/contracts/W3CBBadgeNFT.sol\":2870:3103  function transferFrom(address from, address to, uint256 tokenId) public {... */\n    tag_32:\n        /* \"web3/contracts/W3CBBadgeNFT.sol\":2961:3000  _isApprovedOrOwner(msg.sender, tokenId) */\n      tag_87\n        /* \"web3/contracts/W3CBBadgeNFT.sol\":2980:2990  msg.sender */\n      caller\n        /* \"web3/contracts/W3CBBadgeNFT.sol\":2992:2999  tokenId */\n      dup3\n        /* \"web3/contracts/W3CBBadgeNFT.sol\":2961:2979  _isApprovedOrOwner */\n      tag_88\n        /* \"web3/contracts/W3CBBadgeNFT.sol\":2961:3000  _isApprovedOrOwner(msg.sender, tokenId) */\n      jump\t// in\n    tag_87:\n        /* \"web3/contracts/W3CBBadgeNFT.sol\":2953:3054  require(_isApprovedOrOwner(msg.sender, tokenId), \"ERC721: transfer caller is not owner nor approved\") */\n      tag_89\n      jumpi\n      mload(0x40)\n      0x08c379a000000000000000000000000000000000000000000000000000000000\n      dup2\n      mstore\n      0x04\n      add\n      tag_90\n      swap1\n      tag_91\n      jump\t// in\n    tag_90:\n      mload(0x40)\n      dup1\n      swap2\n      sub\n      swap1\n      revert\n    tag_89:\n        /* \"web3/contracts/W3CBBadgeNFT.sol\":3067:3095  _transfer(from, to, tokenId) */\n      tag_92\n        /* \"web3/contracts/W3CBBadgeNFT.sol\":3077:3081  from */\n      dup4\n        /* \"web3/contracts/W3CBBadgeNFT.sol\":3083:3085  to */\n      dup4\n        /* \"web3/contracts/W3CBBadgeNFT.sol\":3087:3094  tokenId */\n      dup4\n        /* \"web3/contracts/W3CBBadgeNFT.sol\":3067:3076  _transfer */\n      tag_93\n        /* \"web3/contracts/W3CBBadgeNFT.sol\":3067:3095  _transfer(from, to, tokenId) */\n      jump\t// in\n    tag_92:\n        /* \"web3/contracts/W3CBBadgeNFT.sol\":2870:3103  function transferFrom(address from, address to, uint256 tokenId) public {... */\n      pop\n      pop\n      pop\n      jump\t// out\n        /* \"web3/contracts/W3CBBadgeNFT.sol\":1425:1647  function ownerOf(uint256 tokenId) public view returns (address) {... */\n    tag_35:\n        /* \"web3/contracts/W3CBBadgeNFT.sol\":1480:1487  address */\n      0x00\n        /* \"web3/contracts/W3CBBadgeNFT.sol\":1500:1513  address owner */\n      dup1\n        /* \"web3/contracts/W3CBBadgeNFT.sol\":1516:1523  _owners */\n      0x02\n        /* \"web3/contracts/W3CBBadgeNFT.sol\":1516:1532  _owners[tokenId] */\n      0x00\n        /* \"web3/contracts/W3CBBadgeNFT.sol\":1524:1531  tokenId */\n      dup5\n        /* \"web3/contracts/W3CBBadgeNFT.sol\":1516:1532  _owners[tokenId] */\n      dup2\n      mstore\n      0x20\n      add\n      swap1\n      dup2\n      mstore\n      0x20\n      add\n      0x00\n      keccak256\n      0x00\n      swap1\n      sload\n      swap1\n      0x0100\n      exp\n      swap1\n      div\n      0xffffffffffffffffffffffffffffffffffffffff\n      and\n        /* \"web3/contracts/W3CBBadgeNFT.sol\":1500:1532  address owner = _owners[tokenId] */\n      swap1\n      pop\n        /* \"web3/contracts/W3CBBadgeNFT.sol\":1568:1569  0 */\n      0x00\n        /* \"web3/contracts/W3CBBadgeNFT.sol\":1551:1570  owner != address(0) */\n      0xffffffffffffffffffffffffffffffffffffffff\n      and\n        /* \"web3/contracts/W3CBBadgeNFT.sol\":1551:1556  owner */\n      dup2\n        /* \"web3/contracts/W3CBBadgeNFT.sol\":1551:1570  owner != address(0) */\n      0xffffffffffffffffffffffffffffffffffffffff\n      and\n      sub\n        /* \"web3/contracts/W3CBBadgeNFT.sol\":1543:1616  require(owner != address(0), \"ERC721: owner query for nonexistent token\") */\n      tag_95\n      jumpi\n      mload(0x40)\n      0x08c379a000000000000000000000000000000000000000000000000000000000\n      dup2\n      mstore\n      0x04\n      add\n      tag_96\n      swap1\n      tag_97\n      jump\t// in\n    tag_96:\n      mload(0x40)\n      dup1\n      swap2\n      sub\n      swap1\n      revert\n    tag_95:\n        /* \"web3/contracts/W3CBBadgeNFT.sol\":1634:1639  owner */\n      dup1\n        /* \"web3/contracts/W3CBBadgeNFT.sol\":1627:1639  return owner */\n      swap2\n      pop\n      pop\n        /* \"web3/contracts/W3CBBadgeNFT.sol\":1425:1647  function ownerOf(uint256 tokenId) public view returns (address) {... */\n      swap2\n      swap1\n      pop\n      jump\t// out\n        /* \"web3/contracts/W3CBBadgeNFT.sol\":1226:1417  function balanceOf(address owner) public view returns (uint256) {... */\n    tag_40:\n        /* \"web3/contracts/W3CBBadgeNFT.sol\":1281:1288  uint256 */\n      0x00\n        /* \"web3/contracts/W3CBBadgeNFT.sol\":1326:1327  0 */\n      dup1\n        /* \"web3/contracts/W3CBBadgeNFT.sol\":1309:1328  owner != address(0) */\n      0xffffffffffffffffffffffffffffffffffffffff\n      and\n        /* \"web3/contracts/W3CBBadgeNFT.sol\":1309:1314  owner */\n      dup3\n        /* \"web3/contracts/W3CBBadgeNFT.sol\":1309:1328  owner != address(0) */\n      0xffffffffffffffffffffffffffffffffffffffff\n      and\n      sub\n        /* \"web3/contracts/W3CBBadgeNFT.sol\":1301:1375  require(owner != address(0), \"ERC721: balance query for the zero address\") */\n      tag_99\n      jumpi\n      mload(0x40)\n      0x08c379a000000000000000000000000000000000000000000000000000000000\n      dup2\n      mstore\n      0x04\n      add\n      tag_100\n      swap1\n      tag_101\n      jump\t// in\n    tag_100:\n      mload(0x40)\n      dup1\n      swap2\n      sub\n      swap1\n      revert\n    tag_99:\n        /* \"web3/contracts/W3CBBadgeNFT.sol\":1393:1402  _balances */\n      0x03\n        /* \"web3/contracts/W3CBBadgeNFT.sol\":1393:1409  _balances[owner] */\n      0x00\n        /* \"web3/contracts/W3CBBadgeNFT.sol\":1403:1408  owner */\n      dup4\n        /* \"web3/contracts/W3CBBadgeNFT.sol\":1393:1409  _balances[owner] */\n      0xffffffffffffffffffffffffffffffffffffffff\n      and\n      0xffffffffffffffffffffffffffffffffffffffff\n      and\n      dup2\n      mstore\n      0x20\n      add\n      swap1\n      dup2\n      mstore\n      0x20\n      add\n      0x00\n      keccak256\n      sload\n        /* \"web3/contracts/W3CBBadgeNFT.sol\":1386:1409  return _balances[owner] */\n      swap1\n      pop\n        /* \"web3/contracts/W3CBBadgeNFT.sol\":1226:1417  function balanceOf(address owner) public view returns (uint256) {... */\n      swap2\n      swap1\n      pop\n      jump\t// out\n        /* \"web3/contracts/W3CBBadgeNFT.sol\":115:135  string public symbol */\n    tag_44:\n      0x01\n      dup1\n      sload\n      tag_102\n      swap1\n      tag_65\n      jump\t// in\n    tag_102:\n      dup1\n      0x1f\n      add\n      0x20\n      dup1\n      swap2\n      div\n      mul\n      0x20\n      add\n      mload(0x40)\n      swap1\n      dup2\n      add\n      0x40\n      mstore\n      dup1\n      swap3\n      swap2\n      swap1\n      dup2\n      dup2\n      mstore\n      0x20\n      add\n      dup3\n      dup1\n      sload\n      tag_103\n      swap1\n      tag_65\n      jump\t// in\n    tag_103:\n      dup1\n      iszero\n      tag_104\n      jumpi\n      dup1\n      0x1f\n      lt\n      tag_105\n      jumpi\n      0x0100\n      dup1\n      dup4\n      sload\n      div\n      mul\n      dup4\n      mstore\n      swap2\n      0x20\n      add\n      swap2\n      jump(tag_104)\n    tag_105:\n      dup3\n      add\n      swap2\n      swap1\n      0x00\n      mstore\n      keccak256(0x00, 0x20)\n      swap1\n    tag_106:\n      dup2\n      sload\n      dup2\n      mstore\n      swap1\n      0x01\n      add\n      swap1\n      0x20\n      add\n      dup1\n      dup4\n      gt\n      tag_106\n      jumpi\n      dup3\n      swap1\n      sub\n      0x1f\n      and\n      dup3\n      add\n      swap2\n    tag_104:\n      pop\n      pop\n      pop\n      pop\n      pop\n      dup2\n      jump\t// out\n        /* \"web3/contracts/W3CBBadgeNFT.sol\":2435:2707  function setApprovalForAll(address operator, bool approved) public {... */\n    tag_49:\n        /* \"web3/contracts/W3CBBadgeNFT.sol\":2533:2543  msg.sender */\n      caller\n        /* \"web3/contracts/W3CBBadgeNFT.sol\":2521:2543  operator != msg.sender */\n      0xffffffffffffffffffffffffffffffffffffffff\n      and\n        /* \"web3/contracts/W3CBBadgeNFT.sol\":2521:2529  operator */\n      dup3\n        /* \"web3/contracts/W3CBBadgeNFT.sol\":2521:2543  operator != msg.sender */\n      0xffffffffffffffffffffffffffffffffffffffff\n      and\n      sub\n        /* \"web3/contracts/W3CBBadgeNFT.sol\":2513:2573  require(operator != msg.sender, \"ERC721: approve to caller\") */\n      tag_108\n      jumpi\n      mload(0x40)\n      0x08c379a000000000000000000000000000000000000000000000000000000000\n      dup2\n      mstore\n      0x04\n      add\n      tag_109\n      swap1\n      tag_110\n      jump\t// in\n    tag_109:\n      mload(0x40)\n      dup1\n      swap2\n      sub\n      swap1\n      revert\n    tag_108:\n        /* \"web3/contracts/W3CBBadgeNFT.sol\":2629:2637  approved */\n      dup1\n        /* \"web3/contracts/W3CBBadgeNFT.sol\":2586:2604  _operatorApprovals */\n      0x05\n        /* \"web3/contracts/W3CBBadgeNFT.sol\":2586:2616  _operatorApprovals[msg.sender] */\n      0x00\n        /* \"web3/contracts/W3CBBadgeNFT.sol\":2605:2615  msg.sender */\n      caller\n        /* \"web3/contracts/W3CBBadgeNFT.sol\":2586:2616  _operatorApprovals[msg.sender] */\n      0xffffffffffffffffffffffffffffffffffffffff\n      and\n      0xffffffffffffffffffffffffffffffffffffffff\n      and\n      dup2\n      mstore\n      0x20\n      add\n      swap1\n      dup2\n      mstore\n      0x20\n      add\n      0x00\n      keccak256\n        /* \"web3/contracts/W3CBBadgeNFT.sol\":2586:2626  _operatorApprovals[msg.sender][operator] */\n      0x00\n        /* \"web3/contracts/W3CBBadgeNFT.sol\":2617:2625  operator */\n      dup5\n        /* \"web3/contracts/W3CBBadgeNFT.sol\":2586:2626  _operatorApprovals[msg.sender][operator] */\n      0xffffffffffffffffffffffffffffffffffffffff\n      and\n      0xffffffffffffffffffffffffffffffffffffffff\n      and\n      dup2\n      mstore\n      0x20\n      add\n      swap1\n      dup2\n      mstore\n      0x20\n      add\n      0x00\n      keccak256\n      0x00\n        /* \"web3/contracts/W3CBBadgeNFT.sol\":2586:2637  _operatorApprovals[msg.sender][operator] = approved */\n      0x0100\n      exp\n      dup2\n      sload\n      dup2\n      0xff\n      mul\n      not\n      and\n      swap1\n      dup4\n      iszero\n      iszero\n      mul\n      or\n      swap1\n      sstore\n      pop\n        /* \"web3/contracts/W3CBBadgeNFT.sol\":2680:2688  operator */\n      dup2\n        /* \"web3/contracts/W3CBBadgeNFT.sol\":2653:2699  ApprovalForAll(msg.sender, operator, approved) */\n      0xffffffffffffffffffffffffffffffffffffffff\n      and\n        /* \"web3/contracts/W3CBBadgeNFT.sol\":2668:2678  msg.sender */\n      caller\n        /* \"web3/contracts/W3CBBadgeNFT.sol\":2653:2699  ApprovalForAll(msg.sender, operator, approved) */\n      0xffffffffffffffffffffffffffffffffffffffff\n      and\n      0x17307eab39ab6107e8899845ad3d59bd9653f200f220920489ca2b5937696c31\n        /* \"web3/contracts/W3CBBadgeNFT.sol\":2690:2698  approved */\n      dup4\n        /* \"web3/contracts/W3CBBadgeNFT.sol\":2653:2699  ApprovalForAll(msg.sender, operator, approved) */\n      mload(0x40)\n      tag_111\n      swap2\n      swap1\n      tag_63\n      jump\t// in\n    tag_111:\n      mload(0x40)\n      dup1\n      swap2\n      sub\n      swap1\n      log3\n        /* \"web3/contracts/W3CBBadgeNFT.sol\":2435:2707  function setApprovalForAll(address operator, bool approved) public {... */\n      pop\n      pop\n      jump\t// out\n        /* \"web3/contracts/W3CBBadgeNFT.sol\":4583:4786  function tokenURI(uint256 tokenId) public view returns (string memory) {... */\n    tag_52:\n        /* \"web3/contracts/W3CBBadgeNFT.sol\":4639:4652  string memory */\n      0x60\n        /* \"web3/contracts/W3CBBadgeNFT.sol\":4673:4689  _exists(tokenId) */\n      tag_113\n        /* \"web3/contracts/W3CBBadgeNFT.sol\":4681:4688  tokenId */\n      dup3\n        /* \"web3/contracts/W3CBBadgeNFT.sol\":4673:4680  _exists */\n      tag_72\n        /* \"web3/contracts/W3CBBadgeNFT.sol\":4673:4689  _exists(tokenId) */\n      jump\t// in\n    tag_113:\n        /* \"web3/contracts/W3CBBadgeNFT.sol\":4665:4741  require(_exists(tokenId), \"ERC721Metadata: URI query for nonexistent token\") */\n      tag_114\n      jumpi\n      mload(0x40)\n      0x08c379a000000000000000000000000000000000000000000000000000000000\n      dup2\n      mstore\n      0x04\n      add\n      tag_115\n      swap1\n      tag_116\n      jump\t// in\n    tag_115:\n      mload(0x40)\n      dup1\n      swap2\n      sub\n      swap1\n      revert\n    tag_114:\n        /* \"web3/contracts/W3CBBadgeNFT.sol\":4759:4769  _tokenURIs */\n      0x06\n        /* \"web3/contracts/W3CBBadgeNFT.sol\":4759:4778  _tokenURIs[tokenId] */\n      0x00\n        /* \"web3/contracts/W3CBBadgeNFT.sol\":4770:4777  tokenId */\n      dup4\n        /* \"web3/contracts/W3CBBadgeNFT.sol\":4759:4778  _tokenURIs[tokenId] */\n      dup2\n      mstore\n      0x20\n      add\n      swap1\n      dup2\n      mstore\n      0x20\n      add\n      0x00\n      keccak256\n        /* \"web3/contracts/W3CBBadgeNFT.sol\":4752:4778  return _tokenURIs[tokenId] */\n      dup1\n      sload\n      tag_117\n      swap1\n      tag_65\n      jump\t// in\n    tag_117:\n      dup1\n      0x1f\n      add\n      0x20\n      dup1\n      swap2\n      div\n      mul\n      0x20\n      add\n      mload(0x40)\n      swap1\n      dup2\n      add\n      0x40\n      mstore\n      dup1\n      swap3\n      swap2\n      swap1\n      dup2\n      dup2\n      mstore\n      0x20\n      add\n      dup3\n      dup1\n      sload\n      tag_118\n      swap1\n      tag_65\n      jump\t// in\n    tag_118:\n      dup1\n      iszero\n      tag_119\n      jumpi\n      dup1\n      0x1f\n      lt\n      tag_120\n      jumpi\n      0x0100\n      dup1\n      dup4\n      sload\n      div\n      mul\n      dup4\n      mstore\n      swap2\n      0x20\n      add\n      swap2\n      jump(tag_119)\n    tag_120:\n      dup3\n      add\n      swap2\n      swap1\n      0x00\n      mstore\n      keccak256(0x00, 0x20)\n      swap1\n    tag_121:\n      dup2\n      sload\n      dup2\n      mstore\n      swap1\n      0x01\n      add\n      swap1\n      0x20\n      add\n      dup1\n      dup4\n      gt\n      tag_121\n      jumpi\n      dup3\n      swap1\n      sub\n      0x1f\n      and\n      dup3\n      add\n      swap2\n    tag_119:\n      pop\n      pop\n      pop\n      pop\n      pop\n      swap1\n      pop\n        /* \"web3/contracts/W3CBBadgeNFT.sol\":4583:4786  function tokenURI(uint256 tokenId) public view returns (string memory) {... */\n      swap2\n      swap1\n      pop\n      jump\t// out\n        /* \"web3/contracts/W3CBBadgeNFT.sol\":3936:4372  function mint(address to, string memory uri) public {... */\n    tag_57:\n        /* \"web3/contracts/W3CBBadgeNFT.sol\":4014:4015  1 */\n      0x01\n        /* \"web3/contracts/W3CBBadgeNFT.sol\":3999:4010  _tokenCount */\n      0x07\n      0x00\n        /* \"web3/contracts/W3CBBadgeNFT.sol\":3999:4015  _tokenCount += 1 */\n      dup3\n      dup3\n      sload\n      tag_123\n      swap2\n      swap1\n      tag_124\n      jump\t// in\n    tag_123:\n      swap3\n      pop\n      pop\n      dup2\n      swap1\n      sstore\n      pop\n        /* \"web3/contracts/W3CBBadgeNFT.sol\":4026:4044  uint256 newTokenId */\n      0x00\n        /* \"web3/contracts/W3CBBadgeNFT.sol\":4047:4058  _tokenCount */\n      sload(0x07)\n        /* \"web3/contracts/W3CBBadgeNFT.sol\":4026:4058  uint256 newTokenId = _tokenCount */\n      swap1\n      pop\n        /* \"web3/contracts/W3CBBadgeNFT.sol\":4093:4094  0 */\n      0x00\n        /* \"web3/contracts/W3CBBadgeNFT.sol\":4079:4095  to != address(0) */\n      0xffffffffffffffffffffffffffffffffffffffff\n      and\n        /* \"web3/contracts/W3CBBadgeNFT.sol\":4079:4081  to */\n      dup4\n        /* \"web3/contracts/W3CBBadgeNFT.sol\":4079:4095  to != address(0) */\n      0xffffffffffffffffffffffffffffffffffffffff\n      and\n      sub\n        /* \"web3/contracts/W3CBBadgeNFT.sol\":4071:4132  require(to != address(0), \"ERC721: mint to the zero address\") */\n      tag_125\n      jumpi\n      mload(0x40)\n      0x08c379a000000000000000000000000000000000000000000000000000000000\n      dup2\n      mstore\n      0x04\n      add\n      tag_126\n      swap1\n      tag_127\n      jump\t// in\n    tag_126:\n      mload(0x40)\n      dup1\n      swap2\n      sub\n      swap1\n      revert\n    tag_125:\n        /* \"web3/contracts/W3CBBadgeNFT.sol\":4152:4171  _exists(newTokenId) */\n      tag_128\n        /* \"web3/contracts/W3CBBadgeNFT.sol\":4160:4170  newTokenId */\n      dup2\n        /* \"web3/contracts/W3CBBadgeNFT.sol\":4152:4159  _exists */\n      tag_72\n        /* \"web3/contracts/W3CBBadgeNFT.sol\":4152:4171  _exists(newTokenId) */\n      jump\t// in\n    tag_128:\n        /* \"web3/contracts/W3CBBadgeNFT.sol\":4151:4171  !_exists(newTokenId) */\n      iszero\n        /* \"web3/contracts/W3CBBadgeNFT.sol\":4143:4204  require(!_exists(newTokenId), \"ERC721: token already minted\") */\n      tag_129\n      jumpi\n      mload(0x40)\n      0x08c379a000000000000000000000000000000000000000000000000000000000\n      dup2\n      mstore\n      0x04\n      add\n      tag_130\n      swap1\n      tag_131\n      jump\t// in\n    tag_130:\n      mload(0x40)\n      dup1\n      swap2\n      sub\n      swap1\n      revert\n    tag_129:\n        /* \"web3/contracts/W3CBBadgeNFT.sol\":4234:4235  1 */\n      0x01\n        /* \"web3/contracts/W3CBBadgeNFT.sol\":4217:4226  _balances */\n      0x03\n        /* \"web3/contracts/W3CBBadgeNFT.sol\":4217:4230  _balances[to] */\n      0x00\n        /* \"web3/contracts/W3CBBadgeNFT.sol\":4227:4229  to */\n      dup6\n        /* \"web3/contracts/W3CBBadgeNFT.sol\":4217:4230  _balances[to] */\n      0xffffffffffffffffffffffffffffffffffffffff\n      and\n      0xffffffffffffffffffffffffffffffffffffffff\n      and\n      dup2\n      mstore\n      0x20\n      add\n      swap1\n      dup2\n      mstore\n      0x20\n      add\n      0x00\n      keccak256\n      0x00\n        /* \"web3/contracts/W3CBBadgeNFT.sol\":4217:4235  _balances[to] += 1 */\n      dup3\n      dup3\n      sload\n      tag_132\n      swap2\n      swap1\n      tag_124\n      jump\t// in\n    tag_132:\n      swap3\n      pop\n      pop\n      dup2\n      swap1\n      sstore\n      pop\n        /* \"web3/contracts/W3CBBadgeNFT.sol\":4268:4270  to */\n      dup3\n        /* \"web3/contracts/W3CBBadgeNFT.sol\":4246:4253  _owners */\n      0x02\n        /* \"web3/contracts/W3CBBadgeNFT.sol\":4246:4265  _owners[newTokenId] */\n      0x00\n        /* \"web3/contracts/W3CBBadgeNFT.sol\":4254:4264  newTokenId */\n      dup4\n        /* \"web3/contracts/W3CBBadgeNFT.sol\":4246:4265  _owners[newTokenId] */\n      dup2\n      mstore\n      0x20\n      add\n      swap1\n      dup2\n      mstore\n      0x20\n      add\n      0x00\n      keccak256\n      0x00\n        /* \"web3/contracts/W3CBBadgeNFT.sol\":4246:4270  _owners[newTokenId] = to */\n      0x0100\n      exp\n      dup2\n      sload\n      dup2\n      0xffffffffffffffffffffffffffffffffffffffff\n      mul\n      not\n      and\n      swap1\n      dup4\n      0xffffffffffffffffffffffffffffffffffffffff\n      and\n      mul\n      or\n      swap1\n      sstore\n      pop\n        /* \"web3/contracts/W3CBBadgeNFT.sol\":4281:4310  _setTokenURI(newTokenId, uri) */\n      tag_133\n        /* \"web3/contracts/W3CBBadgeNFT.sol\":4294:4304  newTokenId */\n      dup2\n        /* \"web3/contracts/W3CBBadgeNFT.sol\":4306:4309  uri */\n      dup4\n        /* \"web3/contracts/W3CBBadgeNFT.sol\":4281:4293  _setTokenURI */\n      tag_134\n        /* \"web3/contracts/W3CBBadgeNFT.sol\":4281:4310  _setTokenURI(newTokenId, uri) */\n      jump\t// in\n    tag_133:\n        /* \"web3/contracts/W3CBBadgeNFT.sol\":4353:4363  newTokenId */\n      dup1\n        /* \"web3/contracts/W3CBBadgeNFT.sol\":4349:4351  to */\n      dup4\n        /* \"web3/contracts/W3CBBadgeNFT.sol\":4328:4364  Transfer(address(0), to, newTokenId) */\n      0xffffffffffffffffffffffffffffffffffffffff\n      and\n        /* \"web3/contracts/W3CBBadgeNFT.sol\":4345:4346  0 */\n      0x00\n        /* \"web3/contracts/W3CBBadgeNFT.sol\":4328:4364  Transfer(address(0), to, newTokenId) */\n      0xffffffffffffffffffffffffffffffffffffffff\n      and\n      0xddf252ad1be2c89b69c2b068fc378daa952ba7f163c4a11628f55a4df523b3ef\n      mload(0x40)\n      mload(0x40)\n      dup1\n      swap2\n      sub\n      swap1\n      log4\n        /* \"web3/contracts/W3CBBadgeNFT.sol\":3988:4372  {... */\n      pop\n        /* \"web3/contracts/W3CBBadgeNFT.sol\":3936:4372  function mint(address to, string memory uri) public {... */\n      pop\n      pop\n      jump\t// out\n        /* \"web3/contracts/W3CBBadgeNFT.sol\":2715:2862  function isApprovedForAll(address owner, address operator) public view returns (bool) {... */\n    tag_61:\n        /* \"web3/contracts/W3CBBadgeNFT.sol\":2795:2799  bool */\n      0x00\n        /* \"web3/contracts/W3CBBadgeNFT.sol\":2819:2837  _operatorApprovals */\n      0x05\n        /* \"web3/contracts/W3CBBadgeNFT.sol\":2819:2844  _operatorApprovals[owner] */\n      0x00\n        /* \"web3/contracts/W3CBBadgeNFT.sol\":2838:2843  owner */\n      dup5\n        /* \"web3/contracts/W3CBBadgeNFT.sol\":2819:2844  _operatorApprovals[owner] */\n      0xffffffffffffffffffffffffffffffffffffffff\n      and\n      0xffffffffffffffffffffffffffffffffffffffff\n      and\n      dup2\n      mstore\n      0x20\n      add\n      swap1\n      dup2\n      mstore\n      0x20\n      add\n      0x00\n      keccak256\n        /* \"web3/contracts/W3CBBadgeNFT.sol\":2819:2854  _operatorApprovals[owner][operator] */\n      0x00\n        /* \"web3/contracts/W3CBBadgeNFT.sol\":2845:2853  operator */\n      dup4\n        /* \"web3/contracts/W3CBBadgeNFT.sol\":2819:2854  _operatorApprovals[owner][operator] */\n      0xffffffffffffffffffffffffffffffffffffffff\n      and\n      0xffffffffffffffffffffffffffffffffffffffff\n      and\n      dup2\n      mstore\n      0x20\n      add\n      swap1\n      dup2\n      mstore\n      0x20\n      add\n      0x00\n      keccak256\n      0x00\n      swap1\n      sload\n      swap1\n      0x0100\n      exp\n      swap1\n      div\n      0xff\n      and\n        /* \"web3/contracts/W3CBBadgeNFT.sol\":2812:2854  return _operatorApprovals[owner][operator] */\n      swap1\n      pop\n        /* \"web3/contracts/W3CBBadgeNFT.sol\":2715:2862  function isApprovedForAll(address owner, address operator) public view returns (bool) {... */\n      swap3\n      swap2\n      pop\n      pop\n      jump\t// out\n        /* \"web3/contracts/W3CBBadgeNFT.sol\":1655:1774  function _exists(uint256 tokenId) internal view returns (bool) {... */\n    tag_72:\n        /* \"web3/contracts/W3CBBadgeNFT.sol\":1712:1716  bool */\n      0x00\n        /* \"web3/contracts/W3CBBadgeNFT.sol\":1764:1765  0 */\n      dup1\n        /* \"web3/contracts/W3CBBadgeNFT.sol\":1736:1766  _owners[tokenId] != address(0) */\n      0xffffffffffffffffffffffffffffffffffffffff\n      and\n        /* \"web3/contracts/W3CBBadgeNFT.sol\":1736:1743  _owners */\n      0x02\n        /* \"web3/contracts/W3CBBadgeNFT.sol\":1736:1752  _owners[tokenId] */\n      0x00\n        /* \"web3/contracts/W3CBBadgeNFT.sol\":1744:1751  tokenId */\n      dup5\n        /* \"web3/contracts/W3CBBadgeNFT.sol\":1736:1752  _owners[tokenId] */\n      dup2\n      mstore\n      0x20\n      add\n      swap1\n      dup2\n      mstore\n      0x20\n      add\n      0x00\n      keccak256\n      0x00\n      swap1\n      sload\n      swap1\n      0x0100\n      exp\n      swap1\n      div\n      0xffffffffffffffffffffffffffffffffffffffff\n      and\n        /* \"web3/contracts/W3CBBadgeNFT.sol\":1736:1766  _owners[tokenId] != address(0) */\n      0xffffffffffffffffffffffffffffffffffffffff\n      and\n      eq\n      iszero\n        /* \"web3/contracts/W3CBBadgeNFT.sol\":1729:1766  return _owners[tokenId] != address(0) */\n      swap1\n      pop\n        /* \"web3/contracts/W3CBBadgeNFT.sol\":1655:1774  function _exists(uint256 tokenId) internal view returns (bool) {... */\n      swap2\n      swap1\n      pop\n      jump\t// out\n        /* \"web3/contracts/W3CBBadgeNFT.sol\":3111:3444  function _isApprovedOrOwner(address spender, uint256 tokenId) internal view returns (bool) {... */\n    tag_88:\n        /* \"web3/contracts/W3CBBadgeNFT.sol\":3196:3200  bool */\n      0x00\n        /* \"web3/contracts/W3CBBadgeNFT.sol\":3221:3237  _exists(tokenId) */\n      tag_138\n        /* \"web3/contracts/W3CBBadgeNFT.sol\":3229:3236  tokenId */\n      dup3\n        /* \"web3/contracts/W3CBBadgeNFT.sol\":3221:3228  _exists */\n      tag_72\n        /* \"web3/contracts/W3CBBadgeNFT.sol\":3221:3237  _exists(tokenId) */\n      jump\t// in\n    tag_138:\n        /* \"web3/contracts/W3CBBadgeNFT.sol\":3213:3286  require(_exists(tokenId), \"ERC721: operator query for nonexistent token\") */\n      tag_139\n      jumpi\n      mload(0x40)\n      0x08c379a000000000000000000000000000000000000000000000000000000000\n      dup2\n      mstore\n      0x04\n      add\n      tag_140\n      swap1\n      tag_141\n      jump\t// in\n    tag_140:\n      mload(0x40)\n      dup1\n      swap2\n      sub\n      swap1\n      revert\n    tag_139:\n        /* \"web3/contracts/W3CBBadgeNFT.sol\":3297:3310  address owner */\n      0x00\n        /* \"web3/contracts/W3CBBadgeNFT.sol\":3313:3329  ownerOf(tokenId) */\n      tag_142\n        /* \"web3/contracts/W3CBBadgeNFT.sol\":3321:3328  tokenId */\n      dup4\n        /* \"web3/contracts/W3CBBadgeNFT.sol\":3313:3320  ownerOf */\n      tag_35\n        /* \"web3/contracts/W3CBBadgeNFT.sol\":3313:3329  ownerOf(tokenId) */\n      jump\t// in\n    tag_142:\n        /* \"web3/contracts/W3CBBadgeNFT.sol\":3297:3329  address owner = ownerOf(tokenId) */\n      swap1\n      pop\n        /* \"web3/contracts/W3CBBadgeNFT.sol\":3359:3364  owner */\n      dup1\n        /* \"web3/contracts/W3CBBadgeNFT.sol\":3348:3364  spender == owner */\n      0xffffffffffffffffffffffffffffffffffffffff\n      and\n        /* \"web3/contracts/W3CBBadgeNFT.sol\":3348:3355  spender */\n      dup5\n        /* \"web3/contracts/W3CBBadgeNFT.sol\":3348:3364  spender == owner */\n      0xffffffffffffffffffffffffffffffffffffffff\n      and\n      eq\n        /* \"web3/contracts/W3CBBadgeNFT.sol\":3348:3399  spender == owner || getApproved(tokenId) == spender */\n      dup1\n      tag_143\n      jumpi\n      pop\n        /* \"web3/contracts/W3CBBadgeNFT.sol\":3392:3399  spender */\n      dup4\n        /* \"web3/contracts/W3CBBadgeNFT.sol\":3368:3399  getApproved(tokenId) == spender */\n      0xffffffffffffffffffffffffffffffffffffffff\n      and\n        /* \"web3/contracts/W3CBBadgeNFT.sol\":3368:3388  getApproved(tokenId) */\n      tag_144\n        /* \"web3/contracts/W3CBBadgeNFT.sol\":3380:3387  tokenId */\n      dup5\n        /* \"web3/contracts/W3CBBadgeNFT.sol\":3368:3379  getApproved */\n      tag_22\n        /* \"web3/contracts/W3CBBadgeNFT.sol\":3368:3388  getApproved(tokenId) */\n      jump\t// in\n    tag_144:\n        /* \"web3/contracts/W3CBBadgeNFT.sol\":3368:3399  getApproved(tokenId) == spender */\n      0xffffffffffffffffffffffffffffffffffffffff\n      and\n      eq\n        /* \"web3/contracts/W3CBBadgeNFT.sol\":3348:3399  spender == owner || getApproved(tokenId) == spender */\n    tag_143:\n        /* \"web3/contracts/W3CBBadgeNFT.sol\":3348:3435  spender == owner || getApproved(tokenId) == spender || isApprovedForAll(owner, spender) */\n      dup1\n      tag_145\n      jumpi\n      pop\n        /* \"web3/contracts/W3CBBadgeNFT.sol\":3403:3435  isApprovedForAll(owner, spender) */\n      tag_146\n        /* \"web3/contracts/W3CBBadgeNFT.sol\":3420:3425  owner */\n      dup2\n        /* \"web3/contracts/W3CBBadgeNFT.sol\":3427:3434  spender */\n      dup6\n        /* \"web3/contracts/W3CBBadgeNFT.sol\":3403:3419  isApprovedForAll */\n      tag_61\n        /* \"web3/contracts/W3CBBadgeNFT.sol\":3403:3435  isApprovedForAll(owner, spender) */\n      jump\t// in\n    tag_146:\n        /* \"web3/contracts/W3CBBadgeNFT.sol\":3348:3435  spender == owner || getApproved(tokenId) == spender || isApprovedForAll(owner, spender) */\n    tag_145:\n        /* \"web3/contracts/W3CBBadgeNFT.sol\":3340:3436  return (spender == owner || getApproved(tokenId) == spender || isApprovedForAll(owner, spender)) */\n      swap2\n      pop\n      pop\n        /* \"web3/contracts/W3CBBadgeNFT.sol\":3111:3444  function _isApprovedOrOwner(address spender, uint256 tokenId) internal view returns (bool) {... */\n      swap3\n      swap2\n      pop\n      pop\n      jump\t// out\n        /* \"web3/contracts/W3CBBadgeNFT.sol\":3452:3928  function _transfer(address from, address to, uint256 tokenId) internal {... */\n    tag_93:\n        /* \"web3/contracts/W3CBBadgeNFT.sol\":3562:3566  from */\n      dup3\n        /* \"web3/contracts/W3CBBadgeNFT.sol\":3542:3566  ownerOf(tokenId) == from */\n      0xffffffffffffffffffffffffffffffffffffffff\n      and\n        /* \"web3/contracts/W3CBBadgeNFT.sol\":3542:3558  ownerOf(tokenId) */\n      tag_148\n        /* \"web3/contracts/W3CBBadgeNFT.sol\":3550:3557  tokenId */\n      dup3\n        /* \"web3/contracts/W3CBBadgeNFT.sol\":3542:3549  ownerOf */\n      tag_35\n        /* \"web3/contracts/W3CBBadgeNFT.sol\":3542:3558  ownerOf(tokenId) */\n      jump\t// in\n    tag_148:\n        /* \"web3/contracts/W3CBBadgeNFT.sol\":3542:3566  ownerOf(tokenId) == from */\n      0xffffffffffffffffffffffffffffffffffffffff\n      and\n      eq\n        /* \"web3/contracts/W3CBBadgeNFT.sol\":3534:3612  require(ownerOf(tokenId) == from, \"ERC721: transfer of token that is not own\") */\n      tag_149\n      jumpi\n      mload(0x40)\n      0x08c379a000000000000000000000000000000000000000000000000000000000\n      dup2\n      mstore\n      0x04\n      add\n      tag_150\n      swap1\n      tag_151\n      jump\t// in\n    tag_150:\n      mload(0x40)\n      dup1\n      swap2\n      sub\n      swap1\n      revert\n    tag_149:\n        /* \"web3/contracts/W3CBBadgeNFT.sol\":3645:3646  0 */\n      0x00\n        /* \"web3/contracts/W3CBBadgeNFT.sol\":3631:3647  to != address(0) */\n      0xffffffffffffffffffffffffffffffffffffffff\n      and\n        /* \"web3/contracts/W3CBBadgeNFT.sol\":3631:3633  to */\n      dup3\n        /* \"web3/contracts/W3CBBadgeNFT.sol\":3631:3647  to != address(0) */\n      0xffffffffffffffffffffffffffffffffffffffff\n      and\n      sub\n        /* \"web3/contracts/W3CBBadgeNFT.sol\":3623:3688  require(to != address(0), \"ERC721: transfer to the zero address\") */\n      tag_152\n      jumpi\n      mload(0x40)\n      0x08c379a000000000000000000000000000000000000000000000000000000000\n      dup2\n      mstore\n      0x04\n      add\n      tag_153\n      swap1\n      tag_154\n      jump\t// in\n    tag_153:\n      mload(0x40)\n      dup1\n      swap2\n      sub\n      swap1\n      revert\n    tag_152:\n        /* \"web3/contracts/W3CBBadgeNFT.sol\":3753:3781  approve(address(0), tokenId) */\n      tag_155\n        /* \"web3/contracts/W3CBBadgeNFT.sol\":3769:3770  0 */\n      0x00\n        /* \"web3/contracts/W3CBBadgeNFT.sol\":3773:3780  tokenId */\n      dup3\n        /* \"web3/contracts/W3CBBadgeNFT.sol\":3753:3760  approve */\n      tag_28\n        /* \"web3/contracts/W3CBBadgeNFT.sol\":3753:3781  approve(address(0), tokenId) */\n      jump\t// in\n    tag_155:\n        /* \"web3/contracts/W3CBBadgeNFT.sol\":3813:3814  1 */\n      0x01\n        /* \"web3/contracts/W3CBBadgeNFT.sol\":3794:3803  _balances */\n      0x03\n        /* \"web3/contracts/W3CBBadgeNFT.sol\":3794:3809  _balances[from] */\n      0x00\n        /* \"web3/contracts/W3CBBadgeNFT.sol\":3804:3808  from */\n      dup6\n        /* \"web3/contracts/W3CBBadgeNFT.sol\":3794:3809  _balances[from] */\n      0xffffffffffffffffffffffffffffffffffffffff\n      and\n      0xffffffffffffffffffffffffffffffffffffffff\n      and\n      dup2\n      mstore\n      0x20\n      add\n      swap1\n      dup2\n      mstore\n      0x20\n      add\n      0x00\n      keccak256\n      0x00\n        /* \"web3/contracts/W3CBBadgeNFT.sol\":3794:3814  _balances[from] -= 1 */\n      dup3\n      dup3\n      sload\n      tag_156\n      swap2\n      swap1\n      tag_157\n      jump\t// in\n    tag_156:\n      swap3\n      pop\n      pop\n      dup2\n      swap1\n      sstore\n      pop\n        /* \"web3/contracts/W3CBBadgeNFT.sol\":3842:3843  1 */\n      0x01\n        /* \"web3/contracts/W3CBBadgeNFT.sol\":3825:3834  _balances */\n      0x03\n        /* \"web3/contracts/W3CBBadgeNFT.sol\":3825:3838  _balances[to] */\n      0x00\n        /* \"web3/contracts/W3CBBadgeNFT.sol\":3835:3837  to */\n      dup5\n        /* \"web3/contracts/W3CBBadgeNFT.sol\":3825:3838  _balances[to] */\n      0xffffffffffffffffffffffffffffffffffffffff\n      and\n      0xffffffffffffffffffffffffffffffffffffffff\n      and\n      dup2\n      mstore\n      0x20\n      add\n      swap1\n      dup2\n      mstore\n      0x20\n      add\n      0x00\n      keccak256\n      0x00\n        /* \"web3/contracts/W3CBBadgeNFT.sol\":3825:3843  _balances[to] += 1 */\n      dup3\n      dup3\n      sload\n      tag_158\n      swap2\n      swap1\n      tag_124\n      jump\t// in\n    tag_158:\n      swap3\n      pop\n      pop\n      dup2\n      swap1\n      sstore\n      pop\n        /* \"web3/contracts/W3CBBadgeNFT.sol\":3873:3875  to */\n      dup2\n        /* \"web3/contracts/W3CBBadgeNFT.sol\":3854:3861  _owners */\n      0x02\n        /* \"web3/contracts/W3CBBadgeNFT.sol\":3854:3870  _owners[tokenId] */\n      0x00\n        /* \"web3/contracts/W3CBBadgeNFT.sol\":3862:3869  tokenId */\n      dup4\n        /* \"web3/contracts/W3CBBadgeNFT.sol\":3854:3870  _owners[tokenId] */\n      dup2\n      mstore\n      0x20\n      add\n      swap1\n      dup2\n      mstore\n      0x20\n      add\n      0x00\n      keccak256\n      0x00\n        /* \"web3/contracts/W3CBBadgeNFT.sol\":3854:3875  _owners[tokenId] = to */\n      0x0100\n      exp\n      dup2\n      sload\n      dup2\n      0xffffffffffffffffffffffffffffffffffffffff\n      mul\n      not\n      and\n      swap1\n      dup4\n      0xffffffffffffffffffffffffffffffffffffffff\n      and\n      mul\n      or\n      swap1\n      sstore\n      pop\n        /* \"web3/contracts/W3CBBadgeNFT.sol\":3912:3919  tokenId */\n      dup1\n        /* \"web3/contracts/W3CBBadgeNFT.sol\":3908:3910  to */\n      dup3\n        /* \"web3/contracts/W3CBBadgeNFT.sol\":3893:3920  Transfer(from, to, tokenId) */\n      0xffffffffffffffffffffffffffffffffffffffff\n      and\n        /* \"web3/contracts/W3CBBadgeNFT.sol\":3902:3906  from */\n      dup5\n        /* \"web3/contracts/W3CBBadgeNFT.sol\":3893:3920  Transfer(from, to, tokenId) */\n      0xffffffffffffffffffffffffffffffffffffffff\n      and\n      0xddf252ad1be2c89b69c2b068fc378daa952ba7f163c4a11628f55a4df523b3ef\n      mload(0x40)\n      mload(0x40)\n      dup1\n      swap2\n      sub\n      swap1\n      log4\n        /* \"web3/contracts/W3CBBadgeNFT.sol\":3452:3928  function _transfer(address from, address to, uint256 tokenId) internal {... */\n      pop\n      pop\n      pop\n      jump\t// out\n        /* \"web3/contracts/W3CBBadgeNFT.sol\":4380:4575  function _setTokenURI(uint256 tokenId, string memory uri) internal {... */\n    tag_134:\n        /* \"web3/contracts/W3CBBadgeNFT.sol\":4466:4482  _exists(tokenId) */\n      tag_160\n        /* \"web3/contracts/W3CBBadgeNFT.sol\":4474:4481  tokenId */\n      dup3\n        /* \"web3/contracts/W3CBBadgeNFT.sol\":4466:4473  _exists */\n      tag_72\n        /* \"web3/contracts/W3CBBadgeNFT.sol\":4466:4482  _exists(tokenId) */\n      jump\t// in\n    tag_160:\n        /* \"web3/contracts/W3CBBadgeNFT.sol\":4458:4531  require(_exists(tokenId), \"ERC721Metadata: URI set of nonexistent token\") */\n      tag_161\n      jumpi\n      mload(0x40)\n      0x08c379a000000000000000000000000000000000000000000000000000000000\n      dup2\n      mstore\n      0x04\n      add\n      tag_162\n      swap1\n      tag_163\n      jump\t// in\n    tag_162:\n      mload(0x40)\n      dup1\n      swap2\n      sub\n      swap1\n      revert\n    tag_161:\n        /* \"web3/contracts/W3CBBadgeNFT.sol\":4564:4567  uri */\n      dup1\n        /* \"web3/contracts/W3CBBadgeNFT.sol\":4542:4552  _tokenURIs */\n      0x06\n        /* \"web3/contracts/W3CBBadgeNFT.sol\":4542:4561  _tokenURIs[tokenId] */\n      0x00\n        /* \"web3/contracts/W3CBBadgeNFT.sol\":4553:4560  tokenId */\n      dup5\n        /* \"web3/contracts/W3CBBadgeNFT.sol\":4542:4561  _tokenURIs[tokenId] */\n      dup2\n      mstore\n      0x20\n      add\n      swap1\n      dup2\n      mstore\n      0x20\n      add\n      0x00\n      keccak256\n        /* \"web3/contracts/W3CBBadgeNFT.sol\":4542:4567  _tokenURIs[tokenId] = uri */\n      swap1\n      dup2\n      tag_164\n      swap2\n      swap1\n      tag_165\n      jump\t// in\n    tag_164:\n      pop\n        /* \"web3/contracts/W3CBBadgeNFT.sol\":4380:4575  function _setTokenURI(uint256 tokenId, string memory uri) internal {... */\n      pop\n      pop\n      jump\t// out\n        /* \"#utility.yul\":7:106   */\n    tag_166:\n        /* \"#utility.yul\":59:65   */\n      0x00\n        /* \"#utility.yul\":93:98   */\n      dup2\n        /* \"#utility.yul\":87:99   */\n      mload\n        /* \"#utility.yul\":77:99   */\n      swap1\n      pop\n        /* \"#utility.yul\":7:106   */\n      swap2\n      swap1\n      pop\n      jump\t// out\n        /* \"#utility.yul\":112:281   */\n    tag_167:\n        /* \"#utility.yul\":196:207   */\n      0x00\n        /* \"#utility.yul\":230:236   */\n      dup3\n        /* \"#utility.yul\":225:228   */\n      dup3\n        /* \"#utility.yul\":218:237   */\n      mstore\n        /* \"#utility.yul\":270:274   */\n      0x20\n        /* \"#utility.yul\":265:268   */\n      dup3\n        /* \"#utility.yul\":261:275   */\n      add\n        /* \"#utility.yul\":246:275   */\n      swap1\n      pop\n        /* \"#utility.yul\":112:281   */\n      swap3\n      swap2\n      pop\n      pop\n      jump\t// out\n        /* \"#utility.yul\":287:533   */\n    tag_168:\n        /* \"#utility.yul\":368:369   */\n      0x00\n        /* \"#utility.yul\":378:491   */\n    tag_245:\n        /* \"#utility.yul\":392:398   */\n      dup4\n        /* \"#utility.yul\":389:390   */\n      dup2\n        /* \"#utility.yul\":386:399   */\n      lt\n        /* \"#utility.yul\":378:491   */\n      iszero\n      tag_247\n      jumpi\n        /* \"#utility.yul\":477:478   */\n      dup1\n        /* \"#utility.yul\":472:475   */\n      dup3\n        /* \"#utility.yul\":468:479   */\n      add\n        /* \"#utility.yul\":462:480   */\n      mload\n        /* \"#utility.yul\":458:459   */\n      dup2\n        /* \"#utility.yul\":453:456   */\n      dup5\n        /* \"#utility.yul\":449:460   */\n      add\n        /* \"#utility.yul\":442:481   */\n      mstore\n        /* \"#utility.yul\":414:416   */\n      0x20\n        /* \"#utility.yul\":411:412   */\n      dup2\n        /* \"#utility.yul\":407:417   */\n      add\n        /* \"#utility.yul\":402:417   */\n      swap1\n      pop\n        /* \"#utility.yul\":378:491   */\n      jump(tag_245)\n    tag_247:\n        /* \"#utility.yul\":525:526   */\n      0x00\n        /* \"#utility.yul\":516:522   */\n      dup5\n        /* \"#utility.yul\":511:514   */\n      dup5\n        /* \"#utility.yul\":507:523   */\n      add\n        /* \"#utility.yul\":500:527   */\n      mstore\n        /* \"#utility.yul\":349:533   */\n      pop\n        /* \"#utility.yul\":287:533   */\n      pop\n      pop\n      pop\n      jump\t// out\n        /* \"#utility.yul\":539:641   */\n    tag_169:\n        /* \"#utility.yul\":580:586   */\n      0x00\n        /* \"#utility.yul\":631:633   */\n      0x1f\n        /* \"#utility.yul\":627:634   */\n      not\n        /* \"#utility.yul\":622:624   */\n      0x1f\n        /* \"#utility.yul\":615:620   */\n      dup4\n        /* \"#utility.yul\":611:625   */\n      add\n        /* \"#utility.yul\":607:635   */\n      and\n        /* \"#utility.yul\":597:635   */\n      swap1\n      pop\n        /* \"#utility.yul\":539:641   */\n      swap2\n      swap1\n      pop\n      jump\t// out\n        /* \"#utility.yul\":647:1024   */\n    tag_170:\n        /* \"#utility.yul\":735:738   */\n      0x00\n        /* \"#utility.yul\":763:802   */\n      tag_250\n        /* \"#utility.yul\":796:801   */\n      dup3\n        /* \"#utility.yul\":763:802   */\n      tag_166\n      jump\t// in\n    tag_250:\n        /* \"#utility.yul\":818:889   */\n      tag_251\n        /* \"#utility.yul\":882:888   */\n      dup2\n        /* \"#utility.yul\":877:880   */\n      dup6\n        /* \"#utility.yul\":818:889   */\n      tag_167\n      jump\t// in\n    tag_251:\n        /* \"#utility.yul\":811:889   */\n      swap4\n      pop\n        /* \"#utility.yul\":898:963   */\n      tag_252\n        /* \"#utility.yul\":956:962   */\n      dup2\n        /* \"#utility.yul\":951:954   */\n      dup6\n        /* \"#utility.yul\":944:948   */\n      0x20\n        /* \"#utility.yul\":937:942   */\n      dup7\n        /* \"#utility.yul\":933:949   */\n      add\n        /* \"#utility.yul\":898:963   */\n      tag_168\n      jump\t// in\n    tag_252:\n        /* \"#utility.yul\":988:1017   */\n      tag_253\n        /* \"#utility.yul\":1010:1016   */\n      dup2\n        /* \"#utility.yul\":988:1017   */\n      tag_169\n      jump\t// in\n    tag_253:\n        /* \"#utility.yul\":983:986   */\n      dup5\n        /* \"#utility.yul\":979:1018   */\n      add\n        /* \"#utility.yul\":972:1018   */\n      swap2\n      pop\n        /* \"#utility.yul\":739:1024   */\n      pop\n        /* \"#utility.yul\":647:1024   */\n      swap3\n      swap2\n      pop\n      pop\n      jump\t// out\n        /* \"#utility.yul\":1030:1343   */\n    tag_18:\n        /* \"#utility.yul\":1143:1147   */\n      0x00\n        /* \"#utility.yul\":1181:1183   */\n      0x20\n        /* \"#utility.yul\":1170:1179   */\n      dup3\n        /* \"#utility.yul\":1166:1184   */\n      add\n        /* \"#utility.yul\":1158:1184   */\n      swap1\n      pop\n        /* \"#utility.yul\":1230:1239   */\n      dup2\n        /* \"#utility.yul\":1224:1228   */\n      dup2\n        /* \"#utility.yul\":1220:1240   */\n      sub\n        /* \"#utility.yul\":1216:1217   */\n      0x00\n        /* \"#utility.yul\":1205:1214   */\n      dup4\n        /* \"#utility.yul\":1201:1218   */\n      add\n        /* \"#utility.yul\":1194:1241   */\n      mstore\n        /* \"#utility.yul\":1258:1336   */\n      tag_255\n        /* \"#utility.yul\":1331:1335   */\n      dup2\n        /* \"#utility.yul\":1322:1328   */\n      dup5\n        /* \"#utility.yul\":1258:1336   */\n      tag_170\n      jump\t// in\n    tag_255:\n        /* \"#utility.yul\":1250:1336   */\n      swap1\n      pop\n        /* \"#utility.yul\":1030:1343   */\n      swap3\n      swap2\n      pop\n      pop\n      jump\t// out\n        /* \"#utility.yul\":1349:1424   */\n    tag_171:\n        /* \"#utility.yul\":1382:1388   */\n      0x00\n        /* \"#utility.yul\":1415:1417   */\n      0x40\n        /* \"#utility.yul\":1409:1418   */\n      mload\n        /* \"#utility.yul\":1399:1418   */\n      swap1\n      pop\n        /* \"#utility.yul\":1349:1424   */\n      swap1\n      jump\t// out\n        /* \"#utility.yul\":1430:1547   */\n    tag_172:\n        /* \"#utility.yul\":1539:1540   */\n      0x00\n        /* \"#utility.yul\":1536:1537   */\n      dup1\n        /* \"#utility.yul\":1529:1541   */\n      revert\n        /* \"#utility.yul\":1553:1670   */\n    tag_173:\n        /* \"#utility.yul\":1662:1663   */\n      0x00\n        /* \"#utility.yul\":1659:1660   */\n      dup1\n        /* \"#utility.yul\":1652:1664   */\n      revert\n        /* \"#utility.yul\":1676:1753   */\n    tag_174:\n        /* \"#utility.yul\":1713:1720   */\n      0x00\n        /* \"#utility.yul\":1742:1747   */\n      dup2\n        /* \"#utility.yul\":1731:1747   */\n      swap1\n      pop\n        /* \"#utility.yul\":1676:1753   */\n      swap2\n      swap1\n      pop\n      jump\t// out\n        /* \"#utility.yul\":1759:1881   */\n    tag_175:\n        /* \"#utility.yul\":1832:1856   */\n      tag_261\n        /* \"#utility.yul\":1850:1855   */\n      dup2\n        /* \"#utility.yul\":1832:1856   */\n      tag_174\n      jump\t// in\n    tag_261:\n        /* \"#utility.yul\":1825:1830   */\n      dup2\n        /* \"#utility.yul\":1822:1857   */\n      eq\n        /* \"#utility.yul\":1812:1875   */\n      tag_262\n      jumpi\n        /* \"#utility.yul\":1871:1872   */\n      0x00\n        /* \"#utility.yul\":1868:1869   */\n      dup1\n        /* \"#utility.yul\":1861:1873   */\n      revert\n        /* \"#utility.yul\":1812:1875   */\n    tag_262:\n        /* \"#utility.yul\":1759:1881   */\n      pop\n      jump\t// out\n        /* \"#utility.yul\":1887:2026   */\n    tag_176:\n        /* \"#utility.yul\":1933:1938   */\n      0x00\n        /* \"#utility.yul\":1971:1977   */\n      dup2\n        /* \"#utility.yul\":1958:1978   */\n      calldataload\n        /* \"#utility.yul\":1949:1978   */\n      swap1\n      pop\n        /* \"#utility.yul\":1987:2020   */\n      tag_264\n        /* \"#utility.yul\":2014:2019   */\n      dup2\n        /* \"#utility.yul\":1987:2020   */\n      tag_175\n      jump\t// in\n    tag_264:\n        /* \"#utility.yul\":1887:2026   */\n      swap3\n      swap2\n      pop\n      pop\n      jump\t// out\n        /* \"#utility.yul\":2032:2361   */\n    tag_21:\n        /* \"#utility.yul\":2091:2097   */\n      0x00\n        /* \"#utility.yul\":2140:2142   */\n      0x20\n        /* \"#utility.yul\":2128:2137   */\n      dup3\n        /* \"#utility.yul\":2119:2126   */\n      dup5\n        /* \"#utility.yul\":2115:2138   */\n      sub\n        /* \"#utility.yul\":2111:2143   */\n      slt\n        /* \"#utility.yul\":2108:2227   */\n      iszero\n      tag_266\n      jumpi\n        /* \"#utility.yul\":2146:2225   */\n      tag_267\n      tag_172\n      jump\t// in\n    tag_267:\n        /* \"#utility.yul\":2108:2227   */\n    tag_266:\n        /* \"#utility.yul\":2266:2267   */\n      0x00\n        /* \"#utility.yul\":2291:2344   */\n      tag_268\n        /* \"#utility.yul\":2336:2343   */\n      dup5\n        /* \"#utility.yul\":2327:2333   */\n      dup3\n        /* \"#utility.yul\":2316:2325   */\n      dup6\n        /* \"#utility.yul\":2312:2334   */\n      add\n        /* \"#utility.yul\":2291:2344   */\n      tag_176\n      jump\t// in\n    tag_268:\n        /* \"#utility.yul\":2281:2344   */\n      swap2\n      pop\n        /* \"#utility.yul\":2237:2354   */\n      pop\n        /* \"#utility.yul\":2032:2361   */\n      swap3\n      swap2\n      pop\n      pop\n      jump\t// out\n        /* \"#utility.yul\":2367:2493   */\n    tag_177:\n        /* \"#utility.yul\":2404:2411   */\n      0x00\n        /* \"#utility.yul\":2444:2486   */\n      0xffffffffffffffffffffffffffffffffffffffff\n        /* \"#utility.yul\":2437:2442   */\n      dup3\n        /* \"#utility.yul\":2433:2487   */\n      and\n        /* \"#utility.yul\":2422:2487   */\n      swap1\n      pop\n        /* \"#utility.yul\":2367:2493   */\n      swap2\n      swap1\n      pop\n      jump\t// out\n        /* \"#utility.yul\":2499:2595   */\n    tag_178:\n        /* \"#utility.yul\":2536:2543   */\n      0x00\n        /* \"#utility.yul\":2565:2589   */\n      tag_271\n        /* \"#utility.yul\":2583:2588   */\n      dup3\n        /* \"#utility.yul\":2565:2589   */\n      tag_177\n      jump\t// in\n    tag_271:\n        /* \"#utility.yul\":2554:2589   */\n      swap1\n      pop\n        /* \"#utility.yul\":2499:2595   */\n      swap2\n      swap1\n      pop\n      jump\t// out\n        /* \"#utility.yul\":2601:2719   */\n    tag_179:\n        /* \"#utility.yul\":2688:2712   */\n      tag_273\n        /* \"#utility.yul\":2706:2711   */\n      dup2\n        /* \"#utility.yul\":2688:2712   */\n      tag_178\n      jump\t// in\n    tag_273:\n        /* \"#utility.yul\":2683:2686   */\n      dup3\n        /* \"#utility.yul\":2676:2713   */\n      mstore\n        /* \"#utility.yul\":2601:2719   */\n      pop\n      pop\n      jump\t// out\n        /* \"#utility.yul\":2725:2947   */\n    tag_24:\n        /* \"#utility.yul\":2818:2822   */\n      0x00\n        /* \"#utility.yul\":2856:2858   */\n      0x20\n        /* \"#utility.yul\":2845:2854   */\n      dup3\n        /* \"#utility.yul\":2841:2859   */\n      add\n        /* \"#utility.yul\":2833:2859   */\n      swap1\n      pop\n        /* \"#utility.yul\":2869:2940   */\n      tag_275\n        /* \"#utility.yul\":2937:2938   */\n      0x00\n        /* \"#utility.yul\":2926:2935   */\n      dup4\n        /* \"#utility.yul\":2922:2939   */\n      add\n        /* \"#utility.yul\":2913:2919   */\n      dup5\n        /* \"#utility.yul\":2869:2940   */\n      tag_179\n      jump\t// in\n    tag_275:\n        /* \"#utility.yul\":2725:2947   */\n      swap3\n      swap2\n      pop\n      pop\n      jump\t// out\n        /* \"#utility.yul\":2953:3075   */\n    tag_180:\n        /* \"#utility.yul\":3026:3050   */\n      tag_277\n        /* \"#utility.yul\":3044:3049   */\n      dup2\n        /* \"#utility.yul\":3026:3050   */\n      tag_178\n      jump\t// in\n    tag_277:\n        /* \"#utility.yul\":3019:3024   */\n      dup2\n        /* \"#utility.yul\":3016:3051   */\n      eq\n        /* \"#utility.yul\":3006:3069   */\n      tag_278\n      jumpi\n        /* \"#utility.yul\":3065:3066   */\n      0x00\n        /* \"#utility.yul\":3062:3063   */\n      dup1\n        /* \"#utility.yul\":3055:3067   */\n      revert\n        /* \"#utility.yul\":3006:3069   */\n    tag_278:\n        /* \"#utility.yul\":2953:3075   */\n      pop\n      jump\t// out\n        /* \"#utility.yul\":3081:3220   */\n    tag_181:\n        /* \"#utility.yul\":3127:3132   */\n      0x00\n        /* \"#utility.yul\":3165:3171   */\n      dup2\n        /* \"#utility.yul\":3152:3172   */\n      calldataload\n        /* \"#utility.yul\":3143:3172   */\n      swap1\n      pop\n        /* \"#utility.yul\":3181:3214   */\n      tag_280\n        /* \"#utility.yul\":3208:3213   */\n      dup2\n        /* \"#utility.yul\":3181:3214   */\n      tag_180\n      jump\t// in\n    tag_280:\n        /* \"#utility.yul\":3081:3220   */\n      swap3\n      swap2\n      pop\n      pop\n      jump\t// out\n        /* \"#utility.yul\":3226:3700   */\n    tag_27:\n        /* \"#utility.yul\":3294:3300   */\n      0x00\n        /* \"#utility.yul\":3302:3308   */\n      dup1\n        /* \"#utility.yul\":3351:3353   */\n      0x40\n        /* \"#utility.yul\":3339:3348   */\n      dup4\n        /* \"#utility.yul\":3330:3337   */\n      dup6\n        /* \"#utility.yul\":3326:3349   */\n      sub\n        /* \"#utility.yul\":3322:3354   */\n      slt\n        /* \"#utility.yul\":3319:3438   */\n      iszero\n      tag_282\n      jumpi\n        /* \"#utility.yul\":3357:3436   */\n      tag_283\n      tag_172\n      jump\t// in\n    tag_283:\n        /* \"#utility.yul\":3319:3438   */\n    tag_282:\n        /* \"#utility.yul\":3477:3478   */\n      0x00\n        /* \"#utility.yul\":3502:3555   */\n      tag_284\n        /* \"#utility.yul\":3547:3554   */\n      dup6\n        /* \"#utility.yul\":3538:3544   */\n      dup3\n        /* \"#utility.yul\":3527:3536   */\n      dup7\n        /* \"#utility.yul\":3523:3545   */\n      add\n        /* \"#utility.yul\":3502:3555   */\n      tag_181\n      jump\t// in\n    tag_284:\n        /* \"#utility.yul\":3492:3555   */\n      swap3\n      pop\n        /* \"#utility.yul\":3448:3565   */\n      pop\n        /* \"#utility.yul\":3604:3606   */\n      0x20\n        /* \"#utility.yul\":3630:3683   */\n      tag_285\n        /* \"#utility.yul\":3675:3682   */\n      dup6\n        /* \"#utility.yul\":3666:3672   */\n      dup3\n        /* \"#utility.yul\":3655:3664   */\n      dup7\n        /* \"#utility.yul\":3651:3673   */\n      add\n        /* \"#utility.yul\":3630:3683   */\n      tag_176\n      jump\t// in\n    tag_285:\n        /* \"#utility.yul\":3620:3683   */\n      swap2\n      pop\n        /* \"#utility.yul\":3575:3693   */\n      pop\n        /* \"#utility.yul\":3226:3700   */\n      swap3\n      pop\n      swap3\n      swap1\n      pop\n      jump\t// out\n        /* \"#utility.yul\":3706:4325   */\n    tag_31:\n        /* \"#utility.yul\":3783:3789   */\n      0x00\n        /* \"#utility.yul\":3791:3797   */\n      dup1\n        /* \"#utility.yul\":3799:3805   */\n      0x00\n        /* \"#utility.yul\":3848:3850   */\n      0x60\n        /* \"#utility.yul\":3836:3845   */\n      dup5\n        /* \"#utility.yul\":3827:3834   */\n      dup7\n        /* \"#utility.yul\":3823:3846   */\n      sub\n        /* \"#utility.yul\":3819:3851   */\n      slt\n        /* \"#utility.yul\":3816:3935   */\n      iszero\n      tag_287\n      jumpi\n        /* \"#utility.yul\":3854:3933   */\n      tag_288\n      tag_172\n      jump\t// in\n    tag_288:\n        /* \"#utility.yul\":3816:3935   */\n    tag_287:\n        /* \"#utility.yul\":3974:3975   */\n      0x00\n        /* \"#utility.yul\":3999:4052   */\n      tag_289\n        /* \"#utility.yul\":4044:4051   */\n      dup7\n        /* \"#utility.yul\":4035:4041   */\n      dup3\n        /* \"#utility.yul\":4024:4033   */\n      dup8\n        /* \"#utility.yul\":4020:4042   */\n      add\n        /* \"#utility.yul\":3999:4052   */\n      tag_181\n      jump\t// in\n    tag_289:\n        /* \"#utility.yul\":3989:4052   */\n      swap4\n      pop\n        /* \"#utility.yul\":3945:4062   */\n      pop\n        /* \"#utility.yul\":4101:4103   */\n      0x20\n        /* \"#utility.yul\":4127:4180   */\n      tag_290\n        /* \"#utility.yul\":4172:4179   */\n      dup7\n        /* \"#utility.yul\":4163:4169   */\n      dup3\n        /* \"#utility.yul\":4152:4161   */\n      dup8\n        /* \"#utility.yul\":4148:4170   */\n      add\n        /* \"#utility.yul\":4127:4180   */\n      tag_181\n      jump\t// in\n    tag_290:\n        /* \"#utility.yul\":4117:4180   */\n      swap3\n      pop\n        /* \"#utility.yul\":4072:4190   */\n      pop\n        /* \"#utility.yul\":4229:4231   */\n      0x40\n        /* \"#utility.yul\":4255:4308   */\n      tag_291\n        /* \"#utility.yul\":4300:4307   */\n      dup7\n        /* \"#utility.yul\":4291:4297   */\n      dup3\n        /* \"#utility.yul\":4280:4289   */\n      dup8\n        /* \"#utility.yul\":4276:4298   */\n      add\n        /* \"#utility.yul\":4255:4308   */\n      tag_176\n      jump\t// in\n    tag_291:\n        /* \"#utility.yul\":4245:4308   */\n      swap2\n      pop\n        /* \"#utility.yul\":4200:4318   */\n      pop\n        /* \"#utility.yul\":3706:4325   */\n      swap3\n      pop\n      swap3\n      pop\n      swap3\n      jump\t// out\n        /* \"#utility.yul\":4331:4660   */\n    tag_39:\n        /* \"#utility.yul\":4390:4396   */\n      0x00\n        /* \"#utility.yul\":4439:4441   */\n      0x20\n        /* \"#utility.yul\":4427:4436   */\n      dup3\n        /* \"#utility.yul\":4418:4425   */\n      dup5\n        /* \"#utility.yul\":4414:4437   */\n      sub\n        /* \"#utility.yul\":4410:4442   */\n      slt\n        /* \"#utility.yul\":4407:4526   */\n      iszero\n      tag_293\n      jumpi\n        /* \"#utility.yul\":4445:4524   */\n      tag_294\n      tag_172\n      jump\t// in\n    tag_294:\n        /* \"#utility.yul\":4407:4526   */\n    tag_293:\n        /* \"#utility.yul\":4565:4566   */\n      0x00\n        /* \"#utility.yul\":4590:4643   */\n      tag_295\n        /* \"#utility.yul\":4635:4642   */\n      dup5\n        /* \"#utility.yul\":4626:4632   */\n      dup3\n        /* \"#utility.yul\":4615:4624   */\n      dup6\n        /* \"#utility.yul\":4611:4633   */\n      add\n        /* \"#utility.yul\":4590:4643   */\n      tag_181\n      jump\t// in\n    tag_295:\n        /* \"#utility.yul\":4580:4643   */\n      swap2\n      pop\n        /* \"#utility.yul\":4536:4653   */\n      pop\n        /* \"#utility.yul\":4331:4660   */\n      swap3\n      swap2\n      pop\n      pop\n      jump\t// out\n        /* \"#utility.yul\":4666:4784   */\n    tag_182:\n        /* \"#utility.yul\":4753:4777   */\n      tag_297\n        /* \"#utility.yul\":4771:4776   */\n      dup2\n        /* \"#utility.yul\":4753:4777   */\n      tag_174\n      jump\t// in\n    tag_297:\n        /* \"#utility.yul\":4748:4751   */\n      dup3\n        /* \"#utility.yul\":4741:4778   */\n      mstore\n        /* \"#utility.yul\":4666:4784   */\n      pop\n      pop\n      jump\t// out\n        /* \"#utility.yul\":4790:5012   */\n    tag_42:\n        /* \"#utility.yul\":4883:4887   */\n      0x00\n        /* \"#utility.yul\":4921:4923   */\n      0x20\n        /* \"#utility.yul\":4910:4919   */\n      dup3\n        /* \"#utility.yul\":4906:4924   */\n      add\n        /* \"#utility.yul\":4898:4924   */\n      swap1\n      pop\n        /* \"#utility.yul\":4934:5005   */\n      tag_299\n        /* \"#utility.yul\":5002:5003   */\n      0x00\n        /* \"#utility.yul\":4991:5000   */\n      dup4\n        /* \"#utility.yul\":4987:5004   */\n      add\n        /* \"#utility.yul\":4978:4984   */\n      dup5\n        /* \"#utility.yul\":4934:5005   */\n      tag_182\n      jump\t// in\n    tag_299:\n        /* \"#utility.yul\":4790:5012   */\n      swap3\n      swap2\n      pop\n      pop\n      jump\t// out\n        /* \"#utility.yul\":5018:5108   */\n    tag_183:\n        /* \"#utility.yul\":5052:5059   */\n      0x00\n        /* \"#utility.yul\":5095:5100   */\n      dup2\n        /* \"#utility.yul\":5088:5101   */\n      iszero\n        /* \"#utility.yul\":5081:5102   */\n      iszero\n        /* \"#utility.yul\":5070:5102   */\n      swap1\n      pop\n        /* \"#utility.yul\":5018:5108   */\n      swap2\n      swap1\n      pop\n      jump\t// out\n        /* \"#utility.yul\":5114:5230   */\n    tag_184:\n        /* \"#utility.yul\":5184:5205   */\n      tag_302\n        /* \"#utility.yul\":5199:5204   */\n      dup2\n        /* \"#utility.yul\":5184:5205   */\n      tag_183\n      jump\t// in\n    tag_302:\n        /* \"#utility.yul\":5177:5182   */\n      dup2\n        /* \"#utility.yul\":5174:5206   */\n      eq\n        /* \"#utility.yul\":5164:5224   */\n      tag_303\n      jumpi\n        /* \"#utility.yul\":5220:5221   */\n      0x00\n        /* \"#utility.yul\":5217:5218   */\n      dup1\n        /* \"#utility.yul\":5210:5222   */\n      revert\n        /* \"#utility.yul\":5164:5224   */\n    tag_303:\n        /* \"#utility.yul\":5114:5230   */\n      pop\n      jump\t// out\n        /* \"#utility.yul\":5236:5369   */\n    tag_185:\n        /* \"#utility.yul\":5279:5284   */\n      0x00\n        /* \"#utility.yul\":5317:5323   */\n      dup2\n        /* \"#utility.yul\":5304:5324   */\n      calldataload\n        /* \"#utility.yul\":5295:5324   */\n      swap1\n      pop\n        /* \"#utility.yul\":5333:5363   */\n      tag_305\n        /* \"#utility.yul\":5357:5362   */\n      dup2\n        /* \"#utility.yul\":5333:5363   */\n      tag_184\n      jump\t// in\n    tag_305:\n        /* \"#utility.yul\":5236:5369   */\n      swap3\n      swap2\n      pop\n      pop\n      jump\t// out\n        /* \"#utility.yul\":5375:5843   */\n    tag_48:\n        /* \"#utility.yul\":5440:5446   */\n      0x00\n        /* \"#utility.yul\":5448:5454   */\n      dup1\n        /* \"#utility.yul\":5497:5499   */\n      0x40\n        /* \"#utility.yul\":5485:5494   */\n      dup4\n        /* \"#utility.yul\":5476:5483   */\n      dup6\n        /* \"#utility.yul\":5472:5495   */\n      sub\n        /* \"#utility.yul\":5468:5500   */\n      slt\n        /* \"#utility.yul\":5465:5584   */\n      iszero\n      tag_307\n      jumpi\n        /* \"#utility.yul\":5503:5582   */\n      tag_308\n      tag_172\n      jump\t// in\n    tag_308:\n        /* \"#utility.yul\":5465:5584   */\n    tag_307:\n        /* \"#utility.yul\":5623:5624   */\n      0x00\n        /* \"#utility.yul\":5648:5701   */\n      tag_309\n        /* \"#utility.yul\":5693:5700   */\n      dup6\n        /* \"#utility.yul\":5684:5690   */\n      dup3\n        /* \"#utility.yul\":5673:5682   */\n      dup7\n        /* \"#utility.yul\":5669:5691   */\n      add\n        /* \"#utility.yul\":5648:5701   */\n      tag_181\n      jump\t// in\n    tag_309:\n        /* \"#utility.yul\":5638:5701   */\n      swap3\n      pop\n        /* \"#utility.yul\":5594:5711   */\n      pop\n        /* \"#utility.yul\":5750:5752   */\n      0x20\n        /* \"#utility.yul\":5776:5826   */\n      tag_310\n        /* \"#utility.yul\":5818:5825   */\n      dup6\n        /* \"#utility.yul\":5809:5815   */\n      dup3\n        /* \"#utility.yul\":5798:5807   */\n      dup7\n        /* \"#utility.yul\":5794:5816   */\n      add\n        /* \"#utility.yul\":5776:5826   */\n      tag_185\n      jump\t// in\n    tag_310:\n        /* \"#utility.yul\":5766:5826   */\n      swap2\n      pop\n        /* \"#utility.yul\":5721:5836   */\n      pop\n        /* \"#utility.yul\":5375:5843   */\n      swap3\n      pop\n      swap3\n      swap1\n      pop\n      jump\t// out\n        /* \"#utility.yul\":5849:5966   */\n    tag_186:\n        /* \"#utility.yul\":5958:5959   */\n      0x00\n        /* \"#utility.yul\":5955:5956   */\n      dup1\n        /* \"#utility.yul\":5948:5960   */\n      revert\n        /* \"#utility.yul\":5972:6089   */\n    tag_187:\n        /* \"#utility.yul\":6081:6082   */\n      0x00\n        /* \"#utility.yul\":6078:6079   */\n      dup1\n        /* \"#utility.yul\":6071:6083   */\n      revert\n        /* \"#utility.yul\":6095:6275   */\n    tag_188:\n        /* \"#utility.yul\":6143:6220   */\n      0x4e487b7100000000000000000000000000000000000000000000000000000000\n        /* \"#utility.yul\":6140:6141   */\n      0x00\n        /* \"#utility.yul\":6133:6221   */\n      mstore\n        /* \"#utility.yul\":6240:6244   */\n      0x41\n        /* \"#utility.yul\":6237:6238   */\n      0x04\n        /* \"#utility.yul\":6230:6245   */\n      mstore\n        /* \"#utility.yul\":6264:6268   */\n      0x24\n        /* \"#utility.yul\":6261:6262   */\n      0x00\n        /* \"#utility.yul\":6254:6269   */\n      revert\n        /* \"#utility.yul\":6281:6562   */\n    tag_189:\n        /* \"#utility.yul\":6364:6391   */\n      tag_315\n        /* \"#utility.yul\":6386:6390   */\n      dup3\n        /* \"#utility.yul\":6364:6391   */\n      tag_169\n      jump\t// in\n    tag_315:\n        /* \"#utility.yul\":6356:6362   */\n      dup2\n        /* \"#utility.yul\":6352:6392   */\n      add\n        /* \"#utility.yul\":6494:6500   */\n      dup2\n        /* \"#utility.yul\":6482:6492   */\n      dup2\n        /* \"#utility.yul\":6479:6501   */\n      lt\n        /* \"#utility.yul\":6458:6476   */\n      0xffffffffffffffff\n        /* \"#utility.yul\":6446:6456   */\n      dup3\n        /* \"#utility.yul\":6443:6477   */\n      gt\n        /* \"#utility.yul\":6440:6502   */\n      or\n        /* \"#utility.yul\":6437:6525   */\n      iszero\n      tag_316\n      jumpi\n        /* \"#utility.yul\":6505:6523   */\n      tag_317\n      tag_188\n      jump\t// in\n    tag_317:\n        /* \"#utility.yul\":6437:6525   */\n    tag_316:\n        /* \"#utility.yul\":6545:6555   */\n      dup1\n        /* \"#utility.yul\":6541:6543   */\n      0x40\n        /* \"#utility.yul\":6534:6556   */\n      mstore\n        /* \"#utility.yul\":6324:6562   */\n      pop\n        /* \"#utility.yul\":6281:6562   */\n      pop\n      pop\n      jump\t// out\n        /* \"#utility.yul\":6568:6697   */\n    tag_190:\n        /* \"#utility.yul\":6602:6608   */\n      0x00\n        /* \"#utility.yul\":6629:6649   */\n      tag_319\n      tag_171\n      jump\t// in\n    tag_319:\n        /* \"#utility.yul\":6619:6649   */\n      swap1\n      pop\n        /* \"#utility.yul\":6658:6691   */\n      tag_320\n        /* \"#utility.yul\":6686:6690   */\n      dup3\n        /* \"#utility.yul\":6678:6684   */\n      dup3\n        /* \"#utility.yul\":6658:6691   */\n      tag_189\n      jump\t// in\n    tag_320:\n        /* \"#utility.yul\":6568:6697   */\n      swap2\n      swap1\n      pop\n      jump\t// out\n        /* \"#utility.yul\":6703:7011   */\n    tag_191:\n        /* \"#utility.yul\":6765:6769   */\n      0x00\n        /* \"#utility.yul\":6855:6873   */\n      0xffffffffffffffff\n        /* \"#utility.yul\":6847:6853   */\n      dup3\n        /* \"#utility.yul\":6844:6874   */\n      gt\n        /* \"#utility.yul\":6841:6897   */\n      iszero\n      tag_322\n      jumpi\n        /* \"#utility.yul\":6877:6895   */\n      tag_323\n      tag_188\n      jump\t// in\n    tag_323:\n        /* \"#utility.yul\":6841:6897   */\n    tag_322:\n        /* \"#utility.yul\":6915:6944   */\n      tag_324\n        /* \"#utility.yul\":6937:6943   */\n      dup3\n        /* \"#utility.yul\":6915:6944   */\n      tag_169\n      jump\t// in\n    tag_324:\n        /* \"#utility.yul\":6907:6944   */\n      swap1\n      pop\n        /* \"#utility.yul\":6999:7003   */\n      0x20\n        /* \"#utility.yul\":6993:6997   */\n      dup2\n        /* \"#utility.yul\":6989:7004   */\n      add\n        /* \"#utility.yul\":6981:7004   */\n      swap1\n      pop\n        /* \"#utility.yul\":6703:7011   */\n      swap2\n      swap1\n      pop\n      jump\t// out\n        /* \"#utility.yul\":7017:7163   */\n    tag_192:\n        /* \"#utility.yul\":7114:7120   */\n      dup3\n        /* \"#utility.yul\":7109:7112   */\n      dup2\n        /* \"#utility.yul\":7104:7107   */\n      dup4\n        /* \"#utility.yul\":7091:7121   */\n      calldatacopy\n        /* \"#utility.yul\":7155:7156   */\n      0x00\n        /* \"#utility.yul\":7146:7152   */\n      dup4\n        /* \"#utility.yul\":7141:7144   */\n      dup4\n        /* \"#utility.yul\":7137:7153   */\n      add\n        /* \"#utility.yul\":7130:7157   */\n      mstore\n        /* \"#utility.yul\":7017:7163   */\n      pop\n      pop\n      pop\n      jump\t// out\n        /* \"#utility.yul\":7169:7594   */\n    tag_193:\n        /* \"#utility.yul\":7247:7252   */\n      0x00\n        /* \"#utility.yul\":7272:7338   */\n      tag_327\n        /* \"#utility.yul\":7288:7337   */\n      tag_328\n        /* \"#utility.yul\":7330:7336   */\n      dup5\n        /* \"#utility.yul\":7288:7337   */\n      tag_191\n      jump\t// in\n    tag_328:\n        /* \"#utility.yul\":7272:7338   */\n      tag_190\n      jump\t// in\n    tag_327:\n        /* \"#utility.yul\":7263:7338   */\n      swap1\n      pop\n        /* \"#utility.yul\":7361:7367   */\n      dup3\n        /* \"#utility.yul\":7354:7359   */\n      dup2\n        /* \"#utility.yul\":7347:7368   */\n      mstore\n        /* \"#utility.yul\":7399:7403   */\n      0x20\n        /* \"#utility.yul\":7392:7397   */\n      dup2\n        /* \"#utility.yul\":7388:7404   */\n      add\n        /* \"#utility.yul\":7437:7440   */\n      dup5\n        /* \"#utility.yul\":7428:7434   */\n      dup5\n        /* \"#utility.yul\":7423:7426   */\n      dup5\n        /* \"#utility.yul\":7419:7435   */\n      add\n        /* \"#utility.yul\":7416:7441   */\n      gt\n        /* \"#utility.yul\":7413:7525   */\n      iszero\n      tag_329\n      jumpi\n        /* \"#utility.yul\":7444:7523   */\n      tag_330\n      tag_187\n      jump\t// in\n    tag_330:\n        /* \"#utility.yul\":7413:7525   */\n    tag_329:\n        /* \"#utility.yul\":7534:7588   */\n      tag_331\n        /* \"#utility.yul\":7581:7587   */\n      dup5\n        /* \"#utility.yul\":7576:7579   */\n      dup3\n        /* \"#utility.yul\":7571:7574   */\n      dup6\n        /* \"#utility.yul\":7534:7588   */\n      tag_192\n      jump\t// in\n    tag_331:\n        /* \"#utility.yul\":7253:7594   */\n      pop\n        /* \"#utility.yul\":7169:7594   */\n      swap4\n      swap3\n      pop\n      pop\n      pop\n      jump\t// out\n        /* \"#utility.yul\":7614:7954   */\n    tag_194:\n        /* \"#utility.yul\":7670:7675   */\n      0x00\n        /* \"#utility.yul\":7719:7722   */\n      dup3\n        /* \"#utility.yul\":7712:7716   */\n      0x1f\n        /* \"#utility.yul\":7704:7710   */\n      dup4\n        /* \"#utility.yul\":7700:7717   */\n      add\n        /* \"#utility.yul\":7696:7723   */\n      slt\n        /* \"#utility.yul\":7686:7808   */\n      tag_333\n      jumpi\n        /* \"#utility.yul\":7727:7806   */\n      tag_334\n      tag_186\n      jump\t// in\n    tag_334:\n        /* \"#utility.yul\":7686:7808   */\n    tag_333:\n        /* \"#utility.yul\":7844:7850   */\n      dup2\n        /* \"#utility.yul\":7831:7851   */\n      calldataload\n        /* \"#utility.yul\":7869:7948   */\n      tag_335\n        /* \"#utility.yul\":7944:7947   */\n      dup5\n        /* \"#utility.yul\":7936:7942   */\n      dup3\n        /* \"#utility.yul\":7929:7933   */\n      0x20\n        /* \"#utility.yul\":7921:7927   */\n      dup7\n        /* \"#utility.yul\":7917:7934   */\n      add\n        /* \"#utility.yul\":7869:7948   */\n      tag_193\n      jump\t// in\n    tag_335:\n        /* \"#utility.yul\":7860:7948   */\n      swap2\n      pop\n        /* \"#utility.yul\":7676:7954   */\n      pop\n        /* \"#utility.yul\":7614:7954   */\n      swap3\n      swap2\n      pop\n      pop\n      jump\t// out\n        /* \"#utility.yul\":7960:8614   */\n    tag_56:\n        /* \"#utility.yul\":8038:8044   */\n      0x00\n        /* \"#utility.yul\":8046:8052   */\n      dup1\n        /* \"#utility.yul\":8095:8097   */\n      0x40\n        /* \"#utility.yul\":8083:8092   */\n      dup4\n        /* \"#utility.yul\":8074:8081   */\n      dup6\n        /* \"#utility.yul\":8070:8093   */\n      sub\n        /* \"#utility.yul\":8066:8098   */\n      slt\n        /* \"#utility.yul\":8063:8182   */\n      iszero\n      tag_337\n      jumpi\n        /* \"#utility.yul\":8101:8180   */\n      tag_338\n      tag_172\n      jump\t// in\n    tag_338:\n        /* \"#utility.yul\":8063:8182   */\n    tag_337:\n        /* \"#utility.yul\":8221:8222   */\n      0x00\n        /* \"#utility.yul\":8246:8299   */\n      tag_339\n        /* \"#utility.yul\":8291:8298   */\n      dup6\n        /* \"#utility.yul\":8282:8288   */\n      dup3\n        /* \"#utility.yul\":8271:8280   */\n      dup7\n        /* \"#utility.yul\":8267:8289   */\n      add\n        /* \"#utility.yul\":8246:8299   */\n      tag_181\n      jump\t// in\n    tag_339:\n        /* \"#utility.yul\":8236:8299   */\n      swap3\n      pop\n        /* \"#utility.yul\":8192:8309   */\n      pop\n        /* \"#utility.yul\":8376:8378   */\n      0x20\n        /* \"#utility.yul\":8365:8374   */\n      dup4\n        /* \"#utility.yul\":8361:8379   */\n      add\n        /* \"#utility.yul\":8348:8380   */\n      calldataload\n        /* \"#utility.yul\":8407:8425   */\n      0xffffffffffffffff\n        /* \"#utility.yul\":8399:8405   */\n      dup2\n        /* \"#utility.yul\":8396:8426   */\n      gt\n        /* \"#utility.yul\":8393:8510   */\n      iszero\n      tag_340\n      jumpi\n        /* \"#utility.yul\":8429:8508   */\n      tag_341\n      tag_173\n      jump\t// in\n    tag_341:\n        /* \"#utility.yul\":8393:8510   */\n    tag_340:\n        /* \"#utility.yul\":8534:8597   */\n      tag_342\n        /* \"#utility.yul\":8589:8596   */\n      dup6\n        /* \"#utility.yul\":8580:8586   */\n      dup3\n        /* \"#utility.yul\":8569:8578   */\n      dup7\n        /* \"#utility.yul\":8565:8587   */\n      add\n        /* \"#utility.yul\":8534:8597   */\n      tag_194\n      jump\t// in\n    tag_342:\n        /* \"#utility.yul\":8524:8597   */\n      swap2\n      pop\n        /* \"#utility.yul\":8319:8607   */\n      pop\n        /* \"#utility.yul\":7960:8614   */\n      swap3\n      pop\n      swap3\n      swap1\n      pop\n      jump\t// out\n        /* \"#utility.yul\":8620:9094   */\n    tag_60:\n        /* \"#utility.yul\":8688:8694   */\n      0x00\n        /* \"#utility.yul\":8696:8702   */\n      dup1\n        /* \"#utility.yul\":8745:8747   */\n      0x40\n        /* \"#utility.yul\":8733:8742   */\n      dup4\n        /* \"#utility.yul\":8724:8731   */\n      dup6\n        /* \"#utility.yul\":8720:8743   */\n      sub\n        /* \"#utility.yul\":8716:8748   */\n      slt\n        /* \"#utility.yul\":8713:8832   */\n      iszero\n      tag_344\n      jumpi\n        /* \"#utility.yul\":8751:8830   */\n      tag_345\n      tag_172\n      jump\t// in\n    tag_345:\n        /* \"#utility.yul\":8713:8832   */\n    tag_344:\n        /* \"#utility.yul\":8871:8872   */\n      0x00\n        /* \"#utility.yul\":8896:8949   */\n      tag_346\n        /* \"#utility.yul\":8941:8948   */\n      dup6\n        /* \"#utility.yul\":8932:8938   */\n      dup3\n        /* \"#utility.yul\":8921:8930   */\n      dup7\n        /* \"#utility.yul\":8917:8939   */\n      add\n        /* \"#utility.yul\":8896:8949   */\n      tag_181\n      jump\t// in\n    tag_346:\n        /* \"#utility.yul\":8886:8949   */\n      swap3\n      pop\n        /* \"#utility.yul\":8842:8959   */\n      pop\n        /* \"#utility.yul\":8998:9000   */\n      0x20\n        /* \"#utility.yul\":9024:9077   */\n      tag_347\n        /* \"#utility.yul\":9069:9076   */\n      dup6\n        /* \"#utility.yul\":9060:9066   */\n      dup3\n        /* \"#utility.yul\":9049:9058   */\n      dup7\n        /* \"#utility.yul\":9045:9067   */\n      add\n        /* \"#utility.yul\":9024:9077   */\n      tag_181\n      jump\t// in\n    tag_347:\n        /* \"#utility.yul\":9014:9077   */\n      swap2\n      pop\n        /* \"#utility.yul\":8969:9087   */\n      pop\n        /* \"#utility.yul\":8620:9094   */\n      swap3\n      pop\n      swap3\n      swap1\n      pop\n      jump\t// out\n        /* \"#utility.yul\":9100:9209   */\n    tag_195:\n        /* \"#utility.yul\":9181:9202   */\n      tag_349\n        /* \"#utility.yul\":9196:9201   */\n      dup2\n        /* \"#utility.yul\":9181:9202   */\n      tag_183\n      jump\t// in\n    tag_349:\n        /* \"#utility.yul\":9176:9179   */\n      dup3\n        /* \"#utility.yul\":9169:9203   */\n      mstore\n        /* \"#utility.yul\":9100:9209   */\n      pop\n      pop\n      jump\t// out\n        /* \"#utility.yul\":9215:9425   */\n    tag_63:\n        /* \"#utility.yul\":9302:9306   */\n      0x00\n        /* \"#utility.yul\":9340:9342   */\n      0x20\n        /* \"#utility.yul\":9329:9338   */\n      dup3\n        /* \"#utility.yul\":9325:9343   */\n      add\n        /* \"#utility.yul\":9317:9343   */\n      swap1\n      pop\n        /* \"#utility.yul\":9353:9418   */\n      tag_351\n        /* \"#utility.yul\":9415:9416   */\n      0x00\n        /* \"#utility.yul\":9404:9413   */\n      dup4\n        /* \"#utility.yul\":9400:9417   */\n      add\n        /* \"#utility.yul\":9391:9397   */\n      dup5\n        /* \"#utility.yul\":9353:9418   */\n      tag_195\n      jump\t// in\n    tag_351:\n        /* \"#utility.yul\":9215:9425   */\n      swap3\n      swap2\n      pop\n      pop\n      jump\t// out\n        /* \"#utility.yul\":9431:9611   */\n    tag_196:\n        /* \"#utility.yul\":9479:9556   */\n      0x4e487b7100000000000000000000000000000000000000000000000000000000\n        /* \"#utility.yul\":9476:9477   */\n      0x00\n        /* \"#utility.yul\":9469:9557   */\n      mstore\n        /* \"#utility.yul\":9576:9580   */\n      0x22\n        /* \"#utility.yul\":9573:9574   */\n      0x04\n        /* \"#utility.yul\":9566:9581   */\n      mstore\n        /* \"#utility.yul\":9600:9604   */\n      0x24\n        /* \"#utility.yul\":9597:9598   */\n      0x00\n        /* \"#utility.yul\":9590:9605   */\n      revert\n        /* \"#utility.yul\":9617:9937   */\n    tag_65:\n        /* \"#utility.yul\":9661:9667   */\n      0x00\n        /* \"#utility.yul\":9698:9699   */\n      0x02\n        /* \"#utility.yul\":9692:9696   */\n      dup3\n        /* \"#utility.yul\":9688:9700   */\n      div\n        /* \"#utility.yul\":9678:9700   */\n      swap1\n      pop\n        /* \"#utility.yul\":9745:9746   */\n      0x01\n        /* \"#utility.yul\":9739:9743   */\n      dup3\n        /* \"#utility.yul\":9735:9747   */\n      and\n        /* \"#utility.yul\":9766:9784   */\n      dup1\n        /* \"#utility.yul\":9756:9837   */\n      tag_354\n      jumpi\n        /* \"#utility.yul\":9822:9826   */\n      0x7f\n        /* \"#utility.yul\":9814:9820   */\n      dup3\n        /* \"#utility.yul\":9810:9827   */\n      and\n        /* \"#utility.yul\":9800:9827   */\n      swap2\n      pop\n        /* \"#utility.yul\":9756:9837   */\n    tag_354:\n        /* \"#utility.yul\":9884:9886   */\n      0x20\n        /* \"#utility.yul\":9876:9882   */\n      dup3\n        /* \"#utility.yul\":9873:9887   */\n      lt\n        /* \"#utility.yul\":9853:9871   */\n      dup2\n        /* \"#utility.yul\":9850:9888   */\n      sub\n        /* \"#utility.yul\":9847:9931   */\n      tag_355\n      jumpi\n        /* \"#utility.yul\":9903:9921   */\n      tag_356\n      tag_196\n      jump\t// in\n    tag_356:\n        /* \"#utility.yul\":9847:9931   */\n    tag_355:\n        /* \"#utility.yul\":9668:9937   */\n      pop\n        /* \"#utility.yul\":9617:9937   */\n      swap2\n      swap1\n      pop\n      jump\t// out\n        /* \"#utility.yul\":9943:10174   */\n    tag_197:\n        /* \"#utility.yul\":10083:10117   */\n      0x4552433732313a20617070726f76656420717565727920666f72206e6f6e6578\n        /* \"#utility.yul\":10079:10080   */\n      0x00\n        /* \"#utility.yul\":10071:10077   */\n      dup3\n        /* \"#utility.yul\":10067:10081   */\n      add\n        /* \"#utility.yul\":10060:10118   */\n      mstore\n        /* \"#utility.yul\":10152:10166   */\n      0x697374656e7420746f6b656e0000000000000000000000000000000000000000\n        /* \"#utility.yul\":10147:10149   */\n      0x20\n        /* \"#utility.yul\":10139:10145   */\n      dup3\n        /* \"#utility.yul\":10135:10150   */\n      add\n        /* \"#utility.yul\":10128:10167   */\n      mstore\n        /* \"#utility.yul\":9943:10174   */\n      pop\n      jump\t// out\n        /* \"#utility.yul\":10180:10546   */\n    tag_198:\n        /* \"#utility.yul\":10322:10325   */\n      0x00\n        /* \"#utility.yul\":10343:10410   */\n      tag_359\n        /* \"#utility.yul\":10407:10409   */\n      0x2c\n        /* \"#utility.yul\":10402:10405   */\n      dup4\n        /* \"#utility.yul\":10343:10410   */\n      tag_167\n      jump\t// in\n    tag_359:\n        /* \"#utility.yul\":10336:10410   */\n      swap2\n      pop\n        /* \"#utility.yul\":10419:10512   */\n      tag_360\n        /* \"#utility.yul\":10508:10511   */\n      dup3\n        /* \"#utility.yul\":10419:10512   */\n      tag_197\n      jump\t// in\n    tag_360:\n        /* \"#utility.yul\":10537:10539   */\n      0x40\n        /* \"#utility.yul\":10532:10535   */\n      dup3\n        /* \"#utility.yul\":10528:10540   */\n      add\n        /* \"#utility.yul\":10521:10540   */\n      swap1\n      pop\n        /* \"#utility.yul\":10180:10546   */\n      swap2\n      swap1\n      pop\n      jump\t// out\n        /* \"#utility.yul\":10552:10971   */\n    tag_75:\n        /* \"#utility.yul\":10718:10722   */\n      0x00\n        /* \"#utility.yul\":10756:10758   */\n      0x20\n        /* \"#utility.yul\":10745:10754   */\n      dup3\n        /* \"#utility.yul\":10741:10759   */\n      add\n        /* \"#utility.yul\":10733:10759   */\n      swap1\n      pop\n        /* \"#utility.yul\":10805:10814   */\n      dup2\n        /* \"#utility.yul\":10799:10803   */\n      dup2\n        /* \"#utility.yul\":10795:10815   */\n      sub\n        /* \"#utility.yul\":10791:10792   */\n      0x00\n        /* \"#utility.yul\":10780:10789   */\n      dup4\n        /* \"#utility.yul\":10776:10793   */\n      add\n        /* \"#utility.yul\":10769:10816   */\n      mstore\n        /* \"#utility.yul\":10833:10964   */\n      tag_362\n        /* \"#utility.yul\":10959:10963   */\n      dup2\n        /* \"#utility.yul\":10833:10964   */\n      tag_198\n      jump\t// in\n    tag_362:\n        /* \"#utility.yul\":10825:10964   */\n      swap1\n      pop\n        /* \"#utility.yul\":10552:10971   */\n      swap2\n      swap1\n      pop\n      jump\t// out\n        /* \"#utility.yul\":10977:11197   */\n    tag_199:\n        /* \"#utility.yul\":11117:11151   */\n      0x4552433732313a20617070726f76616c20746f2063757272656e74206f776e65\n        /* \"#utility.yul\":11113:11114   */\n      0x00\n        /* \"#utility.yul\":11105:11111   */\n      dup3\n        /* \"#utility.yul\":11101:11115   */\n      add\n        /* \"#utility.yul\":11094:11152   */\n      mstore\n        /* \"#utility.yul\":11186:11189   */\n      0x7200000000000000000000000000000000000000000000000000000000000000\n        /* \"#utility.yul\":11181:11183   */\n      0x20\n        /* \"#utility.yul\":11173:11179   */\n      dup3\n        /* \"#utility.yul\":11169:11184   */\n      add\n        /* \"#utility.yul\":11162:11190   */\n      mstore\n        /* \"#utility.yul\":10977:11197   */\n      pop\n      jump\t// out\n        /* \"#utility.yul\":11203:11569   */\n    tag_200:\n        /* \"#utility.yul\":11345:11348   */\n      0x00\n        /* \"#utility.yul\":11366:11433   */\n      tag_365\n        /* \"#utility.yul\":11430:11432   */\n      0x21\n        /* \"#utility.yul\":11425:11428   */\n      dup4\n        /* \"#utility.yul\":11366:11433   */\n      tag_167\n      jump\t// in\n    tag_365:\n        /* \"#utility.yul\":11359:11433   */\n      swap2\n      pop\n        /* \"#utility.yul\":11442:11535   */\n      tag_366\n        /* \"#utility.yul\":11531:11534   */\n      dup3\n        /* \"#utility.yul\":11442:11535   */\n      tag_199\n      jump\t// in\n    tag_366:\n        /* \"#utility.yul\":11560:11562   */\n      0x40\n        /* \"#utility.yul\":11555:11558   */\n      dup3\n        /* \"#utility.yul\":11551:11563   */\n      add\n        /* \"#utility.yul\":11544:11563   */\n      swap1\n      pop\n        /* \"#utility.yul\":11203:11569   */\n      swap2\n      swap1\n      pop\n      jump\t// out\n        /* \"#utility.yul\":11575:11994   */\n    tag_80:\n        /* \"#utility.yul\":11741:11745   */\n      0x00\n        /* \"#utility.yul\":11779:11781   */\n      0x20\n        /* \"#utility.yul\":11768:11777   */\n      dup3\n        /* \"#utility.yul\":11764:11782   */\n      add\n        /* \"#utility.yul\":11756:11782   */\n      swap1\n      pop\n        /* \"#utility.yul\":11828:11837   */\n      dup2\n        /* \"#utility.yul\":11822:11826   */\n      dup2\n        /* \"#utility.yul\":11818:11838   */\n      sub\n        /* \"#utility.yul\":11814:11815   */\n      0x00\n        /* \"#utility.yul\":11803:11812   */\n      dup4\n        /* \"#utility.yul\":11799:11816   */\n      add\n        /* \"#utility.yul\":11792:11839   */\n      mstore\n        /* \"#utility.yul\":11856:11987   */\n      tag_368\n        /* \"#utility.yul\":11982:11986   */\n      dup2\n        /* \"#utility.yul\":11856:11987   */\n      tag_200\n      jump\t// in\n    tag_368:\n        /* \"#utility.yul\":11848:11987   */\n      swap1\n      pop\n        /* \"#utility.yul\":11575:11994   */\n      swap2\n      swap1\n      pop\n      jump\t// out\n        /* \"#utility.yul\":12000:12243   */\n    tag_201:\n        /* \"#utility.yul\":12140:12174   */\n      0x4552433732313a20617070726f76652063616c6c6572206973206e6f74206f77\n        /* \"#utility.yul\":12136:12137   */\n      0x00\n        /* \"#utility.yul\":12128:12134   */\n      dup3\n        /* \"#utility.yul\":12124:12138   */\n      add\n        /* \"#utility.yul\":12117:12175   */\n      mstore\n        /* \"#utility.yul\":12209:12235   */\n      0x6e6572206e6f7220617070726f76656420666f7220616c6c0000000000000000\n        /* \"#utility.yul\":12204:12206   */\n      0x20\n        /* \"#utility.yul\":12196:12202   */\n      dup3\n        /* \"#utility.yul\":12192:12207   */\n      add\n        /* \"#utility.yul\":12185:12236   */\n      mstore\n        /* \"#utility.yul\":12000:12243   */\n      pop\n      jump\t// out\n        /* \"#utility.yul\":12249:12615   */\n    tag_202:\n        /* \"#utility.yul\":12391:12394   */\n      0x00\n        /* \"#utility.yul\":12412:12479   */\n      tag_371\n        /* \"#utility.yul\":12476:12478   */\n      0x38\n        /* \"#utility.yul\":12471:12474   */\n      dup4\n        /* \"#utility.yul\":12412:12479   */\n      tag_167\n      jump\t// in\n    tag_371:\n        /* \"#utility.yul\":12405:12479   */\n      swap2\n      pop\n        /* \"#utility.yul\":12488:12581   */\n      tag_372\n        /* \"#utility.yul\":12577:12580   */\n      dup3\n        /* \"#utility.yul\":12488:12581   */\n      tag_201\n      jump\t// in\n    tag_372:\n        /* \"#utility.yul\":12606:12608   */\n      0x40\n        /* \"#utility.yul\":12601:12604   */\n      dup3\n        /* \"#utility.yul\":12597:12609   */\n      add\n        /* \"#utility.yul\":12590:12609   */\n      swap1\n      pop\n        /* \"#utility.yul\":12249:12615   */\n      swap2\n      swap1\n      pop\n      jump\t// out\n        /* \"#utility.yul\":12621:13040   */\n    tag_85:\n        /* \"#utility.yul\":12787:12791   */\n      0x00\n        /* \"#utility.yul\":12825:12827   */\n      0x20\n        /* \"#utility.yul\":12814:12823   */\n      dup3\n        /* \"#utility.yul\":12810:12828   */\n      add\n        /* \"#utility.yul\":12802:12828   */\n      swap1\n      pop\n        /* \"#utility.yul\":12874:12883   */\n      dup2\n        /* \"#utility.yul\":12868:12872   */\n      dup2\n        /* \"#utility.yul\":12864:12884   */\n      sub\n        /* \"#utility.yul\":12860:12861   */\n      0x00\n        /* \"#utility.yul\":12849:12858   */\n      dup4\n        /* \"#utility.yul\":12845:12862   */\n      add\n        /* \"#utility.yul\":12838:12885   */\n      mstore\n        /* \"#utility.yul\":12902:13033   */\n      tag_374\n        /* \"#utility.yul\":13028:13032   */\n      dup2\n        /* \"#utility.yul\":12902:13033   */\n      tag_202\n      jump\t// in\n    tag_374:\n        /* \"#utility.yul\":12894:13033   */\n      swap1\n      pop\n        /* \"#utility.yul\":12621:13040   */\n      swap2\n      swap1\n      pop\n      jump\t// out\n        /* \"#utility.yul\":13046:13282   */\n    tag_203:\n        /* \"#utility.yul\":13186:13220   */\n      0x4552433732313a207472616e736665722063616c6c6572206973206e6f74206f\n        /* \"#utility.yul\":13182:13183   */\n      0x00\n        /* \"#utility.yul\":13174:13180   */\n      dup3\n        /* \"#utility.yul\":13170:13184   */\n      add\n        /* \"#utility.yul\":13163:13221   */\n      mstore\n        /* \"#utility.yul\":13255:13274   */\n      0x776e6572206e6f7220617070726f766564000000000000000000000000000000\n        /* \"#utility.yul\":13250:13252   */\n      0x20\n        /* \"#utility.yul\":13242:13248   */\n      dup3\n        /* \"#utility.yul\":13238:13253   */\n      add\n        /* \"#utility.yul\":13231:13275   */\n      mstore\n        /* \"#utility.yul\":13046:13282   */\n      pop\n      jump\t// out\n        /* \"#utility.yul\":13288:13654   */\n    tag_204:\n        /* \"#utility.yul\":13430:13433   */\n      0x00\n        /* \"#utility.yul\":13451:13518   */\n      tag_377\n        /* \"#utility.yul\":13515:13517   */\n      0x31\n        /* \"#utility.yul\":13510:13513   */\n      dup4\n        /* \"#utility.yul\":13451:13518   */\n      tag_167\n      jump\t// in\n    tag_377:\n        /* \"#utility.yul\":13444:13518   */\n      swap2\n      pop\n        /* \"#utility.yul\":13527:13620   */\n      tag_378\n        /* \"#utility.yul\":13616:13619   */\n      dup3\n        /* \"#utility.yul\":13527:13620   */\n      tag_203\n      jump\t// in\n    tag_378:\n        /* \"#utility.yul\":13645:13647   */\n      0x40\n        /* \"#utility.yul\":13640:13643   */\n      dup3\n        /* \"#utility.yul\":13636:13648   */\n      add\n        /* \"#utility.yul\":13629:13648   */\n      swap1\n      pop\n        /* \"#utility.yul\":13288:13654   */\n      swap2\n      swap1\n      pop\n      jump\t// out\n        /* \"#utility.yul\":13660:14079   */\n    tag_91:\n        /* \"#utility.yul\":13826:13830   */\n      0x00\n        /* \"#utility.yul\":13864:13866   */\n      0x20\n        /* \"#utility.yul\":13853:13862   */\n      dup3\n        /* \"#utility.yul\":13849:13867   */\n      add\n        /* \"#utility.yul\":13841:13867   */\n      swap1\n      pop\n        /* \"#utility.yul\":13913:13922   */\n      dup2\n        /* \"#utility.yul\":13907:13911   */\n      dup2\n        /* \"#utility.yul\":13903:13923   */\n      sub\n        /* \"#utility.yul\":13899:13900   */\n      0x00\n        /* \"#utility.yul\":13888:13897   */\n      dup4\n        /* \"#utility.yul\":13884:13901   */\n      add\n        /* \"#utility.yul\":13877:13924   */\n      mstore\n        /* \"#utility.yul\":13941:14072   */\n      tag_380\n        /* \"#utility.yul\":14067:14071   */\n      dup2\n        /* \"#utility.yul\":13941:14072   */\n      tag_204\n      jump\t// in\n    tag_380:\n        /* \"#utility.yul\":13933:14072   */\n      swap1\n      pop\n        /* \"#utility.yul\":13660:14079   */\n      swap2\n      swap1\n      pop\n      jump\t// out\n        /* \"#utility.yul\":14085:14313   */\n    tag_205:\n        /* \"#utility.yul\":14225:14259   */\n      0x4552433732313a206f776e657220717565727920666f72206e6f6e6578697374\n        /* \"#utility.yul\":14221:14222   */\n      0x00\n        /* \"#utility.yul\":14213:14219   */\n      dup3\n        /* \"#utility.yul\":14209:14223   */\n      add\n        /* \"#utility.yul\":14202:14260   */\n      mstore\n        /* \"#utility.yul\":14294:14305   */\n      0x656e7420746f6b656e0000000000000000000000000000000000000000000000\n        /* \"#utility.yul\":14289:14291   */\n      0x20\n        /* \"#utility.yul\":14281:14287   */\n      dup3\n        /* \"#utility.yul\":14277:14292   */\n      add\n        /* \"#utility.yul\":14270:14306   */\n      mstore\n        /* \"#utility.yul\":14085:14313   */\n      pop\n      jump\t// out\n        /* \"#utility.yul\":14319:14685   */\n    tag_206:\n        /* \"#utility.yul\":14461:14464   */\n      0x00\n        /* \"#utility.yul\":14482:14549   */\n      tag_383\n        /* \"#utility.yul\":14546:14548   */\n      0x29\n        /* \"#utility.yul\":14541:14544   */\n      dup4\n        /* \"#utility.yul\":14482:14549   */\n      tag_167\n      jump\t// in\n    tag_383:\n        /* \"#utility.yul\":14475:14549   */\n      swap2\n      pop\n        /* \"#utility.yul\":14558:14651   */\n      tag_384\n        /* \"#utility.yul\":14647:14650   */\n      dup3\n        /* \"#utility.yul\":14558:14651   */\n      tag_205\n      jump\t// in\n    tag_384:\n        /* \"#utility.yul\":14676:14678   */\n      0x40\n        /* \"#utility.yul\":14671:14674   */\n      dup3\n        /* \"#utility.yul\":14667:14679   */\n      add\n        /* \"#utility.yul\":14660:14679   */\n      swap1\n      pop\n        /* \"#utility.yul\":14319:14685   */\n      swap2\n      swap1\n      pop\n      jump\t// out\n        /* \"#utility.yul\":14691:15110   */\n    tag_97:\n        /* \"#utility.yul\":14857:14861   */\n      0x00\n        /* \"#utility.yul\":14895:14897   */\n      0x20\n        /* \"#utility.yul\":14884:14893   */\n      dup3\n        /* \"#utility.yul\":14880:14898   */\n      add\n        /* \"#utility.yul\":14872:14898   */\n      swap1\n      pop\n        /* \"#utility.yul\":14944:14953   */\n      dup2\n        /* \"#utility.yul\":14938:14942   */\n      dup2\n        /* \"#utility.yul\":14934:14954   */\n      sub\n        /* \"#utility.yul\":14930:14931   */\n      0x00\n        /* \"#utility.yul\":14919:14928   */\n      dup4\n        /* \"#utility.yul\":14915:14932   */\n      add\n        /* \"#utility.yul\":14908:14955   */\n      mstore\n        /* \"#utility.yul\":14972:15103   */\n      tag_386\n        /* \"#utility.yul\":15098:15102   */\n      dup2\n        /* \"#utility.yul\":14972:15103   */\n      tag_206\n      jump\t// in\n    tag_386:\n        /* \"#utility.yul\":14964:15103   */\n      swap1\n      pop\n        /* \"#utility.yul\":14691:15110   */\n      swap2\n      swap1\n      pop\n      jump\t// out\n        /* \"#utility.yul\":15116:15345   */\n    tag_207:\n        /* \"#utility.yul\":15256:15290   */\n      0x4552433732313a2062616c616e636520717565727920666f7220746865207a65\n        /* \"#utility.yul\":15252:15253   */\n      0x00\n        /* \"#utility.yul\":15244:15250   */\n      dup3\n        /* \"#utility.yul\":15240:15254   */\n      add\n        /* \"#utility.yul\":15233:15291   */\n      mstore\n        /* \"#utility.yul\":15325:15337   */\n      0x726f206164647265737300000000000000000000000000000000000000000000\n        /* \"#utility.yul\":15320:15322   */\n      0x20\n        /* \"#utility.yul\":15312:15318   */\n      dup3\n        /* \"#utility.yul\":15308:15323   */\n      add\n        /* \"#utility.yul\":15301:15338   */\n      mstore\n        /* \"#utility.yul\":15116:15345   */\n      pop\n      jump\t// out\n        /* \"#utility.yul\":15351:15717   */\n    tag_208:\n        /* \"#utility.yul\":15493:15496   */\n      0x00\n        /* \"#utility.yul\":15514:15581   */\n      tag_389\n        /* \"#utility.yul\":15578:15580   */\n      0x2a\n        /* \"#utility.yul\":15573:15576   */\n      dup4\n        /* \"#utility.yul\":15514:15581   */\n      tag_167\n      jump\t// in\n    tag_389:\n        /* \"#utility.yul\":15507:15581   */\n      swap2\n      pop\n        /* \"#utility.yul\":15590:15683   */\n      tag_390\n        /* \"#utility.yul\":15679:15682   */\n      dup3\n        /* \"#utility.yul\":15590:15683   */\n      tag_207\n      jump\t// in\n    tag_390:\n        /* \"#utility.yul\":15708:15710   */\n      0x40\n        /* \"#utility.yul\":15703:15706   */\n      dup3\n        /* \"#utility.yul\":15699:15711   */\n      add\n        /* \"#utility.yul\":15692:15711   */\n      swap1\n      pop\n        /* \"#utility.yul\":15351:15717   */\n      swap2\n      swap1\n      pop\n      jump\t// out\n        /* \"#utility.yul\":15723:16142   */\n    tag_101:\n        /* \"#utility.yul\":15889:15893   */\n      0x00\n        /* \"#utility.yul\":15927:15929   */\n      0x20\n        /* \"#utility.yul\":15916:15925   */\n      dup3\n        /* \"#utility.yul\":15912:15930   */\n      add\n        /* \"#utility.yul\":15904:15930   */\n      swap1\n      pop\n        /* \"#utility.yul\":15976:15985   */\n      dup2\n        /* \"#utility.yul\":15970:15974   */\n      dup2\n        /* \"#utility.yul\":15966:15986   */\n      sub\n        /* \"#utility.yul\":15962:15963   */\n      0x00\n        /* \"#utility.yul\":15951:15960   */\n      dup4\n        /* \"#utility.yul\":15947:15964   */\n      add\n        /* \"#utility.yul\":15940:15987   */\n      mstore\n        /* \"#utility.yul\":16004:16135   */\n      tag_392\n        /* \"#utility.yul\":16130:16134   */\n      dup2\n        /* \"#utility.yul\":16004:16135   */\n      tag_208\n      jump\t// in\n    tag_392:\n        /* \"#utility.yul\":15996:16135   */\n      swap1\n      pop\n        /* \"#utility.yul\":15723:16142   */\n      swap2\n      swap1\n      pop\n      jump\t// out\n        /* \"#utility.yul\":16148:16323   */\n    tag_209:\n        /* \"#utility.yul\":16288:16315   */\n      0x4552433732313a20617070726f766520746f2063616c6c657200000000000000\n        /* \"#utility.yul\":16284:16285   */\n      0x00\n        /* \"#utility.yul\":16276:16282   */\n      dup3\n        /* \"#utility.yul\":16272:16286   */\n      add\n        /* \"#utility.yul\":16265:16316   */\n      mstore\n        /* \"#utility.yul\":16148:16323   */\n      pop\n      jump\t// out\n        /* \"#utility.yul\":16329:16695   */\n    tag_210:\n        /* \"#utility.yul\":16471:16474   */\n      0x00\n        /* \"#utility.yul\":16492:16559   */\n      tag_395\n        /* \"#utility.yul\":16556:16558   */\n      0x19\n        /* \"#utility.yul\":16551:16554   */\n      dup4\n        /* \"#utility.yul\":16492:16559   */\n      tag_167\n      jump\t// in\n    tag_395:\n        /* \"#utility.yul\":16485:16559   */\n      swap2\n      pop\n        /* \"#utility.yul\":16568:16661   */\n      tag_396\n        /* \"#utility.yul\":16657:16660   */\n      dup3\n        /* \"#utility.yul\":16568:16661   */\n      tag_209\n      jump\t// in\n    tag_396:\n        /* \"#utility.yul\":16686:16688   */\n      0x20\n        /* \"#utility.yul\":16681:16684   */\n      dup3\n        /* \"#utility.yul\":16677:16689   */\n      add\n        /* \"#utility.yul\":16670:16689   */\n      swap1\n      pop\n        /* \"#utility.yul\":16329:16695   */\n      swap2\n      swap1\n      pop\n      jump\t// out\n        /* \"#utility.yul\":16701:17120   */\n    tag_110:\n        /* \"#utility.yul\":16867:16871   */\n      0x00\n        /* \"#utility.yul\":16905:16907   */\n      0x20\n        /* \"#utility.yul\":16894:16903   */\n      dup3\n        /* \"#utility.yul\":16890:16908   */\n      add\n        /* \"#utility.yul\":16882:16908   */\n      swap1\n      pop\n        /* \"#utility.yul\":16954:16963   */\n      dup2\n        /* \"#utility.yul\":16948:16952   */\n      dup2\n        /* \"#utility.yul\":16944:16964   */\n      sub\n        /* \"#utility.yul\":16940:16941   */\n      0x00\n        /* \"#utility.yul\":16929:16938   */\n      dup4\n        /* \"#utility.yul\":16925:16942   */\n      add\n        /* \"#utility.yul\":16918:16965   */\n      mstore\n        /* \"#utility.yul\":16982:17113   */\n      tag_398\n        /* \"#utility.yul\":17108:17112   */\n      dup2\n        /* \"#utility.yul\":16982:17113   */\n      tag_210\n      jump\t// in\n    tag_398:\n        /* \"#utility.yul\":16974:17113   */\n      swap1\n      pop\n        /* \"#utility.yul\":16701:17120   */\n      swap2\n      swap1\n      pop\n      jump\t// out\n        /* \"#utility.yul\":17126:17360   */\n    tag_211:\n        /* \"#utility.yul\":17266:17300   */\n      0x4552433732314d657461646174613a2055524920717565727920666f72206e6f\n        /* \"#utility.yul\":17262:17263   */\n      0x00\n        /* \"#utility.yul\":17254:17260   */\n      dup3\n        /* \"#utility.yul\":17250:17264   */\n      add\n        /* \"#utility.yul\":17243:17301   */\n      mstore\n        /* \"#utility.yul\":17335:17352   */\n      0x6e6578697374656e7420746f6b656e0000000000000000000000000000000000\n        /* \"#utility.yul\":17330:17332   */\n      0x20\n        /* \"#utility.yul\":17322:17328   */\n      dup3\n        /* \"#utility.yul\":17318:17333   */\n      add\n        /* \"#utility.yul\":17311:17353   */\n      mstore\n        /* \"#utility.yul\":17126:17360   */\n      pop\n      jump\t// out\n        /* \"#utility.yul\":17366:17732   */\n    tag_212:\n        /* \"#utility.yul\":17508:17511   */\n      0x00\n        /* \"#utility.yul\":17529:17596   */\n      tag_401\n        /* \"#utility.yul\":17593:17595   */\n      0x2f\n        /* \"#utility.yul\":17588:17591   */\n      dup4\n        /* \"#utility.yul\":17529:17596   */\n      tag_167\n      jump\t// in\n    tag_401:\n        /* \"#utility.yul\":17522:17596   */\n      swap2\n      pop\n        /* \"#utility.yul\":17605:17698   */\n      tag_402\n        /* \"#utility.yul\":17694:17697   */\n      dup3\n        /* \"#utility.yul\":17605:17698   */\n      tag_211\n      jump\t// in\n    tag_402:\n        /* \"#utility.yul\":17723:17725   */\n      0x40\n        /* \"#utility.yul\":17718:17721   */\n      dup3\n        /* \"#utility.yul\":17714:17726   */\n      add\n        /* \"#utility.yul\":17707:17726   */\n      swap1\n      pop\n        /* \"#utility.yul\":17366:17732   */\n      swap2\n      swap1\n      pop\n      jump\t// out\n        /* \"#utility.yul\":17738:18157   */\n    tag_116:\n        /* \"#utility.yul\":17904:17908   */\n      0x00\n        /* \"#utility.yul\":17942:17944   */\n      0x20\n        /* \"#utility.yul\":17931:17940   */\n      dup3\n        /* \"#utility.yul\":17927:17945   */\n      add\n        /* \"#utility.yul\":17919:17945   */\n      swap1\n      pop\n        /* \"#utility.yul\":17991:18000   */\n      dup2\n        /* \"#utility.yul\":17985:17989   */\n      dup2\n        /* \"#utility.yul\":17981:18001   */\n      sub\n        /* \"#utility.yul\":17977:17978   */\n      0x00\n        /* \"#utility.yul\":17966:17975   */\n      dup4\n        /* \"#utility.yul\":17962:17979   */\n      add\n        /* \"#utility.yul\":17955:18002   */\n      mstore\n        /* \"#utility.yul\":18019:18150   */\n      tag_404\n        /* \"#utility.yul\":18145:18149   */\n      dup2\n        /* \"#utility.yul\":18019:18150   */\n      tag_212\n      jump\t// in\n    tag_404:\n        /* \"#utility.yul\":18011:18150   */\n      swap1\n      pop\n        /* \"#utility.yul\":17738:18157   */\n      swap2\n      swap1\n      pop\n      jump\t// out\n        /* \"#utility.yul\":18163:18343   */\n    tag_213:\n        /* \"#utility.yul\":18211:18288   */\n      0x4e487b7100000000000000000000000000000000000000000000000000000000\n        /* \"#utility.yul\":18208:18209   */\n      0x00\n        /* \"#utility.yul\":18201:18289   */\n      mstore\n        /* \"#utility.yul\":18308:18312   */\n      0x11\n        /* \"#utility.yul\":18305:18306   */\n      0x04\n        /* \"#utility.yul\":18298:18313   */\n      mstore\n        /* \"#utility.yul\":18332:18336   */\n      0x24\n        /* \"#utility.yul\":18329:18330   */\n      0x00\n        /* \"#utility.yul\":18322:18337   */\n      revert\n        /* \"#utility.yul\":18349:18540   */\n    tag_124:\n        /* \"#utility.yul\":18389:18392   */\n      0x00\n        /* \"#utility.yul\":18408:18428   */\n      tag_407\n        /* \"#utility.yul\":18426:18427   */\n      dup3\n        /* \"#utility.yul\":18408:18428   */\n      tag_174\n      jump\t// in\n    tag_407:\n        /* \"#utility.yul\":18403:18428   */\n      swap2\n      pop\n        /* \"#utility.yul\":18442:18462   */\n      tag_408\n        /* \"#utility.yul\":18460:18461   */\n      dup4\n        /* \"#utility.yul\":18442:18462   */\n      tag_174\n      jump\t// in\n    tag_408:\n        /* \"#utility.yul\":18437:18462   */\n      swap3\n      pop\n        /* \"#utility.yul\":18485:18486   */\n      dup3\n        /* \"#utility.yul\":18482:18483   */\n      dup3\n        /* \"#utility.yul\":18478:18487   */\n      add\n        /* \"#utility.yul\":18471:18487   */\n      swap1\n      pop\n        /* \"#utility.yul\":18506:18509   */\n      dup1\n        /* \"#utility.yul\":18503:18504   */\n      dup3\n        /* \"#utility.yul\":18500:18510   */\n      gt\n        /* \"#utility.yul\":18497:18533   */\n      iszero\n      tag_409\n      jumpi\n        /* \"#utility.yul\":18513:18531   */\n      tag_410\n      tag_213\n      jump\t// in\n    tag_410:\n        /* \"#utility.yul\":18497:18533   */\n    tag_409:\n        /* \"#utility.yul\":18349:18540   */\n      swap3\n      swap2\n      pop\n      pop\n      jump\t// out\n        /* \"#utility.yul\":18546:18728   */\n    tag_214:\n        /* \"#utility.yul\":18686:18720   */\n      0x4552433732313a206d696e7420746f20746865207a65726f2061646472657373\n        /* \"#utility.yul\":18682:18683   */\n      0x00\n        /* \"#utility.yul\":18674:18680   */\n      dup3\n        /* \"#utility.yul\":18670:18684   */\n      add\n        /* \"#utility.yul\":18663:18721   */\n      mstore\n        /* \"#utility.yul\":18546:18728   */\n      pop\n      jump\t// out\n        /* \"#utility.yul\":18734:19100   */\n    tag_215:\n        /* \"#utility.yul\":18876:18879   */\n      0x00\n        /* \"#utility.yul\":18897:18964   */\n      tag_413\n        /* \"#utility.yul\":18961:18963   */\n      0x20\n        /* \"#utility.yul\":18956:18959   */\n      dup4\n        /* \"#utility.yul\":18897:18964   */\n      tag_167\n      jump\t// in\n    tag_413:\n        /* \"#utility.yul\":18890:18964   */\n      swap2\n      pop\n        /* \"#utility.yul\":18973:19066   */\n      tag_414\n        /* \"#utility.yul\":19062:19065   */\n      dup3\n        /* \"#utility.yul\":18973:19066   */\n      tag_214\n      jump\t// in\n    tag_414:\n        /* \"#utility.yul\":19091:19093   */\n      0x20\n        /* \"#utility.yul\":19086:19089   */\n      dup3\n        /* \"#utility.yul\":19082:19094   */\n      add\n        /* \"#utility.yul\":19075:19094   */\n      swap1\n      pop\n        /* \"#utility.yul\":18734:19100   */\n      swap2\n      swap1\n      pop\n      jump\t// out\n        /* \"#utility.yul\":19106:19525   */\n    tag_127:\n        /* \"#utility.yul\":19272:19276   */\n      0x00\n        /* \"#utility.yul\":19310:19312   */\n      0x20\n        /* \"#utility.yul\":19299:19308   */\n      dup3\n        /* \"#utility.yul\":19295:19313   */\n      add\n        /* \"#utility.yul\":19287:19313   */\n      swap1\n      pop\n        /* \"#utility.yul\":19359:19368   */\n      dup2\n        /* \"#utility.yul\":19353:19357   */\n      dup2\n        /* \"#utility.yul\":19349:19369   */\n      sub\n        /* \"#utility.yul\":19345:19346   */\n      0x00\n        /* \"#utility.yul\":19334:19343   */\n      dup4\n        /* \"#utility.yul\":19330:19347   */\n      add\n        /* \"#utility.yul\":19323:19370   */\n      mstore\n        /* \"#utility.yul\":19387:19518   */\n      tag_416\n        /* \"#utility.yul\":19513:19517   */\n      dup2\n        /* \"#utility.yul\":19387:19518   */\n      tag_215\n      jump\t// in\n    tag_416:\n        /* \"#utility.yul\":19379:19518   */\n      swap1\n      pop\n        /* \"#utility.yul\":19106:19525   */\n      swap2\n      swap1\n      pop\n      jump\t// out\n        /* \"#utility.yul\":19531:19709   */\n    tag_216:\n        /* \"#utility.yul\":19671:19701   */\n      0x4552433732313a20746f6b656e20616c7265616479206d696e74656400000000\n        /* \"#utility.yul\":19667:19668   */\n      0x00\n        /* \"#utility.yul\":19659:19665   */\n      dup3\n        /* \"#utility.yul\":19655:19669   */\n      add\n        /* \"#utility.yul\":19648:19702   */\n      mstore\n        /* \"#utility.yul\":19531:19709   */\n      pop\n      jump\t// out\n        /* \"#utility.yul\":19715:20081   */\n    tag_217:\n        /* \"#utility.yul\":19857:19860   */\n      0x00\n        /* \"#utility.yul\":19878:19945   */\n      tag_419\n        /* \"#utility.yul\":19942:19944   */\n      0x1c\n        /* \"#utility.yul\":19937:19940   */\n      dup4\n        /* \"#utility.yul\":19878:19945   */\n      tag_167\n      jump\t// in\n    tag_419:\n        /* \"#utility.yul\":19871:19945   */\n      swap2\n      pop\n        /* \"#utility.yul\":19954:20047   */\n      tag_420\n        /* \"#utility.yul\":20043:20046   */\n      dup3\n        /* \"#utility.yul\":19954:20047   */\n      tag_216\n      jump\t// in\n    tag_420:\n        /* \"#utility.yul\":20072:20074   */\n      0x20\n        /* \"#utility.yul\":20067:20070   */\n      dup3\n        /* \"#utility.yul\":20063:20075   */\n      add\n        /* \"#utility.yul\":20056:20075   */\n      swap1\n      pop\n        /* \"#utility.yul\":19715:20081   */\n      swap2\n      swap1\n      pop\n      jump\t// out\n        /* \"#utility.yul\":20087:20506   */\n    tag_131:\n        /* \"#utility.yul\":20253:20257   */\n      0x00\n        /* \"#utility.yul\":20291:20293   */\n      0x20\n        /* \"#utility.yul\":20280:20289   */\n      dup3\n        /* \"#utility.yul\":20276:20294   */\n      add\n        /* \"#utility.yul\":20268:20294   */\n      swap1\n      pop\n        /* \"#utility.yul\":20340:20349   */\n      dup2\n        /* \"#utility.yul\":20334:20338   */\n      dup2\n        /* \"#utility.yul\":20330:20350   */\n      sub\n        /* \"#utility.yul\":20326:20327   */\n      0x00\n        /* \"#utility.yul\":20315:20324   */\n      dup4\n        /* \"#utility.yul\":20311:20328   */\n      add\n        /* \"#utility.yul\":20304:20351   */\n      mstore\n        /* \"#utility.yul\":20368:20499   */\n      tag_422\n        /* \"#utility.yul\":20494:20498   */\n      dup2\n        /* \"#utility.yul\":20368:20499   */\n      tag_217\n      jump\t// in\n    tag_422:\n        /* \"#utility.yul\":20360:20499   */\n      swap1\n      pop\n        /* \"#utility.yul\":20087:20506   */\n      swap2\n      swap1\n      pop\n      jump\t// out\n        /* \"#utility.yul\":20512:20743   */\n    tag_218:\n        /* \"#utility.yul\":20652:20686   */\n      0x4552433732313a206f70657261746f7220717565727920666f72206e6f6e6578\n        /* \"#utility.yul\":20648:20649   */\n      0x00\n        /* \"#utility.yul\":20640:20646   */\n      dup3\n        /* \"#utility.yul\":20636:20650   */\n      add\n        /* \"#utility.yul\":20629:20687   */\n      mstore\n        /* \"#utility.yul\":20721:20735   */\n      0x697374656e7420746f6b656e0000000000000000000000000000000000000000\n        /* \"#utility.yul\":20716:20718   */\n      0x20\n        /* \"#utility.yul\":20708:20714   */\n      dup3\n        /* \"#utility.yul\":20704:20719   */\n      add\n        /* \"#utility.yul\":20697:20736   */\n      mstore\n        /* \"#utility.yul\":20512:20743   */\n      pop\n      jump\t// out\n        /* \"#utility.yul\":20749:21115   */\n    tag_219:\n        /* \"#utility.yul\":20891:20894   */\n      0x00\n        /* \"#utility.yul\":20912:20979   */\n      tag_425\n        /* \"#utility.yul\":20976:20978   */\n      0x2c\n        /* \"#utility.yul\":20971:20974   */\n      dup4\n        /* \"#utility.yul\":20912:20979   */\n      tag_167\n      jump\t// in\n    tag_425:\n        /* \"#utility.yul\":20905:20979   */\n      swap2\n      pop\n        /* \"#utility.yul\":20988:21081   */\n      tag_426\n        /* \"#utility.yul\":21077:21080   */\n      dup3\n        /* \"#utility.yul\":20988:21081   */\n      tag_218\n      jump\t// in\n    tag_426:\n        /* \"#utility.yul\":21106:21108   */\n      0x40\n        /* \"#utility.yul\":21101:21104   */\n      dup3\n        /* \"#utility.yul\":21097:21109   */\n      add\n        /* \"#utility.yul\":21090:21109   */\n      swap1\n      pop\n        /* \"#utility.yul\":20749:21115   */\n      swap2\n      swap1\n      pop\n      jump\t// out\n        /* \"#utility.yul\":21121:21540   */\n    tag_141:\n        /* \"#utility.yul\":21287:21291   */\n      0x00\n        /* \"#utility.yul\":21325:21327   */\n      0x20\n        /* \"#utility.yul\":21314:21323   */\n      dup3\n        /* \"#utility.yul\":21310:21328   */\n      add\n        /* \"#utility.yul\":21302:21328   */\n      swap1\n      pop\n        /* \"#utility.yul\":21374:21383   */\n      dup2\n        /* \"#utility.yul\":21368:21372   */\n      dup2\n        /* \"#utility.yul\":21364:21384   */\n      sub\n        /* \"#utility.yul\":21360:21361   */\n      0x00\n        /* \"#utility.yul\":21349:21358   */\n      dup4\n        /* \"#utility.yul\":21345:21362   */\n      add\n        /* \"#utility.yul\":21338:21385   */\n      mstore\n        /* \"#utility.yul\":21402:21533   */\n      tag_428\n        /* \"#utility.yul\":21528:21532   */\n      dup2\n        /* \"#utility.yul\":21402:21533   */\n      tag_219\n      jump\t// in\n    tag_428:\n        /* \"#utility.yul\":21394:21533   */\n      swap1\n      pop\n        /* \"#utility.yul\":21121:21540   */\n      swap2\n      swap1\n      pop\n      jump\t// out\n        /* \"#utility.yul\":21546:21774   */\n    tag_220:\n        /* \"#utility.yul\":21686:21720   */\n      0x4552433732313a207472616e73666572206f6620746f6b656e20746861742069\n        /* \"#utility.yul\":21682:21683   */\n      0x00\n        /* \"#utility.yul\":21674:21680   */\n      dup3\n        /* \"#utility.yul\":21670:21684   */\n      add\n        /* \"#utility.yul\":21663:21721   */\n      mstore\n        /* \"#utility.yul\":21755:21766   */\n      0x73206e6f74206f776e0000000000000000000000000000000000000000000000\n        /* \"#utility.yul\":21750:21752   */\n      0x20\n        /* \"#utility.yul\":21742:21748   */\n      dup3\n        /* \"#utility.yul\":21738:21753   */\n      add\n        /* \"#utility.yul\":21731:21767   */\n      mstore\n        /* \"#utility.yul\":21546:21774   */\n      pop\n      jump\t// out\n        /* \"#utility.yul\":21780:22146   */\n    tag_221:\n        /* \"#utility.yul\":21922:21925   */\n      0x00\n        /* \"#utility.yul\":21943:22010   */\n      tag_431\n        /* \"#utility.yul\":22007:22009   */\n      0x29\n        /* \"#utility.yul\":22002:22005   */\n      dup4\n        /* \"#utility.yul\":21943:22010   */\n      tag_167\n      jump\t// in\n    tag_431:\n        /* \"#utility.yul\":21936:22010   */\n      swap2\n      pop\n        /* \"#utility.yul\":22019:22112   */\n      tag_432\n        /* \"#utility.yul\":22108:22111   */\n      dup3\n        /* \"#utility.yul\":22019:22112   */\n      tag_220\n      jump\t// in\n    tag_432:\n        /* \"#utility.yul\":22137:22139   */\n      0x40\n        /* \"#utility.yul\":22132:22135   */\n      dup3\n        /* \"#utility.yul\":22128:22140   */\n      add\n        /* \"#utility.yul\":22121:22140   */\n      swap1\n      pop\n        /* \"#utility.yul\":21780:22146   */\n      swap2\n      swap1\n      pop\n      jump\t// out\n        /* \"#utility.yul\":22152:22571   */\n    tag_151:\n        /* \"#utility.yul\":22318:22322   */\n      0x00\n        /* \"#utility.yul\":22356:22358   */\n      0x20\n        /* \"#utility.yul\":22345:22354   */\n      dup3\n        /* \"#utility.yul\":22341:22359   */\n      add\n        /* \"#utility.yul\":22333:22359   */\n      swap1\n      pop\n        /* \"#utility.yul\":22405:22414   */\n      dup2\n        /* \"#utility.yul\":22399:22403   */\n      dup2\n        /* \"#utility.yul\":22395:22415   */\n      sub\n        /* \"#utility.yul\":22391:22392   */\n      0x00\n        /* \"#utility.yul\":22380:22389   */\n      dup4\n        /* \"#utility.yul\":22376:22393   */\n      add\n        /* \"#utility.yul\":22369:22416   */\n      mstore\n        /* \"#utility.yul\":22433:22564   */\n      tag_434\n        /* \"#utility.yul\":22559:22563   */\n      dup2\n        /* \"#utility.yul\":22433:22564   */\n      tag_221\n      jump\t// in\n    tag_434:\n        /* \"#utility.yul\":22425:22564   */\n      swap1\n      pop\n        /* \"#utility.yul\":22152:22571   */\n      swap2\n      swap1\n      pop\n      jump\t// out\n        /* \"#utility.yul\":22577:22800   */\n    tag_222:\n        /* \"#utility.yul\":22717:22751   */\n      0x4552433732313a207472616e7366657220746f20746865207a65726f20616464\n        /* \"#utility.yul\":22713:22714   */\n      0x00\n        /* \"#utility.yul\":22705:22711   */\n      dup3\n        /* \"#utility.yul\":22701:22715   */\n      add\n        /* \"#utility.yul\":22694:22752   */\n      mstore\n        /* \"#utility.yul\":22786:22792   */\n      0x7265737300000000000000000000000000000000000000000000000000000000\n        /* \"#utility.yul\":22781:22783   */\n      0x20\n        /* \"#utility.yul\":22773:22779   */\n      dup3\n        /* \"#utility.yul\":22769:22784   */\n      add\n        /* \"#utility.yul\":22762:22793   */\n      mstore\n        /* \"#utility.yul\":22577:22800   */\n      pop\n      jump\t// out\n        /* \"#utility.yul\":22806:23172   */\n    tag_223:\n        /* \"#utility.yul\":22948:22951   */\n      0x00\n        /* \"#utility.yul\":22969:23036   */\n      tag_437\n        /* \"#utility.yul\":23033:23035   */\n      0x24\n        /* \"#utility.yul\":23028:23031   */\n      dup4\n        /* \"#utility.yul\":22969:23036   */\n      tag_167\n      jump\t// in\n    tag_437:\n        /* \"#utility.yul\":22962:23036   */\n      swap2\n      pop\n        /* \"#utility.yul\":23045:23138   */\n      tag_438\n        /* \"#utility.yul\":23134:23137   */\n      dup3\n        /* \"#utility.yul\":23045:23138   */\n      tag_222\n      jump\t// in\n    tag_438:\n        /* \"#utility.yul\":23163:23165   */\n      0x40\n        /* \"#utility.yul\":23158:23161   */\n      dup3\n        /* \"#utility.yul\":23154:23166   */\n      add\n        /* \"#utility.yul\":23147:23166   */\n      swap1\n      pop\n        /* \"#utility.yul\":22806:23172   */\n      swap2\n      swap1\n      pop\n      jump\t// out\n        /* \"#utility.yul\":23178:23597   */\n    tag_154:\n        /* \"#utility.yul\":23344:23348   */\n      0x00\n        /* \"#utility.yul\":23382:23384   */\n      0x20\n        /* \"#utility.yul\":23371:23380   */\n      dup3\n        /* \"#utility.yul\":23367:23385   */\n      add\n        /* \"#utility.yul\":23359:23385   */\n      swap1\n      pop\n        /* \"#utility.yul\":23431:23440   */\n      dup2\n        /* \"#utility.yul\":23425:23429   */\n      dup2\n        /* \"#utility.yul\":23421:23441   */\n      sub\n        /* \"#utility.yul\":23417:23418   */\n      0x00\n        /* \"#utility.yul\":23406:23415   */\n      dup4\n        /* \"#utility.yul\":23402:23419   */\n      add\n        /* \"#utility.yul\":23395:23442   */\n      mstore\n        /* \"#utility.yul\":23459:23590   */\n      tag_440\n        /* \"#utility.yul\":23585:23589   */\n      dup2\n        /* \"#utility.yul\":23459:23590   */\n      tag_223\n      jump\t// in\n    tag_440:\n        /* \"#utility.yul\":23451:23590   */\n      swap1\n      pop\n        /* \"#utility.yul\":23178:23597   */\n      swap2\n      swap1\n      pop\n      jump\t// out\n        /* \"#utility.yul\":23603:23797   */\n    tag_157:\n        /* \"#utility.yul\":23643:23647   */\n      0x00\n        /* \"#utility.yul\":23663:23683   */\n      tag_442\n        /* \"#utility.yul\":23681:23682   */\n      dup3\n        /* \"#utility.yul\":23663:23683   */\n      tag_174\n      jump\t// in\n    tag_442:\n        /* \"#utility.yul\":23658:23683   */\n      swap2\n      pop\n        /* \"#utility.yul\":23697:23717   */\n      tag_443\n        /* \"#utility.yul\":23715:23716   */\n      dup4\n        /* \"#utility.yul\":23697:23717   */\n      tag_174\n      jump\t// in\n    tag_443:\n        /* \"#utility.yul\":23692:23717   */\n      swap3\n      pop\n        /* \"#utility.yul\":23741:23742   */\n      dup3\n        /* \"#utility.yul\":23738:23739   */\n      dup3\n        /* \"#utility.yul\":23734:23743   */\n      sub\n        /* \"#utility.yul\":23726:23743   */\n      swap1\n      pop\n        /* \"#utility.yul\":23765:23766   */\n      dup2\n        /* \"#utility.yul\":23759:23763   */\n      dup2\n        /* \"#utility.yul\":23756:23767   */\n      gt\n        /* \"#utility.yul\":23753:23790   */\n      iszero\n      tag_444\n      jumpi\n        /* \"#utility.yul\":23770:23788   */\n      tag_445\n      tag_213\n      jump\t// in\n    tag_445:\n        /* \"#utility.yul\":23753:23790   */\n    tag_444:\n        /* \"#utility.yul\":23603:23797   */\n      swap3\n      swap2\n      pop\n      pop\n      jump\t// out\n        /* \"#utility.yul\":23803:24034   */\n    tag_224:\n        /* \"#utility.yul\":23943:23977   */\n      0x4552433732314d657461646174613a2055524920736574206f66206e6f6e6578\n        /* \"#utility.yul\":23939:23940   */\n      0x00\n        /* \"#utility.yul\":23931:23937   */\n      dup3\n        /* \"#utility.yul\":23927:23941   */\n      add\n        /* \"#utility.yul\":23920:23978   */\n      mstore\n        /* \"#utility.yul\":24012:24026   */\n      0x697374656e7420746f6b656e0000000000000000000000000000000000000000\n        /* \"#utility.yul\":24007:24009   */\n      0x20\n        /* \"#utility.yul\":23999:24005   */\n      dup3\n        /* \"#utility.yul\":23995:24010   */\n      add\n        /* \"#utility.yul\":23988:24027   */\n      mstore\n        /* \"#utility.yul\":23803:24034   */\n      pop\n      jump\t// out\n        /* \"#utility.yul\":24040:24406   */\n    tag_225:\n        /* \"#utility.yul\":24182:24185   */\n      0x00\n        /* \"#utility.yul\":24203:24270   */\n      tag_448\n        /* \"#utility.yul\":24267:24269   */\n      0x2c\n        /* \"#utility.yul\":24262:24265   */\n      dup4\n        /* \"#utility.yul\":24203:24270   */\n      tag_167\n      jump\t// in\n    tag_448:\n        /* \"#utility.yul\":24196:24270   */\n      swap2\n      pop\n        /* \"#utility.yul\":24279:24372   */\n      tag_449\n        /* \"#utility.yul\":24368:24371   */\n      dup3\n        /* \"#utility.yul\":24279:24372   */\n      tag_224\n      jump\t// in\n    tag_449:\n        /* \"#utility.yul\":24397:24399   */\n      0x40\n        /* \"#utility.yul\":24392:24395   */\n      dup3\n        /* \"#utility.yul\":24388:24400   */\n      add\n        /* \"#utility.yul\":24381:24400   */\n      swap1\n      pop\n        /* \"#utility.yul\":24040:24406   */\n      swap2\n      swap1\n      pop\n      jump\t// out\n        /* \"#utility.yul\":24412:24831   */\n    tag_163:\n        /* \"#utility.yul\":24578:24582   */\n      0x00\n        /* \"#utility.yul\":24616:24618   */\n      0x20\n        /* \"#utility.yul\":24605:24614   */\n      dup3\n        /* \"#utility.yul\":24601:24619   */\n      add\n        /* \"#utility.yul\":24593:24619   */\n      swap1\n      pop\n        /* \"#utility.yul\":24665:24674   */\n      dup2\n        /* \"#utility.yul\":24659:24663   */\n      dup2\n        /* \"#utility.yul\":24655:24675   */\n      sub\n        /* \"#utility.yul\":24651:24652   */\n      0x00\n        /* \"#utility.yul\":24640:24649   */\n      dup4\n        /* \"#utility.yul\":24636:24653   */\n      add\n        /* \"#utility.yul\":24629:24676   */\n      mstore\n        /* \"#utility.yul\":24693:24824   */\n      tag_451\n        /* \"#utility.yul\":24819:24823   */\n      dup2\n        /* \"#utility.yul\":24693:24824   */\n      tag_225\n      jump\t// in\n    tag_451:\n        /* \"#utility.yul\":24685:24824   */\n      swap1\n      pop\n        /* \"#utility.yul\":24412:24831   */\n      swap2\n      swap1\n      pop\n      jump\t// out\n        /* \"#utility.yul\":24837:24978   */\n    tag_226:\n        /* \"#utility.yul\":24886:24890   */\n      0x00\n        /* \"#utility.yul\":24909:24912   */\n      dup2\n        /* \"#utility.yul\":24901:24912   */\n      swap1\n      pop\n        /* \"#utility.yul\":24932:24935   */\n      dup2\n        /* \"#utility.yul\":24929:24930   */\n      0x00\n        /* \"#utility.yul\":24922:24936   */\n      mstore\n        /* \"#utility.yul\":24966:24970   */\n      0x20\n        /* \"#utility.yul\":24963:24964   */\n      0x00\n        /* \"#utility.yul\":24953:24971   */\n      keccak256\n        /* \"#utility.yul\":24945:24971   */\n      swap1\n      pop\n        /* \"#utility.yul\":24837:24978   */\n      swap2\n      swap1\n      pop\n      jump\t// out\n        /* \"#utility.yul\":24984:25077   */\n    tag_227:\n        /* \"#utility.yul\":25021:25027   */\n      0x00\n        /* \"#utility.yul\":25068:25070   */\n      0x20\n        /* \"#utility.yul\":25063:25065   */\n      0x1f\n        /* \"#utility.yul\":25056:25061   */\n      dup4\n        /* \"#utility.yul\":25052:25066   */\n      add\n        /* \"#utility.yul\":25048:25071   */\n      div\n        /* \"#utility.yul\":25038:25071   */\n      swap1\n      pop\n        /* \"#utility.yul\":24984:25077   */\n      swap2\n      swap1\n      pop\n      jump\t// out\n        /* \"#utility.yul\":25083:25190   */\n    tag_228:\n        /* \"#utility.yul\":25127:25135   */\n      0x00\n        /* \"#utility.yul\":25177:25182   */\n      dup3\n        /* \"#utility.yul\":25171:25175   */\n      dup3\n        /* \"#utility.yul\":25167:25183   */\n      shl\n        /* \"#utility.yul\":25146:25183   */\n      swap1\n      pop\n        /* \"#utility.yul\":25083:25190   */\n      swap3\n      swap2\n      pop\n      pop\n      jump\t// out\n        /* \"#utility.yul\":25196:25589   */\n    tag_229:\n        /* \"#utility.yul\":25265:25271   */\n      0x00\n        /* \"#utility.yul\":25315:25316   */\n      0x08\n        /* \"#utility.yul\":25303:25313   */\n      dup4\n        /* \"#utility.yul\":25299:25317   */\n      mul\n        /* \"#utility.yul\":25338:25435   */\n      tag_456\n        /* \"#utility.yul\":25368:25434   */\n      0xffffffffffffffffffffffffffffffffffffffffffffffffffffffffffffffff\n        /* \"#utility.yul\":25357:25366   */\n      dup3\n        /* \"#utility.yul\":25338:25435   */\n      tag_228\n      jump\t// in\n    tag_456:\n        /* \"#utility.yul\":25456:25495   */\n      tag_457\n        /* \"#utility.yul\":25486:25494   */\n      dup7\n        /* \"#utility.yul\":25475:25484   */\n      dup4\n        /* \"#utility.yul\":25456:25495   */\n      tag_228\n      jump\t// in\n    tag_457:\n        /* \"#utility.yul\":25444:25495   */\n      swap6\n      pop\n        /* \"#utility.yul\":25528:25532   */\n      dup1\n        /* \"#utility.yul\":25524:25533   */\n      not\n        /* \"#utility.yul\":25517:25522   */\n      dup5\n        /* \"#utility.yul\":25513:25534   */\n      and\n        /* \"#utility.yul\":25504:25534   */\n      swap4\n      pop\n        /* \"#utility.yul\":25577:25581   */\n      dup1\n        /* \"#utility.yul\":25567:25575   */\n      dup7\n        /* \"#utility.yul\":25563:25582   */\n      and\n        /* \"#utility.yul\":25556:25561   */\n      dup5\n        /* \"#utility.yul\":25553:25583   */\n      or\n        /* \"#utility.yul\":25543:25583   */\n      swap3\n      pop\n        /* \"#utility.yul\":25272:25589   */\n      pop\n      pop\n        /* \"#utility.yul\":25196:25589   */\n      swap4\n      swap3\n      pop\n      pop\n      pop\n      jump\t// out\n        /* \"#utility.yul\":25595:25655   */\n    tag_230:\n        /* \"#utility.yul\":25623:25626   */\n      0x00\n        /* \"#utility.yul\":25644:25649   */\n      dup2\n        /* \"#utility.yul\":25637:25649   */\n      swap1\n      pop\n        /* \"#utility.yul\":25595:25655   */\n      swap2\n      swap1\n      pop\n      jump\t// out\n        /* \"#utility.yul\":25661:25803   */\n    tag_231:\n        /* \"#utility.yul\":25711:25720   */\n      0x00\n        /* \"#utility.yul\":25744:25797   */\n      tag_460\n        /* \"#utility.yul\":25762:25796   */\n      tag_461\n        /* \"#utility.yul\":25771:25795   */\n      tag_462\n        /* \"#utility.yul\":25789:25794   */\n      dup5\n        /* \"#utility.yul\":25771:25795   */\n      tag_174\n      jump\t// in\n    tag_462:\n        /* \"#utility.yul\":25762:25796   */\n      tag_230\n      jump\t// in\n    tag_461:\n        /* \"#utility.yul\":25744:25797   */\n      tag_174\n      jump\t// in\n    tag_460:\n        /* \"#utility.yul\":25731:25797   */\n      swap1\n      pop\n        /* \"#utility.yul\":25661:25803   */\n      swap2\n      swap1\n      pop\n      jump\t// out\n        /* \"#utility.yul\":25809:25884   */\n    tag_232:\n        /* \"#utility.yul\":25852:25855   */\n      0x00\n        /* \"#utility.yul\":25873:25878   */\n      dup2\n        /* \"#utility.yul\":25866:25878   */\n      swap1\n      pop\n        /* \"#utility.yul\":25809:25884   */\n      swap2\n      swap1\n      pop\n      jump\t// out\n        /* \"#utility.yul\":25890:26159   */\n    tag_233:\n        /* \"#utility.yul\":26000:26039   */\n      tag_465\n        /* \"#utility.yul\":26031:26038   */\n      dup4\n        /* \"#utility.yul\":26000:26039   */\n      tag_231\n      jump\t// in\n    tag_465:\n        /* \"#utility.yul\":26061:26152   */\n      tag_466\n        /* \"#utility.yul\":26110:26151   */\n      tag_467\n        /* \"#utility.yul\":26134:26150   */\n      dup3\n        /* \"#utility.yul\":26110:26151   */\n      tag_232\n      jump\t// in\n    tag_467:\n        /* \"#utility.yul\":26102:26108   */\n      dup5\n        /* \"#utility.yul\":26095:26099   */\n      dup5\n        /* \"#utility.yul\":26089:26100   */\n      sload\n        /* \"#utility.yul\":26061:26152   */\n      tag_229\n      jump\t// in\n    tag_466:\n        /* \"#utility.yul\":26055:26059   */\n      dup3\n        /* \"#utility.yul\":26048:26153   */\n      sstore\n        /* \"#utility.yul\":25966:26159   */\n      pop\n        /* \"#utility.yul\":25890:26159   */\n      pop\n      pop\n      pop\n      jump\t// out\n        /* \"#utility.yul\":26165:26238   */\n    tag_234:\n        /* \"#utility.yul\":26210:26213   */\n      0x00\n        /* \"#utility.yul\":26165:26238   */\n      swap1\n      jump\t// out\n        /* \"#utility.yul\":26244:26433   */\n    tag_235:\n        /* \"#utility.yul\":26321:26353   */\n      tag_470\n      tag_234\n      jump\t// in\n    tag_470:\n        /* \"#utility.yul\":26362:26427   */\n      tag_471\n        /* \"#utility.yul\":26420:26426   */\n      dup2\n        /* \"#utility.yul\":26412:26418   */\n      dup5\n        /* \"#utility.yul\":26406:26410   */\n      dup5\n        /* \"#utility.yul\":26362:26427   */\n      tag_233\n      jump\t// in\n    tag_471:\n        /* \"#utility.yul\":26297:26433   */\n      pop\n        /* \"#utility.yul\":26244:26433   */\n      pop\n      pop\n      jump\t// out\n        /* \"#utility.yul\":26439:26625   */\n    tag_236:\n        /* \"#utility.yul\":26499:26619   */\n    tag_473:\n        /* \"#utility.yul\":26516:26519   */\n      dup2\n        /* \"#utility.yul\":26509:26514   */\n      dup2\n        /* \"#utility.yul\":26506:26520   */\n      lt\n        /* \"#utility.yul\":26499:26619   */\n      iszero\n      tag_475\n      jumpi\n        /* \"#utility.yul\":26570:26609   */\n      tag_476\n        /* \"#utility.yul\":26607:26608   */\n      0x00\n        /* \"#utility.yul\":26600:26605   */\n      dup3\n        /* \"#utility.yul\":26570:26609   */\n      tag_235\n      jump\t// in\n    tag_476:\n        /* \"#utility.yul\":26543:26544   */\n      0x01\n        /* \"#utility.yul\":26536:26541   */\n      dup2\n        /* \"#utility.yul\":26532:26545   */\n      add\n        /* \"#utility.yul\":26523:26545   */\n      swap1\n      pop\n        /* \"#utility.yul\":26499:26619   */\n      jump(tag_473)\n    tag_475:\n        /* \"#utility.yul\":26439:26625   */\n      pop\n      pop\n      jump\t// out\n        /* \"#utility.yul\":26631:27174   */\n    tag_237:\n        /* \"#utility.yul\":26732:26734   */\n      0x1f\n        /* \"#utility.yul\":26727:26730   */\n      dup3\n        /* \"#utility.yul\":26724:26735   */\n      gt\n        /* \"#utility.yul\":26721:27167   */\n      iszero\n      tag_478\n      jumpi\n        /* \"#utility.yul\":26766:26804   */\n      tag_479\n        /* \"#utility.yul\":26798:26803   */\n      dup2\n        /* \"#utility.yul\":26766:26804   */\n      tag_226\n      jump\t// in\n    tag_479:\n        /* \"#utility.yul\":26850:26879   */\n      tag_480\n        /* \"#utility.yul\":26868:26878   */\n      dup5\n        /* \"#utility.yul\":26850:26879   */\n      tag_227\n      jump\t// in\n    tag_480:\n        /* \"#utility.yul\":26840:26848   */\n      dup2\n        /* \"#utility.yul\":26836:26880   */\n      add\n        /* \"#utility.yul\":27033:27035   */\n      0x20\n        /* \"#utility.yul\":27021:27031   */\n      dup6\n        /* \"#utility.yul\":27018:27036   */\n      lt\n        /* \"#utility.yul\":27015:27064   */\n      iszero\n      tag_481\n      jumpi\n        /* \"#utility.yul\":27054:27062   */\n      dup2\n        /* \"#utility.yul\":27039:27062   */\n      swap1\n      pop\n        /* \"#utility.yul\":27015:27064   */\n    tag_481:\n        /* \"#utility.yul\":27077:27157   */\n      tag_482\n        /* \"#utility.yul\":27133:27155   */\n      tag_483\n        /* \"#utility.yul\":27151:27154   */\n      dup6\n        /* \"#utility.yul\":27133:27155   */\n      tag_227\n      jump\t// in\n    tag_483:\n        /* \"#utility.yul\":27123:27131   */\n      dup4\n        /* \"#utility.yul\":27119:27156   */\n      add\n        /* \"#utility.yul\":27106:27117   */\n      dup3\n        /* \"#utility.yul\":27077:27157   */\n      tag_236\n      jump\t// in\n    tag_482:\n        /* \"#utility.yul\":26736:27167   */\n      pop\n      pop\n        /* \"#utility.yul\":26721:27167   */\n    tag_478:\n        /* \"#utility.yul\":26631:27174   */\n      pop\n      pop\n      pop\n      jump\t// out\n        /* \"#utility.yul\":27180:27297   */\n    tag_238:\n        /* \"#utility.yul\":27234:27242   */\n      0x00\n        /* \"#utility.yul\":27284:27289   */\n      dup3\n        /* \"#utility.yul\":27278:27282   */\n      dup3\n        /* \"#utility.yul\":27274:27290   */\n      shr\n        /* \"#utility.yul\":27253:27290   */\n      swap1\n      pop\n        /* \"#utility.yul\":27180:27297   */\n      swap3\n      swap2\n      pop\n      pop\n      jump\t// out\n        /* \"#utility.yul\":27303:27472   */\n    tag_239:\n        /* \"#utility.yul\":27347:27353   */\n      0x00\n        /* \"#utility.yul\":27380:27431   */\n      tag_486\n        /* \"#utility.yul\":27428:27429   */\n      0x00\n        /* \"#utility.yul\":27424:27430   */\n      not\n        /* \"#utility.yul\":27416:27421   */\n      dup5\n        /* \"#utility.yul\":27413:27414   */\n      0x08\n        /* \"#utility.yul\":27409:27422   */\n      mul\n        /* \"#utility.yul\":27380:27431   */\n      tag_238\n      jump\t// in\n    tag_486:\n        /* \"#utility.yul\":27376:27432   */\n      not\n        /* \"#utility.yul\":27461:27465   */\n      dup1\n        /* \"#utility.yul\":27455:27459   */\n      dup4\n        /* \"#utility.yul\":27451:27466   */\n      and\n        /* \"#utility.yul\":27441:27466   */\n      swap2\n      pop\n        /* \"#utility.yul\":27354:27472   */\n      pop\n        /* \"#utility.yul\":27303:27472   */\n      swap3\n      swap2\n      pop\n      pop\n      jump\t// out\n        /* \"#utility.yul\":27477:27772   */\n    tag_240:\n        /* \"#utility.yul\":27553:27557   */\n      0x00\n        /* \"#utility.yul\":27699:27728   */\n      tag_488\n        /* \"#utility.yul\":27724:27727   */\n      dup4\n        /* \"#utility.yul\":27718:27722   */\n      dup4\n        /* \"#utility.yul\":27699:27728   */\n      tag_239\n      jump\t// in\n    tag_488:\n        /* \"#utility.yul\":27691:27728   */\n      swap2\n      pop\n        /* \"#utility.yul\":27761:27764   */\n      dup3\n        /* \"#utility.yul\":27758:27759   */\n      0x02\n        /* \"#utility.yul\":27754:27765   */\n      mul\n        /* \"#utility.yul\":27748:27752   */\n      dup3\n        /* \"#utility.yul\":27745:27766   */\n      or\n        /* \"#utility.yul\":27737:27766   */\n      swap1\n      pop\n        /* \"#utility.yul\":27477:27772   */\n      swap3\n      swap2\n      pop\n      pop\n      jump\t// out\n        /* \"#utility.yul\":27777:29172   */\n    tag_165:\n        /* \"#utility.yul\":27894:27931   */\n      tag_490\n        /* \"#utility.yul\":27927:27930   */\n      dup3\n        /* \"#utility.yul\":27894:27931   */\n      tag_166\n      jump\t// in\n    tag_490:\n        /* \"#utility.yul\":27996:28014   */\n      0xffffffffffffffff\n        /* \"#utility.yul\":27988:27994   */\n      dup2\n        /* \"#utility.yul\":27985:28015   */\n      gt\n        /* \"#utility.yul\":27982:28038   */\n      iszero\n      tag_491\n      jumpi\n        /* \"#utility.yul\":28018:28036   */\n      tag_492\n      tag_188\n      jump\t// in\n    tag_492:\n        /* \"#utility.yul\":27982:28038   */\n    tag_491:\n        /* \"#utility.yul\":28062:28100   */\n      tag_493\n        /* \"#utility.yul\":28094:28098   */\n      dup3\n        /* \"#utility.yul\":28088:28099   */\n      sload\n        /* \"#utility.yul\":28062:28100   */\n      tag_65\n      jump\t// in\n    tag_493:\n        /* \"#utility.yul\":28147:28214   */\n      tag_494\n        /* \"#utility.yul\":28207:28213   */\n      dup3\n        /* \"#utility.yul\":28199:28205   */\n      dup3\n        /* \"#utility.yul\":28193:28197   */\n      dup6\n        /* \"#utility.yul\":28147:28214   */\n      tag_237\n      jump\t// in\n    tag_494:\n        /* \"#utility.yul\":28241:28242   */\n      0x00\n        /* \"#utility.yul\":28265:28269   */\n      0x20\n        /* \"#utility.yul\":28252:28269   */\n      swap1\n      pop\n        /* \"#utility.yul\":28297:28299   */\n      0x1f\n        /* \"#utility.yul\":28289:28295   */\n      dup4\n        /* \"#utility.yul\":28286:28300   */\n      gt\n        /* \"#utility.yul\":28314:28315   */\n      0x01\n        /* \"#utility.yul\":28309:28927   */\n      dup2\n      eq\n      tag_496\n      jumpi\n        /* \"#utility.yul\":28971:28972   */\n      0x00\n        /* \"#utility.yul\":28988:28994   */\n      dup5\n        /* \"#utility.yul\":28985:29062   */\n      iszero\n      tag_497\n      jumpi\n        /* \"#utility.yul\":29037:29046   */\n      dup3\n        /* \"#utility.yul\":29032:29035   */\n      dup8\n        /* \"#utility.yul\":29028:29047   */\n      add\n        /* \"#utility.yul\":29022:29048   */\n      mload\n        /* \"#utility.yul\":29013:29048   */\n      swap1\n      pop\n        /* \"#utility.yul\":28985:29062   */\n    tag_497:\n        /* \"#utility.yul\":29088:29155   */\n      tag_498\n        /* \"#utility.yul\":29148:29154   */\n      dup6\n        /* \"#utility.yul\":29141:29146   */\n      dup3\n        /* \"#utility.yul\":29088:29155   */\n      tag_240\n      jump\t// in\n    tag_498:\n        /* \"#utility.yul\":29082:29086   */\n      dup7\n        /* \"#utility.yul\":29075:29156   */\n      sstore\n        /* \"#utility.yul\":28944:29166   */\n      pop\n        /* \"#utility.yul\":28279:29166   */\n      jump(tag_495)\n        /* \"#utility.yul\":28309:28927   */\n    tag_496:\n        /* \"#utility.yul\":28361:28365   */\n      0x1f\n        /* \"#utility.yul\":28357:28366   */\n      not\n        /* \"#utility.yul\":28349:28355   */\n      dup5\n        /* \"#utility.yul\":28345:28367   */\n      and\n        /* \"#utility.yul\":28395:28432   */\n      tag_499\n        /* \"#utility.yul\":28427:28431   */\n      dup7\n        /* \"#utility.yul\":28395:28432   */\n      tag_226\n      jump\t// in\n    tag_499:\n        /* \"#utility.yul\":28454:28455   */\n      0x00\n        /* \"#utility.yul\":28468:28676   */\n    tag_500:\n        /* \"#utility.yul\":28482:28489   */\n      dup3\n        /* \"#utility.yul\":28479:28480   */\n      dup2\n        /* \"#utility.yul\":28476:28490   */\n      lt\n        /* \"#utility.yul\":28468:28676   */\n      iszero\n      tag_502\n      jumpi\n        /* \"#utility.yul\":28561:28570   */\n      dup5\n        /* \"#utility.yul\":28556:28559   */\n      dup10\n        /* \"#utility.yul\":28552:28571   */\n      add\n        /* \"#utility.yul\":28546:28572   */\n      mload\n        /* \"#utility.yul\":28538:28544   */\n      dup3\n        /* \"#utility.yul\":28531:28573   */\n      sstore\n        /* \"#utility.yul\":28612:28613   */\n      0x01\n        /* \"#utility.yul\":28604:28610   */\n      dup3\n        /* \"#utility.yul\":28600:28614   */\n      add\n        /* \"#utility.yul\":28590:28614   */\n      swap2\n      pop\n        /* \"#utility.yul\":28659:28661   */\n      0x20\n        /* \"#utility.yul\":28648:28657   */\n      dup6\n        /* \"#utility.yul\":28644:28662   */\n      add\n        /* \"#utility.yul\":28631:28662   */\n      swap5\n      pop\n        /* \"#utility.yul\":28505:28509   */\n      0x20\n        /* \"#utility.yul\":28502:28503   */\n      dup2\n        /* \"#utility.yul\":28498:28510   */\n      add\n        /* \"#utility.yul\":28493:28510   */\n      swap1\n      pop\n        /* \"#utility.yul\":28468:28676   */\n      jump(tag_500)\n    tag_502:\n        /* \"#utility.yul\":28704:28710   */\n      dup7\n        /* \"#utility.yul\":28695:28702   */\n      dup4\n        /* \"#utility.yul\":28692:28711   */\n      lt\n        /* \"#utility.yul\":28689:28868   */\n      iszero\n      tag_503\n      jumpi\n        /* \"#utility.yul\":28762:28771   */\n      dup5\n        /* \"#utility.yul\":28757:28760   */\n      dup10\n        /* \"#utility.yul\":28753:28772   */\n      add\n        /* \"#utility.yul\":28747:28773   */\n      mload\n        /* \"#utility.yul\":28805:28853   */\n      tag_504\n        /* \"#utility.yul\":28847:28851   */\n      0x1f\n        /* \"#utility.yul\":28839:28845   */\n      dup10\n        /* \"#utility.yul\":28835:28852   */\n      and\n        /* \"#utility.yul\":28824:28833   */\n      dup3\n        /* \"#utility.yul\":28805:28853   */\n      tag_239\n      jump\t// in\n    tag_504:\n        /* \"#utility.yul\":28797:28803   */\n      dup4\n        /* \"#utility.yul\":28790:28854   */\n      sstore\n        /* \"#utility.yul\":28712:28868   */\n      pop\n        /* \"#utility.yul\":28689:28868   */\n    tag_503:\n        /* \"#utility.yul\":28914:28915   */\n      0x01\n        /* \"#utility.yul\":28910:28911   */\n      0x02\n        /* \"#utility.yul\":28902:28908   */\n      dup9\n        /* \"#utility.yul\":28898:28912   */\n      mul\n        /* \"#utility.yul\":28894:28916   */\n      add\n        /* \"#utility.yul\":28888:28892   */\n      dup9\n        /* \"#utility.yul\":28881:28917   */\n      sstore\n        /* \"#utility.yul\":28316:28927   */\n      pop\n      pop\n      pop\n        /* \"#utility.yul\":28279:29166   */\n    tag_495:\n      pop\n        /* \"#utility.yul\":27869:29172   */\n      pop\n      pop\n      pop\n        /* \"#utility.yul\":27777:29172   */\n      pop\n      pop\n      jump\t// out\n\n    auxdata: 0xa2646970667358221220c5917b2e7ddeea8bab0c6adbad1f28ca2d80a1f7568ceae359cd1f2fa2c54d1e64736f6c63430008140033\n}\n",
				"bytecode": {
					"linkReferences": {},
					"object": "60806040525f60075534801562000014575f80fd5b50604051620025493803806200254983398181016040528101906200003a9190620001ea565b815f90816200004a9190620004a4565b5080600190816200005c9190620004a4565b50505062000588565b5f604051905090565b5f80fd5b5f80fd5b5f80fd5b5f80fd5b5f601f19601f8301169050919050565b7f4e487b71000000000000000000000000000000000000000000000000000000005f52604160045260245ffd5b620000c6826200007e565b810181811067ffffffffffffffff82111715620000e857620000e76200008e565b5b80604052505050565b5f620000fc62000065565b90506200010a8282620000bb565b919050565b5f67ffffffffffffffff8211156200012c576200012b6200008e565b5b62000137826200007e565b9050602081019050919050565b5f5b838110156200016357808201518184015260208101905062000146565b5f8484015250505050565b5f620001846200017e846200010f565b620000f1565b905082815260208101848484011115620001a357620001a26200007a565b5b620001b084828562000144565b509392505050565b5f82601f830112620001cf57620001ce62000076565b5b8151620001e18482602086016200016e565b91505092915050565b5f80604083850312156200020357620002026200006e565b5b5f83015167ffffffffffffffff81111562000223576200022262000072565b5b6200023185828601620001b8565b925050602083015167ffffffffffffffff81111562000255576200025462000072565b5b6200026385828601620001b8565b9150509250929050565b5f81519050919050565b7f4e487b71000000000000000000000000000000000000000000000000000000005f52602260045260245ffd5b5f6002820490506001821680620002bc57607f821691505b602082108103620002d257620002d162000277565b5b50919050565b5f819050815f5260205f209050919050565b5f6020601f8301049050919050565b5f82821b905092915050565b5f60088302620003367fffffffffffffffffffffffffffffffffffffffffffffffffffffffffffffffff82620002f9565b620003428683620002f9565b95508019841693508086168417925050509392505050565b5f819050919050565b5f819050919050565b5f6200038c6200038662000380846200035a565b62000363565b6200035a565b9050919050565b5f819050919050565b620003a7836200036c565b620003bf620003b68262000393565b84845462000305565b825550505050565b5f90565b620003d5620003c7565b620003e28184846200039c565b505050565b5b818110156200040957620003fd5f82620003cb565b600181019050620003e8565b5050565b601f82111562000458576200042281620002d8565b6200042d84620002ea565b810160208510156200043d578190505b620004556200044c85620002ea565b830182620003e7565b50505b505050565b5f82821c905092915050565b5f6200047a5f19846008026200045d565b1980831691505092915050565b5f62000494838362000469565b9150826002028217905092915050565b620004af826200026d565b67ffffffffffffffff811115620004cb57620004ca6200008e565b5b620004d78254620002a4565b620004e48282856200040d565b5f60209050601f8311600181146200051a575f841562000505578287015190505b62000511858262000487565b86555062000580565b601f1984166200052a86620002d8565b5f5b8281101562000553578489015182556001820191506020850194506020810190506200052c565b868310156200057357848901516200056f601f89168262000469565b8355505b6001600288020188555050505b505050505050565b611fb380620005965f395ff3fe608060405234801561000f575f80fd5b50600436106100a7575f3560e01c806370a082311161006f57806370a082311461016157806395d89b4114610191578063a22cb465146101af578063c87b56dd146101cb578063d0def521146101fb578063e985e9c514610217576100a7565b806306fdde03146100ab578063081812fc146100c9578063095ea7b3146100f957806323b872dd146101155780636352211e14610131575b5f80fd5b6100b3610247565b6040516100c0919061107e565b60405180910390f35b6100e360048036038101906100de91906110e2565b6102d2565b6040516100f0919061114c565b60405180910390f35b610113600480360381019061010e919061118f565b610353565b005b61012f600480360381019061012a91906111cd565b6104fb565b005b61014b600480360381019061014691906110e2565b610554565b604051610158919061114c565b60405180910390f35b61017b6004803603810190610176919061121d565b610600565b6040516101889190611257565b60405180910390f35b6101996106b4565b6040516101a6919061107e565b60405180910390f35b6101c960048036038101906101c491906112a5565b610740565b005b6101e560048036038101906101e091906110e2565b6108a6565b6040516101f2919061107e565b60405180910390f35b6102156004803603810190610210919061140f565b61098f565b005b610231600480360381019061022c9190611469565b610b72565b60405161023e91906114b6565b60405180910390f35b5f8054610253906114fc565b80601f016020809104026020016040519081016040528092919081815260200182805461027f906114fc565b80156102ca5780601f106102a1576101008083540402835291602001916102ca565b820191905f5260205f20905b8154815290600101906020018083116102ad57829003601f168201915b505050505081565b5f6102dc82610c00565b61031b576040517f08c379a00000000000000000000000000000000000000000000000000000000081526004016103129061159c565b60405180910390fd5b60045f8381526020019081526020015f205f9054906101000a900473ffffffffffffffffffffffffffffffffffffffff169050919050565b5f61035d82610554565b90508073ffffffffffffffffffffffffffffffffffffffff168373ffffffffffffffffffffffffffffffffffffffff16036103cd576040517f08c379a00000000000000000000000000000000000000000000000000000000081526004016103c49061162a565b60405180910390fd5b8073ffffffffffffffffffffffffffffffffffffffff163373ffffffffffffffffffffffffffffffffffffffff16148061040d575061040c8133610b72565b5b61044c576040517f08c379a0000000000000000000000000000000000000000000000000000000008152600401610443906116b8565b60405180910390fd5b8260045f8481526020019081526020015f205f6101000a81548173ffffffffffffffffffffffffffffffffffffffff021916908373ffffffffffffffffffffffffffffffffffffffff160217905550818373ffffffffffffffffffffffffffffffffffffffff168273ffffffffffffffffffffffffffffffffffffffff167f8c5be1e5ebec7d5bd14f71427d1e84f3dd0314c0f7b2291e5b200ac8c7c3b92560405160405180910390a4505050565b6105053382610c68565b610544576040517f08c379a000000000000000000000000000000000000000000000000000000000815260040161053b90611746565b60405180910390fd5b61054f838383610d44565b505050565b5f8060025f8481526020019081526020015f205f9054906101000a900473ffffffffffffffffffffffffffffffffffffffff1690505f73ffffffffffffffffffffffffffffffffffffffff168173ffffffffffffffffffffffffffffffffffffffff16036105f7576040517f08c379a00000000000000000000000000000000000000000000000000000000081526004016105ee906117d4565b60405180910390fd5b80915050919050565b5f8073ffffffffffffffffffffffffffffffffffffffff168273ffffffffffffffffffffffffffffffffffffffff160361066f576040517f08c379a000000000000000000000000000000000000000000000000000000000815260040161066690611862565b60405180910390fd5b60035f8373ffffffffffffffffffffffffffffffffffffffff1673ffffffffffffffffffffffffffffffffffffffff1681526020019081526020015f20549050919050565b600180546106c1906114fc565b80601f01602080910402602001604051908101604052809291908181526020018280546106ed906114fc565b80156107385780601f1061070f57610100808354040283529160200191610738565b820191905f5260205f20905b81548152906001019060200180831161071b57829003601f168201915b505050505081565b3373ffffffffffffffffffffffffffffffffffffffff168273ffffffffffffffffffffffffffffffffffffffff16036107ae576040517f08c379a00000000000000000000000000000000000000000000000000000000081526004016107a5906118ca565b60405180910390fd5b8060055f3373ffffffffffffffffffffffffffffffffffffffff1673ffffffffffffffffffffffffffffffffffffffff1681526020019081526020015f205f8473ffffffffffffffffffffffffffffffffffffffff1673ffffffffffffffffffffffffffffffffffffffff1681526020019081526020015f205f6101000a81548160ff0219169083151502179055508173ffffffffffffffffffffffffffffffffffffffff163373ffffffffffffffffffffffffffffffffffffffff167f17307eab39ab6107e8899845ad3d59bd9653f200f220920489ca2b5937696c318360405161089a91906114b6565b60405180910390a35050565b60606108b182610c00565b6108f0576040517f08c379a00000000000000000000000000000000000000000000000000000000081526004016108e790611958565b60405180910390fd5b60065f8381526020019081526020015f20805461090c906114fc565b80601f0160208091040260200160405190810160405280929190818152602001828054610938906114fc565b80156109835780601f1061095a57610100808354040283529160200191610983565b820191905f5260205f20905b81548152906001019060200180831161096657829003601f168201915b50505050509050919050565b600160075f8282546109a191906119a3565b925050819055505f60075490505f73ffffffffffffffffffffffffffffffffffffffff168373ffffffffffffffffffffffffffffffffffffffff1603610a1c576040517f08c379a0000000000000000000000000000000000000000000000000000000008152600401610a1390611a20565b60405180910390fd5b610a2581610c00565b15610a65576040517f08c379a0000000000000000000000000000000000000000000000000000000008152600401610a5c90611a88565b60405180910390fd5b600160035f8573ffffffffffffffffffffffffffffffffffffffff1673ffffffffffffffffffffffffffffffffffffffff1681526020019081526020015f205f828254610ab291906119a3565b925050819055508260025f8381526020019081526020015f205f6101000a81548173ffffffffffffffffffffffffffffffffffffffff021916908373ffffffffffffffffffffffffffffffffffffffff160217905550610b128183610f89565b808373ffffffffffffffffffffffffffffffffffffffff165f73ffffffffffffffffffffffffffffffffffffffff167fddf252ad1be2c89b69c2b068fc378daa952ba7f163c4a11628f55a4df523b3ef60405160405180910390a4505050565b5f60055f8473ffffffffffffffffffffffffffffffffffffffff1673ffffffffffffffffffffffffffffffffffffffff1681526020019081526020015f205f8373ffffffffffffffffffffffffffffffffffffffff1673ffffffffffffffffffffffffffffffffffffffff1681526020019081526020015f205f9054906101000a900460ff16905092915050565b5f8073ffffffffffffffffffffffffffffffffffffffff1660025f8481526020019081526020015f205f9054906101000a900473ffffffffffffffffffffffffffffffffffffffff1673ffffffffffffffffffffffffffffffffffffffff1614159050919050565b5f610c7282610c00565b610cb1576040517f08c379a0000000000000000000000000000000000000000000000000000000008152600401610ca890611b16565b60405180910390fd5b5f610cbb83610554565b90508073ffffffffffffffffffffffffffffffffffffffff168473ffffffffffffffffffffffffffffffffffffffff161480610d2a57508373ffffffffffffffffffffffffffffffffffffffff16610d12846102d2565b73ffffffffffffffffffffffffffffffffffffffff16145b80610d3b5750610d3a8185610b72565b5b91505092915050565b8273ffffffffffffffffffffffffffffffffffffffff16610d6482610554565b73ffffffffffffffffffffffffffffffffffffffff1614610dba576040517f08c379a0000000000000000000000000000000000000000000000000000000008152600401610db190611ba4565b60405180910390fd5b5f73ffffffffffffffffffffffffffffffffffffffff168273ffffffffffffffffffffffffffffffffffffffff1603610e28576040517f08c379a0000000000000000000000000000000000000000000000000000000008152600401610e1f90611c32565b60405180910390fd5b610e325f82610353565b600160035f8573ffffffffffffffffffffffffffffffffffffffff1673ffffffffffffffffffffffffffffffffffffffff1681526020019081526020015f205f828254610e7f9190611c50565b92505081905550600160035f8473ffffffffffffffffffffffffffffffffffffffff1673ffffffffffffffffffffffffffffffffffffffff1681526020019081526020015f205f828254610ed391906119a3565b925050819055508160025f8381526020019081526020015f205f6101000a81548173ffffffffffffffffffffffffffffffffffffffff021916908373ffffffffffffffffffffffffffffffffffffffff160217905550808273ffffffffffffffffffffffffffffffffffffffff168473ffffffffffffffffffffffffffffffffffffffff167fddf252ad1be2c89b69c2b068fc378daa952ba7f163c4a11628f55a4df523b3ef60405160405180910390a4505050565b610f9282610c00565b610fd1576040517f08c379a0000000000000000000000000000000000000000000000000000000008152600401610fc890611cf3565b60405180910390fd5b8060065f8481526020019081526020015f209081610fef9190611eae565b505050565b5f81519050919050565b5f82825260208201905092915050565b5f5b8381101561102b578082015181840152602081019050611010565b5f8484015250505050565b5f601f19601f8301169050919050565b5f61105082610ff4565b61105a8185610ffe565b935061106a81856020860161100e565b61107381611036565b840191505092915050565b5f6020820190508181035f8301526110968184611046565b905092915050565b5f604051905090565b5f80fd5b5f80fd5b5f819050919050565b6110c1816110af565b81146110cb575f80fd5b50565b5f813590506110dc816110b8565b92915050565b5f602082840312156110f7576110f66110a7565b5b5f611104848285016110ce565b91505092915050565b5f73ffffffffffffffffffffffffffffffffffffffff82169050919050565b5f6111368261110d565b9050919050565b6111468161112c565b82525050565b5f60208201905061115f5f83018461113d565b92915050565b61116e8161112c565b8114611178575f80fd5b50565b5f8135905061118981611165565b92915050565b5f80604083850312156111a5576111a46110a7565b5b5f6111b28582860161117b565b92505060206111c3858286016110ce565b9150509250929050565b5f805f606084860312156111e4576111e36110a7565b5b5f6111f18682870161117b565b93505060206112028682870161117b565b9250506040611213868287016110ce565b9150509250925092565b5f60208284031215611232576112316110a7565b5b5f61123f8482850161117b565b91505092915050565b611251816110af565b82525050565b5f60208201905061126a5f830184611248565b92915050565b5f8115159050919050565b61128481611270565b811461128e575f80fd5b50565b5f8135905061129f8161127b565b92915050565b5f80604083850312156112bb576112ba6110a7565b5b5f6112c88582860161117b565b92505060206112d985828601611291565b9150509250929050565b5f80fd5b5f80fd5b7f4e487b71000000000000000000000000000000000000000000000000000000005f52604160045260245ffd5b61132182611036565b810181811067ffffffffffffffff821117156113405761133f6112eb565b5b80604052505050565b5f61135261109e565b905061135e8282611318565b919050565b5f67ffffffffffffffff82111561137d5761137c6112eb565b5b61138682611036565b9050602081019050919050565b828183375f83830152505050565b5f6113b36113ae84611363565b611349565b9050828152602081018484840111156113cf576113ce6112e7565b5b6113da848285611393565b509392505050565b5f82601f8301126113f6576113f56112e3565b5b81356114068482602086016113a1565b91505092915050565b5f8060408385031215611425576114246110a7565b5b5f6114328582860161117b565b925050602083013567ffffffffffffffff811115611453576114526110ab565b5b61145f858286016113e2565b9150509250929050565b5f806040838503121561147f5761147e6110a7565b5b5f61148c8582860161117b565b925050602061149d8582860161117b565b9150509250929050565b6114b081611270565b82525050565b5f6020820190506114c95f8301846114a7565b92915050565b7f4e487b71000000000000000000000000000000000000000000000000000000005f52602260045260245ffd5b5f600282049050600182168061151357607f821691505b602082108103611526576115256114cf565b5b50919050565b7f4552433732313a20617070726f76656420717565727920666f72206e6f6e65785f8201527f697374656e7420746f6b656e0000000000000000000000000000000000000000602082015250565b5f611586602c83610ffe565b91506115918261152c565b604082019050919050565b5f6020820190508181035f8301526115b38161157a565b9050919050565b7f4552433732313a20617070726f76616c20746f2063757272656e74206f776e655f8201527f7200000000000000000000000000000000000000000000000000000000000000602082015250565b5f611614602183610ffe565b915061161f826115ba565b604082019050919050565b5f6020820190508181035f83015261164181611608565b9050919050565b7f4552433732313a20617070726f76652063616c6c6572206973206e6f74206f775f8201527f6e6572206e6f7220617070726f76656420666f7220616c6c0000000000000000602082015250565b5f6116a2603883610ffe565b91506116ad82611648565b604082019050919050565b5f6020820190508181035f8301526116cf81611696565b9050919050565b7f4552433732313a207472616e736665722063616c6c6572206973206e6f74206f5f8201527f776e6572206e6f7220617070726f766564000000000000000000000000000000602082015250565b5f611730603183610ffe565b915061173b826116d6565b604082019050919050565b5f6020820190508181035f83015261175d81611724565b9050919050565b7f4552433732313a206f776e657220717565727920666f72206e6f6e65786973745f8201527f656e7420746f6b656e0000000000000000000000000000000000000000000000602082015250565b5f6117be602983610ffe565b91506117c982611764565b604082019050919050565b5f6020820190508181035f8301526117eb816117b2565b9050919050565b7f4552433732313a2062616c616e636520717565727920666f7220746865207a655f8201527f726f206164647265737300000000000000000000000000000000000000000000602082015250565b5f61184c602a83610ffe565b9150611857826117f2565b604082019050919050565b5f6020820190508181035f83015261187981611840565b9050919050565b7f4552433732313a20617070726f766520746f2063616c6c6572000000000000005f82015250565b5f6118b4601983610ffe565b91506118bf82611880565b602082019050919050565b5f6020820190508181035f8301526118e1816118a8565b9050919050565b7f4552433732314d657461646174613a2055524920717565727920666f72206e6f5f8201527f6e6578697374656e7420746f6b656e0000000000000000000000000000000000602082015250565b5f611942602f83610ffe565b915061194d826118e8565b604082019050919050565b5f6020820190508181035f83015261196f81611936565b9050919050565b7f4e487b71000000000000000000000000000000000000000000000000000000005f52601160045260245ffd5b5f6119ad826110af565b91506119b8836110af565b92508282019050808211156119d0576119cf611976565b5b92915050565b7f4552433732313a206d696e7420746f20746865207a65726f20616464726573735f82015250565b5f611a0a602083610ffe565b9150611a15826119d6565b602082019050919050565b5f6020820190508181035f830152611a37816119fe565b9050919050565b7f4552433732313a20746f6b656e20616c7265616479206d696e746564000000005f82015250565b5f611a72601c83610ffe565b9150611a7d82611a3e565b602082019050919050565b5f6020820190508181035f830152611a9f81611a66565b9050919050565b7f4552433732313a206f70657261746f7220717565727920666f72206e6f6e65785f8201527f697374656e7420746f6b656e0000000000000000000000000000000000000000602082015250565b5f611b00602c83610ffe565b9150611b0b82611aa6565b604082019050919050565b5f6020820190508181035f830152611b2d81611af4565b9050919050565b7f4552433732313a207472616e73666572206f6620746f6b656e207468617420695f8201527f73206e6f74206f776e0000000000000000000000000000000000000000000000602082015250565b5f611b8e602983610ffe565b9150611b9982611b34565b604082019050919050565b5f6020820190508181035f830152611bbb81611b82565b9050919050565b7f4552433732313a207472616e7366657220746f20746865207a65726f206164645f8201527f7265737300000000000000000000000000000000000000000000000000000000602082015250565b5f611c1c602483610ffe565b9150611c2782611bc2565b604082019050919050565b5f6020820190508181035f830152611c4981611c10565b9050919050565b5f611c5a826110af565b9150611c65836110af565b9250828203905081811115611c7d57611c7c611976565b5b92915050565b7f4552433732314d657461646174613a2055524920736574206f66206e6f6e65785f8201527f697374656e7420746f6b656e0000000000000000000000000000000000000000602082015250565b5f611cdd602c83610ffe565b9150611ce882611c83565b604082019050919050565b5f6020820190508181035f830152611d0a81611cd1565b9050919050565b5f819050815f5260205f209050919050565b5f6020601f8301049050919050565b5f82821b905092915050565b5f60088302611d6d7fffffffffffffffffffffffffffffffffffffffffffffffffffffffffffffffff82611d32565b611d778683611d32565b95508019841693508086168417925050509392505050565b5f819050919050565b5f611db2611dad611da8846110af565b611d8f565b6110af565b9050919050565b5f819050919050565b611dcb83611d98565b611ddf611dd782611db9565b848454611d3e565b825550505050565b5f90565b611df3611de7565b611dfe818484611dc2565b505050565b5b81811015611e2157611e165f82611deb565b600181019050611e04565b5050565b601f821115611e6657611e3781611d11565b611e4084611d23565b81016020851015611e4f578190505b611e63611e5b85611d23565b830182611e03565b50505b505050565b5f82821c905092915050565b5f611e865f1984600802611e6b565b1980831691505092915050565b5f611e9e8383611e77565b9150826002028217905092915050565b611eb782610ff4565b67ffffffffffffffff811115611ed057611ecf6112eb565b5b611eda82546114fc565b611ee5828285611e25565b5f60209050601f831160018114611f16575f8415611f04578287015190505b611f0e8582611e93565b865550611f75565b601f198416611f2486611d11565b5f5b82811015611f4b57848901518255600182019150602085019450602081019050611f26565b86831015611f685784890151611f64601f891682611e77565b8355505b6001600288020188555050505b50505050505056fea2646970667358221220c5917b2e7ddeea8bab0c6adbad1f28ca2d80a1f7568ceae359cd1f2fa2c54d1e64736f6c63430008140033",
					"opcodes": "PUSH1 0x80 PUSH1 0x40 MSTORE PUSH0 PUSH1 0x7 SSTORE CALLVALUE DUP1 ISZERO PUSH3 0x14 JUMPI PUSH0 DUP1 REVERT JUMPDEST POP PUSH1 0x40 MLOAD PUSH3 0x2549 CODESIZE SUB DUP1 PUSH3 0x2549 DUP4 CODECOPY DUP2 DUP2 ADD PUSH1 0x40 MSTORE DUP2 ADD SWAP1 PUSH3 0x3A SWAP2 SWAP1 PUSH3 0x1EA JUMP JUMPDEST DUP2 PUSH0 SWAP1 DUP2 PUSH3 0x4A SWAP2 SWAP1 PUSH3 0x4A4 JUMP JUMPDEST POP DUP1 PUSH1 0x1 SWAP1 DUP2 PUSH3 0x5C SWAP2 SWAP1 PUSH3 0x4A4 JUMP JUMPDEST POP POP POP PUSH3 0x588 JUMP JUMPDEST PUSH0 PUSH1 0x40 MLOAD SWAP1 POP SWAP1 JUMP JUMPDEST PUSH0 DUP1 REVERT JUMPDEST PUSH0 DUP1 REVERT JUMPDEST PUSH0 DUP1 REVERT JUMPDEST PUSH0 DUP1 REVERT JUMPDEST PUSH0 PUSH1 0x1F NOT PUSH1 0x1F DUP4 ADD AND SWAP1 POP SWAP2 SWAP1 POP JUMP JUMPDEST PUSH32 0x4E487B7100000000000000000000000000000000000000000000000000000000 PUSH0 MSTORE PUSH1 0x41 PUSH1 0x4 MSTORE PUSH1 0x24 PUSH0 REVERT JUMPDEST PUSH3 0xC6 DUP3 PUSH3 0x7E JUMP JUMPDEST DUP2 ADD DUP2 DUP2 LT PUSH8 0xFFFFFFFFFFFFFFFF DUP3 GT OR ISZERO PUSH3 0xE8 JUMPI PUSH3 0xE7 PUSH3 0x8E JUMP JUMPDEST JUMPDEST DUP1 PUSH1 0x40 MSTORE POP POP POP JUMP JUMPDEST PUSH0 PUSH3 0xFC PUSH3 0x65 JUMP JUMPDEST SWAP1 POP PUSH3 0x10A DUP3 DUP3 PUSH3 0xBB JUMP JUMPDEST SWAP2 SWAP1 POP JUMP JUMPDEST PUSH0 PUSH8 0xFFFFFFFFFFFFFFFF DUP3 GT ISZERO PUSH3 0x12C JUMPI PUSH3 0x12B PUSH3 0x8E JUMP JUMPDEST JUMPDEST PUSH3 0x137 DUP3 PUSH3 0x7E JUMP JUMPDEST SWAP1 POP PUSH1 0x20 DUP2 ADD SWAP1 POP SWAP2 SWAP1 POP JUMP JUMPDEST PUSH0 JUMPDEST DUP4 DUP2 LT ISZERO PUSH3 0x163 JUMPI DUP1 DUP3 ADD MLOAD DUP2 DUP5 ADD MSTORE PUSH1 0x20 DUP2 ADD SWAP1 POP PUSH3 0x146 JUMP JUMPDEST PUSH0 DUP5 DUP5 ADD MSTORE POP POP POP POP JUMP JUMPDEST PUSH0 PUSH3 0x184 PUSH3 0x17E DUP5 PUSH3 0x10F JUMP JUMPDEST PUSH3 0xF1 JUMP JUMPDEST SWAP1 POP DUP3 DUP2 MSTORE PUSH1 0x20 DUP2 ADD DUP5 DUP5 DUP5 ADD GT ISZERO PUSH3 0x1A3 JUMPI PUSH3 0x1A2 PUSH3 0x7A JUMP JUMPDEST JUMPDEST PUSH3 0x1B0 DUP5 DUP3 DUP6 PUSH3 0x144 JUMP JUMPDEST POP SWAP4 SWAP3 POP POP POP JUMP JUMPDEST PUSH0 DUP3 PUSH1 0x1F DUP4 ADD SLT PUSH3 0x1CF JUMPI PUSH3 0x1CE PUSH3 0x76 JUMP JUMPDEST JUMPDEST DUP2 MLOAD PUSH3 0x1E1 DUP5 DUP3 PUSH1 0x20 DUP7 ADD PUSH3 0x16E JUMP JUMPDEST SWAP2 POP POP SWAP3 SWAP2 POP POP JUMP JUMPDEST PUSH0 DUP1 PUSH1 0x40 DUP4 DUP6 SUB SLT ISZERO PUSH3 0x203 JUMPI PUSH3 0x202 PUSH3 0x6E JUMP JUMPDEST JUMPDEST PUSH0 DUP4 ADD MLOAD PUSH8 0xFFFFFFFFFFFFFFFF DUP2 GT ISZERO PUSH3 0x223 JUMPI PUSH3 0x222 PUSH3 0x72 JUMP JUMPDEST JUMPDEST PUSH3 0x231 DUP6 DUP3 DUP7 ADD PUSH3 0x1B8 JUMP JUMPDEST SWAP3 POP POP PUSH1 0x20 DUP4 ADD MLOAD PUSH8 0xFFFFFFFFFFFFFFFF DUP2 GT ISZERO PUSH3 0x255 JUMPI PUSH3 0x254 PUSH3 0x72 JUMP JUMPDEST JUMPDEST PUSH3 0x263 DUP6 DUP3 DUP7 ADD PUSH3 0x1B8 JUMP JUMPDEST SWAP2 POP POP SWAP3 POP SWAP3 SWAP1 POP JUMP JUMPDEST PUSH0 DUP2 MLOAD SWAP1 POP SWAP2 SWAP1 POP JUMP JUMPDEST PUSH32 0x4E487B7100000000000000000000000000000000000000000000000000000000 PUSH0 MSTORE PUSH1 0x22 PUSH1 0x4 MSTORE PUSH1 0x24 PUSH0 REVERT JUMPDEST PUSH0 PUSH1 0x2 DUP3 DIV SWAP1 POP PUSH1 0x1 DUP3 AND DUP1 PUSH3 0x2BC JUMPI PUSH1 0x7F DUP3 AND SWAP2 POP JUMPDEST PUSH1 0x20 DUP3 LT DUP2 SUB PUSH3 0x2D2 JUMPI PUSH3 0x2D1 PUSH3 0x277 JUMP JUMPDEST JUMPDEST POP SWAP2 SWAP1 POP JUMP JUMPDEST PUSH0 DUP2 SWAP1 POP DUP2 PUSH0 MSTORE PUSH1 0x20 PUSH0 KECCAK256 SWAP1 POP SWAP2 SWAP1 POP JUMP JUMPDEST PUSH0 PUSH1 0x20 PUSH1 0x1F DUP4 ADD DIV SWAP1 POP SWAP2 SWAP1 POP JUMP JUMPDEST PUSH0 DUP3 DUP3 SHL SWAP1 POP SWAP3 SWAP2 POP POP JUMP JUMPDEST PUSH0 PUSH1 0x8 DUP4 MUL PUSH3 0x336 PUSH32 0xFFFFFFFFFFFFFFFFFFFFFFFFFFFFFFFFFFFFFFFFFFFFFFFFFFFFFFFFFFFFFFFF DUP3 PUSH3 0x2F9 JUMP JUMPDEST PUSH3 0x342 DUP7 DUP4 PUSH3 0x2F9 JUMP JUMPDEST SWAP6 POP DUP1 NOT DUP5 AND SWAP4 POP DUP1 DUP7 AND DUP5 OR SWAP3 POP POP POP SWAP4 SWAP3 POP POP POP JUMP JUMPDEST PUSH0 DUP2 SWAP1 POP SWAP2 SWAP1 POP JUMP JUMPDEST PUSH0 DUP2 SWAP1 POP SWAP2 SWAP1 POP JUMP JUMPDEST PUSH0 PUSH3 0x38C PUSH3 0x386 PUSH3 0x380 DUP5 PUSH3 0x35A JUMP JUMPDEST PUSH3 0x363 JUMP JUMPDEST PUSH3 0x35A JUMP JUMPDEST SWAP1 POP SWAP2 SWAP1 POP JUMP JUMPDEST PUSH0 DUP2 SWAP1 POP SWAP2 SWAP1 POP JUMP JUMPDEST PUSH3 0x3A7 DUP4 PUSH3 0x36C JUMP JUMPDEST PUSH3 0x3BF PUSH3 0x3B6 DUP3 PUSH3 0x393 JUMP JUMPDEST DUP5 DUP5 SLOAD PUSH3 0x305 JUMP JUMPDEST DUP3 SSTORE POP POP POP POP JUMP JUMPDEST PUSH0 SWAP1 JUMP JUMPDEST PUSH3 0x3D5 PUSH3 0x3C7 JUMP JUMPDEST PUSH3 0x3E2 DUP2 DUP5 DUP5 PUSH3 0x39C JUMP JUMPDEST POP POP POP JUMP JUMPDEST JUMPDEST DUP2 DUP2 LT ISZERO PUSH3 0x409 JUMPI PUSH3 0x3FD PUSH0 DUP3 PUSH3 0x3CB JUMP JUMPDEST PUSH1 0x1 DUP2 ADD SWAP1 POP PUSH3 0x3E8 JUMP JUMPDEST POP POP JUMP JUMPDEST PUSH1 0x1F DUP3 GT ISZERO PUSH3 0x458 JUMPI PUSH3 0x422 DUP2 PUSH3 0x2D8 JUMP JUMPDEST PUSH3 0x42D DUP5 PUSH3 0x2EA JUMP JUMPDEST DUP2 ADD PUSH1 0x20 DUP6 LT ISZERO PUSH3 0x43D JUMPI DUP2 SWAP1 POP JUMPDEST PUSH3 0x455 PUSH3 0x44C DUP6 PUSH3 0x2EA JUMP JUMPDEST DUP4 ADD DUP3 PUSH3 0x3E7 JUMP JUMPDEST POP POP JUMPDEST POP POP POP JUMP JUMPDEST PUSH0 DUP3 DUP3 SHR SWAP1 POP SWAP3 SWAP2 POP POP JUMP JUMPDEST PUSH0 PUSH3 0x47A PUSH0 NOT DUP5 PUSH1 0x8 MUL PUSH3 0x45D JUMP JUMPDEST NOT DUP1 DUP4 AND SWAP2 POP POP SWAP3 SWAP2 POP POP JUMP JUMPDEST PUSH0 PUSH3 0x494 DUP4 DUP4 PUSH3 0x469 JUMP JUMPDEST SWAP2 POP DUP3 PUSH1 0x2 MUL DUP3 OR SWAP1 POP SWAP3 SWAP2 POP POP JUMP JUMPDEST PUSH3 0x4AF DUP3 PUSH3 0x26D JUMP JUMPDEST PUSH8 0xFFFFFFFFFFFFFFFF DUP2 GT ISZERO PUSH3 0x4CB JUMPI PUSH3 0x4CA PUSH3 0x8E JUMP JUMPDEST JUMPDEST PUSH3 0x4D7 DUP3 SLOAD PUSH3 0x2A4 JUMP JUMPDEST PUSH3 0x4E4 DUP3 DUP3 DUP6 PUSH3 0x40D JUMP JUMPDEST PUSH0 PUSH1 0x20 SWAP1 POP PUSH1 0x1F DUP4 GT PUSH1 0x1 DUP2 EQ PUSH3 0x51A JUMPI PUSH0 DUP5 ISZERO PUSH3 0x505 JUMPI DUP3 DUP8 ADD MLOAD SWAP1 POP JUMPDEST PUSH3 0x511 DUP6 DUP3 PUSH3 0x487 JUMP JUMPDEST DUP7 SSTORE POP PUSH3 0x580 JUMP JUMPDEST PUSH1 0x1F NOT DUP5 AND PUSH3 0x52A DUP7 PUSH3 0x2D8 JUMP JUMPDEST PUSH0 JUMPDEST DUP3 DUP2 LT ISZERO PUSH3 0x553 JUMPI DUP5 DUP10 ADD MLOAD DUP3 SSTORE PUSH1 0x1 DUP3 ADD SWAP2 POP PUSH1 0x20 DUP6 ADD SWAP5 POP PUSH1 0x20 DUP2 ADD SWAP1 POP PUSH3 0x52C JUMP JUMPDEST DUP7 DUP4 LT ISZERO PUSH3 0x573 JUMPI DUP5 DUP10 ADD MLOAD PUSH3 0x56F PUSH1 0x1F DUP10 AND DUP3 PUSH3 0x469 JUMP JUMPDEST DUP4 SSTORE POP JUMPDEST PUSH1 0x1 PUSH1 0x2 DUP9 MUL ADD DUP9 SSTORE POP POP POP JUMPDEST POP POP POP POP POP POP JUMP JUMPDEST PUSH2 0x1FB3 DUP1 PUSH3 0x596 PUSH0 CODECOPY PUSH0 RETURN INVALID PUSH1 0x80 PUSH1 0x40 MSTORE CALLVALUE DUP1 ISZERO PUSH2 0xF JUMPI PUSH0 DUP1 REVERT JUMPDEST POP PUSH1 0x4 CALLDATASIZE LT PUSH2 0xA7 JUMPI PUSH0 CALLDATALOAD PUSH1 0xE0 SHR DUP1 PUSH4 0x70A08231 GT PUSH2 0x6F JUMPI DUP1 PUSH4 0x70A08231 EQ PUSH2 0x161 JUMPI DUP1 PUSH4 0x95D89B41 EQ PUSH2 0x191 JUMPI DUP1 PUSH4 0xA22CB465 EQ PUSH2 0x1AF JUMPI DUP1 PUSH4 0xC87B56DD EQ PUSH2 0x1CB JUMPI DUP1 PUSH4 0xD0DEF521 EQ PUSH2 0x1FB JUMPI DUP1 PUSH4 0xE985E9C5 EQ PUSH2 0x217 JUMPI PUSH2 0xA7 JUMP JUMPDEST DUP1 PUSH4 0x6FDDE03 EQ PUSH2 0xAB JUMPI DUP1 PUSH4 0x81812FC EQ PUSH2 0xC9 JUMPI DUP1 PUSH4 0x95EA7B3 EQ PUSH2 0xF9 JUMPI DUP1 PUSH4 0x23B872DD EQ PUSH2 0x115 JUMPI DUP1 PUSH4 0x6352211E EQ PUSH2 0x131 JUMPI JUMPDEST PUSH0 DUP1 REVERT JUMPDEST PUSH2 0xB3 PUSH2 0x247 JUMP JUMPDEST PUSH1 0x40 MLOAD PUSH2 0xC0 SWAP2 SWAP1 PUSH2 0x107E JUMP JUMPDEST PUSH1 0x40 MLOAD DUP1 SWAP2 SUB SWAP1 RETURN JUMPDEST PUSH2 0xE3 PUSH1 0x4 DUP1 CALLDATASIZE SUB DUP2 ADD SWAP1 PUSH2 0xDE SWAP2 SWAP1 PUSH2 0x10E2 JUMP JUMPDEST PUSH2 0x2D2 JUMP JUMPDEST PUSH1 0x40 MLOAD PUSH2 0xF0 SWAP2 SWAP1 PUSH2 0x114C JUMP JUMPDEST PUSH1 0x40 MLOAD DUP1 SWAP2 SUB SWAP1 RETURN JUMPDEST PUSH2 0x113 PUSH1 0x4 DUP1 CALLDATASIZE SUB DUP2 ADD SWAP1 PUSH2 0x10E SWAP2 SWAP1 PUSH2 0x118F JUMP JUMPDEST PUSH2 0x353 JUMP JUMPDEST STOP JUMPDEST PUSH2 0x12F PUSH1 0x4 DUP1 CALLDATASIZE SUB DUP2 ADD SWAP1 PUSH2 0x12A SWAP2 SWAP1 PUSH2 0x11CD JUMP JUMPDEST PUSH2 0x4FB JUMP JUMPDEST STOP JUMPDEST PUSH2 0x14B PUSH1 0x4 DUP1 CALLDATASIZE SUB DUP2 ADD SWAP1 PUSH2 0x146 SWAP2 SWAP1 PUSH2 0x10E2 JUMP JUMPDEST PUSH2 0x554 JUMP JUMPDEST PUSH1 0x40 MLOAD PUSH2 0x158 SWAP2 SWAP1 PUSH2 0x114C JUMP JUMPDEST PUSH1 0x40 MLOAD DUP1 SWAP2 SUB SWAP1 RETURN JUMPDEST PUSH2 0x17B PUSH1 0x4 DUP1 CALLDATASIZE SUB DUP2 ADD SWAP1 PUSH2 0x176 SWAP2 SWAP1 PUSH2 0x121D JUMP JUMPDEST PUSH2 0x600 JUMP JUMPDEST PUSH1 0x40 MLOAD PUSH2 0x188 SWAP2 SWAP1 PUSH2 0x1257 JUMP JUMPDEST PUSH1 0x40 MLOAD DUP1 SWAP2 SUB SWAP1 RETURN JUMPDEST PUSH2 0x199 PUSH2 0x6B4 JUMP JUMPDEST PUSH1 0x40 MLOAD PUSH2 0x1A6 SWAP2 SWAP1 PUSH2 0x107E JUMP JUMPDEST PUSH1 0x40 MLOAD DUP1 SWAP2 SUB SWAP1 RETURN JUMPDEST PUSH2 0x1C9 PUSH1 0x4 DUP1 CALLDATASIZE SUB DUP2 ADD SWAP1 PUSH2 0x1C4 SWAP2 SWAP1 PUSH2 0x12A5 JUMP JUMPDEST PUSH2 0x740 JUMP JUMPDEST STOP JUMPDEST PUSH2 0x1E5 PUSH1 0x4 DUP1 CALLDATASIZE SUB DUP2 ADD SWAP1 PUSH2 0x1E0 SWAP2 SWAP1 PUSH2 0x10E2 JUMP JUMPDEST PUSH2 0x8A6 JUMP JUMPDEST PUSH1 0x40 MLOAD PUSH2 0x1F2 SWAP2 SWAP1 PUSH2 0x107E JUMP JUMPDEST PUSH1 0x40 MLOAD DUP1 SWAP2 SUB SWAP1 RETURN JUMPDEST PUSH2 0x215 PUSH1 0x4 DUP1 CALLDATASIZE SUB DUP2 ADD SWAP1 PUSH2 0x210 SWAP2 SWAP1 PUSH2 0x140F JUMP JUMPDEST PUSH2 0x98F JUMP JUMPDEST STOP JUMPDEST PUSH2 0x231 PUSH1 0x4 DUP1 CALLDATASIZE SUB DUP2 ADD SWAP1 PUSH2 0x22C SWAP2 SWAP1 PUSH2 0x1469 JUMP JUMPDEST PUSH2 0xB72 JUMP JUMPDEST PUSH1 0x40 MLOAD PUSH2 0x23E SWAP2 SWAP1 PUSH2 0x14B6 JUMP JUMPDEST PUSH1 0x40 MLOAD DUP1 SWAP2 SUB SWAP1 RETURN JUMPDEST PUSH0 DUP1 SLOAD PUSH2 0x253 SWAP1 PUSH2 0x14FC JUMP JUMPDEST DUP1 PUSH1 0x1F ADD PUSH1 0x20 DUP1 SWAP2 DIV MUL PUSH1 0x20 ADD PUSH1 0x40 MLOAD SWAP1 DUP2 ADD PUSH1 0x40 MSTORE DUP1 SWAP3 SWAP2 SWAP1 DUP2 DUP2 MSTORE PUSH1 0x20 ADD DUP3 DUP1 SLOAD PUSH2 0x27F SWAP1 PUSH2 0x14FC JUMP JUMPDEST DUP1 ISZERO PUSH2 0x2CA JUMPI DUP1 PUSH1 0x1F LT PUSH2 0x2A1 JUMPI PUSH2 0x100 DUP1 DUP4 SLOAD DIV MUL DUP4 MSTORE SWAP2 PUSH1 0x20 ADD SWAP2 PUSH2 0x2CA JUMP JUMPDEST DUP3 ADD SWAP2 SWAP1 PUSH0 MSTORE PUSH1 0x20 PUSH0 KECCAK256 SWAP1 JUMPDEST DUP2 SLOAD DUP2 MSTORE SWAP1 PUSH1 0x1 ADD SWAP1 PUSH1 0x20 ADD DUP1 DUP4 GT PUSH2 0x2AD JUMPI DUP3 SWAP1 SUB PUSH1 0x1F AND DUP3 ADD SWAP2 JUMPDEST POP POP POP POP POP DUP2 JUMP JUMPDEST PUSH0 PUSH2 0x2DC DUP3 PUSH2 0xC00 JUMP JUMPDEST PUSH2 0x31B JUMPI PUSH1 0x40 MLOAD PUSH32 0x8C379A000000000000000000000000000000000000000000000000000000000 DUP2 MSTORE PUSH1 0x4 ADD PUSH2 0x312 SWAP1 PUSH2 0x159C JUMP JUMPDEST PUSH1 0x40 MLOAD DUP1 SWAP2 SUB SWAP1 REVERT JUMPDEST PUSH1 0x4 PUSH0 DUP4 DUP2 MSTORE PUSH1 0x20 ADD SWAP1 DUP2 MSTORE PUSH1 0x20 ADD PUSH0 KECCAK256 PUSH0 SWAP1 SLOAD SWAP1 PUSH2 0x100 EXP SWAP1 DIV PUSH20 0xFFFFFFFFFFFFFFFFFFFFFFFFFFFFFFFFFFFFFFFF AND SWAP1 POP SWAP2 SWAP1 POP JUMP JUMPDEST PUSH0 PUSH2 0x35D DUP3 PUSH2 0x554 JUMP JUMPDEST SWAP1 POP DUP1 PUSH20 0xFFFFFFFFFFFFFFFFFFFFFFFFFFFFFFFFFFFFFFFF AND DUP4 PUSH20 0xFFFFFFFFFFFFFFFFFFFFFFFFFFFFFFFFFFFFFFFF AND SUB PUSH2 0x3CD JUMPI PUSH1 0x40 MLOAD PUSH32 0x8C379A000000000000000000000000000000000000000000000000000000000 DUP2 MSTORE PUSH1 0x4 ADD PUSH2 0x3C4 SWAP1 PUSH2 0x162A JUMP JUMPDEST PUSH1 0x40 MLOAD DUP1 SWAP2 SUB SWAP1 REVERT JUMPDEST DUP1 PUSH20 0xFFFFFFFFFFFFFFFFFFFFFFFFFFFFFFFFFFFFFFFF AND CALLER PUSH20 0xFFFFFFFFFFFFFFFFFFFFFFFFFFFFFFFFFFFFFFFF AND EQ DUP1 PUSH2 0x40D JUMPI POP PUSH2 0x40C DUP2 CALLER PUSH2 0xB72 JUMP JUMPDEST JUMPDEST PUSH2 0x44C JUMPI PUSH1 0x40 MLOAD PUSH32 0x8C379A000000000000000000000000000000000000000000000000000000000 DUP2 MSTORE PUSH1 0x4 ADD PUSH2 0x443 SWAP1 PUSH2 0x16B8 JUMP JUMPDEST PUSH1 0x40 MLOAD DUP1 SWAP2 SUB SWAP1 REVERT JUMPDEST DUP3 PUSH1 0x4 PUSH0 DUP5 DUP2 MSTORE PUSH1 0x20 ADD SWAP1 DUP2 MSTORE PUSH1 0x20 ADD PUSH0 KECCAK256 PUSH0 PUSH2 0x100 EXP DUP2 SLOAD DUP2 PUSH20 0xFFFFFFFFFFFFFFFFFFFFFFFFFFFFFFFFFFFFFFFF MUL NOT AND SWAP1 DUP4 PUSH20 0xFFFFFFFFFFFFFFFFFFFFFFFFFFFFFFFFFFFFFFFF AND MUL OR SWAP1 SSTORE POP DUP2 DUP4 PUSH20 0xFFFFFFFFFFFFFFFFFFFFFFFFFFFFFFFFFFFFFFFF AND DUP3 PUSH20 0xFFFFFFFFFFFFFFFFFFFFFFFFFFFFFFFFFFFFFFFF AND PUSH32 0x8C5BE1E5EBEC7D5BD14F71427D1E84F3DD0314C0F7B2291E5B200AC8C7C3B925 PUSH1 0x40 MLOAD PUSH1 0x40 MLOAD DUP1 SWAP2 SUB SWAP1 LOG4 POP POP POP JUMP JUMPDEST PUSH2 0x505 CALLER DUP3 PUSH2 0xC68 JUMP JUMPDEST PUSH2 0x544 JUMPI PUSH1 0x40 MLOAD PUSH32 0x8C379A000000000000000000000000000000000000000000000000000000000 DUP2 MSTORE PUSH1 0x4 ADD PUSH2 0x53B SWAP1 PUSH2 0x1746 JUMP JUMPDEST PUSH1 0x40 MLOAD DUP1 SWAP2 SUB SWAP1 REVERT JUMPDEST PUSH2 0x54F DUP4 DUP4 DUP4 PUSH2 0xD44 JUMP JUMPDEST POP POP POP JUMP JUMPDEST PUSH0 DUP1 PUSH1 0x2 PUSH0 DUP5 DUP2 MSTORE PUSH1 0x20 ADD SWAP1 DUP2 MSTORE PUSH1 0x20 ADD PUSH0 KECCAK256 PUSH0 SWAP1 SLOAD SWAP1 PUSH2 0x100 EXP SWAP1 DIV PUSH20 0xFFFFFFFFFFFFFFFFFFFFFFFFFFFFFFFFFFFFFFFF AND SWAP1 POP PUSH0 PUSH20 0xFFFFFFFFFFFFFFFFFFFFFFFFFFFFFFFFFFFFFFFF AND DUP2 PUSH20 0xFFFFFFFFFFFFFFFFFFFFFFFFFFFFFFFFFFFFFFFF AND SUB PUSH2 0x5F7 JUMPI PUSH1 0x40 MLOAD PUSH32 0x8C379A000000000000000000000000000000000000000000000000000000000 DUP2 MSTORE PUSH1 0x4 ADD PUSH2 0x5EE SWAP1 PUSH2 0x17D4 JUMP JUMPDEST PUSH1 0x40 MLOAD DUP1 SWAP2 SUB SWAP1 REVERT JUMPDEST DUP1 SWAP2 POP POP SWAP2 SWAP1 POP JUMP JUMPDEST PUSH0 DUP1 PUSH20 0xFFFFFFFFFFFFFFFFFFFFFFFFFFFFFFFFFFFFFFFF AND DUP3 PUSH20 0xFFFFFFFFFFFFFFFFFFFFFFFFFFFFFFFFFFFFFFFF AND SUB PUSH2 0x66F JUMPI PUSH1 0x40 MLOAD PUSH32 0x8C379A000000000000000000000000000000000000000000000000000000000 DUP2 MSTORE PUSH1 0x4 ADD PUSH2 0x666 SWAP1 PUSH2 0x1862 JUMP JUMPDEST PUSH1 0x40 MLOAD DUP1 SWAP2 SUB SWAP1 REVERT JUMPDEST PUSH1 0x3 PUSH0 DUP4 PUSH20 0xFFFFFFFFFFFFFFFFFFFFFFFFFFFFFFFFFFFFFFFF AND PUSH20 0xFFFFFFFFFFFFFFFFFFFFFFFFFFFFFFFFFFFFFFFF AND DUP2 MSTORE PUSH1 0x20 ADD SWAP1 DUP2 MSTORE PUSH1 0x20 ADD PUSH0 KECCAK256 SLOAD SWAP1 POP SWAP2 SWAP1 POP JUMP JUMPDEST PUSH1 0x1 DUP1 SLOAD PUSH2 0x6C1 SWAP1 PUSH2 0x14FC JUMP JUMPDEST DUP1 PUSH1 0x1F ADD PUSH1 0x20 DUP1 SWAP2 DIV MUL PUSH1 0x20 ADD PUSH1 0x40 MLOAD SWAP1 DUP2 ADD PUSH1 0x40 MSTORE DUP1 SWAP3 SWAP2 SWAP1 DUP2 DUP2 MSTORE PUSH1 0x20 ADD DUP3 DUP1 SLOAD PUSH2 0x6ED SWAP1 PUSH2 0x14FC JUMP JUMPDEST DUP1 ISZERO PUSH2 0x738 JUMPI DUP1 PUSH1 0x1F LT PUSH2 0x70F JUMPI PUSH2 0x100 DUP1 DUP4 SLOAD DIV MUL DUP4 MSTORE SWAP2 PUSH1 0x20 ADD SWAP2 PUSH2 0x738 JUMP JUMPDEST DUP3 ADD SWAP2 SWAP1 PUSH0 MSTORE PUSH1 0x20 PUSH0 KECCAK256 SWAP1 JUMPDEST DUP2 SLOAD DUP2 MSTORE SWAP1 PUSH1 0x1 ADD SWAP1 PUSH1 0x20 ADD DUP1 DUP4 GT PUSH2 0x71B JUMPI DUP3 SWAP1 SUB PUSH1 0x1F AND DUP3 ADD SWAP2 JUMPDEST POP POP POP POP POP DUP2 JUMP JUMPDEST CALLER PUSH20 0xFFFFFFFFFFFFFFFFFFFFFFFFFFFFFFFFFFFFFFFF AND DUP3 PUSH20 0xFFFFFFFFFFFFFFFFFFFFFFFFFFFFFFFFFFFFFFFF AND SUB PUSH2 0x7AE JUMPI PUSH1 0x40 MLOAD PUSH32 0x8C379A000000000000000000000000000000000000000000000000000000000 DUP2 MSTORE PUSH1 0x4 ADD PUSH2 0x7A5 SWAP1 PUSH2 0x18CA JUMP JUMPDEST PUSH1 0x40 MLOAD DUP1 SWAP2 SUB SWAP1 REVERT JUMPDEST DUP1 PUSH1 0x5 PUSH0 CALLER PUSH20 0xFFFFFFFFFFFFFFFFFFFFFFFFFFFFFFFFFFFFFFFF AND PUSH20 0xFFFFFFFFFFFFFFFFFFFFFFFFFFFFFFFFFFFFFFFF AND DUP2 MSTORE PUSH1 0x20 ADD SWAP1 DUP2 MSTORE PUSH1 0x20 ADD PUSH0 KECCAK256 PUSH0 DUP5 PUSH20 0xFFFFFFFFFFFFFFFFFFFFFFFFFFFFFFFFFFFFFFFF AND PUSH20 0xFFFFFFFFFFFFFFFFFFFFFFFFFFFFFFFFFFFFFFFF AND DUP2 MSTORE PUSH1 0x20 ADD SWAP1 DUP2 MSTORE PUSH1 0x20 ADD PUSH0 KECCAK256 PUSH0 PUSH2 0x100 EXP DUP2 SLOAD DUP2 PUSH1 0xFF MUL NOT AND SWAP1 DUP4 ISZERO ISZERO MUL OR SWAP1 SSTORE POP DUP2 PUSH20 0xFFFFFFFFFFFFFFFFFFFFFFFFFFFFFFFFFFFFFFFF AND CALLER PUSH20 0xFFFFFFFFFFFFFFFFFFFFFFFFFFFFFFFFFFFFFFFF AND PUSH32 0x17307EAB39AB6107E8899845AD3D59BD9653F200F220920489CA2B5937696C31 DUP4 PUSH1 0x40 MLOAD PUSH2 0x89A SWAP2 SWAP1 PUSH2 0x14B6 JUMP JUMPDEST PUSH1 0x40 MLOAD DUP1 SWAP2 SUB SWAP1 LOG3 POP POP JUMP JUMPDEST PUSH1 0x60 PUSH2 0x8B1 DUP3 PUSH2 0xC00 JUMP JUMPDEST PUSH2 0x8F0 JUMPI PUSH1 0x40 MLOAD PUSH32 0x8C379A000000000000000000000000000000000000000000000000000000000 DUP2 MSTORE PUSH1 0x4 ADD PUSH2 0x8E7 SWAP1 PUSH2 0x1958 JUMP JUMPDEST PUSH1 0x40 MLOAD DUP1 SWAP2 SUB SWAP1 REVERT JUMPDEST PUSH1 0x6 PUSH0 DUP4 DUP2 MSTORE PUSH1 0x20 ADD SWAP1 DUP2 MSTORE PUSH1 0x20 ADD PUSH0 KECCAK256 DUP1 SLOAD PUSH2 0x90C SWAP1 PUSH2 0x14FC JUMP JUMPDEST DUP1 PUSH1 0x1F ADD PUSH1 0x20 DUP1 SWAP2 DIV MUL PUSH1 0x20 ADD PUSH1 0x40 MLOAD SWAP1 DUP2 ADD PUSH1 0x40 MSTORE DUP1 SWAP3 SWAP2 SWAP1 DUP2 DUP2 MSTORE PUSH1 0x20 ADD DUP3 DUP1 SLOAD PUSH2 0x938 SWAP1 PUSH2 0x14FC JUMP JUMPDEST DUP1 ISZERO PUSH2 0x983 JUMPI DUP1 PUSH1 0x1F LT PUSH2 0x95A JUMPI PUSH2 0x100 DUP1 DUP4 SLOAD DIV MUL DUP4 MSTORE SWAP2 PUSH1 0x20 ADD SWAP2 PUSH2 0x983 JUMP JUMPDEST DUP3 ADD SWAP2 SWAP1 PUSH0 MSTORE PUSH1 0x20 PUSH0 KECCAK256 SWAP1 JUMPDEST DUP2 SLOAD DUP2 MSTORE SWAP1 PUSH1 0x1 ADD SWAP1 PUSH1 0x20 ADD DUP1 DUP4 GT PUSH2 0x966 JUMPI DUP3 SWAP1 SUB PUSH1 0x1F AND DUP3 ADD SWAP2 JUMPDEST POP POP POP POP POP SWAP1 POP SWAP2 SWAP1 POP JUMP JUMPDEST PUSH1 0x1 PUSH1 0x7 PUSH0 DUP3 DUP3 SLOAD PUSH2 0x9A1 SWAP2 SWAP1 PUSH2 0x19A3 JUMP JUMPDEST SWAP3 POP POP DUP2 SWAP1 SSTORE POP PUSH0 PUSH1 0x7 SLOAD SWAP1 POP PUSH0 PUSH20 0xFFFFFFFFFFFFFFFFFFFFFFFFFFFFFFFFFFFFFFFF AND DUP4 PUSH20 0xFFFFFFFFFFFFFFFFFFFFFFFFFFFFFFFFFFFFFFFF AND SUB PUSH2 0xA1C JUMPI PUSH1 0x40 MLOAD PUSH32 0x8C379A000000000000000000000000000000000000000000000000000000000 DUP2 MSTORE PUSH1 0x4 ADD PUSH2 0xA13 SWAP1 PUSH2 0x1A20 JUMP JUMPDEST PUSH1 0x40 MLOAD DUP1 SWAP2 SUB SWAP1 REVERT JUMPDEST PUSH2 0xA25 DUP2 PUSH2 0xC00 JUMP JUMPDEST ISZERO PUSH2 0xA65 JUMPI PUSH1 0x40 MLOAD PUSH32 0x8C379A000000000000000000000000000000000000000000000000000000000 DUP2 MSTORE PUSH1 0x4 ADD PUSH2 0xA5C SWAP1 PUSH2 0x1A88 JUMP JUMPDEST PUSH1 0x40 MLOAD DUP1 SWAP2 SUB SWAP1 REVERT JUMPDEST PUSH1 0x1 PUSH1 0x3 PUSH0 DUP6 PUSH20 0xFFFFFFFFFFFFFFFFFFFFFFFFFFFFFFFFFFFFFFFF AND PUSH20 0xFFFFFFFFFFFFFFFFFFFFFFFFFFFFFFFFFFFFFFFF AND DUP2 MSTORE PUSH1 0x20 ADD SWAP1 DUP2 MSTORE PUSH1 0x20 ADD PUSH0 KECCAK256 PUSH0 DUP3 DUP3 SLOAD PUSH2 0xAB2 SWAP2 SWAP1 PUSH2 0x19A3 JUMP JUMPDEST SWAP3 POP POP DUP2 SWAP1 SSTORE POP DUP3 PUSH1 0x2 PUSH0 DUP4 DUP2 MSTORE PUSH1 0x20 ADD SWAP1 DUP2 MSTORE PUSH1 0x20 ADD PUSH0 KECCAK256 PUSH0 PUSH2 0x100 EXP DUP2 SLOAD DUP2 PUSH20 0xFFFFFFFFFFFFFFFFFFFFFFFFFFFFFFFFFFFFFFFF MUL NOT AND SWAP1 DUP4 PUSH20 0xFFFFFFFFFFFFFFFFFFFFFFFFFFFFFFFFFFFFFFFF AND MUL OR SWAP1 SSTORE POP PUSH2 0xB12 DUP2 DUP4 PUSH2 0xF89 JUMP JUMPDEST DUP1 DUP4 PUSH20 0xFFFFFFFFFFFFFFFFFFFFFFFFFFFFFFFFFFFFFFFF AND PUSH0 PUSH20 0xFFFFFFFFFFFFFFFFFFFFFFFFFFFFFFFFFFFFFFFF AND PUSH32 0xDDF252AD1BE2C89B69C2B068FC378DAA952BA7F163C4A11628F55A4DF523B3EF PUSH1 0x40 MLOAD PUSH1 0x40 MLOAD DUP1 SWAP2 SUB SWAP1 LOG4 POP POP POP JUMP JUMPDEST PUSH0 PUSH1 0x5 PUSH0 DUP5 PUSH20 0xFFFFFFFFFFFFFFFFFFFFFFFFFFFFFFFFFFFFFFFF AND PUSH20 0xFFFFFFFFFFFFFFFFFFFFFFFFFFFFFFFFFFFFFFFF AND DUP2 MSTORE PUSH1 0x20 ADD SWAP1 DUP2 MSTORE PUSH1 0x20 ADD PUSH0 KECCAK256 PUSH0 DUP4 PUSH20 0xFFFFFFFFFFFFFFFFFFFFFFFFFFFFFFFFFFFFFFFF AND PUSH20 0xFFFFFFFFFFFFFFFFFFFFFFFFFFFFFFFFFFFFFFFF AND DUP2 MSTORE PUSH1 0x20 ADD SWAP1 DUP2 MSTORE PUSH1 0x20 ADD PUSH0 KECCAK256 PUSH0 SWAP1 SLOAD SWAP1 PUSH2 0x100 EXP SWAP1 DIV PUSH1 0xFF AND SWAP1 POP SWAP3 SWAP2 POP POP JUMP JUMPDEST PUSH0 DUP1 PUSH20 0xFFFFFFFFFFFFFFFFFFFFFFFFFFFFFFFFFFFFFFFF AND PUSH1 0x2 PUSH0 DUP5 DUP2 MSTORE PUSH1 0x20 ADD SWAP1 DUP2 MSTORE PUSH1 0x20 ADD PUSH0 KECCAK256 PUSH0 SWAP1 SLOAD SWAP1 PUSH2 0x100 EXP SWAP1 DIV PUSH20 0xFFFFFFFFFFFFFFFFFFFFFFFFFFFFFFFFFFFFFFFF AND PUSH20 0xFFFFFFFFFFFFFFFFFFFFFFFFFFFFFFFFFFFFFFFF AND EQ ISZERO SWAP1 POP SWAP2 SWAP1 POP JUMP JUMPDEST PUSH0 PUSH2 0xC72 DUP3 PUSH2 0xC00 JUMP JUMPDEST PUSH2 0xCB1 JUMPI PUSH1 0x40 MLOAD PUSH32 0x8C379A000000000000000000000000000000000000000000000000000000000 DUP2 MSTORE PUSH1 0x4 ADD PUSH2 0xCA8 SWAP1 PUSH2 0x1B16 JUMP JUMPDEST PUSH1 0x40 MLOAD DUP1 SWAP2 SUB SWAP1 REVERT JUMPDEST PUSH0 PUSH2 0xCBB DUP4 PUSH2 0x554 JUMP JUMPDEST SWAP1 POP DUP1 PUSH20 0xFFFFFFFFFFFFFFFFFFFFFFFFFFFFFFFFFFFFFFFF AND DUP5 PUSH20 0xFFFFFFFFFFFFFFFFFFFFFFFFFFFFFFFFFFFFFFFF AND EQ DUP1 PUSH2 0xD2A JUMPI POP DUP4 PUSH20 0xFFFFFFFFFFFFFFFFFFFFFFFFFFFFFFFFFFFFFFFF AND PUSH2 0xD12 DUP5 PUSH2 0x2D2 JUMP JUMPDEST PUSH20 0xFFFFFFFFFFFFFFFFFFFFFFFFFFFFFFFFFFFFFFFF AND EQ JUMPDEST DUP1 PUSH2 0xD3B JUMPI POP PUSH2 0xD3A DUP2 DUP6 PUSH2 0xB72 JUMP JUMPDEST JUMPDEST SWAP2 POP POP SWAP3 SWAP2 POP POP JUMP JUMPDEST DUP3 PUSH20 0xFFFFFFFFFFFFFFFFFFFFFFFFFFFFFFFFFFFFFFFF AND PUSH2 0xD64 DUP3 PUSH2 0x554 JUMP JUMPDEST PUSH20 0xFFFFFFFFFFFFFFFFFFFFFFFFFFFFFFFFFFFFFFFF AND EQ PUSH2 0xDBA JUMPI PUSH1 0x40 MLOAD PUSH32 0x8C379A000000000000000000000000000000000000000000000000000000000 DUP2 MSTORE PUSH1 0x4 ADD PUSH2 0xDB1 SWAP1 PUSH2 0x1BA4 JUMP JUMPDEST PUSH1 0x40 MLOAD DUP1 SWAP2 SUB SWAP1 REVERT JUMPDEST PUSH0 PUSH20 0xFFFFFFFFFFFFFFFFFFFFFFFFFFFFFFFFFFFFFFFF AND DUP3 PUSH20 0xFFFFFFFFFFFFFFFFFFFFFFFFFFFFFFFFFFFFFFFF AND SUB PUSH2 0xE28 JUMPI PUSH1 0x40 MLOAD PUSH32 0x8C379A000000000000000000000000000000000000000000000000000000000 DUP2 MSTORE PUSH1 0x4 ADD PUSH2 0xE1F SWAP1 PUSH2 0x1C32 JUMP JUMPDEST PUSH1 0x40 MLOAD DUP1 SWAP2 SUB SWAP1 REVERT JUMPDEST PUSH2 0xE32 PUSH0 DUP3 PUSH2 0x353 JUMP JUMPDEST PUSH1 0x1 PUSH1 0x3 PUSH0 DUP6 PUSH20 0xFFFFFFFFFFFFFFFFFFFFFFFFFFFFFFFFFFFFFFFF AND PUSH20 0xFFFFFFFFFFFFFFFFFFFFFFFFFFFFFFFFFFFFFFFF AND DUP2 MSTORE PUSH1 0x20 ADD SWAP1 DUP2 MSTORE PUSH1 0x20 ADD PUSH0 KECCAK256 PUSH0 DUP3 DUP3 SLOAD PUSH2 0xE7F SWAP2 SWAP1 PUSH2 0x1C50 JUMP JUMPDEST SWAP3 POP POP DUP2 SWAP1 SSTORE POP PUSH1 0x1 PUSH1 0x3 PUSH0 DUP5 PUSH20 0xFFFFFFFFFFFFFFFFFFFFFFFFFFFFFFFFFFFFFFFF AND PUSH20 0xFFFFFFFFFFFFFFFFFFFFFFFFFFFFFFFFFFFFFFFF AND DUP2 MSTORE PUSH1 0x20 ADD SWAP1 DUP2 MSTORE PUSH1 0x20 ADD PUSH0 KECCAK256 PUSH0 DUP3 DUP3 SLOAD PUSH2 0xED3 SWAP2 SWAP1 PUSH2 0x19A3 JUMP JUMPDEST SWAP3 POP POP DUP2 SWAP1 SSTORE POP DUP2 PUSH1 0x2 PUSH0 DUP4 DUP2 MSTORE PUSH1 0x20 ADD SWAP1 DUP2 MSTORE PUSH1 0x20 ADD PUSH0 KECCAK256 PUSH0 PUSH2 0x100 EXP DUP2 SLOAD DUP2 PUSH20 0xFFFFFFFFFFFFFFFFFFFFFFFFFFFFFFFFFFFFFFFF MUL NOT AND SWAP1 DUP4 PUSH20 0xFFFFFFFFFFFFFFFFFFFFFFFFFFFFFFFFFFFFFFFF AND MUL OR SWAP1 SSTORE POP DUP1 DUP3 PUSH20 0xFFFFFFFFFFFFFFFFFFFFFFFFFFFFFFFFFFFFFFFF AND DUP5 PUSH20 0xFFFFFFFFFFFFFFFFFFFFFFFFFFFFFFFFFFFFFFFF AND PUSH32 0xDDF252AD1BE2C89B69C2B068FC378DAA952BA7F163C4A11628F55A4DF523B3EF PUSH1 0x40 MLOAD PUSH1 0x40 MLOAD DUP1 SWAP2 SUB SWAP1 LOG4 POP POP POP JUMP JUMPDEST PUSH2 0xF92 DUP3 PUSH2 0xC00 JUMP JUMPDEST PUSH2 0xFD1 JUMPI PUSH1 0x40 MLOAD PUSH32 0x8C379A000000000000000000000000000000000000000000000000000000000 DUP2 MSTORE PUSH1 0x4 ADD PUSH2 0xFC8 SWAP1 PUSH2 0x1CF3 JUMP JUMPDEST PUSH1 0x40 MLOAD DUP1 SWAP2 SUB SWAP1 REVERT JUMPDEST DUP1 PUSH1 0x6 PUSH0 DUP5 DUP2 MSTORE PUSH1 0x20 ADD SWAP1 DUP2 MSTORE PUSH1 0x20 ADD PUSH0 KECCAK256 SWAP1 DUP2 PUSH2 0xFEF SWAP2 SWAP1 PUSH2 0x1EAE JUMP JUMPDEST POP POP POP JUMP JUMPDEST PUSH0 DUP2 MLOAD SWAP1 POP SWAP2 SWAP1 POP JUMP JUMPDEST PUSH0 DUP3 DUP3 MSTORE PUSH1 0x20 DUP3 ADD SWAP1 POP SWAP3 SWAP2 POP POP JUMP JUMPDEST PUSH0 JUMPDEST DUP4 DUP2 LT ISZERO PUSH2 0x102B JUMPI DUP1 DUP3 ADD MLOAD DUP2 DUP5 ADD MSTORE PUSH1 0x20 DUP2 ADD SWAP1 POP PUSH2 0x1010 JUMP JUMPDEST PUSH0 DUP5 DUP5 ADD MSTORE POP POP POP POP JUMP JUMPDEST PUSH0 PUSH1 0x1F NOT PUSH1 0x1F DUP4 ADD AND SWAP1 POP SWAP2 SWAP1 POP JUMP JUMPDEST PUSH0 PUSH2 0x1050 DUP3 PUSH2 0xFF4 JUMP JUMPDEST PUSH2 0x105A DUP2 DUP6 PUSH2 0xFFE JUMP JUMPDEST SWAP4 POP PUSH2 0x106A DUP2 DUP6 PUSH1 0x20 DUP7 ADD PUSH2 0x100E JUMP JUMPDEST PUSH2 0x1073 DUP2 PUSH2 0x1036 JUMP JUMPDEST DUP5 ADD SWAP2 POP POP SWAP3 SWAP2 POP POP JUMP JUMPDEST PUSH0 PUSH1 0x20 DUP3 ADD SWAP1 POP DUP2 DUP2 SUB PUSH0 DUP4 ADD MSTORE PUSH2 0x1096 DUP2 DUP5 PUSH2 0x1046 JUMP JUMPDEST SWAP1 POP SWAP3 SWAP2 POP POP JUMP JUMPDEST PUSH0 PUSH1 0x40 MLOAD SWAP1 POP SWAP1 JUMP JUMPDEST PUSH0 DUP1 REVERT JUMPDEST PUSH0 DUP1 REVERT JUMPDEST PUSH0 DUP2 SWAP1 POP SWAP2 SWAP1 POP JUMP JUMPDEST PUSH2 0x10C1 DUP2 PUSH2 0x10AF JUMP JUMPDEST DUP2 EQ PUSH2 0x10CB JUMPI PUSH0 DUP1 REVERT JUMPDEST POP JUMP JUMPDEST PUSH0 DUP2 CALLDATALOAD SWAP1 POP PUSH2 0x10DC DUP2 PUSH2 0x10B8 JUMP JUMPDEST SWAP3 SWAP2 POP POP JUMP JUMPDEST PUSH0 PUSH1 0x20 DUP3 DUP5 SUB SLT ISZERO PUSH2 0x10F7 JUMPI PUSH2 0x10F6 PUSH2 0x10A7 JUMP JUMPDEST JUMPDEST PUSH0 PUSH2 0x1104 DUP5 DUP3 DUP6 ADD PUSH2 0x10CE JUMP JUMPDEST SWAP2 POP POP SWAP3 SWAP2 POP POP JUMP JUMPDEST PUSH0 PUSH20 0xFFFFFFFFFFFFFFFFFFFFFFFFFFFFFFFFFFFFFFFF DUP3 AND SWAP1 POP SWAP2 SWAP1 POP JUMP JUMPDEST PUSH0 PUSH2 0x1136 DUP3 PUSH2 0x110D JUMP JUMPDEST SWAP1 POP SWAP2 SWAP1 POP JUMP JUMPDEST PUSH2 0x1146 DUP2 PUSH2 0x112C JUMP JUMPDEST DUP3 MSTORE POP POP JUMP JUMPDEST PUSH0 PUSH1 0x20 DUP3 ADD SWAP1 POP PUSH2 0x115F PUSH0 DUP4 ADD DUP5 PUSH2 0x113D JUMP JUMPDEST SWAP3 SWAP2 POP POP JUMP JUMPDEST PUSH2 0x116E DUP2 PUSH2 0x112C JUMP JUMPDEST DUP2 EQ PUSH2 0x1178 JUMPI PUSH0 DUP1 REVERT JUMPDEST POP JUMP JUMPDEST PUSH0 DUP2 CALLDATALOAD SWAP1 POP PUSH2 0x1189 DUP2 PUSH2 0x1165 JUMP JUMPDEST SWAP3 SWAP2 POP POP JUMP JUMPDEST PUSH0 DUP1 PUSH1 0x40 DUP4 DUP6 SUB SLT ISZERO PUSH2 0x11A5 JUMPI PUSH2 0x11A4 PUSH2 0x10A7 JUMP JUMPDEST JUMPDEST PUSH0 PUSH2 0x11B2 DUP6 DUP3 DUP7 ADD PUSH2 0x117B JUMP JUMPDEST SWAP3 POP POP PUSH1 0x20 PUSH2 0x11C3 DUP6 DUP3 DUP7 ADD PUSH2 0x10CE JUMP JUMPDEST SWAP2 POP POP SWAP3 POP SWAP3 SWAP1 POP JUMP JUMPDEST PUSH0 DUP1 PUSH0 PUSH1 0x60 DUP5 DUP7 SUB SLT ISZERO PUSH2 0x11E4 JUMPI PUSH2 0x11E3 PUSH2 0x10A7 JUMP JUMPDEST JUMPDEST PUSH0 PUSH2 0x11F1 DUP7 DUP3 DUP8 ADD PUSH2 0x117B JUMP JUMPDEST SWAP4 POP POP PUSH1 0x20 PUSH2 0x1202 DUP7 DUP3 DUP8 ADD PUSH2 0x117B JUMP JUMPDEST SWAP3 POP POP PUSH1 0x40 PUSH2 0x1213 DUP7 DUP3 DUP8 ADD PUSH2 0x10CE JUMP JUMPDEST SWAP2 POP POP SWAP3 POP SWAP3 POP SWAP3 JUMP JUMPDEST PUSH0 PUSH1 0x20 DUP3 DUP5 SUB SLT ISZERO PUSH2 0x1232 JUMPI PUSH2 0x1231 PUSH2 0x10A7 JUMP JUMPDEST JUMPDEST PUSH0 PUSH2 0x123F DUP5 DUP3 DUP6 ADD PUSH2 0x117B JUMP JUMPDEST SWAP2 POP POP SWAP3 SWAP2 POP POP JUMP JUMPDEST PUSH2 0x1251 DUP2 PUSH2 0x10AF JUMP JUMPDEST DUP3 MSTORE POP POP JUMP JUMPDEST PUSH0 PUSH1 0x20 DUP3 ADD SWAP1 POP PUSH2 0x126A PUSH0 DUP4 ADD DUP5 PUSH2 0x1248 JUMP JUMPDEST SWAP3 SWAP2 POP POP JUMP JUMPDEST PUSH0 DUP2 ISZERO ISZERO SWAP1 POP SWAP2 SWAP1 POP JUMP JUMPDEST PUSH2 0x1284 DUP2 PUSH2 0x1270 JUMP JUMPDEST DUP2 EQ PUSH2 0x128E JUMPI PUSH0 DUP1 REVERT JUMPDEST POP JUMP JUMPDEST PUSH0 DUP2 CALLDATALOAD SWAP1 POP PUSH2 0x129F DUP2 PUSH2 0x127B JUMP JUMPDEST SWAP3 SWAP2 POP POP JUMP JUMPDEST PUSH0 DUP1 PUSH1 0x40 DUP4 DUP6 SUB SLT ISZERO PUSH2 0x12BB JUMPI PUSH2 0x12BA PUSH2 0x10A7 JUMP JUMPDEST JUMPDEST PUSH0 PUSH2 0x12C8 DUP6 DUP3 DUP7 ADD PUSH2 0x117B JUMP JUMPDEST SWAP3 POP POP PUSH1 0x20 PUSH2 0x12D9 DUP6 DUP3 DUP7 ADD PUSH2 0x1291 JUMP JUMPDEST SWAP2 POP POP SWAP3 POP SWAP3 SWAP1 POP JUMP JUMPDEST PUSH0 DUP1 REVERT JUMPDEST PUSH0 DUP1 REVERT JUMPDEST PUSH32 0x4E487B7100000000000000000000000000000000000000000000000000000000 PUSH0 MSTORE PUSH1 0x41 PUSH1 0x4 MSTORE PUSH1 0x24 PUSH0 REVERT JUMPDEST PUSH2 0x1321 DUP3 PUSH2 0x1036 JUMP JUMPDEST DUP2 ADD DUP2 DUP2 LT PUSH8 0xFFFFFFFFFFFFFFFF DUP3 GT OR ISZERO PUSH2 0x1340 JUMPI PUSH2 0x133F PUSH2 0x12EB JUMP JUMPDEST JUMPDEST DUP1 PUSH1 0x40 MSTORE POP POP POP JUMP JUMPDEST PUSH0 PUSH2 0x1352 PUSH2 0x109E JUMP JUMPDEST SWAP1 POP PUSH2 0x135E DUP3 DUP3 PUSH2 0x1318 JUMP JUMPDEST SWAP2 SWAP1 POP JUMP JUMPDEST PUSH0 PUSH8 0xFFFFFFFFFFFFFFFF DUP3 GT ISZERO PUSH2 0x137D JUMPI PUSH2 0x137C PUSH2 0x12EB JUMP JUMPDEST JUMPDEST PUSH2 0x1386 DUP3 PUSH2 0x1036 JUMP JUMPDEST SWAP1 POP PUSH1 0x20 DUP2 ADD SWAP1 POP SWAP2 SWAP1 POP JUMP JUMPDEST DUP3 DUP2 DUP4 CALLDATACOPY PUSH0 DUP4 DUP4 ADD MSTORE POP POP POP JUMP JUMPDEST PUSH0 PUSH2 0x13B3 PUSH2 0x13AE DUP5 PUSH2 0x1363 JUMP JUMPDEST PUSH2 0x1349 JUMP JUMPDEST SWAP1 POP DUP3 DUP2 MSTORE PUSH1 0x20 DUP2 ADD DUP5 DUP5 DUP5 ADD GT ISZERO PUSH2 0x13CF JUMPI PUSH2 0x13CE PUSH2 0x12E7 JUMP JUMPDEST JUMPDEST PUSH2 0x13DA DUP5 DUP3 DUP6 PUSH2 0x1393 JUMP JUMPDEST POP SWAP4 SWAP3 POP POP POP JUMP JUMPDEST PUSH0 DUP3 PUSH1 0x1F DUP4 ADD SLT PUSH2 0x13F6 JUMPI PUSH2 0x13F5 PUSH2 0x12E3 JUMP JUMPDEST JUMPDEST DUP2 CALLDATALOAD PUSH2 0x1406 DUP5 DUP3 PUSH1 0x20 DUP7 ADD PUSH2 0x13A1 JUMP JUMPDEST SWAP2 POP POP SWAP3 SWAP2 POP POP JUMP JUMPDEST PUSH0 DUP1 PUSH1 0x40 DUP4 DUP6 SUB SLT ISZERO PUSH2 0x1425 JUMPI PUSH2 0x1424 PUSH2 0x10A7 JUMP JUMPDEST JUMPDEST PUSH0 PUSH2 0x1432 DUP6 DUP3 DUP7 ADD PUSH2 0x117B JUMP JUMPDEST SWAP3 POP POP PUSH1 0x20 DUP4 ADD CALLDATALOAD PUSH8 0xFFFFFFFFFFFFFFFF DUP2 GT ISZERO PUSH2 0x1453 JUMPI PUSH2 0x1452 PUSH2 0x10AB JUMP JUMPDEST JUMPDEST PUSH2 0x145F DUP6 DUP3 DUP7 ADD PUSH2 0x13E2 JUMP JUMPDEST SWAP2 POP POP SWAP3 POP SWAP3 SWAP1 POP JUMP JUMPDEST PUSH0 DUP1 PUSH1 0x40 DUP4 DUP6 SUB SLT ISZERO PUSH2 0x147F JUMPI PUSH2 0x147E PUSH2 0x10A7 JUMP JUMPDEST JUMPDEST PUSH0 PUSH2 0x148C DUP6 DUP3 DUP7 ADD PUSH2 0x117B JUMP JUMPDEST SWAP3 POP POP PUSH1 0x20 PUSH2 0x149D DUP6 DUP3 DUP7 ADD PUSH2 0x117B JUMP JUMPDEST SWAP2 POP POP SWAP3 POP SWAP3 SWAP1 POP JUMP JUMPDEST PUSH2 0x14B0 DUP2 PUSH2 0x1270 JUMP JUMPDEST DUP3 MSTORE POP POP JUMP JUMPDEST PUSH0 PUSH1 0x20 DUP3 ADD SWAP1 POP PUSH2 0x14C9 PUSH0 DUP4 ADD DUP5 PUSH2 0x14A7 JUMP JUMPDEST SWAP3 SWAP2 POP POP JUMP JUMPDEST PUSH32 0x4E487B7100000000000000000000000000000000000000000000000000000000 PUSH0 MSTORE PUSH1 0x22 PUSH1 0x4 MSTORE PUSH1 0x24 PUSH0 REVERT JUMPDEST PUSH0 PUSH1 0x2 DUP3 DIV SWAP1 POP PUSH1 0x1 DUP3 AND DUP1 PUSH2 0x1513 JUMPI PUSH1 0x7F DUP3 AND SWAP2 POP JUMPDEST PUSH1 0x20 DUP3 LT DUP2 SUB PUSH2 0x1526 JUMPI PUSH2 0x1525 PUSH2 0x14CF JUMP JUMPDEST JUMPDEST POP SWAP2 SWAP1 POP JUMP JUMPDEST PUSH32 0x4552433732313A20617070726F76656420717565727920666F72206E6F6E6578 PUSH0 DUP3 ADD MSTORE PUSH32 0x697374656E7420746F6B656E0000000000000000000000000000000000000000 PUSH1 0x20 DUP3 ADD MSTORE POP JUMP JUMPDEST PUSH0 PUSH2 0x1586 PUSH1 0x2C DUP4 PUSH2 0xFFE JUMP JUMPDEST SWAP2 POP PUSH2 0x1591 DUP3 PUSH2 0x152C JUMP JUMPDEST PUSH1 0x40 DUP3 ADD SWAP1 POP SWAP2 SWAP1 POP JUMP JUMPDEST PUSH0 PUSH1 0x20 DUP3 ADD SWAP1 POP DUP2 DUP2 SUB PUSH0 DUP4 ADD MSTORE PUSH2 0x15B3 DUP2 PUSH2 0x157A JUMP JUMPDEST SWAP1 POP SWAP2 SWAP1 POP JUMP JUMPDEST PUSH32 0x4552433732313A20617070726F76616C20746F2063757272656E74206F776E65 PUSH0 DUP3 ADD MSTORE PUSH32 0x7200000000000000000000000000000000000000000000000000000000000000 PUSH1 0x20 DUP3 ADD MSTORE POP JUMP JUMPDEST PUSH0 PUSH2 0x1614 PUSH1 0x21 DUP4 PUSH2 0xFFE JUMP JUMPDEST SWAP2 POP PUSH2 0x161F DUP3 PUSH2 0x15BA JUMP JUMPDEST PUSH1 0x40 DUP3 ADD SWAP1 POP SWAP2 SWAP1 POP JUMP JUMPDEST PUSH0 PUSH1 0x20 DUP3 ADD SWAP1 POP DUP2 DUP2 SUB PUSH0 DUP4 ADD MSTORE PUSH2 0x1641 DUP2 PUSH2 0x1608 JUMP JUMPDEST SWAP1 POP SWAP2 SWAP1 POP JUMP JUMPDEST PUSH32 0x4552433732313A20617070726F76652063616C6C6572206973206E6F74206F77 PUSH0 DUP3 ADD MSTORE PUSH32 0x6E6572206E6F7220617070726F76656420666F7220616C6C0000000000000000 PUSH1 0x20 DUP3 ADD MSTORE POP JUMP JUMPDEST PUSH0 PUSH2 0x16A2 PUSH1 0x38 DUP4 PUSH2 0xFFE JUMP JUMPDEST SWAP2 POP PUSH2 0x16AD DUP3 PUSH2 0x1648 JUMP JUMPDEST PUSH1 0x40 DUP3 ADD SWAP1 POP SWAP2 SWAP1 POP JUMP JUMPDEST PUSH0 PUSH1 0x20 DUP3 ADD SWAP1 POP DUP2 DUP2 SUB PUSH0 DUP4 ADD MSTORE PUSH2 0x16CF DUP2 PUSH2 0x1696 JUMP JUMPDEST SWAP1 POP SWAP2 SWAP1 POP JUMP JUMPDEST PUSH32 0x4552433732313A207472616E736665722063616C6C6572206973206E6F74206F PUSH0 DUP3 ADD MSTORE PUSH32 0x776E6572206E6F7220617070726F766564000000000000000000000000000000 PUSH1 0x20 DUP3 ADD MSTORE POP JUMP JUMPDEST PUSH0 PUSH2 0x1730 PUSH1 0x31 DUP4 PUSH2 0xFFE JUMP JUMPDEST SWAP2 POP PUSH2 0x173B DUP3 PUSH2 0x16D6 JUMP JUMPDEST PUSH1 0x40 DUP3 ADD SWAP1 POP SWAP2 SWAP1 POP JUMP JUMPDEST PUSH0 PUSH1 0x20 DUP3 ADD SWAP1 POP DUP2 DUP2 SUB PUSH0 DUP4 ADD MSTORE PUSH2 0x175D DUP2 PUSH2 0x1724 JUMP JUMPDEST SWAP1 POP SWAP2 SWAP1 POP JUMP JUMPDEST PUSH32 0x4552433732313A206F776E657220717565727920666F72206E6F6E6578697374 PUSH0 DUP3 ADD MSTORE PUSH32 0x656E7420746F6B656E0000000000000000000000000000000000000000000000 PUSH1 0x20 DUP3 ADD MSTORE POP JUMP JUMPDEST PUSH0 PUSH2 0x17BE PUSH1 0x29 DUP4 PUSH2 0xFFE JUMP JUMPDEST SWAP2 POP PUSH2 0x17C9 DUP3 PUSH2 0x1764 JUMP JUMPDEST PUSH1 0x40 DUP3 ADD SWAP1 POP SWAP2 SWAP1 POP JUMP JUMPDEST PUSH0 PUSH1 0x20 DUP3 ADD SWAP1 POP DUP2 DUP2 SUB PUSH0 DUP4 ADD MSTORE PUSH2 0x17EB DUP2 PUSH2 0x17B2 JUMP JUMPDEST SWAP1 POP SWAP2 SWAP1 POP JUMP JUMPDEST PUSH32 0x4552433732313A2062616C616E636520717565727920666F7220746865207A65 PUSH0 DUP3 ADD MSTORE PUSH32 0x726F206164647265737300000000000000000000000000000000000000000000 PUSH1 0x20 DUP3 ADD MSTORE POP JUMP JUMPDEST PUSH0 PUSH2 0x184C PUSH1 0x2A DUP4 PUSH2 0xFFE JUMP JUMPDEST SWAP2 POP PUSH2 0x1857 DUP3 PUSH2 0x17F2 JUMP JUMPDEST PUSH1 0x40 DUP3 ADD SWAP1 POP SWAP2 SWAP1 POP JUMP JUMPDEST PUSH0 PUSH1 0x20 DUP3 ADD SWAP1 POP DUP2 DUP2 SUB PUSH0 DUP4 ADD MSTORE PUSH2 0x1879 DUP2 PUSH2 0x1840 JUMP JUMPDEST SWAP1 POP SWAP2 SWAP1 POP JUMP JUMPDEST PUSH32 0x4552433732313A20617070726F766520746F2063616C6C657200000000000000 PUSH0 DUP3 ADD MSTORE POP JUMP JUMPDEST PUSH0 PUSH2 0x18B4 PUSH1 0x19 DUP4 PUSH2 0xFFE JUMP JUMPDEST SWAP2 POP PUSH2 0x18BF DUP3 PUSH2 0x1880 JUMP JUMPDEST PUSH1 0x20 DUP3 ADD SWAP1 POP SWAP2 SWAP1 POP JUMP JUMPDEST PUSH0 PUSH1 0x20 DUP3 ADD SWAP1 POP DUP2 DUP2 SUB PUSH0 DUP4 ADD MSTORE PUSH2 0x18E1 DUP2 PUSH2 0x18A8 JUMP JUMPDEST SWAP1 POP SWAP2 SWAP1 POP JUMP JUMPDEST PUSH32 0x4552433732314D657461646174613A2055524920717565727920666F72206E6F PUSH0 DUP3 ADD MSTORE PUSH32 0x6E6578697374656E7420746F6B656E0000000000000000000000000000000000 PUSH1 0x20 DUP3 ADD MSTORE POP JUMP JUMPDEST PUSH0 PUSH2 0x1942 PUSH1 0x2F DUP4 PUSH2 0xFFE JUMP JUMPDEST SWAP2 POP PUSH2 0x194D DUP3 PUSH2 0x18E8 JUMP JUMPDEST PUSH1 0x40 DUP3 ADD SWAP1 POP SWAP2 SWAP1 POP JUMP JUMPDEST PUSH0 PUSH1 0x20 DUP3 ADD SWAP1 POP DUP2 DUP2 SUB PUSH0 DUP4 ADD MSTORE PUSH2 0x196F DUP2 PUSH2 0x1936 JUMP JUMPDEST SWAP1 POP SWAP2 SWAP1 POP JUMP JUMPDEST PUSH32 0x4E487B7100000000000000000000000000000000000000000000000000000000 PUSH0 MSTORE PUSH1 0x11 PUSH1 0x4 MSTORE PUSH1 0x24 PUSH0 REVERT JUMPDEST PUSH0 PUSH2 0x19AD DUP3 PUSH2 0x10AF JUMP JUMPDEST SWAP2 POP PUSH2 0x19B8 DUP4 PUSH2 0x10AF JUMP JUMPDEST SWAP3 POP DUP3 DUP3 ADD SWAP1 POP DUP1 DUP3 GT ISZERO PUSH2 0x19D0 JUMPI PUSH2 0x19CF PUSH2 0x1976 JUMP JUMPDEST JUMPDEST SWAP3 SWAP2 POP POP JUMP JUMPDEST PUSH32 0x4552433732313A206D696E7420746F20746865207A65726F2061646472657373 PUSH0 DUP3 ADD MSTORE POP JUMP JUMPDEST PUSH0 PUSH2 0x1A0A PUSH1 0x20 DUP4 PUSH2 0xFFE JUMP JUMPDEST SWAP2 POP PUSH2 0x1A15 DUP3 PUSH2 0x19D6 JUMP JUMPDEST PUSH1 0x20 DUP3 ADD SWAP1 POP SWAP2 SWAP1 POP JUMP JUMPDEST PUSH0 PUSH1 0x20 DUP3 ADD SWAP1 POP DUP2 DUP2 SUB PUSH0 DUP4 ADD MSTORE PUSH2 0x1A37 DUP2 PUSH2 0x19FE JUMP JUMPDEST SWAP1 POP SWAP2 SWAP1 POP JUMP JUMPDEST PUSH32 0x4552433732313A20746F6B656E20616C7265616479206D696E74656400000000 PUSH0 DUP3 ADD MSTORE POP JUMP JUMPDEST PUSH0 PUSH2 0x1A72 PUSH1 0x1C DUP4 PUSH2 0xFFE JUMP JUMPDEST SWAP2 POP PUSH2 0x1A7D DUP3 PUSH2 0x1A3E JUMP JUMPDEST PUSH1 0x20 DUP3 ADD SWAP1 POP SWAP2 SWAP1 POP JUMP JUMPDEST PUSH0 PUSH1 0x20 DUP3 ADD SWAP1 POP DUP2 DUP2 SUB PUSH0 DUP4 ADD MSTORE PUSH2 0x1A9F DUP2 PUSH2 0x1A66 JUMP JUMPDEST SWAP1 POP SWAP2 SWAP1 POP JUMP JUMPDEST PUSH32 0x4552433732313A206F70657261746F7220717565727920666F72206E6F6E6578 PUSH0 DUP3 ADD MSTORE PUSH32 0x697374656E7420746F6B656E0000000000000000000000000000000000000000 PUSH1 0x20 DUP3 ADD MSTORE POP JUMP JUMPDEST PUSH0 PUSH2 0x1B00 PUSH1 0x2C DUP4 PUSH2 0xFFE JUMP JUMPDEST SWAP2 POP PUSH2 0x1B0B DUP3 PUSH2 0x1AA6 JUMP JUMPDEST PUSH1 0x40 DUP3 ADD SWAP1 POP SWAP2 SWAP1 POP JUMP JUMPDEST PUSH0 PUSH1 0x20 DUP3 ADD SWAP1 POP DUP2 DUP2 SUB PUSH0 DUP4 ADD MSTORE PUSH2 0x1B2D DUP2 PUSH2 0x1AF4 JUMP JUMPDEST SWAP1 POP SWAP2 SWAP1 POP JUMP JUMPDEST PUSH32 0x4552433732313A207472616E73666572206F6620746F6B656E20746861742069 PUSH0 DUP3 ADD MSTORE PUSH32 0x73206E6F74206F776E0000000000000000000000000000000000000000000000 PUSH1 0x20 DUP3 ADD MSTORE POP JUMP JUMPDEST PUSH0 PUSH2 0x1B8E PUSH1 0x29 DUP4 PUSH2 0xFFE JUMP JUMPDEST SWAP2 POP PUSH2 0x1B99 DUP3 PUSH2 0x1B34 JUMP JUMPDEST PUSH1 0x40 DUP3 ADD SWAP1 POP SWAP2 SWAP1 POP JUMP JUMPDEST PUSH0 PUSH1 0x20 DUP3 ADD SWAP1 POP DUP2 DUP2 SUB PUSH0 DUP4 ADD MSTORE PUSH2 0x1BBB DUP2 PUSH2 0x1B82 JUMP JUMPDEST SWAP1 POP SWAP2 SWAP1 POP JUMP JUMPDEST PUSH32 0x4552433732313A207472616E7366657220746F20746865207A65726F20616464 PUSH0 DUP3 ADD MSTORE PUSH32 0x7265737300000000000000000000000000000000000000000000000000000000 PUSH1 0x20 DUP3 ADD MSTORE POP JUMP JUMPDEST PUSH0 PUSH2 0x1C1C PUSH1 0x24 DUP4 PUSH2 0xFFE JUMP JUMPDEST SWAP2 POP PUSH2 0x1C27 DUP3 PUSH2 0x1BC2 JUMP JUMPDEST PUSH1 0x40 DUP3 ADD SWAP1 POP SWAP2 SWAP1 POP JUMP JUMPDEST PUSH0 PUSH1 0x20 DUP3 ADD SWAP1 POP DUP2 DUP2 SUB PUSH0 DUP4 ADD MSTORE PUSH2 0x1C49 DUP2 PUSH2 0x1C10 JUMP JUMPDEST SWAP1 POP SWAP2 SWAP1 POP JUMP JUMPDEST PUSH0 PUSH2 0x1C5A DUP3 PUSH2 0x10AF JUMP JUMPDEST SWAP2 POP PUSH2 0x1C65 DUP4 PUSH2 0x10AF JUMP JUMPDEST SWAP3 POP DUP3 DUP3 SUB SWAP1 POP DUP2 DUP2 GT ISZERO PUSH2 0x1C7D JUMPI PUSH2 0x1C7C PUSH2 0x1976 JUMP JUMPDEST JUMPDEST SWAP3 SWAP2 POP POP JUMP JUMPDEST PUSH32 0x4552433732314D657461646174613A2055524920736574206F66206E6F6E6578 PUSH0 DUP3 ADD MSTORE PUSH32 0x697374656E7420746F6B656E0000000000000000000000000000000000000000 PUSH1 0x20 DUP3 ADD MSTORE POP JUMP JUMPDEST PUSH0 PUSH2 0x1CDD PUSH1 0x2C DUP4 PUSH2 0xFFE JUMP JUMPDEST SWAP2 POP PUSH2 0x1CE8 DUP3 PUSH2 0x1C83 JUMP JUMPDEST PUSH1 0x40 DUP3 ADD SWAP1 POP SWAP2 SWAP1 POP JUMP JUMPDEST PUSH0 PUSH1 0x20 DUP3 ADD SWAP1 POP DUP2 DUP2 SUB PUSH0 DUP4 ADD MSTORE PUSH2 0x1D0A DUP2 PUSH2 0x1CD1 JUMP JUMPDEST SWAP1 POP SWAP2 SWAP1 POP JUMP JUMPDEST PUSH0 DUP2 SWAP1 POP DUP2 PUSH0 MSTORE PUSH1 0x20 PUSH0 KECCAK256 SWAP1 POP SWAP2 SWAP1 POP JUMP JUMPDEST PUSH0 PUSH1 0x20 PUSH1 0x1F DUP4 ADD DIV SWAP1 POP SWAP2 SWAP1 POP JUMP JUMPDEST PUSH0 DUP3 DUP3 SHL SWAP1 POP SWAP3 SWAP2 POP POP JUMP JUMPDEST PUSH0 PUSH1 0x8 DUP4 MUL PUSH2 0x1D6D PUSH32 0xFFFFFFFFFFFFFFFFFFFFFFFFFFFFFFFFFFFFFFFFFFFFFFFFFFFFFFFFFFFFFFFF DUP3 PUSH2 0x1D32 JUMP JUMPDEST PUSH2 0x1D77 DUP7 DUP4 PUSH2 0x1D32 JUMP JUMPDEST SWAP6 POP DUP1 NOT DUP5 AND SWAP4 POP DUP1 DUP7 AND DUP5 OR SWAP3 POP POP POP SWAP4 SWAP3 POP POP POP JUMP JUMPDEST PUSH0 DUP2 SWAP1 POP SWAP2 SWAP1 POP JUMP JUMPDEST PUSH0 PUSH2 0x1DB2 PUSH2 0x1DAD PUSH2 0x1DA8 DUP5 PUSH2 0x10AF JUMP JUMPDEST PUSH2 0x1D8F JUMP JUMPDEST PUSH2 0x10AF JUMP JUMPDEST SWAP1 POP SWAP2 SWAP1 POP JUMP JUMPDEST PUSH0 DUP2 SWAP1 POP SWAP2 SWAP1 POP JUMP JUMPDEST PUSH2 0x1DCB DUP4 PUSH2 0x1D98 JUMP JUMPDEST PUSH2 0x1DDF PUSH2 0x1DD7 DUP3 PUSH2 0x1DB9 JUMP JUMPDEST DUP5 DUP5 SLOAD PUSH2 0x1D3E JUMP JUMPDEST DUP3 SSTORE POP POP POP POP JUMP JUMPDEST PUSH0 SWAP1 JUMP JUMPDEST PUSH2 0x1DF3 PUSH2 0x1DE7 JUMP JUMPDEST PUSH2 0x1DFE DUP2 DUP5 DUP5 PUSH2 0x1DC2 JUMP JUMPDEST POP POP POP JUMP JUMPDEST JUMPDEST DUP2 DUP2 LT ISZERO PUSH2 0x1E21 JUMPI PUSH2 0x1E16 PUSH0 DUP3 PUSH2 0x1DEB JUMP JUMPDEST PUSH1 0x1 DUP2 ADD SWAP1 POP PUSH2 0x1E04 JUMP JUMPDEST POP POP JUMP JUMPDEST PUSH1 0x1F DUP3 GT ISZERO PUSH2 0x1E66 JUMPI PUSH2 0x1E37 DUP2 PUSH2 0x1D11 JUMP JUMPDEST PUSH2 0x1E40 DUP5 PUSH2 0x1D23 JUMP JUMPDEST DUP2 ADD PUSH1 0x20 DUP6 LT ISZERO PUSH2 0x1E4F JUMPI DUP2 SWAP1 POP JUMPDEST PUSH2 0x1E63 PUSH2 0x1E5B DUP6 PUSH2 0x1D23 JUMP JUMPDEST DUP4 ADD DUP3 PUSH2 0x1E03 JUMP JUMPDEST POP POP JUMPDEST POP POP POP JUMP JUMPDEST PUSH0 DUP3 DUP3 SHR SWAP1 POP SWAP3 SWAP2 POP POP JUMP JUMPDEST PUSH0 PUSH2 0x1E86 PUSH0 NOT DUP5 PUSH1 0x8 MUL PUSH2 0x1E6B JUMP JUMPDEST NOT DUP1 DUP4 AND SWAP2 POP POP SWAP3 SWAP2 POP POP JUMP JUMPDEST PUSH0 PUSH2 0x1E9E DUP4 DUP4 PUSH2 0x1E77 JUMP JUMPDEST SWAP2 POP DUP3 PUSH1 0x2 MUL DUP3 OR SWAP1 POP SWAP3 SWAP2 POP POP JUMP JUMPDEST PUSH2 0x1EB7 DUP3 PUSH2 0xFF4 JUMP JUMPDEST PUSH8 0xFFFFFFFFFFFFFFFF DUP2 GT ISZERO PUSH2 0x1ED0 JUMPI PUSH2 0x1ECF PUSH2 0x12EB JUMP JUMPDEST JUMPDEST PUSH2 0x1EDA DUP3 SLOAD PUSH2 0x14FC JUMP JUMPDEST PUSH2 0x1EE5 DUP3 DUP3 DUP6 PUSH2 0x1E25 JUMP JUMPDEST PUSH0 PUSH1 0x20 SWAP1 POP PUSH1 0x1F DUP4 GT PUSH1 0x1 DUP2 EQ PUSH2 0x1F16 JUMPI PUSH0 DUP5 ISZERO PUSH2 0x1F04 JUMPI DUP3 DUP8 ADD MLOAD SWAP1 POP JUMPDEST PUSH2 0x1F0E DUP6 DUP3 PUSH2 0x1E93 JUMP JUMPDEST DUP7 SSTORE POP PUSH2 0x1F75 JUMP JUMPDEST PUSH1 0x1F NOT DUP5 AND PUSH2 0x1F24 DUP7 PUSH2 0x1D11 JUMP JUMPDEST PUSH0 JUMPDEST DUP3 DUP2 LT ISZERO PUSH2 0x1F4B JUMPI DUP5 DUP10 ADD MLOAD DUP3 SSTORE PUSH1 0x1 DUP3 ADD SWAP2 POP PUSH1 0x20 DUP6 ADD SWAP5 POP PUSH1 0x20 DUP2 ADD SWAP1 POP PUSH2 0x1F26 JUMP JUMPDEST DUP7 DUP4 LT ISZERO PUSH2 0x1F68 JUMPI DUP5 DUP10 ADD MLOAD PUSH2 0x1F64 PUSH1 0x1F DUP10 AND DUP3 PUSH2 0x1E77 JUMP JUMPDEST DUP4 SSTORE POP JUMPDEST PUSH1 0x1 PUSH1 0x2 DUP9 MUL ADD DUP9 SSTORE POP POP POP JUMPDEST POP POP POP POP POP POP JUMP INVALID LOG2 PUSH5 0x6970667358 0x22 SLT KECCAK256 0xC5 SWAP2 PUSH28 0x2E7DDEEA8BAB0C6ADBAD1F28CA2D80A1F7568CEAE359CD1F2FA2C54D 0x1E PUSH5 0x736F6C6343 STOP ADDMOD EQ STOP CALLER "
				},
				"gasEstimates": {
					"creation": {
						"codeDepositCost": "1623000",
						"executionCost": "infinite",
						"totalCost": "infinite"
					},
					"external": {
						"approve(address,uint256)": "31690",
						"balanceOf(address)": "2864",
						"getApproved(uint256)": "5166",
						"isApprovedForAll(address,address)": "infinite",
						"mint(address,string)": "infinite",
						"name()": "infinite",
						"ownerOf(uint256)": "3048",
						"setApprovalForAll(address,bool)": "infinite",
						"symbol()": "infinite",
						"tokenURI(uint256)": "infinite",
						"transferFrom(address,address,uint256)": "infinite"
					},
					"internal": {
						"_exists(uint256)": "2265",
						"_isApprovedOrOwner(address,uint256)": "infinite",
						"_setTokenURI(uint256,string memory)": "infinite",
						"_transfer(address,address,uint256)": "infinite"
					}
				},
				"methodIdentifiers": {
					"approve(address,uint256)": "095ea7b3",
					"balanceOf(address)": "70a08231",
					"getApproved(uint256)": "081812fc",
					"isApprovedForAll(address,address)": "e985e9c5",
					"mint(address,string)": "d0def521",
					"name()": "06fdde03",
					"ownerOf(uint256)": "6352211e",
					"setApprovalForAll(address,bool)": "a22cb465",
					"symbol()": "95d89b41",
					"tokenURI(uint256)": "c87b56dd",
					"transferFrom(address,address,uint256)": "23b872dd"
				}
			},
			"storageLayout": {
				"storage": [
					{
						"astId": 3,
						"contract": "web3/contracts/W3CBBadgeNFT.sol:W3CBBadgeNFT",
						"label": "name",
						"offset": 0,
						"slot": "0",
						"type": "t_string_storage"
					},
					{
						"astId": 5,
						"contract": "web3/contracts/W3CBBadgeNFT.sol:W3CBBadgeNFT",
						"label": "symbol",
						"offset": 0,
						"slot": "1",
						"type": "t_string_storage"
					},
					{
						"astId": 9,
						"contract": "web3/contracts/W3CBBadgeNFT.sol:W3CBBadgeNFT",
						"label": "_owners",
						"offset": 0,
						"slot": "2",
						"type": "t_mapping(t_uint256,t_address)"
					},
					{
						"astId": 13,
						"contract": "web3/contracts/W3CBBadgeNFT.sol:W3CBBadgeNFT",
						"label": "_balances",
						"offset": 0,
						"slot": "3",
						"type": "t_mapping(t_address,t_uint256)"
					},
					{
						"astId": 17,
						"contract": "web3/contracts/W3CBBadgeNFT.sol:W3CBBadgeNFT",
						"label": "_tokenApprovals",
						"offset": 0,
						"slot": "4",
						"type": "t_mapping(t_uint256,t_address)"
					},
					{
						"astId": 23,
						"contract": "web3/contracts/W3CBBadgeNFT.sol:W3CBBadgeNFT",
						"label": "_operatorApprovals",
						"offset": 0,
						"slot": "5",
						"type": "t_mapping(t_address,t_mapping(t_address,t_bool))"
					},
					{
						"astId": 27,
						"contract": "web3/contracts/W3CBBadgeNFT.sol:W3CBBadgeNFT",
						"label": "_tokenURIs",
						"offset": 0,
						"slot": "6",
						"type": "t_mapping(t_uint256,t_string_storage)"
					},
					{
						"astId": 30,
						"contract": "web3/contracts/W3CBBadgeNFT.sol:W3CBBadgeNFT",
						"label": "_tokenCount",
						"offset": 0,
						"slot": "7",
						"type": "t_uint256"
					}
				],
				"types": {
					"t_address": {
						"encoding": "inplace",
						"label": "address",
						"numberOfBytes": "20"
					},
					"t_bool": {
						"encoding": "inplace",
						"label": "bool",
						"numberOfBytes": "1"
					},
					"t_mapping(t_address,t_bool)": {
						"encoding": "mapping",
						"key": "t_address",
						"label": "mapping(address => bool)",
						"numberOfBytes": "32",
						"value": "t_bool"
					},
					"t_mapping(t_address,t_mapping(t_address,t_bool))": {
						"encoding": "mapping",
						"key": "t_address",
						"label": "mapping(address => mapping(address => bool))",
						"numberOfBytes": "32",
						"value": "t_mapping(t_address,t_bool)"
					},
					"t_mapping(t_address,t_uint256)": {
						"encoding": "mapping",
						"key": "t_address",
						"label": "mapping(address => uint256)",
						"numberOfBytes": "32",
						"value": "t_uint256"
					},
					"t_mapping(t_uint256,t_address)": {
						"encoding": "mapping",
						"key": "t_uint256",
						"label": "mapping(uint256 => address)",
						"numberOfBytes": "32",
						"value": "t_address"
					},
					"t_mapping(t_uint256,t_string_storage)": {
						"encoding": "mapping",
						"key": "t_uint256",
						"label": "mapping(uint256 => string)",
						"numberOfBytes": "32",
						"value": "t_string_storage"
					},
					"t_string_storage": {
						"encoding": "bytes",
						"label": "string",
						"numberOfBytes": "32"
					},
					"t_uint256": {
						"encoding": "inplace",
						"label": "uint256",
						"numberOfBytes": "32"
					}
				}
			},
			"userdoc": {
				"kind": "user",
				"methods": {},
				"version": 1
			}
		}
	}
}