{
  "_format": "hh-sol-artifact-1",
  "contractName": "MyCredsNFT",
  "sourceName": "contracts/MyCredsNFT.sol",
  "abi": [
    {
      "inputs": [],
      "stateMutability": "nonpayable",
      "type": "constructor"
    },
    {
      "inputs": [
        {
          "internalType": "address",
          "name": "sender",
          "type": "address"
        },
        {
          "internalType": "uint256",
          "name": "tokenId",
          "type": "uint256"
        },
        {
          "internalType": "address",
          "name": "owner",
          "type": "address"
        }
      ],
      "name": "ERC721IncorrectOwner",
      "type": "error"
    },
    {
      "inputs": [
        {
          "internalType": "address",
          "name": "operator",
          "type": "address"
        },
        {
          "internalType": "uint256",
          "name": "tokenId",
          "type": "uint256"
        }
      ],
      "name": "ERC721InsufficientApproval",
      "type": "error"
    },
    {
      "inputs": [
        {
          "internalType": "address",
          "name": "approver",
          "type": "address"
        }
      ],
      "name": "ERC721InvalidApprover",
      "type": "error"
    },
    {
      "inputs": [
        {
          "internalType": "address",
          "name": "operator",
          "type": "address"
        }
      ],
      "name": "ERC721InvalidOperator",
      "type": "error"
    },
    {
      "inputs": [
        {
          "internalType": "address",
          "name": "owner",
          "type": "address"
        }
      ],
      "name": "ERC721InvalidOwner",
      "type": "error"
    },
    {
      "inputs": [
        {
          "internalType": "address",
          "name": "receiver",
          "type": "address"
        }
      ],
      "name": "ERC721InvalidReceiver",
      "type": "error"
    },
    {
      "inputs": [
        {
          "internalType": "address",
          "name": "sender",
          "type": "address"
        }
      ],
      "name": "ERC721InvalidSender",
      "type": "error"
    },
    {
      "inputs": [
        {
          "internalType": "uint256",
          "name": "tokenId",
          "type": "uint256"
        }
      ],
      "name": "ERC721NonexistentToken",
      "type": "error"
    },
    {
      "anonymous": false,
      "inputs": [
        {
          "indexed": true,
          "internalType": "address",
          "name": "owner",
          "type": "address"
        },
        {
          "indexed": true,
          "internalType": "address",
          "name": "approved",
          "type": "address"
        },
        {
          "indexed": true,
          "internalType": "uint256",
          "name": "tokenId",
          "type": "uint256"
        }
      ],
      "name": "Approval",
      "type": "event"
    },
    {
      "anonymous": false,
      "inputs": [
        {
          "indexed": true,
          "internalType": "address",
          "name": "owner",
          "type": "address"
        },
        {
          "indexed": true,
          "internalType": "address",
          "name": "operator",
          "type": "address"
        },
        {
          "indexed": false,
          "internalType": "bool",
          "name": "approved",
          "type": "bool"
        }
      ],
      "name": "ApprovalForAll",
      "type": "event"
    },
    {
      "anonymous": false,
      "inputs": [
        {
          "indexed": false,
          "internalType": "uint256",
          "name": "_fromTokenId",
          "type": "uint256"
        },
        {
          "indexed": false,
          "internalType": "uint256",
          "name": "_toTokenId",
          "type": "uint256"
        }
      ],
      "name": "BatchMetadataUpdate",
      "type": "event"
    },
    {
      "anonymous": false,
      "inputs": [
        {
          "indexed": false,
          "internalType": "uint256",
          "name": "_tokenId",
          "type": "uint256"
        }
      ],
      "name": "MetadataUpdate",
      "type": "event"
    },
    {
      "anonymous": false,
      "inputs": [
        {
          "indexed": true,
          "internalType": "uint256",
          "name": "tokenId",
          "type": "uint256"
        },
        {
          "indexed": false,
          "internalType": "string",
          "name": "tokenURI",
          "type": "string"
        },
        {
          "indexed": false,
          "internalType": "string",
          "name": "jsonData",
          "type": "string"
        }
      ],
      "name": "NFTMinted",
      "type": "event"
    },
    {
      "anonymous": false,
      "inputs": [
        {
          "indexed": true,
          "internalType": "address",
          "name": "from",
          "type": "address"
        },
        {
          "indexed": true,
          "internalType": "address",
          "name": "to",
          "type": "address"
        },
        {
          "indexed": true,
          "internalType": "uint256",
          "name": "tokenId",
          "type": "uint256"
        }
      ],
      "name": "Transfer",
      "type": "event"
    },
    {
      "inputs": [
        {
          "internalType": "address",
          "name": "to",
          "type": "address"
        },
        {
          "internalType": "uint256",
          "name": "tokenId",
          "type": "uint256"
        }
      ],
      "name": "approve",
      "outputs": [],
      "stateMutability": "nonpayable",
      "type": "function"
    },
    {
      "inputs": [
        {
          "internalType": "address",
          "name": "owner",
          "type": "address"
        }
      ],
      "name": "balanceOf",
      "outputs": [
        {
          "internalType": "uint256",
          "name": "",
          "type": "uint256"
        }
      ],
      "stateMutability": "view",
      "type": "function"
    },
    {
      "inputs": [
        {
          "internalType": "uint256",
          "name": "tokenId",
          "type": "uint256"
        }
      ],
      "name": "getApproved",
      "outputs": [
        {
          "internalType": "address",
          "name": "",
          "type": "address"
        }
      ],
      "stateMutability": "view",
      "type": "function"
    },
    {
      "inputs": [
        {
          "internalType": "uint256",
          "name": "_tokenId",
          "type": "uint256"
        }
      ],
      "name": "getTokenJsonData",
      "outputs": [
        {
          "internalType": "string",
          "name": "",
          "type": "string"
        }
      ],
      "stateMutability": "view",
      "type": "function"
    },
    {
      "inputs": [
        {
          "internalType": "address",
          "name": "owner",
          "type": "address"
        },
        {
          "internalType": "address",
          "name": "operator",
          "type": "address"
        }
      ],
      "name": "isApprovedForAll",
      "outputs": [
        {
          "internalType": "bool",
          "name": "",
          "type": "bool"
        }
      ],
      "stateMutability": "view",
      "type": "function"
    },
    {
      "inputs": [
        {
          "internalType": "uint256",
          "name": "_tokenId",
          "type": "uint256"
        },
        {
          "internalType": "string",
          "name": "_tokenURI",
          "type": "string"
        },
        {
          "internalType": "string",
          "name": "_jsonData",
          "type": "string"
        }
      ],
      "name": "mint",
      "outputs": [],
      "stateMutability": "nonpayable",
      "type": "function"
    },
    {
      "inputs": [],
      "name": "name",
      "outputs": [
        {
          "internalType": "string",
          "name": "",
          "type": "string"
        }
      ],
      "stateMutability": "view",
      "type": "function"
    },
    {
      "inputs": [],
      "name": "nextTokenId",
      "outputs": [
        {
          "internalType": "uint256",
          "name": "",
          "type": "uint256"
        }
      ],
      "stateMutability": "view",
      "type": "function"
    },
    {
      "inputs": [
        {
          "internalType": "uint256",
          "name": "tokenId",
          "type": "uint256"
        }
      ],
      "name": "ownerOf",
      "outputs": [
        {
          "internalType": "address",
          "name": "",
          "type": "address"
        }
      ],
      "stateMutability": "view",
      "type": "function"
    },
    {
      "inputs": [
        {
          "internalType": "address",
          "name": "from",
          "type": "address"
        },
        {
          "internalType": "address",
          "name": "to",
          "type": "address"
        },
        {
          "internalType": "uint256",
          "name": "tokenId",
          "type": "uint256"
        }
      ],
      "name": "safeTransferFrom",
      "outputs": [],
      "stateMutability": "nonpayable",
      "type": "function"
    },
    {
      "inputs": [
        {
          "internalType": "address",
          "name": "from",
          "type": "address"
        },
        {
          "internalType": "address",
          "name": "to",
          "type": "address"
        },
        {
          "internalType": "uint256",
          "name": "tokenId",
          "type": "uint256"
        },
        {
          "internalType": "bytes",
          "name": "data",
          "type": "bytes"
        }
      ],
      "name": "safeTransferFrom",
      "outputs": [],
      "stateMutability": "nonpayable",
      "type": "function"
    },
    {
      "inputs": [
        {
          "internalType": "address",
          "name": "operator",
          "type": "address"
        },
        {
          "internalType": "bool",
          "name": "approved",
          "type": "bool"
        }
      ],
      "name": "setApprovalForAll",
      "outputs": [],
      "stateMutability": "nonpayable",
      "type": "function"
    },
    {
      "inputs": [
        {
          "internalType": "bytes4",
          "name": "interfaceId",
          "type": "bytes4"
        }
      ],
      "name": "supportsInterface",
      "outputs": [
        {
          "internalType": "bool",
          "name": "",
          "type": "bool"
        }
      ],
      "stateMutability": "view",
      "type": "function"
    },
    {
      "inputs": [],
      "name": "symbol",
      "outputs": [
        {
          "internalType": "string",
          "name": "",
          "type": "string"
        }
      ],
      "stateMutability": "view",
      "type": "function"
    },
    {
      "inputs": [
        {
          "internalType": "uint256",
          "name": "",
          "type": "uint256"
        }
      ],
      "name": "tokenJsonData",
      "outputs": [
        {
          "internalType": "string",
          "name": "",
          "type": "string"
        }
      ],
      "stateMutability": "view",
      "type": "function"
    },
    {
      "inputs": [
        {
          "internalType": "uint256",
          "name": "tokenId",
          "type": "uint256"
        }
      ],
      "name": "tokenURI",
      "outputs": [
        {
          "internalType": "string",
          "name": "",
          "type": "string"
        }
      ],
      "stateMutability": "view",
      "type": "function"
    },
    {
      "inputs": [
        {
          "internalType": "address",
          "name": "from",
          "type": "address"
        },
        {
          "internalType": "address",
          "name": "to",
          "type": "address"
        },
        {
          "internalType": "uint256",
          "name": "tokenId",
          "type": "uint256"
        }
      ],
      "name": "transferFrom",
      "outputs": [],
      "stateMutability": "nonpayable",
      "type": "function"
    }
  ],
  "bytecode": "0x60806040523480156200001157600080fd5b506040518060400160405280600a81526020017f4d7943726564734e4654000000000000000000000000000000000000000000008152506040518060400160405280600481526020017f4d4e46540000000000000000000000000000000000000000000000000000000081525081600090816200008f919062000324565b508060019081620000a1919062000324565b5050506200040b565b600081519050919050565b7f4e487b7100000000000000000000000000000000000000000000000000000000600052604160045260246000fd5b7f4e487b7100000000000000000000000000000000000000000000000000000000600052602260045260246000fd5b600060028204905060018216806200012c57607f821691505b602082108103620001425762000141620000e4565b5b50919050565b60008190508160005260206000209050919050565b60006020601f8301049050919050565b600082821b905092915050565b600060088302620001ac7fffffffffffffffffffffffffffffffffffffffffffffffffffffffffffffffff826200016d565b620001b886836200016d565b95508019841693508086168417925050509392505050565b6000819050919050565b6000819050919050565b600062000205620001ff620001f984620001d0565b620001da565b620001d0565b9050919050565b6000819050919050565b6200022183620001e4565b6200023962000230826200020c565b8484546200017a565b825550505050565b600090565b6200025062000241565b6200025d81848462000216565b505050565b5b8181101562000285576200027960008262000246565b60018101905062000263565b5050565b601f821115620002d4576200029e8162000148565b620002a9846200015d565b81016020851015620002b9578190505b620002d1620002c8856200015d565b83018262000262565b50505b505050565b600082821c905092915050565b6000620002f960001984600802620002d9565b1980831691505092915050565b6000620003148383620002e6565b9150826002028217905092915050565b6200032f82620000aa565b67ffffffffffffffff8111156200034b576200034a620000b5565b5b62000357825462000113565b6200036482828562000289565b600060209050601f8311600181146200039c576000841562000387578287015190505b62000393858262000306565b86555062000403565b601f198416620003ac8662000148565b60005b82811015620003d657848901518255600182019150602085019450602081019050620003af565b86831015620003f65784890151620003f2601f891682620002e6565b8355505b6001600288020188555050505b505050505050565b612684806200041b6000396000f3fe608060405234801561001057600080fd5b506004361061010b5760003560e01c806370a08231116100a2578063a22cb46511610071578063a22cb465146102ca578063ae74a09e146102e6578063b88d4fde14610316578063c87b56dd14610332578063e985e9c5146103625761010b565b806370a082311461022e57806375794a3c1461025e57806395d89b411461027c5780639a9d1b1d1461029a5761010b565b806323b872dd116100de57806323b872dd146101aa5780632825df7b146101c657806342842e0e146101e25780636352211e146101fe5761010b565b806301ffc9a71461011057806306fdde0314610140578063081812fc1461015e578063095ea7b31461018e575b600080fd5b61012a60048036038101906101259190611a76565b610392565b6040516101379190611abe565b60405180910390f35b6101486103f3565b6040516101559190611b69565b60405180910390f35b61017860048036038101906101739190611bc1565b610485565b6040516101859190611c2f565b60405180910390f35b6101a860048036038101906101a39190611c76565b6104a1565b005b6101c460048036038101906101bf9190611cb6565b6104b7565b005b6101e060048036038101906101db9190611e3e565b6105b9565b005b6101fc60048036038101906101f79190611cb6565b610645565b005b61021860048036038101906102139190611bc1565b610665565b6040516102259190611c2f565b60405180910390f35b61024860048036038101906102439190611ec9565b610677565b6040516102559190611f05565b60405180910390f35b610266610731565b6040516102739190611f05565b60405180910390f35b610284610737565b6040516102919190611b69565b60405180910390f35b6102b460048036038101906102af9190611bc1565b6107c9565b6040516102c19190611b69565b60405180910390f35b6102e460048036038101906102df9190611f4c565b61086e565b005b61030060048036038101906102fb9190611bc1565b610884565b60405161030d9190611b69565b60405180910390f35b610330600480360381019061032b919061202d565b610924565b005b61034c60048036038101906103479190611bc1565b610941565b6040516103599190611b69565b60405180910390f35b61037c600480360381019061037791906120b0565b610a54565b6040516103899190611abe565b60405180910390f35b6000634906490660e01b7bffffffffffffffffffffffffffffffffffffffffffffffffffffffff1916827bffffffffffffffffffffffffffffffffffffffffffffffffffffffff191614806103ec57506103eb82610ae8565b5b9050919050565b6060600080546104029061211f565b80601f016020809104026020016040519081016040528092919081815260200182805461042e9061211f565b801561047b5780601f106104505761010080835404028352916020019161047b565b820191906000526020600020905b81548152906001019060200180831161045e57829003601f168201915b5050505050905090565b600061049082610bca565b5061049a82610c52565b9050919050565b6104b382826104ae610c8f565b610c97565b5050565b600073ffffffffffffffffffffffffffffffffffffffff168273ffffffffffffffffffffffffffffffffffffffff16036105295760006040517f64a0ae920000000000000000000000000000000000000000000000000000000081526004016105209190611c2f565b60405180910390fd5b600061053d8383610538610c8f565b610ca9565b90508373ffffffffffffffffffffffffffffffffffffffff168173ffffffffffffffffffffffffffffffffffffffff16146105b3578382826040517f64283d7b0000000000000000000000000000000000000000000000000000000081526004016105aa93929190612150565b60405180910390fd5b50505050565b6105c33384610ec3565b6105cd8383610ee1565b806008600085815260200190815260200160002090816105ed9190612333565b50827f41606caf4dd304a95df0764afbcc8afb210bf0a49b44e7b00d5f913400c88d388383604051610620929190612405565b60405180910390a26007600081548092919061063b9061246b565b9190505550505050565b61066083838360405180602001604052806000815250610924565b505050565b600061067082610bca565b9050919050565b60008073ffffffffffffffffffffffffffffffffffffffff168273ffffffffffffffffffffffffffffffffffffffff16036106ea5760006040517f89c62b640000000000000000000000000000000000000000000000000000000081526004016106e19190611c2f565b60405180910390fd5b600360008373ffffffffffffffffffffffffffffffffffffffff1673ffffffffffffffffffffffffffffffffffffffff168152602001908152602001600020549050919050565b60075481565b6060600180546107469061211f565b80601f01602080910402602001604051908101604052809291908181526020018280546107729061211f565b80156107bf5780601f10610794576101008083540402835291602001916107bf565b820191906000526020600020905b8154815290600101906020018083116107a257829003601f168201915b5050505050905090565b60606008600083815260200190815260200160002080546107e99061211f565b80601f01602080910402602001604051908101604052809291908181526020018280546108159061211f565b80156108625780601f1061083757610100808354040283529160200191610862565b820191906000526020600020905b81548152906001019060200180831161084557829003601f168201915b50505050509050919050565b610880610879610c8f565b8383610f3d565b5050565b600860205280600052604060002060009150905080546108a39061211f565b80601f01602080910402602001604051908101604052809291908181526020018280546108cf9061211f565b801561091c5780601f106108f15761010080835404028352916020019161091c565b820191906000526020600020905b8154815290600101906020018083116108ff57829003601f168201915b505050505081565b61092f8484846104b7565b61093b848484846110ac565b50505050565b606061094c82610bca565b50600060066000848152602001908152602001600020805461096d9061211f565b80601f01602080910402602001604051908101604052809291908181526020018280546109999061211f565b80156109e65780601f106109bb576101008083540402835291602001916109e6565b820191906000526020600020905b8154815290600101906020018083116109c957829003601f168201915b5050505050905060006109f7611263565b90506000815103610a0c578192505050610a4f565b600082511115610a41578082604051602001610a299291906124ef565b60405160208183030381529060405292505050610a4f565b610a4a8461127a565b925050505b919050565b6000600560008473ffffffffffffffffffffffffffffffffffffffff1673ffffffffffffffffffffffffffffffffffffffff16815260200190815260200160002060008373ffffffffffffffffffffffffffffffffffffffff1673ffffffffffffffffffffffffffffffffffffffff16815260200190815260200160002060009054906101000a900460ff16905092915050565b60007f80ac58cd000000000000000000000000000000000000000000000000000000007bffffffffffffffffffffffffffffffffffffffffffffffffffffffff1916827bffffffffffffffffffffffffffffffffffffffffffffffffffffffff19161480610bb357507f5b5e139f000000000000000000000000000000000000000000000000000000007bffffffffffffffffffffffffffffffffffffffffffffffffffffffff1916827bffffffffffffffffffffffffffffffffffffffffffffffffffffffff1916145b80610bc35750610bc2826112e3565b5b9050919050565b600080610bd68361134d565b9050600073ffffffffffffffffffffffffffffffffffffffff168173ffffffffffffffffffffffffffffffffffffffff1603610c4957826040517f7e273289000000000000000000000000000000000000000000000000000000008152600401610c409190611f05565b60405180910390fd5b80915050919050565b60006004600083815260200190815260200160002060009054906101000a900473ffffffffffffffffffffffffffffffffffffffff169050919050565b600033905090565b610ca4838383600161138a565b505050565b600080610cb58461134d565b9050600073ffffffffffffffffffffffffffffffffffffffff168373ffffffffffffffffffffffffffffffffffffffff1614610cf757610cf681848661154f565b5b600073ffffffffffffffffffffffffffffffffffffffff168173ffffffffffffffffffffffffffffffffffffffff1614610d8857610d3960008560008061138a565b6001600360008373ffffffffffffffffffffffffffffffffffffffff1673ffffffffffffffffffffffffffffffffffffffff168152602001908152602001600020600082825403925050819055505b600073ffffffffffffffffffffffffffffffffffffffff168573ffffffffffffffffffffffffffffffffffffffff1614610e0b576001600360008773ffffffffffffffffffffffffffffffffffffffff1673ffffffffffffffffffffffffffffffffffffffff168152602001908152602001600020600082825401925050819055505b846002600086815260200190815260200160002060006101000a81548173ffffffffffffffffffffffffffffffffffffffff021916908373ffffffffffffffffffffffffffffffffffffffff160217905550838573ffffffffffffffffffffffffffffffffffffffff168273ffffffffffffffffffffffffffffffffffffffff167fddf252ad1be2c89b69c2b068fc378daa952ba7f163c4a11628f55a4df523b3ef60405160405180910390a4809150509392505050565b610edd828260405180602001604052806000815250611613565b5050565b80600660008481526020019081526020016000209081610f019190612333565b507ff8e1a15aba9398e019f0b49df1a4fde98ee17ae345cb5f6b5e2c27f5033e8ce782604051610f319190611f05565b60405180910390a15050565b600073ffffffffffffffffffffffffffffffffffffffff168273ffffffffffffffffffffffffffffffffffffffff1603610fae57816040517f5b08ba18000000000000000000000000000000000000000000000000000000008152600401610fa59190611c2f565b60405180910390fd5b80600560008573ffffffffffffffffffffffffffffffffffffffff1673ffffffffffffffffffffffffffffffffffffffff16815260200190815260200160002060008473ffffffffffffffffffffffffffffffffffffffff1673ffffffffffffffffffffffffffffffffffffffff16815260200190815260200160002060006101000a81548160ff0219169083151502179055508173ffffffffffffffffffffffffffffffffffffffff168373ffffffffffffffffffffffffffffffffffffffff167f17307eab39ab6107e8899845ad3d59bd9653f200f220920489ca2b5937696c318360405161109f9190611abe565b60405180910390a3505050565b60008373ffffffffffffffffffffffffffffffffffffffff163b111561125d578273ffffffffffffffffffffffffffffffffffffffff1663150b7a026110f0610c8f565b8685856040518563ffffffff1660e01b81526004016111129493929190612568565b6020604051808303816000875af192505050801561114e57506040513d601f19601f8201168201806040525081019061114b91906125c9565b60015b6111d2573d806000811461117e576040519150601f19603f3d011682016040523d82523d6000602084013e611183565b606091505b5060008151036111ca57836040517f64a0ae920000000000000000000000000000000000000000000000000000000081526004016111c19190611c2f565b60405180910390fd5b805181602001fd5b63150b7a0260e01b7bffffffffffffffffffffffffffffffffffffffffffffffffffffffff1916817bffffffffffffffffffffffffffffffffffffffffffffffffffffffff19161461125b57836040517f64a0ae920000000000000000000000000000000000000000000000000000000081526004016112529190611c2f565b60405180910390fd5b505b50505050565b606060405180602001604052806000815250905090565b606061128582610bca565b506000611290611263565b905060008151116112b057604051806020016040528060008152506112db565b806112ba8461162f565b6040516020016112cb9291906124ef565b6040516020818303038152906040525b915050919050565b60007f01ffc9a7000000000000000000000000000000000000000000000000000000007bffffffffffffffffffffffffffffffffffffffffffffffffffffffff1916827bffffffffffffffffffffffffffffffffffffffffffffffffffffffff1916149050919050565b60006002600083815260200190815260200160002060009054906101000a900473ffffffffffffffffffffffffffffffffffffffff169050919050565b80806113c35750600073ffffffffffffffffffffffffffffffffffffffff168273ffffffffffffffffffffffffffffffffffffffff1614155b156114f75760006113d384610bca565b9050600073ffffffffffffffffffffffffffffffffffffffff168373ffffffffffffffffffffffffffffffffffffffff161415801561143e57508273ffffffffffffffffffffffffffffffffffffffff168173ffffffffffffffffffffffffffffffffffffffff1614155b8015611451575061144f8184610a54565b155b1561149357826040517fa9fbf51f00000000000000000000000000000000000000000000000000000000815260040161148a9190611c2f565b60405180910390fd5b81156114f557838573ffffffffffffffffffffffffffffffffffffffff168273ffffffffffffffffffffffffffffffffffffffff167f8c5be1e5ebec7d5bd14f71427d1e84f3dd0314c0f7b2291e5b200ac8c7c3b92560405160405180910390a45b505b836004600085815260200190815260200160002060006101000a81548173ffffffffffffffffffffffffffffffffffffffff021916908373ffffffffffffffffffffffffffffffffffffffff16021790555050505050565b61155a8383836116fd565b61160e57600073ffffffffffffffffffffffffffffffffffffffff168373ffffffffffffffffffffffffffffffffffffffff16036115cf57806040517f7e2732890000000000000000000000000000000000000000000000000000000081526004016115c69190611f05565b60405180910390fd5b81816040517f177e802f0000000000000000000000000000000000000000000000000000000081526004016116059291906125f6565b60405180910390fd5b505050565b61161d83836117be565b61162a60008484846110ac565b505050565b60606000600161163e846118b7565b01905060008167ffffffffffffffff81111561165d5761165c611d13565b5b6040519080825280601f01601f19166020018201604052801561168f5781602001600182028036833780820191505090505b509050600082602001820190505b6001156116f2578080600190039150507f3031323334353637383961626364656600000000000000000000000000000000600a86061a8153600a85816116e6576116e561261f565b5b0494506000850361169d575b819350505050919050565b60008073ffffffffffffffffffffffffffffffffffffffff168373ffffffffffffffffffffffffffffffffffffffff16141580156117b557508273ffffffffffffffffffffffffffffffffffffffff168473ffffffffffffffffffffffffffffffffffffffff16148061177657506117758484610a54565b5b806117b457508273ffffffffffffffffffffffffffffffffffffffff1661179c83610c52565b73ffffffffffffffffffffffffffffffffffffffff16145b5b90509392505050565b600073ffffffffffffffffffffffffffffffffffffffff168273ffffffffffffffffffffffffffffffffffffffff16036118305760006040517f64a0ae920000000000000000000000000000000000000000000000000000000081526004016118279190611c2f565b60405180910390fd5b600061183e83836000610ca9565b9050600073ffffffffffffffffffffffffffffffffffffffff168173ffffffffffffffffffffffffffffffffffffffff16146118b25760006040517f73c6ac6e0000000000000000000000000000000000000000000000000000000081526004016118a99190611c2f565b60405180910390fd5b505050565b600080600090507a184f03e93ff9f4daa797ed6e38ed64bf6a1f0100000000000000008310611915577a184f03e93ff9f4daa797ed6e38ed64bf6a1f010000000000000000838161190b5761190a61261f565b5b0492506040810190505b6d04ee2d6d415b85acef81000000008310611952576d04ee2d6d415b85acef810000000083816119485761194761261f565b5b0492506020810190505b662386f26fc10000831061198157662386f26fc1000083816119775761197661261f565b5b0492506010810190505b6305f5e10083106119aa576305f5e10083816119a05761199f61261f565b5b0492506008810190505b61271083106119cf5761271083816119c5576119c461261f565b5b0492506004810190505b606483106119f257606483816119e8576119e761261f565b5b0492506002810190505b600a8310611a01576001810190505b80915050919050565b6000604051905090565b600080fd5b600080fd5b60007fffffffff0000000000000000000000000000000000000000000000000000000082169050919050565b611a5381611a1e565b8114611a5e57600080fd5b50565b600081359050611a7081611a4a565b92915050565b600060208284031215611a8c57611a8b611a14565b5b6000611a9a84828501611a61565b91505092915050565b60008115159050919050565b611ab881611aa3565b82525050565b6000602082019050611ad36000830184611aaf565b92915050565b600081519050919050565b600082825260208201905092915050565b60005b83811015611b13578082015181840152602081019050611af8565b60008484015250505050565b6000601f19601f8301169050919050565b6000611b3b82611ad9565b611b458185611ae4565b9350611b55818560208601611af5565b611b5e81611b1f565b840191505092915050565b60006020820190508181036000830152611b838184611b30565b905092915050565b6000819050919050565b611b9e81611b8b565b8114611ba957600080fd5b50565b600081359050611bbb81611b95565b92915050565b600060208284031215611bd757611bd6611a14565b5b6000611be584828501611bac565b91505092915050565b600073ffffffffffffffffffffffffffffffffffffffff82169050919050565b6000611c1982611bee565b9050919050565b611c2981611c0e565b82525050565b6000602082019050611c446000830184611c20565b92915050565b611c5381611c0e565b8114611c5e57600080fd5b50565b600081359050611c7081611c4a565b92915050565b60008060408385031215611c8d57611c8c611a14565b5b6000611c9b85828601611c61565b9250506020611cac85828601611bac565b9150509250929050565b600080600060608486031215611ccf57611cce611a14565b5b6000611cdd86828701611c61565b9350506020611cee86828701611c61565b9250506040611cff86828701611bac565b9150509250925092565b600080fd5b600080fd5b7f4e487b7100000000000000000000000000000000000000000000000000000000600052604160045260246000fd5b611d4b82611b1f565b810181811067ffffffffffffffff82111715611d6a57611d69611d13565b5b80604052505050565b6000611d7d611a0a565b9050611d898282611d42565b919050565b600067ffffffffffffffff821115611da957611da8611d13565b5b611db282611b1f565b9050602081019050919050565b82818337600083830152505050565b6000611de1611ddc84611d8e565b611d73565b905082815260208101848484011115611dfd57611dfc611d0e565b5b611e08848285611dbf565b509392505050565b600082601f830112611e2557611e24611d09565b5b8135611e35848260208601611dce565b91505092915050565b600080600060608486031215611e5757611e56611a14565b5b6000611e6586828701611bac565b935050602084013567ffffffffffffffff811115611e8657611e85611a19565b5b611e9286828701611e10565b925050604084013567ffffffffffffffff811115611eb357611eb2611a19565b5b611ebf86828701611e10565b9150509250925092565b600060208284031215611edf57611ede611a14565b5b6000611eed84828501611c61565b91505092915050565b611eff81611b8b565b82525050565b6000602082019050611f1a6000830184611ef6565b92915050565b611f2981611aa3565b8114611f3457600080fd5b50565b600081359050611f4681611f20565b92915050565b60008060408385031215611f6357611f62611a14565b5b6000611f7185828601611c61565b9250506020611f8285828601611f37565b9150509250929050565b600067ffffffffffffffff821115611fa757611fa6611d13565b5b611fb082611b1f565b9050602081019050919050565b6000611fd0611fcb84611f8c565b611d73565b905082815260208101848484011115611fec57611feb611d0e565b5b611ff7848285611dbf565b509392505050565b600082601f83011261201457612013611d09565b5b8135612024848260208601611fbd565b91505092915050565b6000806000806080858703121561204757612046611a14565b5b600061205587828801611c61565b945050602061206687828801611c61565b935050604061207787828801611bac565b925050606085013567ffffffffffffffff81111561209857612097611a19565b5b6120a487828801611fff565b91505092959194509250565b600080604083850312156120c7576120c6611a14565b5b60006120d585828601611c61565b92505060206120e685828601611c61565b9150509250929050565b7f4e487b7100000000000000000000000000000000000000000000000000000000600052602260045260246000fd5b6000600282049050600182168061213757607f821691505b60208210810361214a576121496120f0565b5b50919050565b60006060820190506121656000830186611c20565b6121726020830185611ef6565b61217f6040830184611c20565b949350505050565b60008190508160005260206000209050919050565b60006020601f8301049050919050565b600082821b905092915050565b6000600883026121e97fffffffffffffffffffffffffffffffffffffffffffffffffffffffffffffffff826121ac565b6121f386836121ac565b95508019841693508086168417925050509392505050565b6000819050919050565b600061223061222b61222684611b8b565b61220b565b611b8b565b9050919050565b6000819050919050565b61224a83612215565b61225e61225682612237565b8484546121b9565b825550505050565b600090565b612273612266565b61227e818484612241565b505050565b5b818110156122a25761229760008261226b565b600181019050612284565b5050565b601f8211156122e7576122b881612187565b6122c18461219c565b810160208510156122d0578190505b6122e46122dc8561219c565b830182612283565b50505b505050565b600082821c905092915050565b600061230a600019846008026122ec565b1980831691505092915050565b600061232383836122f9565b9150826002028217905092915050565b61233c82611ad9565b67ffffffffffffffff81111561235557612354611d13565b5b61235f825461211f565b61236a8282856122a6565b600060209050601f83116001811461239d576000841561238b578287015190505b6123958582612317565b8655506123fd565b601f1984166123ab86612187565b60005b828110156123d3578489015182556001820191506020850194506020810190506123ae565b868310156123f057848901516123ec601f8916826122f9565b8355505b6001600288020188555050505b505050505050565b6000604082019050818103600083015261241f8185611b30565b905081810360208301526124338184611b30565b90509392505050565b7f4e487b7100000000000000000000000000000000000000000000000000000000600052601160045260246000fd5b600061247682611b8b565b91507fffffffffffffffffffffffffffffffffffffffffffffffffffffffffffffffff82036124a8576124a761243c565b5b600182019050919050565b600081905092915050565b60006124c982611ad9565b6124d381856124b3565b93506124e3818560208601611af5565b80840191505092915050565b60006124fb82856124be565b915061250782846124be565b91508190509392505050565b600081519050919050565b600082825260208201905092915050565b600061253a82612513565b612544818561251e565b9350612554818560208601611af5565b61255d81611b1f565b840191505092915050565b600060808201905061257d6000830187611c20565b61258a6020830186611c20565b6125976040830185611ef6565b81810360608301526125a9818461252f565b905095945050505050565b6000815190506125c381611a4a565b92915050565b6000602082840312156125df576125de611a14565b5b60006125ed848285016125b4565b91505092915050565b600060408201905061260b6000830185611c20565b6126186020830184611ef6565b9392505050565b7f4e487b7100000000000000000000000000000000000000000000000000000000600052601260045260246000fdfea2646970667358221220526c8408c32df2fd8ab3e73bd536ce7aee72ed36dc152f8f5ade57289592946164736f6c63430008140033",
  "linkReferences": {},
  "deployedLinkReferences": {}
}