{
  "_format": "hh-sol-artifact-1",
  "contractName": "MyCredsNFT",
  "sourceName": "contracts/MyCredsNFT.sol",
  "abi": [
    {
      "inputs": [],
      "stateMutability": "nonpayable",
      "type": "constructor"
    },
    {
      "inputs": [
        {
          "internalType": "address",
          "name": "sender",
          "type": "address"
        },
        {
          "internalType": "uint256",
          "name": "tokenId",
          "type": "uint256"
        },
        {
          "internalType": "address",
          "name": "owner",
          "type": "address"
        }
      ],
      "name": "ERC721IncorrectOwner",
      "type": "error"
    },
    {
      "inputs": [
        {
          "internalType": "address",
          "name": "operator",
          "type": "address"
        },
        {
          "internalType": "uint256",
          "name": "tokenId",
          "type": "uint256"
        }
      ],
      "name": "ERC721InsufficientApproval",
      "type": "error"
    },
    {
      "inputs": [
        {
          "internalType": "address",
          "name": "approver",
          "type": "address"
        }
      ],
      "name": "ERC721InvalidApprover",
      "type": "error"
    },
    {
      "inputs": [
        {
          "internalType": "address",
          "name": "operator",
          "type": "address"
        }
      ],
      "name": "ERC721InvalidOperator",
      "type": "error"
    },
    {
      "inputs": [
        {
          "internalType": "address",
          "name": "owner",
          "type": "address"
        }
      ],
      "name": "ERC721InvalidOwner",
      "type": "error"
    },
    {
      "inputs": [
        {
          "internalType": "address",
          "name": "receiver",
          "type": "address"
        }
      ],
      "name": "ERC721InvalidReceiver",
      "type": "error"
    },
    {
      "inputs": [
        {
          "internalType": "address",
          "name": "sender",
          "type": "address"
        }
      ],
      "name": "ERC721InvalidSender",
      "type": "error"
    },
    {
      "inputs": [
        {
          "internalType": "uint256",
          "name": "tokenId",
          "type": "uint256"
        }
      ],
      "name": "ERC721NonexistentToken",
      "type": "error"
    },
    {
      "inputs": [
        {
          "internalType": "address",
          "name": "owner",
          "type": "address"
        }
      ],
      "name": "OwnableInvalidOwner",
      "type": "error"
    },
    {
      "inputs": [
        {
          "internalType": "address",
          "name": "account",
          "type": "address"
        }
      ],
      "name": "OwnableUnauthorizedAccount",
      "type": "error"
    },
    {
      "anonymous": false,
      "inputs": [
        {
          "indexed": true,
          "internalType": "address",
          "name": "owner",
          "type": "address"
        },
        {
          "indexed": true,
          "internalType": "address",
          "name": "approved",
          "type": "address"
        },
        {
          "indexed": true,
          "internalType": "uint256",
          "name": "tokenId",
          "type": "uint256"
        }
      ],
      "name": "Approval",
      "type": "event"
    },
    {
      "anonymous": false,
      "inputs": [
        {
          "indexed": true,
          "internalType": "address",
          "name": "owner",
          "type": "address"
        },
        {
          "indexed": true,
          "internalType": "address",
          "name": "operator",
          "type": "address"
        },
        {
          "indexed": false,
          "internalType": "bool",
          "name": "approved",
          "type": "bool"
        }
      ],
      "name": "ApprovalForAll",
      "type": "event"
    },
    {
      "anonymous": false,
      "inputs": [
        {
          "indexed": false,
          "internalType": "uint256",
          "name": "_fromTokenId",
          "type": "uint256"
        },
        {
          "indexed": false,
          "internalType": "uint256",
          "name": "_toTokenId",
          "type": "uint256"
        }
      ],
      "name": "BatchMetadataUpdate",
      "type": "event"
    },
    {
      "anonymous": false,
      "inputs": [
        {
          "indexed": false,
          "internalType": "uint256",
          "name": "_tokenId",
          "type": "uint256"
        }
      ],
      "name": "MetadataUpdate",
      "type": "event"
    },
    {
      "anonymous": false,
      "inputs": [
        {
          "indexed": true,
          "internalType": "address",
          "name": "previousOwner",
          "type": "address"
        },
        {
          "indexed": true,
          "internalType": "address",
          "name": "newOwner",
          "type": "address"
        }
      ],
      "name": "OwnershipTransferred",
      "type": "event"
    },
    {
      "anonymous": false,
      "inputs": [
        {
          "indexed": true,
          "internalType": "address",
          "name": "from",
          "type": "address"
        },
        {
          "indexed": true,
          "internalType": "address",
          "name": "to",
          "type": "address"
        },
        {
          "indexed": true,
          "internalType": "uint256",
          "name": "tokenId",
          "type": "uint256"
        }
      ],
      "name": "Transfer",
      "type": "event"
    },
    {
      "inputs": [
        {
          "internalType": "address",
          "name": "to",
          "type": "address"
        },
        {
          "internalType": "uint256",
          "name": "tokenId",
          "type": "uint256"
        }
      ],
      "name": "approve",
      "outputs": [],
      "stateMutability": "nonpayable",
      "type": "function"
    },
    {
      "inputs": [
        {
          "internalType": "address",
          "name": "owner",
          "type": "address"
        }
      ],
      "name": "balanceOf",
      "outputs": [
        {
          "internalType": "uint256",
          "name": "",
          "type": "uint256"
        }
      ],
      "stateMutability": "view",
      "type": "function"
    },
    {
      "inputs": [
        {
          "internalType": "uint256",
          "name": "tokenId",
          "type": "uint256"
        }
      ],
      "name": "getApproved",
      "outputs": [
        {
          "internalType": "address",
          "name": "",
          "type": "address"
        }
      ],
      "stateMutability": "view",
      "type": "function"
    },
    {
      "inputs": [
        {
          "internalType": "address",
          "name": "owner",
          "type": "address"
        },
        {
          "internalType": "address",
          "name": "operator",
          "type": "address"
        }
      ],
      "name": "isApprovedForAll",
      "outputs": [
        {
          "internalType": "bool",
          "name": "",
          "type": "bool"
        }
      ],
      "stateMutability": "view",
      "type": "function"
    },
    {
      "inputs": [
        {
          "internalType": "string",
          "name": "_tokenURI",
          "type": "string"
        }
      ],
      "name": "mint",
      "outputs": [],
      "stateMutability": "nonpayable",
      "type": "function"
    },
    {
      "inputs": [],
      "name": "name",
      "outputs": [
        {
          "internalType": "string",
          "name": "",
          "type": "string"
        }
      ],
      "stateMutability": "view",
      "type": "function"
    },
    {
      "inputs": [],
      "name": "nextTokenId",
      "outputs": [
        {
          "internalType": "uint256",
          "name": "",
          "type": "uint256"
        }
      ],
      "stateMutability": "view",
      "type": "function"
    },
    {
      "inputs": [],
      "name": "owner",
      "outputs": [
        {
          "internalType": "address",
          "name": "",
          "type": "address"
        }
      ],
      "stateMutability": "view",
      "type": "function"
    },
    {
      "inputs": [
        {
          "internalType": "uint256",
          "name": "tokenId",
          "type": "uint256"
        }
      ],
      "name": "ownerOf",
      "outputs": [
        {
          "internalType": "address",
          "name": "",
          "type": "address"
        }
      ],
      "stateMutability": "view",
      "type": "function"
    },
    {
      "inputs": [],
      "name": "renounceOwnership",
      "outputs": [],
      "stateMutability": "nonpayable",
      "type": "function"
    },
    {
      "inputs": [
        {
          "internalType": "address",
          "name": "from",
          "type": "address"
        },
        {
          "internalType": "address",
          "name": "to",
          "type": "address"
        },
        {
          "internalType": "uint256",
          "name": "tokenId",
          "type": "uint256"
        }
      ],
      "name": "safeTransferFrom",
      "outputs": [],
      "stateMutability": "nonpayable",
      "type": "function"
    },
    {
      "inputs": [
        {
          "internalType": "address",
          "name": "from",
          "type": "address"
        },
        {
          "internalType": "address",
          "name": "to",
          "type": "address"
        },
        {
          "internalType": "uint256",
          "name": "tokenId",
          "type": "uint256"
        },
        {
          "internalType": "bytes",
          "name": "data",
          "type": "bytes"
        }
      ],
      "name": "safeTransferFrom",
      "outputs": [],
      "stateMutability": "nonpayable",
      "type": "function"
    },
    {
      "inputs": [
        {
          "internalType": "address",
          "name": "operator",
          "type": "address"
        },
        {
          "internalType": "bool",
          "name": "approved",
          "type": "bool"
        }
      ],
      "name": "setApprovalForAll",
      "outputs": [],
      "stateMutability": "nonpayable",
      "type": "function"
    },
    {
      "inputs": [
        {
          "internalType": "bytes4",
          "name": "interfaceId",
          "type": "bytes4"
        }
      ],
      "name": "supportsInterface",
      "outputs": [
        {
          "internalType": "bool",
          "name": "",
          "type": "bool"
        }
      ],
      "stateMutability": "view",
      "type": "function"
    },
    {
      "inputs": [],
      "name": "symbol",
      "outputs": [
        {
          "internalType": "string",
          "name": "",
          "type": "string"
        }
      ],
      "stateMutability": "view",
      "type": "function"
    },
    {
      "inputs": [
        {
          "internalType": "uint256",
          "name": "tokenId",
          "type": "uint256"
        }
      ],
      "name": "tokenURI",
      "outputs": [
        {
          "internalType": "string",
          "name": "",
          "type": "string"
        }
      ],
      "stateMutability": "view",
      "type": "function"
    },
    {
      "inputs": [
        {
          "internalType": "address",
          "name": "from",
          "type": "address"
        },
        {
          "internalType": "address",
          "name": "to",
          "type": "address"
        },
        {
          "internalType": "uint256",
          "name": "tokenId",
          "type": "uint256"
        }
      ],
      "name": "transferFrom",
      "outputs": [],
      "stateMutability": "nonpayable",
      "type": "function"
    },
    {
      "inputs": [
        {
          "internalType": "address",
          "name": "newOwner",
          "type": "address"
        }
      ],
      "name": "transferOwnership",
      "outputs": [],
      "stateMutability": "nonpayable",
      "type": "function"
    }
  ],
  "bytecode": "0x60806040523480156200001157600080fd5b50336040518060400160405280600a81526020017f4d7943726564734e4654000000000000000000000000000000000000000000008152506040518060400160405280600481526020017f4d4e465400000000000000000000000000000000000000000000000000000000815250816000908162000090919062000472565b508060019081620000a2919062000472565b505050600073ffffffffffffffffffffffffffffffffffffffff168173ffffffffffffffffffffffffffffffffffffffff16036200011a5760006040517f1e4fbdf70000000000000000000000000000000000000000000000000000000081526004016200011191906200059e565b60405180910390fd5b6200012b816200013260201b60201c565b50620005bb565b6000600760009054906101000a900473ffffffffffffffffffffffffffffffffffffffff16905081600760006101000a81548173ffffffffffffffffffffffffffffffffffffffff021916908373ffffffffffffffffffffffffffffffffffffffff1602179055508173ffffffffffffffffffffffffffffffffffffffff168173ffffffffffffffffffffffffffffffffffffffff167f8be0079c531659141344cd1fd0a4f28419497f9722a3daafe3b4186f6b6457e060405160405180910390a35050565b600081519050919050565b7f4e487b7100000000000000000000000000000000000000000000000000000000600052604160045260246000fd5b7f4e487b7100000000000000000000000000000000000000000000000000000000600052602260045260246000fd5b600060028204905060018216806200027a57607f821691505b60208210810362000290576200028f62000232565b5b50919050565b60008190508160005260206000209050919050565b60006020601f8301049050919050565b600082821b905092915050565b600060088302620002fa7fffffffffffffffffffffffffffffffffffffffffffffffffffffffffffffffff82620002bb565b620003068683620002bb565b95508019841693508086168417925050509392505050565b6000819050919050565b6000819050919050565b6000620003536200034d62000347846200031e565b62000328565b6200031e565b9050919050565b6000819050919050565b6200036f8362000332565b620003876200037e826200035a565b848454620002c8565b825550505050565b600090565b6200039e6200038f565b620003ab81848462000364565b505050565b5b81811015620003d357620003c760008262000394565b600181019050620003b1565b5050565b601f8211156200042257620003ec8162000296565b620003f784620002ab565b8101602085101562000407578190505b6200041f6200041685620002ab565b830182620003b0565b50505b505050565b600082821c905092915050565b6000620004476000198460080262000427565b1980831691505092915050565b600062000462838362000434565b9150826002028217905092915050565b6200047d82620001f8565b67ffffffffffffffff81111562000499576200049862000203565b5b620004a5825462000261565b620004b2828285620003d7565b600060209050601f831160018114620004ea5760008415620004d5578287015190505b620004e1858262000454565b86555062000551565b601f198416620004fa8662000296565b60005b828110156200052457848901518255600182019150602085019450602081019050620004fd565b8683101562000544578489015162000540601f89168262000434565b8355505b6001600288020188555050505b505050505050565b600073ffffffffffffffffffffffffffffffffffffffff82169050919050565b6000620005868262000559565b9050919050565b620005988162000579565b82525050565b6000602082019050620005b560008301846200058d565b92915050565b61267580620005cb6000396000f3fe608060405234801561001057600080fd5b50600436106101165760003560e01c806375794a3c116100a2578063b88d4fde11610071578063b88d4fde146102cd578063c87b56dd146102e9578063d85d3d2714610319578063e985e9c514610335578063f2fde38b1461036557610116565b806375794a3c146102575780638da5cb5b1461027557806395d89b4114610293578063a22cb465146102b157610116565b806323b872dd116100e957806323b872dd146101b557806342842e0e146101d15780636352211e146101ed57806370a082311461021d578063715018a61461024d57610116565b806301ffc9a71461011b57806306fdde031461014b578063081812fc14610169578063095ea7b314610199575b600080fd5b61013560048036038101906101309190611ae0565b610381565b6040516101429190611b28565b60405180910390f35b6101536103e2565b6040516101609190611bd3565b60405180910390f35b610183600480360381019061017e9190611c2b565b610474565b6040516101909190611c99565b60405180910390f35b6101b360048036038101906101ae9190611ce0565b610490565b005b6101cf60048036038101906101ca9190611d20565b6104a6565b005b6101eb60048036038101906101e69190611d20565b6105a8565b005b61020760048036038101906102029190611c2b565b6105c8565b6040516102149190611c99565b60405180910390f35b61023760048036038101906102329190611d73565b6105da565b6040516102449190611daf565b60405180910390f35b610255610694565b005b61025f6106a8565b60405161026c9190611daf565b60405180910390f35b61027d6106ae565b60405161028a9190611c99565b60405180910390f35b61029b6106d8565b6040516102a89190611bd3565b60405180910390f35b6102cb60048036038101906102c69190611df6565b61076a565b005b6102e760048036038101906102e29190611f6b565b610780565b005b61030360048036038101906102fe9190611c2b565b61079d565b6040516103109190611bd3565b60405180910390f35b610333600480360381019061032e919061208f565b6108b0565b005b61034f600480360381019061034a91906120d8565b6108eb565b60405161035c9190611b28565b60405180910390f35b61037f600480360381019061037a9190611d73565b61097f565b005b6000634906490660e01b7bffffffffffffffffffffffffffffffffffffffffffffffffffffffff1916827bffffffffffffffffffffffffffffffffffffffffffffffffffffffff191614806103db57506103da82610a05565b5b9050919050565b6060600080546103f190612147565b80601f016020809104026020016040519081016040528092919081815260200182805461041d90612147565b801561046a5780601f1061043f5761010080835404028352916020019161046a565b820191906000526020600020905b81548152906001019060200180831161044d57829003601f168201915b5050505050905090565b600061047f82610ae7565b5061048982610b6f565b9050919050565b6104a2828261049d610bac565b610bb4565b5050565b600073ffffffffffffffffffffffffffffffffffffffff168273ffffffffffffffffffffffffffffffffffffffff16036105185760006040517f64a0ae9200000000000000000000000000000000000000000000000000000000815260040161050f9190611c99565b60405180910390fd5b600061052c8383610527610bac565b610bc6565b90508373ffffffffffffffffffffffffffffffffffffffff168173ffffffffffffffffffffffffffffffffffffffff16146105a2578382826040517f64283d7b00000000000000000000000000000000000000000000000000000000815260040161059993929190612178565b60405180910390fd5b50505050565b6105c383838360405180602001604052806000815250610780565b505050565b60006105d382610ae7565b9050919050565b60008073ffffffffffffffffffffffffffffffffffffffff168273ffffffffffffffffffffffffffffffffffffffff160361064d5760006040517f89c62b640000000000000000000000000000000000000000000000000000000081526004016106449190611c99565b60405180910390fd5b600360008373ffffffffffffffffffffffffffffffffffffffff1673ffffffffffffffffffffffffffffffffffffffff168152602001908152602001600020549050919050565b61069c610de0565b6106a66000610e67565b565b60085481565b6000600760009054906101000a900473ffffffffffffffffffffffffffffffffffffffff16905090565b6060600180546106e790612147565b80601f016020809104026020016040519081016040528092919081815260200182805461071390612147565b80156107605780601f1061073557610100808354040283529160200191610760565b820191906000526020600020905b81548152906001019060200180831161074357829003601f168201915b5050505050905090565b61077c610775610bac565b8383610f2d565b5050565b61078b8484846104a6565b6107978484848461109c565b50505050565b60606107a882610ae7565b5060006006600084815260200190815260200160002080546107c990612147565b80601f01602080910402602001604051908101604052809291908181526020018280546107f590612147565b80156108425780601f1061081757610100808354040283529160200191610842565b820191906000526020600020905b81548152906001019060200180831161082557829003601f168201915b505050505090506000610853611253565b905060008151036108685781925050506108ab565b60008251111561089d5780826040516020016108859291906121eb565b604051602081830303815290604052925050506108ab565b6108a68461126a565b925050505b919050565b6108b8610de0565b6108c4336008546112d3565b6108d0600854826112f1565b600860008154809291906108e39061223e565b919050555050565b6000600560008473ffffffffffffffffffffffffffffffffffffffff1673ffffffffffffffffffffffffffffffffffffffff16815260200190815260200160002060008373ffffffffffffffffffffffffffffffffffffffff1673ffffffffffffffffffffffffffffffffffffffff16815260200190815260200160002060009054906101000a900460ff16905092915050565b610987610de0565b600073ffffffffffffffffffffffffffffffffffffffff168173ffffffffffffffffffffffffffffffffffffffff16036109f95760006040517f1e4fbdf70000000000000000000000000000000000000000000000000000000081526004016109f09190611c99565b60405180910390fd5b610a0281610e67565b50565b60007f80ac58cd000000000000000000000000000000000000000000000000000000007bffffffffffffffffffffffffffffffffffffffffffffffffffffffff1916827bffffffffffffffffffffffffffffffffffffffffffffffffffffffff19161480610ad057507f5b5e139f000000000000000000000000000000000000000000000000000000007bffffffffffffffffffffffffffffffffffffffffffffffffffffffff1916827bffffffffffffffffffffffffffffffffffffffffffffffffffffffff1916145b80610ae05750610adf8261134d565b5b9050919050565b600080610af3836113b7565b9050600073ffffffffffffffffffffffffffffffffffffffff168173ffffffffffffffffffffffffffffffffffffffff1603610b6657826040517f7e273289000000000000000000000000000000000000000000000000000000008152600401610b5d9190611daf565b60405180910390fd5b80915050919050565b60006004600083815260200190815260200160002060009054906101000a900473ffffffffffffffffffffffffffffffffffffffff169050919050565b600033905090565b610bc183838360016113f4565b505050565b600080610bd2846113b7565b9050600073ffffffffffffffffffffffffffffffffffffffff168373ffffffffffffffffffffffffffffffffffffffff1614610c1457610c138184866115b9565b5b600073ffffffffffffffffffffffffffffffffffffffff168173ffffffffffffffffffffffffffffffffffffffff1614610ca557610c566000856000806113f4565b6001600360008373ffffffffffffffffffffffffffffffffffffffff1673ffffffffffffffffffffffffffffffffffffffff168152602001908152602001600020600082825403925050819055505b600073ffffffffffffffffffffffffffffffffffffffff168573ffffffffffffffffffffffffffffffffffffffff1614610d28576001600360008773ffffffffffffffffffffffffffffffffffffffff1673ffffffffffffffffffffffffffffffffffffffff168152602001908152602001600020600082825401925050819055505b846002600086815260200190815260200160002060006101000a81548173ffffffffffffffffffffffffffffffffffffffff021916908373ffffffffffffffffffffffffffffffffffffffff160217905550838573ffffffffffffffffffffffffffffffffffffffff168273ffffffffffffffffffffffffffffffffffffffff167fddf252ad1be2c89b69c2b068fc378daa952ba7f163c4a11628f55a4df523b3ef60405160405180910390a4809150509392505050565b610de8610bac565b73ffffffffffffffffffffffffffffffffffffffff16610e066106ae565b73ffffffffffffffffffffffffffffffffffffffff1614610e6557610e29610bac565b6040517f118cdaa7000000000000000000000000000000000000000000000000000000008152600401610e5c9190611c99565b60405180910390fd5b565b6000600760009054906101000a900473ffffffffffffffffffffffffffffffffffffffff16905081600760006101000a81548173ffffffffffffffffffffffffffffffffffffffff021916908373ffffffffffffffffffffffffffffffffffffffff1602179055508173ffffffffffffffffffffffffffffffffffffffff168173ffffffffffffffffffffffffffffffffffffffff167f8be0079c531659141344cd1fd0a4f28419497f9722a3daafe3b4186f6b6457e060405160405180910390a35050565b600073ffffffffffffffffffffffffffffffffffffffff168273ffffffffffffffffffffffffffffffffffffffff1603610f9e57816040517f5b08ba18000000000000000000000000000000000000000000000000000000008152600401610f959190611c99565b60405180910390fd5b80600560008573ffffffffffffffffffffffffffffffffffffffff1673ffffffffffffffffffffffffffffffffffffffff16815260200190815260200160002060008473ffffffffffffffffffffffffffffffffffffffff1673ffffffffffffffffffffffffffffffffffffffff16815260200190815260200160002060006101000a81548160ff0219169083151502179055508173ffffffffffffffffffffffffffffffffffffffff168373ffffffffffffffffffffffffffffffffffffffff167f17307eab39ab6107e8899845ad3d59bd9653f200f220920489ca2b5937696c318360405161108f9190611b28565b60405180910390a3505050565b60008373ffffffffffffffffffffffffffffffffffffffff163b111561124d578273ffffffffffffffffffffffffffffffffffffffff1663150b7a026110e0610bac565b8685856040518563ffffffff1660e01b815260040161110294939291906122db565b6020604051808303816000875af192505050801561113e57506040513d601f19601f8201168201806040525081019061113b919061233c565b60015b6111c2573d806000811461116e576040519150601f19603f3d011682016040523d82523d6000602084013e611173565b606091505b5060008151036111ba57836040517f64a0ae920000000000000000000000000000000000000000000000000000000081526004016111b19190611c99565b60405180910390fd5b805181602001fd5b63150b7a0260e01b7bffffffffffffffffffffffffffffffffffffffffffffffffffffffff1916817bffffffffffffffffffffffffffffffffffffffffffffffffffffffff19161461124b57836040517f64a0ae920000000000000000000000000000000000000000000000000000000081526004016112429190611c99565b60405180910390fd5b505b50505050565b606060405180602001604052806000815250905090565b606061127582610ae7565b506000611280611253565b905060008151116112a057604051806020016040528060008152506112cb565b806112aa8461167d565b6040516020016112bb9291906121eb565b6040516020818303038152906040525b915050919050565b6112ed82826040518060200160405280600081525061174b565b5050565b806006600084815260200190815260200160002090816113119190612515565b507ff8e1a15aba9398e019f0b49df1a4fde98ee17ae345cb5f6b5e2c27f5033e8ce7826040516113419190611daf565b60405180910390a15050565b60007f01ffc9a7000000000000000000000000000000000000000000000000000000007bffffffffffffffffffffffffffffffffffffffffffffffffffffffff1916827bffffffffffffffffffffffffffffffffffffffffffffffffffffffff1916149050919050565b60006002600083815260200190815260200160002060009054906101000a900473ffffffffffffffffffffffffffffffffffffffff169050919050565b808061142d5750600073ffffffffffffffffffffffffffffffffffffffff168273ffffffffffffffffffffffffffffffffffffffff1614155b1561156157600061143d84610ae7565b9050600073ffffffffffffffffffffffffffffffffffffffff168373ffffffffffffffffffffffffffffffffffffffff16141580156114a857508273ffffffffffffffffffffffffffffffffffffffff168173ffffffffffffffffffffffffffffffffffffffff1614155b80156114bb57506114b981846108eb565b155b156114fd57826040517fa9fbf51f0000000000000000000000000000000000000000000000000000000081526004016114f49190611c99565b60405180910390fd5b811561155f57838573ffffffffffffffffffffffffffffffffffffffff168273ffffffffffffffffffffffffffffffffffffffff167f8c5be1e5ebec7d5bd14f71427d1e84f3dd0314c0f7b2291e5b200ac8c7c3b92560405160405180910390a45b505b836004600085815260200190815260200160002060006101000a81548173ffffffffffffffffffffffffffffffffffffffff021916908373ffffffffffffffffffffffffffffffffffffffff16021790555050505050565b6115c4838383611767565b61167857600073ffffffffffffffffffffffffffffffffffffffff168373ffffffffffffffffffffffffffffffffffffffff160361163957806040517f7e2732890000000000000000000000000000000000000000000000000000000081526004016116309190611daf565b60405180910390fd5b81816040517f177e802f00000000000000000000000000000000000000000000000000000000815260040161166f9291906125e7565b60405180910390fd5b505050565b60606000600161168c84611828565b01905060008167ffffffffffffffff8111156116ab576116aa611e40565b5b6040519080825280601f01601f1916602001820160405280156116dd5781602001600182028036833780820191505090505b509050600082602001820190505b600115611740578080600190039150507f3031323334353637383961626364656600000000000000000000000000000000600a86061a8153600a858161173457611733612610565b5b049450600085036116eb575b819350505050919050565b611755838361197b565b611762600084848461109c565b505050565b60008073ffffffffffffffffffffffffffffffffffffffff168373ffffffffffffffffffffffffffffffffffffffff161415801561181f57508273ffffffffffffffffffffffffffffffffffffffff168473ffffffffffffffffffffffffffffffffffffffff1614806117e057506117df84846108eb565b5b8061181e57508273ffffffffffffffffffffffffffffffffffffffff1661180683610b6f565b73ffffffffffffffffffffffffffffffffffffffff16145b5b90509392505050565b600080600090507a184f03e93ff9f4daa797ed6e38ed64bf6a1f0100000000000000008310611886577a184f03e93ff9f4daa797ed6e38ed64bf6a1f010000000000000000838161187c5761187b612610565b5b0492506040810190505b6d04ee2d6d415b85acef810000000083106118c3576d04ee2d6d415b85acef810000000083816118b9576118b8612610565b5b0492506020810190505b662386f26fc1000083106118f257662386f26fc1000083816118e8576118e7612610565b5b0492506010810190505b6305f5e100831061191b576305f5e100838161191157611910612610565b5b0492506008810190505b612710831061194057612710838161193657611935612610565b5b0492506004810190505b60648310611963576064838161195957611958612610565b5b0492506002810190505b600a8310611972576001810190505b80915050919050565b600073ffffffffffffffffffffffffffffffffffffffff168273ffffffffffffffffffffffffffffffffffffffff16036119ed5760006040517f64a0ae920000000000000000000000000000000000000000000000000000000081526004016119e49190611c99565b60405180910390fd5b60006119fb83836000610bc6565b9050600073ffffffffffffffffffffffffffffffffffffffff168173ffffffffffffffffffffffffffffffffffffffff1614611a6f5760006040517f73c6ac6e000000000000000000000000000000000000000000000000000000008152600401611a669190611c99565b60405180910390fd5b505050565b6000604051905090565b600080fd5b600080fd5b60007fffffffff0000000000000000000000000000000000000000000000000000000082169050919050565b611abd81611a88565b8114611ac857600080fd5b50565b600081359050611ada81611ab4565b92915050565b600060208284031215611af657611af5611a7e565b5b6000611b0484828501611acb565b91505092915050565b60008115159050919050565b611b2281611b0d565b82525050565b6000602082019050611b3d6000830184611b19565b92915050565b600081519050919050565b600082825260208201905092915050565b60005b83811015611b7d578082015181840152602081019050611b62565b60008484015250505050565b6000601f19601f8301169050919050565b6000611ba582611b43565b611baf8185611b4e565b9350611bbf818560208601611b5f565b611bc881611b89565b840191505092915050565b60006020820190508181036000830152611bed8184611b9a565b905092915050565b6000819050919050565b611c0881611bf5565b8114611c1357600080fd5b50565b600081359050611c2581611bff565b92915050565b600060208284031215611c4157611c40611a7e565b5b6000611c4f84828501611c16565b91505092915050565b600073ffffffffffffffffffffffffffffffffffffffff82169050919050565b6000611c8382611c58565b9050919050565b611c9381611c78565b82525050565b6000602082019050611cae6000830184611c8a565b92915050565b611cbd81611c78565b8114611cc857600080fd5b50565b600081359050611cda81611cb4565b92915050565b60008060408385031215611cf757611cf6611a7e565b5b6000611d0585828601611ccb565b9250506020611d1685828601611c16565b9150509250929050565b600080600060608486031215611d3957611d38611a7e565b5b6000611d4786828701611ccb565b9350506020611d5886828701611ccb565b9250506040611d6986828701611c16565b9150509250925092565b600060208284031215611d8957611d88611a7e565b5b6000611d9784828501611ccb565b91505092915050565b611da981611bf5565b82525050565b6000602082019050611dc46000830184611da0565b92915050565b611dd381611b0d565b8114611dde57600080fd5b50565b600081359050611df081611dca565b92915050565b60008060408385031215611e0d57611e0c611a7e565b5b6000611e1b85828601611ccb565b9250506020611e2c85828601611de1565b9150509250929050565b600080fd5b600080fd5b7f4e487b7100000000000000000000000000000000000000000000000000000000600052604160045260246000fd5b611e7882611b89565b810181811067ffffffffffffffff82111715611e9757611e96611e40565b5b80604052505050565b6000611eaa611a74565b9050611eb68282611e6f565b919050565b600067ffffffffffffffff821115611ed657611ed5611e40565b5b611edf82611b89565b9050602081019050919050565b82818337600083830152505050565b6000611f0e611f0984611ebb565b611ea0565b905082815260208101848484011115611f2a57611f29611e3b565b5b611f35848285611eec565b509392505050565b600082601f830112611f5257611f51611e36565b5b8135611f62848260208601611efb565b91505092915050565b60008060008060808587031215611f8557611f84611a7e565b5b6000611f9387828801611ccb565b9450506020611fa487828801611ccb565b9350506040611fb587828801611c16565b925050606085013567ffffffffffffffff811115611fd657611fd5611a83565b5b611fe287828801611f3d565b91505092959194509250565b600067ffffffffffffffff82111561200957612008611e40565b5b61201282611b89565b9050602081019050919050565b600061203261202d84611fee565b611ea0565b90508281526020810184848401111561204e5761204d611e3b565b5b612059848285611eec565b509392505050565b600082601f83011261207657612075611e36565b5b813561208684826020860161201f565b91505092915050565b6000602082840312156120a5576120a4611a7e565b5b600082013567ffffffffffffffff8111156120c3576120c2611a83565b5b6120cf84828501612061565b91505092915050565b600080604083850312156120ef576120ee611a7e565b5b60006120fd85828601611ccb565b925050602061210e85828601611ccb565b9150509250929050565b7f4e487b7100000000000000000000000000000000000000000000000000000000600052602260045260246000fd5b6000600282049050600182168061215f57607f821691505b60208210810361217257612171612118565b5b50919050565b600060608201905061218d6000830186611c8a565b61219a6020830185611da0565b6121a76040830184611c8a565b949350505050565b600081905092915050565b60006121c582611b43565b6121cf81856121af565b93506121df818560208601611b5f565b80840191505092915050565b60006121f782856121ba565b915061220382846121ba565b91508190509392505050565b7f4e487b7100000000000000000000000000000000000000000000000000000000600052601160045260246000fd5b600061224982611bf5565b91507fffffffffffffffffffffffffffffffffffffffffffffffffffffffffffffffff820361227b5761227a61220f565b5b600182019050919050565b600081519050919050565b600082825260208201905092915050565b60006122ad82612286565b6122b78185612291565b93506122c7818560208601611b5f565b6122d081611b89565b840191505092915050565b60006080820190506122f06000830187611c8a565b6122fd6020830186611c8a565b61230a6040830185611da0565b818103606083015261231c81846122a2565b905095945050505050565b60008151905061233681611ab4565b92915050565b60006020828403121561235257612351611a7e565b5b600061236084828501612327565b91505092915050565b60008190508160005260206000209050919050565b60006020601f8301049050919050565b600082821b905092915050565b6000600883026123cb7fffffffffffffffffffffffffffffffffffffffffffffffffffffffffffffffff8261238e565b6123d5868361238e565b95508019841693508086168417925050509392505050565b6000819050919050565b600061241261240d61240884611bf5565b6123ed565b611bf5565b9050919050565b6000819050919050565b61242c836123f7565b61244061243882612419565b84845461239b565b825550505050565b600090565b612455612448565b612460818484612423565b505050565b5b818110156124845761247960008261244d565b600181019050612466565b5050565b601f8211156124c95761249a81612369565b6124a38461237e565b810160208510156124b2578190505b6124c66124be8561237e565b830182612465565b50505b505050565b600082821c905092915050565b60006124ec600019846008026124ce565b1980831691505092915050565b600061250583836124db565b9150826002028217905092915050565b61251e82611b43565b67ffffffffffffffff81111561253757612536611e40565b5b6125418254612147565b61254c828285612488565b600060209050601f83116001811461257f576000841561256d578287015190505b61257785826124f9565b8655506125df565b601f19841661258d86612369565b60005b828110156125b557848901518255600182019150602085019450602081019050612590565b868310156125d257848901516125ce601f8916826124db565b8355505b6001600288020188555050505b505050505050565b60006040820190506125fc6000830185611c8a565b6126096020830184611da0565b9392505050565b7f4e487b7100000000000000000000000000000000000000000000000000000000600052601260045260246000fdfea26469706673582212203eaec57f0ebf838c7cdd7780a455b3483b2583675392beeaabd20ed64867ca9f64736f6c63430008140033",
  "linkReferences": {},
  "deployedLinkReferences": {}
}