{
  "_format": "hh-sol-artifact-1",
  "contractName": "MyCredsNFT",
  "sourceName": "contracts/MyCredsNFT.sol",
  "abi": [
    {
      "inputs": [],
      "stateMutability": "nonpayable",
      "type": "constructor"
    },
    {
      "inputs": [
        {
          "internalType": "address",
          "name": "sender",
          "type": "address"
        },
        {
          "internalType": "uint256",
          "name": "tokenId",
          "type": "uint256"
        },
        {
          "internalType": "address",
          "name": "owner",
          "type": "address"
        }
      ],
      "name": "ERC721IncorrectOwner",
      "type": "error"
    },
    {
      "inputs": [
        {
          "internalType": "address",
          "name": "operator",
          "type": "address"
        },
        {
          "internalType": "uint256",
          "name": "tokenId",
          "type": "uint256"
        }
      ],
      "name": "ERC721InsufficientApproval",
      "type": "error"
    },
    {
      "inputs": [
        {
          "internalType": "address",
          "name": "approver",
          "type": "address"
        }
      ],
      "name": "ERC721InvalidApprover",
      "type": "error"
    },
    {
      "inputs": [
        {
          "internalType": "address",
          "name": "operator",
          "type": "address"
        }
      ],
      "name": "ERC721InvalidOperator",
      "type": "error"
    },
    {
      "inputs": [
        {
          "internalType": "address",
          "name": "owner",
          "type": "address"
        }
      ],
      "name": "ERC721InvalidOwner",
      "type": "error"
    },
    {
      "inputs": [
        {
          "internalType": "address",
          "name": "receiver",
          "type": "address"
        }
      ],
      "name": "ERC721InvalidReceiver",
      "type": "error"
    },
    {
      "inputs": [
        {
          "internalType": "address",
          "name": "sender",
          "type": "address"
        }
      ],
      "name": "ERC721InvalidSender",
      "type": "error"
    },
    {
      "inputs": [
        {
          "internalType": "uint256",
          "name": "tokenId",
          "type": "uint256"
        }
      ],
      "name": "ERC721NonexistentToken",
      "type": "error"
    },
    {
      "anonymous": false,
      "inputs": [
        {
          "indexed": true,
          "internalType": "address",
          "name": "owner",
          "type": "address"
        },
        {
          "indexed": true,
          "internalType": "address",
          "name": "approved",
          "type": "address"
        },
        {
          "indexed": true,
          "internalType": "uint256",
          "name": "tokenId",
          "type": "uint256"
        }
      ],
      "name": "Approval",
      "type": "event"
    },
    {
      "anonymous": false,
      "inputs": [
        {
          "indexed": true,
          "internalType": "address",
          "name": "owner",
          "type": "address"
        },
        {
          "indexed": true,
          "internalType": "address",
          "name": "operator",
          "type": "address"
        },
        {
          "indexed": false,
          "internalType": "bool",
          "name": "approved",
          "type": "bool"
        }
      ],
      "name": "ApprovalForAll",
      "type": "event"
    },
    {
      "anonymous": false,
      "inputs": [
        {
          "indexed": false,
          "internalType": "uint256",
          "name": "_fromTokenId",
          "type": "uint256"
        },
        {
          "indexed": false,
          "internalType": "uint256",
          "name": "_toTokenId",
          "type": "uint256"
        }
      ],
      "name": "BatchMetadataUpdate",
      "type": "event"
    },
    {
      "anonymous": false,
      "inputs": [
        {
          "indexed": false,
          "internalType": "uint256",
          "name": "_tokenId",
          "type": "uint256"
        }
      ],
      "name": "MetadataUpdate",
      "type": "event"
    },
    {
      "anonymous": false,
      "inputs": [
        {
          "indexed": true,
          "internalType": "uint256",
          "name": "tokenId",
          "type": "uint256"
        },
        {
          "indexed": false,
          "internalType": "string",
          "name": "tokenURI",
          "type": "string"
        },
        {
          "indexed": false,
          "internalType": "string",
          "name": "jsonData",
          "type": "string"
        }
      ],
      "name": "NFTMinted",
      "type": "event"
    },
    {
      "anonymous": false,
      "inputs": [
        {
          "indexed": true,
          "internalType": "address",
          "name": "from",
          "type": "address"
        },
        {
          "indexed": true,
          "internalType": "address",
          "name": "to",
          "type": "address"
        },
        {
          "indexed": true,
          "internalType": "uint256",
          "name": "tokenId",
          "type": "uint256"
        }
      ],
      "name": "Transfer",
      "type": "event"
    },
    {
      "inputs": [
        {
          "internalType": "address",
          "name": "to",
          "type": "address"
        },
        {
          "internalType": "uint256",
          "name": "tokenId",
          "type": "uint256"
        }
      ],
      "name": "approve",
      "outputs": [],
      "stateMutability": "nonpayable",
      "type": "function"
    },
    {
      "inputs": [
        {
          "internalType": "address",
          "name": "owner",
          "type": "address"
        }
      ],
      "name": "balanceOf",
      "outputs": [
        {
          "internalType": "uint256",
          "name": "",
          "type": "uint256"
        }
      ],
      "stateMutability": "view",
      "type": "function"
    },
    {
      "inputs": [
        {
          "internalType": "uint256",
          "name": "tokenId",
          "type": "uint256"
        }
      ],
      "name": "getApproved",
      "outputs": [
        {
          "internalType": "address",
          "name": "",
          "type": "address"
        }
      ],
      "stateMutability": "view",
      "type": "function"
    },
    {
      "inputs": [
        {
          "internalType": "uint256",
          "name": "_tokenId",
          "type": "uint256"
        }
      ],
      "name": "getTokenJsonData",
      "outputs": [
        {
          "internalType": "string",
          "name": "",
          "type": "string"
        }
      ],
      "stateMutability": "view",
      "type": "function"
    },
    {
      "inputs": [
        {
          "internalType": "address",
          "name": "owner",
          "type": "address"
        },
        {
          "internalType": "address",
          "name": "operator",
          "type": "address"
        }
      ],
      "name": "isApprovedForAll",
      "outputs": [
        {
          "internalType": "bool",
          "name": "",
          "type": "bool"
        }
      ],
      "stateMutability": "view",
      "type": "function"
    },
    {
      "inputs": [
        {
          "internalType": "uint256",
          "name": "_tokenId",
          "type": "uint256"
        },
        {
          "internalType": "string",
          "name": "_tokenURI",
          "type": "string"
        },
        {
          "internalType": "string",
          "name": "_jsonData",
          "type": "string"
        }
      ],
      "name": "mint",
      "outputs": [],
      "stateMutability": "nonpayable",
      "type": "function"
    },
    {
      "inputs": [],
      "name": "name",
      "outputs": [
        {
          "internalType": "string",
          "name": "",
          "type": "string"
        }
      ],
      "stateMutability": "view",
      "type": "function"
    },
    {
      "inputs": [],
      "name": "nextTokenId",
      "outputs": [
        {
          "internalType": "uint256",
          "name": "",
          "type": "uint256"
        }
      ],
      "stateMutability": "view",
      "type": "function"
    },
    {
      "inputs": [
        {
          "internalType": "uint256",
          "name": "tokenId",
          "type": "uint256"
        }
      ],
      "name": "ownerOf",
      "outputs": [
        {
          "internalType": "address",
          "name": "",
          "type": "address"
        }
      ],
      "stateMutability": "view",
      "type": "function"
    },
    {
      "inputs": [
        {
          "internalType": "address",
          "name": "from",
          "type": "address"
        },
        {
          "internalType": "address",
          "name": "to",
          "type": "address"
        },
        {
          "internalType": "uint256",
          "name": "tokenId",
          "type": "uint256"
        }
      ],
      "name": "safeTransferFrom",
      "outputs": [],
      "stateMutability": "nonpayable",
      "type": "function"
    },
    {
      "inputs": [
        {
          "internalType": "address",
          "name": "from",
          "type": "address"
        },
        {
          "internalType": "address",
          "name": "to",
          "type": "address"
        },
        {
          "internalType": "uint256",
          "name": "tokenId",
          "type": "uint256"
        },
        {
          "internalType": "bytes",
          "name": "data",
          "type": "bytes"
        }
      ],
      "name": "safeTransferFrom",
      "outputs": [],
      "stateMutability": "nonpayable",
      "type": "function"
    },
    {
      "inputs": [
        {
          "internalType": "address",
          "name": "operator",
          "type": "address"
        },
        {
          "internalType": "bool",
          "name": "approved",
          "type": "bool"
        }
      ],
      "name": "setApprovalForAll",
      "outputs": [],
      "stateMutability": "nonpayable",
      "type": "function"
    },
    {
      "inputs": [
        {
          "internalType": "bytes4",
          "name": "interfaceId",
          "type": "bytes4"
        }
      ],
      "name": "supportsInterface",
      "outputs": [
        {
          "internalType": "bool",
          "name": "",
          "type": "bool"
        }
      ],
      "stateMutability": "view",
      "type": "function"
    },
    {
      "inputs": [],
      "name": "symbol",
      "outputs": [
        {
          "internalType": "string",
          "name": "",
          "type": "string"
        }
      ],
      "stateMutability": "view",
      "type": "function"
    },
    {
      "inputs": [
        {
          "internalType": "uint256",
          "name": "",
          "type": "uint256"
        }
      ],
      "name": "tokenJsonData",
      "outputs": [
        {
          "internalType": "string",
          "name": "",
          "type": "string"
        }
      ],
      "stateMutability": "view",
      "type": "function"
    },
    {
      "inputs": [
        {
          "internalType": "uint256",
          "name": "tokenId",
          "type": "uint256"
        }
      ],
      "name": "tokenURI",
      "outputs": [
        {
          "internalType": "string",
          "name": "",
          "type": "string"
        }
      ],
      "stateMutability": "view",
      "type": "function"
    },
    {
      "inputs": [
        {
          "internalType": "address",
          "name": "from",
          "type": "address"
        },
        {
          "internalType": "address",
          "name": "to",
          "type": "address"
        },
        {
          "internalType": "uint256",
          "name": "tokenId",
          "type": "uint256"
        }
      ],
      "name": "transferFrom",
      "outputs": [],
      "stateMutability": "nonpayable",
      "type": "function"
    }
  ],
  "bytecode": "0x60806040523480156200001157600080fd5b506040518060400160405280600a81526020017f4d7943726564734e4654000000000000000000000000000000000000000000008152506040518060400160405280600481526020017f4d4e46540000000000000000000000000000000000000000000000000000000081525081600090816200008f919062000324565b508060019081620000a1919062000324565b5050506200040b565b600081519050919050565b7f4e487b7100000000000000000000000000000000000000000000000000000000600052604160045260246000fd5b7f4e487b7100000000000000000000000000000000000000000000000000000000600052602260045260246000fd5b600060028204905060018216806200012c57607f821691505b602082108103620001425762000141620000e4565b5b50919050565b60008190508160005260206000209050919050565b60006020601f8301049050919050565b600082821b905092915050565b600060088302620001ac7fffffffffffffffffffffffffffffffffffffffffffffffffffffffffffffffff826200016d565b620001b886836200016d565b95508019841693508086168417925050509392505050565b6000819050919050565b6000819050919050565b600062000205620001ff620001f984620001d0565b620001da565b620001d0565b9050919050565b6000819050919050565b6200022183620001e4565b6200023962000230826200020c565b8484546200017a565b825550505050565b600090565b6200025062000241565b6200025d81848462000216565b505050565b5b8181101562000285576200027960008262000246565b60018101905062000263565b5050565b601f821115620002d4576200029e8162000148565b620002a9846200015d565b81016020851015620002b9578190505b620002d1620002c8856200015d565b83018262000262565b50505b505050565b600082821c905092915050565b6000620002f960001984600802620002d9565b1980831691505092915050565b6000620003148383620002e6565b9150826002028217905092915050565b6200032f82620000aa565b67ffffffffffffffff8111156200034b576200034a620000b5565b5b62000357825462000113565b6200036482828562000289565b600060209050601f8311600181146200039c576000841562000387578287015190505b62000393858262000306565b86555062000403565b601f198416620003ac8662000148565b60005b82811015620003d657848901518255600182019150602085019450602081019050620003af565b86831015620003f65784890151620003f2601f891682620002e6565b8355505b6001600288020188555050505b505050505050565b6125ff806200041b6000396000f3fe608060405234801561001057600080fd5b506004361061010b5760003560e01c806370a08231116100a2578063a22cb46511610071578063a22cb465146102ca578063ae74a09e146102e6578063b88d4fde14610316578063c87b56dd14610332578063e985e9c5146103625761010b565b806370a082311461022e57806375794a3c1461025e57806395d89b411461027c5780639a9d1b1d1461029a5761010b565b806323b872dd116100de57806323b872dd146101aa5780632825df7b146101c657806342842e0e146101e25780636352211e146101fe5761010b565b806301ffc9a71461011057806306fdde0314610140578063081812fc1461015e578063095ea7b31461018e575b600080fd5b61012a60048036038101906101259190611a68565b610392565b6040516101379190611ab0565b60405180910390f35b6101486103f3565b6040516101559190611b5b565b60405180910390f35b61017860048036038101906101739190611bb3565b610485565b6040516101859190611c21565b60405180910390f35b6101a860048036038101906101a39190611c68565b6104a1565b005b6101c460048036038101906101bf9190611ca8565b6104b7565b005b6101e060048036038101906101db9190611e30565b6105b9565b005b6101fc60048036038101906101f79190611ca8565b610637565b005b61021860048036038101906102139190611bb3565b610657565b6040516102259190611c21565b60405180910390f35b61024860048036038101906102439190611ebb565b610669565b6040516102559190611ef7565b60405180910390f35b610266610723565b6040516102739190611ef7565b60405180910390f35b610284610729565b6040516102919190611b5b565b60405180910390f35b6102b460048036038101906102af9190611bb3565b6107bb565b6040516102c19190611b5b565b60405180910390f35b6102e460048036038101906102df9190611f3e565b610860565b005b61030060048036038101906102fb9190611bb3565b610876565b60405161030d9190611b5b565b60405180910390f35b610330600480360381019061032b919061201f565b610916565b005b61034c60048036038101906103479190611bb3565b610933565b6040516103599190611b5b565b60405180910390f35b61037c600480360381019061037791906120a2565b610a46565b6040516103899190611ab0565b60405180910390f35b6000634906490660e01b7bffffffffffffffffffffffffffffffffffffffffffffffffffffffff1916827bffffffffffffffffffffffffffffffffffffffffffffffffffffffff191614806103ec57506103eb82610ada565b5b9050919050565b60606000805461040290612111565b80601f016020809104026020016040519081016040528092919081815260200182805461042e90612111565b801561047b5780601f106104505761010080835404028352916020019161047b565b820191906000526020600020905b81548152906001019060200180831161045e57829003601f168201915b5050505050905090565b600061049082610bbc565b5061049a82610c44565b9050919050565b6104b382826104ae610c81565b610c89565b5050565b600073ffffffffffffffffffffffffffffffffffffffff168273ffffffffffffffffffffffffffffffffffffffff16036105295760006040517f64a0ae920000000000000000000000000000000000000000000000000000000081526004016105209190611c21565b60405180910390fd5b600061053d8383610538610c81565b610c9b565b90508373ffffffffffffffffffffffffffffffffffffffff168173ffffffffffffffffffffffffffffffffffffffff16146105b3578382826040517f64283d7b0000000000000000000000000000000000000000000000000000000081526004016105aa93929190612142565b60405180910390fd5b50505050565b6105c33384610eb5565b6105cd8383610ed3565b806008600085815260200190815260200160002090816105ed9190612325565b50827f41606caf4dd304a95df0764afbcc8afb210bf0a49b44e7b00d5f913400c88d3883836040516106209291906123f7565b60405180910390a2610631836107bb565b50505050565b61065283838360405180602001604052806000815250610916565b505050565b600061066282610bbc565b9050919050565b60008073ffffffffffffffffffffffffffffffffffffffff168273ffffffffffffffffffffffffffffffffffffffff16036106dc5760006040517f89c62b640000000000000000000000000000000000000000000000000000000081526004016106d39190611c21565b60405180910390fd5b600360008373ffffffffffffffffffffffffffffffffffffffff1673ffffffffffffffffffffffffffffffffffffffff168152602001908152602001600020549050919050565b60075481565b60606001805461073890612111565b80601f016020809104026020016040519081016040528092919081815260200182805461076490612111565b80156107b15780601f10610786576101008083540402835291602001916107b1565b820191906000526020600020905b81548152906001019060200180831161079457829003601f168201915b5050505050905090565b60606008600083815260200190815260200160002080546107db90612111565b80601f016020809104026020016040519081016040528092919081815260200182805461080790612111565b80156108545780601f1061082957610100808354040283529160200191610854565b820191906000526020600020905b81548152906001019060200180831161083757829003601f168201915b50505050509050919050565b61087261086b610c81565b8383610f2f565b5050565b6008602052806000526040600020600091509050805461089590612111565b80601f01602080910402602001604051908101604052809291908181526020018280546108c190612111565b801561090e5780601f106108e35761010080835404028352916020019161090e565b820191906000526020600020905b8154815290600101906020018083116108f157829003601f168201915b505050505081565b6109218484846104b7565b61092d8484848461109e565b50505050565b606061093e82610bbc565b50600060066000848152602001908152602001600020805461095f90612111565b80601f016020809104026020016040519081016040528092919081815260200182805461098b90612111565b80156109d85780601f106109ad576101008083540402835291602001916109d8565b820191906000526020600020905b8154815290600101906020018083116109bb57829003601f168201915b5050505050905060006109e9611255565b905060008151036109fe578192505050610a41565b600082511115610a33578082604051602001610a1b92919061246a565b60405160208183030381529060405292505050610a41565b610a3c8461126c565b925050505b919050565b6000600560008473ffffffffffffffffffffffffffffffffffffffff1673ffffffffffffffffffffffffffffffffffffffff16815260200190815260200160002060008373ffffffffffffffffffffffffffffffffffffffff1673ffffffffffffffffffffffffffffffffffffffff16815260200190815260200160002060009054906101000a900460ff16905092915050565b60007f80ac58cd000000000000000000000000000000000000000000000000000000007bffffffffffffffffffffffffffffffffffffffffffffffffffffffff1916827bffffffffffffffffffffffffffffffffffffffffffffffffffffffff19161480610ba557507f5b5e139f000000000000000000000000000000000000000000000000000000007bffffffffffffffffffffffffffffffffffffffffffffffffffffffff1916827bffffffffffffffffffffffffffffffffffffffffffffffffffffffff1916145b80610bb55750610bb4826112d5565b5b9050919050565b600080610bc88361133f565b9050600073ffffffffffffffffffffffffffffffffffffffff168173ffffffffffffffffffffffffffffffffffffffff1603610c3b57826040517f7e273289000000000000000000000000000000000000000000000000000000008152600401610c329190611ef7565b60405180910390fd5b80915050919050565b60006004600083815260200190815260200160002060009054906101000a900473ffffffffffffffffffffffffffffffffffffffff169050919050565b600033905090565b610c96838383600161137c565b505050565b600080610ca78461133f565b9050600073ffffffffffffffffffffffffffffffffffffffff168373ffffffffffffffffffffffffffffffffffffffff1614610ce957610ce8818486611541565b5b600073ffffffffffffffffffffffffffffffffffffffff168173ffffffffffffffffffffffffffffffffffffffff1614610d7a57610d2b60008560008061137c565b6001600360008373ffffffffffffffffffffffffffffffffffffffff1673ffffffffffffffffffffffffffffffffffffffff168152602001908152602001600020600082825403925050819055505b600073ffffffffffffffffffffffffffffffffffffffff168573ffffffffffffffffffffffffffffffffffffffff1614610dfd576001600360008773ffffffffffffffffffffffffffffffffffffffff1673ffffffffffffffffffffffffffffffffffffffff168152602001908152602001600020600082825401925050819055505b846002600086815260200190815260200160002060006101000a81548173ffffffffffffffffffffffffffffffffffffffff021916908373ffffffffffffffffffffffffffffffffffffffff160217905550838573ffffffffffffffffffffffffffffffffffffffff168273ffffffffffffffffffffffffffffffffffffffff167fddf252ad1be2c89b69c2b068fc378daa952ba7f163c4a11628f55a4df523b3ef60405160405180910390a4809150509392505050565b610ecf828260405180602001604052806000815250611605565b5050565b80600660008481526020019081526020016000209081610ef39190612325565b507ff8e1a15aba9398e019f0b49df1a4fde98ee17ae345cb5f6b5e2c27f5033e8ce782604051610f239190611ef7565b60405180910390a15050565b600073ffffffffffffffffffffffffffffffffffffffff168273ffffffffffffffffffffffffffffffffffffffff1603610fa057816040517f5b08ba18000000000000000000000000000000000000000000000000000000008152600401610f979190611c21565b60405180910390fd5b80600560008573ffffffffffffffffffffffffffffffffffffffff1673ffffffffffffffffffffffffffffffffffffffff16815260200190815260200160002060008473ffffffffffffffffffffffffffffffffffffffff1673ffffffffffffffffffffffffffffffffffffffff16815260200190815260200160002060006101000a81548160ff0219169083151502179055508173ffffffffffffffffffffffffffffffffffffffff168373ffffffffffffffffffffffffffffffffffffffff167f17307eab39ab6107e8899845ad3d59bd9653f200f220920489ca2b5937696c31836040516110919190611ab0565b60405180910390a3505050565b60008373ffffffffffffffffffffffffffffffffffffffff163b111561124f578273ffffffffffffffffffffffffffffffffffffffff1663150b7a026110e2610c81565b8685856040518563ffffffff1660e01b815260040161110494939291906124e3565b6020604051808303816000875af192505050801561114057506040513d601f19601f8201168201806040525081019061113d9190612544565b60015b6111c4573d8060008114611170576040519150601f19603f3d011682016040523d82523d6000602084013e611175565b606091505b5060008151036111bc57836040517f64a0ae920000000000000000000000000000000000000000000000000000000081526004016111b39190611c21565b60405180910390fd5b805181602001fd5b63150b7a0260e01b7bffffffffffffffffffffffffffffffffffffffffffffffffffffffff1916817bffffffffffffffffffffffffffffffffffffffffffffffffffffffff19161461124d57836040517f64a0ae920000000000000000000000000000000000000000000000000000000081526004016112449190611c21565b60405180910390fd5b505b50505050565b606060405180602001604052806000815250905090565b606061127782610bbc565b506000611282611255565b905060008151116112a257604051806020016040528060008152506112cd565b806112ac84611621565b6040516020016112bd92919061246a565b6040516020818303038152906040525b915050919050565b60007f01ffc9a7000000000000000000000000000000000000000000000000000000007bffffffffffffffffffffffffffffffffffffffffffffffffffffffff1916827bffffffffffffffffffffffffffffffffffffffffffffffffffffffff1916149050919050565b60006002600083815260200190815260200160002060009054906101000a900473ffffffffffffffffffffffffffffffffffffffff169050919050565b80806113b55750600073ffffffffffffffffffffffffffffffffffffffff168273ffffffffffffffffffffffffffffffffffffffff1614155b156114e95760006113c584610bbc565b9050600073ffffffffffffffffffffffffffffffffffffffff168373ffffffffffffffffffffffffffffffffffffffff161415801561143057508273ffffffffffffffffffffffffffffffffffffffff168173ffffffffffffffffffffffffffffffffffffffff1614155b801561144357506114418184610a46565b155b1561148557826040517fa9fbf51f00000000000000000000000000000000000000000000000000000000815260040161147c9190611c21565b60405180910390fd5b81156114e757838573ffffffffffffffffffffffffffffffffffffffff168273ffffffffffffffffffffffffffffffffffffffff167f8c5be1e5ebec7d5bd14f71427d1e84f3dd0314c0f7b2291e5b200ac8c7c3b92560405160405180910390a45b505b836004600085815260200190815260200160002060006101000a81548173ffffffffffffffffffffffffffffffffffffffff021916908373ffffffffffffffffffffffffffffffffffffffff16021790555050505050565b61154c8383836116ef565b61160057600073ffffffffffffffffffffffffffffffffffffffff168373ffffffffffffffffffffffffffffffffffffffff16036115c157806040517f7e2732890000000000000000000000000000000000000000000000000000000081526004016115b89190611ef7565b60405180910390fd5b81816040517f177e802f0000000000000000000000000000000000000000000000000000000081526004016115f7929190612571565b60405180910390fd5b505050565b61160f83836117b0565b61161c600084848461109e565b505050565b606060006001611630846118a9565b01905060008167ffffffffffffffff81111561164f5761164e611d05565b5b6040519080825280601f01601f1916602001820160405280156116815781602001600182028036833780820191505090505b509050600082602001820190505b6001156116e4578080600190039150507f3031323334353637383961626364656600000000000000000000000000000000600a86061a8153600a85816116d8576116d761259a565b5b0494506000850361168f575b819350505050919050565b60008073ffffffffffffffffffffffffffffffffffffffff168373ffffffffffffffffffffffffffffffffffffffff16141580156117a757508273ffffffffffffffffffffffffffffffffffffffff168473ffffffffffffffffffffffffffffffffffffffff16148061176857506117678484610a46565b5b806117a657508273ffffffffffffffffffffffffffffffffffffffff1661178e83610c44565b73ffffffffffffffffffffffffffffffffffffffff16145b5b90509392505050565b600073ffffffffffffffffffffffffffffffffffffffff168273ffffffffffffffffffffffffffffffffffffffff16036118225760006040517f64a0ae920000000000000000000000000000000000000000000000000000000081526004016118199190611c21565b60405180910390fd5b600061183083836000610c9b565b9050600073ffffffffffffffffffffffffffffffffffffffff168173ffffffffffffffffffffffffffffffffffffffff16146118a45760006040517f73c6ac6e00000000000000000000000000000000000000000000000000000000815260040161189b9190611c21565b60405180910390fd5b505050565b600080600090507a184f03e93ff9f4daa797ed6e38ed64bf6a1f0100000000000000008310611907577a184f03e93ff9f4daa797ed6e38ed64bf6a1f01000000000000000083816118fd576118fc61259a565b5b0492506040810190505b6d04ee2d6d415b85acef81000000008310611944576d04ee2d6d415b85acef8100000000838161193a5761193961259a565b5b0492506020810190505b662386f26fc10000831061197357662386f26fc1000083816119695761196861259a565b5b0492506010810190505b6305f5e100831061199c576305f5e10083816119925761199161259a565b5b0492506008810190505b61271083106119c15761271083816119b7576119b661259a565b5b0492506004810190505b606483106119e457606483816119da576119d961259a565b5b0492506002810190505b600a83106119f3576001810190505b80915050919050565b6000604051905090565b600080fd5b600080fd5b60007fffffffff0000000000000000000000000000000000000000000000000000000082169050919050565b611a4581611a10565b8114611a5057600080fd5b50565b600081359050611a6281611a3c565b92915050565b600060208284031215611a7e57611a7d611a06565b5b6000611a8c84828501611a53565b91505092915050565b60008115159050919050565b611aaa81611a95565b82525050565b6000602082019050611ac56000830184611aa1565b92915050565b600081519050919050565b600082825260208201905092915050565b60005b83811015611b05578082015181840152602081019050611aea565b60008484015250505050565b6000601f19601f8301169050919050565b6000611b2d82611acb565b611b378185611ad6565b9350611b47818560208601611ae7565b611b5081611b11565b840191505092915050565b60006020820190508181036000830152611b758184611b22565b905092915050565b6000819050919050565b611b9081611b7d565b8114611b9b57600080fd5b50565b600081359050611bad81611b87565b92915050565b600060208284031215611bc957611bc8611a06565b5b6000611bd784828501611b9e565b91505092915050565b600073ffffffffffffffffffffffffffffffffffffffff82169050919050565b6000611c0b82611be0565b9050919050565b611c1b81611c00565b82525050565b6000602082019050611c366000830184611c12565b92915050565b611c4581611c00565b8114611c5057600080fd5b50565b600081359050611c6281611c3c565b92915050565b60008060408385031215611c7f57611c7e611a06565b5b6000611c8d85828601611c53565b9250506020611c9e85828601611b9e565b9150509250929050565b600080600060608486031215611cc157611cc0611a06565b5b6000611ccf86828701611c53565b9350506020611ce086828701611c53565b9250506040611cf186828701611b9e565b9150509250925092565b600080fd5b600080fd5b7f4e487b7100000000000000000000000000000000000000000000000000000000600052604160045260246000fd5b611d3d82611b11565b810181811067ffffffffffffffff82111715611d5c57611d5b611d05565b5b80604052505050565b6000611d6f6119fc565b9050611d7b8282611d34565b919050565b600067ffffffffffffffff821115611d9b57611d9a611d05565b5b611da482611b11565b9050602081019050919050565b82818337600083830152505050565b6000611dd3611dce84611d80565b611d65565b905082815260208101848484011115611def57611dee611d00565b5b611dfa848285611db1565b509392505050565b600082601f830112611e1757611e16611cfb565b5b8135611e27848260208601611dc0565b91505092915050565b600080600060608486031215611e4957611e48611a06565b5b6000611e5786828701611b9e565b935050602084013567ffffffffffffffff811115611e7857611e77611a0b565b5b611e8486828701611e02565b925050604084013567ffffffffffffffff811115611ea557611ea4611a0b565b5b611eb186828701611e02565b9150509250925092565b600060208284031215611ed157611ed0611a06565b5b6000611edf84828501611c53565b91505092915050565b611ef181611b7d565b82525050565b6000602082019050611f0c6000830184611ee8565b92915050565b611f1b81611a95565b8114611f2657600080fd5b50565b600081359050611f3881611f12565b92915050565b60008060408385031215611f5557611f54611a06565b5b6000611f6385828601611c53565b9250506020611f7485828601611f29565b9150509250929050565b600067ffffffffffffffff821115611f9957611f98611d05565b5b611fa282611b11565b9050602081019050919050565b6000611fc2611fbd84611f7e565b611d65565b905082815260208101848484011115611fde57611fdd611d00565b5b611fe9848285611db1565b509392505050565b600082601f83011261200657612005611cfb565b5b8135612016848260208601611faf565b91505092915050565b6000806000806080858703121561203957612038611a06565b5b600061204787828801611c53565b945050602061205887828801611c53565b935050604061206987828801611b9e565b925050606085013567ffffffffffffffff81111561208a57612089611a0b565b5b61209687828801611ff1565b91505092959194509250565b600080604083850312156120b9576120b8611a06565b5b60006120c785828601611c53565b92505060206120d885828601611c53565b9150509250929050565b7f4e487b7100000000000000000000000000000000000000000000000000000000600052602260045260246000fd5b6000600282049050600182168061212957607f821691505b60208210810361213c5761213b6120e2565b5b50919050565b60006060820190506121576000830186611c12565b6121646020830185611ee8565b6121716040830184611c12565b949350505050565b60008190508160005260206000209050919050565b60006020601f8301049050919050565b600082821b905092915050565b6000600883026121db7fffffffffffffffffffffffffffffffffffffffffffffffffffffffffffffffff8261219e565b6121e5868361219e565b95508019841693508086168417925050509392505050565b6000819050919050565b600061222261221d61221884611b7d565b6121fd565b611b7d565b9050919050565b6000819050919050565b61223c83612207565b61225061224882612229565b8484546121ab565b825550505050565b600090565b612265612258565b612270818484612233565b505050565b5b818110156122945761228960008261225d565b600181019050612276565b5050565b601f8211156122d9576122aa81612179565b6122b38461218e565b810160208510156122c2578190505b6122d66122ce8561218e565b830182612275565b50505b505050565b600082821c905092915050565b60006122fc600019846008026122de565b1980831691505092915050565b600061231583836122eb565b9150826002028217905092915050565b61232e82611acb565b67ffffffffffffffff81111561234757612346611d05565b5b6123518254612111565b61235c828285612298565b600060209050601f83116001811461238f576000841561237d578287015190505b6123878582612309565b8655506123ef565b601f19841661239d86612179565b60005b828110156123c5578489015182556001820191506020850194506020810190506123a0565b868310156123e257848901516123de601f8916826122eb565b8355505b6001600288020188555050505b505050505050565b600060408201905081810360008301526124118185611b22565b905081810360208301526124258184611b22565b90509392505050565b600081905092915050565b600061244482611acb565b61244e818561242e565b935061245e818560208601611ae7565b80840191505092915050565b60006124768285612439565b91506124828284612439565b91508190509392505050565b600081519050919050565b600082825260208201905092915050565b60006124b58261248e565b6124bf8185612499565b93506124cf818560208601611ae7565b6124d881611b11565b840191505092915050565b60006080820190506124f86000830187611c12565b6125056020830186611c12565b6125126040830185611ee8565b818103606083015261252481846124aa565b905095945050505050565b60008151905061253e81611a3c565b92915050565b60006020828403121561255a57612559611a06565b5b60006125688482850161252f565b91505092915050565b60006040820190506125866000830185611c12565b6125936020830184611ee8565b9392505050565b7f4e487b7100000000000000000000000000000000000000000000000000000000600052601260045260246000fdfea26469706673582212209d862ed45074326c5ad35df3739e0cf8a5ce36d216ca0f9117c93bb39e298f7164736f6c63430008140033",
  "linkReferences": {},
  "deployedLinkReferences": {}
}